{
	"data": {
		"bytecode": {
			"linkReferences": {},
			"object": "60806040523480156200001157600080fd5b5060405162000a1638038062000a168339818101604052810190620000379190620002bf565b8260008190555081600160006101000a81548160ff02191690831515021790555080600290816200006991906200057b565b5033600360006101000a81548173ffffffffffffffffffffffffffffffffffffffff021916908373ffffffffffffffffffffffffffffffffffffffff16021790555050505062000662565b6000604051905090565b600080fd5b600080fd5b6000819050919050565b620000dd81620000c8565b8114620000e957600080fd5b50565b600081519050620000fd81620000d2565b92915050565b60008115159050919050565b6200011a8162000103565b81146200012657600080fd5b50565b6000815190506200013a816200010f565b92915050565b600080fd5b600080fd5b6000601f19601f8301169050919050565b7f4e487b7100000000000000000000000000000000000000000000000000000000600052604160045260246000fd5b62000195826200014a565b810181811067ffffffffffffffff82111715620001b757620001b66200015b565b5b80604052505050565b6000620001cc620000b4565b9050620001da82826200018a565b919050565b600067ffffffffffffffff821115620001fd57620001fc6200015b565b5b62000208826200014a565b9050602081019050919050565b60005b838110156200023557808201518184015260208101905062000218565b60008484015250505050565b6000620002586200025284620001df565b620001c0565b90508281526020810184848401111562000277576200027662000145565b5b6200028484828562000215565b509392505050565b600082601f830112620002a457620002a362000140565b5b8151620002b684826020860162000241565b91505092915050565b600080600060608486031215620002db57620002da620000be565b5b6000620002eb86828701620000ec565b9350506020620002fe8682870162000129565b925050604084015167ffffffffffffffff811115620003225762000321620000c3565b5b62000330868287016200028c565b9150509250925092565b600081519050919050565b7f4e487b7100000000000000000000000000000000000000000000000000000000600052602260045260246000fd5b600060028204905060018216806200038d57607f821691505b602082108103620003a357620003a262000345565b5b50919050565b60008190508160005260206000209050919050565b60006020601f8301049050919050565b600082821b905092915050565b6000600883026200040d7fffffffffffffffffffffffffffffffffffffffffffffffffffffffffffffffff82620003ce565b620004198683620003ce565b95508019841693508086168417925050509392505050565b6000819050919050565b60006200045c620004566200045084620000c8565b62000431565b620000c8565b9050919050565b6000819050919050565b62000478836200043b565b62000490620004878262000463565b848454620003db565b825550505050565b600090565b620004a762000498565b620004b48184846200046d565b505050565b5b81811015620004dc57620004d06000826200049d565b600181019050620004ba565b5050565b601f8211156200052b57620004f581620003a9565b6200050084620003be565b8101602085101562000510578190505b620005286200051f85620003be565b830182620004b9565b50505b505050565b600082821c905092915050565b6000620005506000198460080262000530565b1980831691505092915050565b60006200056b83836200053d565b9150826002028217905092915050565b62000586826200033a565b67ffffffffffffffff811115620005a257620005a16200015b565b5b620005ae825462000374565b620005bb828285620004e0565b600060209050601f831160018114620005f35760008415620005de578287015190505b620005ea85826200055d565b8655506200065a565b601f1984166200060386620003a9565b60005b828110156200062d5784890151825560018201915060208501945060208101905062000606565b868310156200064d578489015162000649601f8916826200053d565b8355505b6001600288020188555050505b505050505050565b6103a480620006726000396000f3fe608060405234801561001057600080fd5b506004361061004c5760003560e01c806306fdde0314610051578063099aea0a1461006f5780633f83ea3b1461008d578063521eb273146100ab575b600080fd5b6100596100c9565b6040516100669190610226565b60405180910390f35b610077610157565b6040516100849190610263565b60405180910390f35b61009561016a565b6040516100a29190610297565b60405180910390f35b6100b3610170565b6040516100c091906102f3565b60405180910390f35b600280546100d69061033d565b80601f01602080910402602001604051908101604052809291908181526020018280546101029061033d565b801561014f5780601f106101245761010080835404028352916020019161014f565b820191906000526020600020905b81548152906001019060200180831161013257829003601f168201915b505050505081565b600160009054906101000a900460ff1681565b60005481565b600360009054906101000a900473ffffffffffffffffffffffffffffffffffffffff1681565b600081519050919050565b600082825260208201905092915050565b60005b838110156101d05780820151818401526020810190506101b5565b60008484015250505050565b6000601f19601f8301169050919050565b60006101f882610196565b61020281856101a1565b93506102128185602086016101b2565b61021b816101dc565b840191505092915050565b6000602082019050818103600083015261024081846101ed565b905092915050565b60008115159050919050565b61025d81610248565b82525050565b60006020820190506102786000830184610254565b92915050565b6000819050919050565b6102918161027e565b82525050565b60006020820190506102ac6000830184610288565b92915050565b600073ffffffffffffffffffffffffffffffffffffffff82169050919050565b60006102dd826102b2565b9050919050565b6102ed816102d2565b82525050565b600060208201905061030860008301846102e4565b92915050565b7f4e487b7100000000000000000000000000000000000000000000000000000000600052602260045260246000fd5b6000600282049050600182168061035557607f821691505b6020821081036103685761036761030e565b5b5091905056fea2646970667358221220efaa29e6fc992170a821feda218c7a477a7a9563cbc95805168db012ed6c212b64736f6c63430008120033",
			"opcodes": "PUSH1 0x80 PUSH1 0x40 MSTORE CALLVALUE DUP1 ISZERO PUSH3 0x11 JUMPI PUSH1 0x0 DUP1 REVERT JUMPDEST POP PUSH1 0x40 MLOAD PUSH3 0xA16 CODESIZE SUB DUP1 PUSH3 0xA16 DUP4 CODECOPY DUP2 DUP2 ADD PUSH1 0x40 MSTORE DUP2 ADD SWAP1 PUSH3 0x37 SWAP2 SWAP1 PUSH3 0x2BF JUMP JUMPDEST DUP3 PUSH1 0x0 DUP2 SWAP1 SSTORE POP DUP2 PUSH1 0x1 PUSH1 0x0 PUSH2 0x100 EXP DUP2 SLOAD DUP2 PUSH1 0xFF MUL NOT AND SWAP1 DUP4 ISZERO ISZERO MUL OR SWAP1 SSTORE POP DUP1 PUSH1 0x2 SWAP1 DUP2 PUSH3 0x69 SWAP2 SWAP1 PUSH3 0x57B JUMP JUMPDEST POP CALLER PUSH1 0x3 PUSH1 0x0 PUSH2 0x100 EXP DUP2 SLOAD DUP2 PUSH20 0xFFFFFFFFFFFFFFFFFFFFFFFFFFFFFFFFFFFFFFFF MUL NOT AND SWAP1 DUP4 PUSH20 0xFFFFFFFFFFFFFFFFFFFFFFFFFFFFFFFFFFFFFFFF AND MUL OR SWAP1 SSTORE POP POP POP POP PUSH3 0x662 JUMP JUMPDEST PUSH1 0x0 PUSH1 0x40 MLOAD SWAP1 POP SWAP1 JUMP JUMPDEST PUSH1 0x0 DUP1 REVERT JUMPDEST PUSH1 0x0 DUP1 REVERT JUMPDEST PUSH1 0x0 DUP2 SWAP1 POP SWAP2 SWAP1 POP JUMP JUMPDEST PUSH3 0xDD DUP2 PUSH3 0xC8 JUMP JUMPDEST DUP2 EQ PUSH3 0xE9 JUMPI PUSH1 0x0 DUP1 REVERT JUMPDEST POP JUMP JUMPDEST PUSH1 0x0 DUP2 MLOAD SWAP1 POP PUSH3 0xFD DUP2 PUSH3 0xD2 JUMP JUMPDEST SWAP3 SWAP2 POP POP JUMP JUMPDEST PUSH1 0x0 DUP2 ISZERO ISZERO SWAP1 POP SWAP2 SWAP1 POP JUMP JUMPDEST PUSH3 0x11A DUP2 PUSH3 0x103 JUMP JUMPDEST DUP2 EQ PUSH3 0x126 JUMPI PUSH1 0x0 DUP1 REVERT JUMPDEST POP JUMP JUMPDEST PUSH1 0x0 DUP2 MLOAD SWAP1 POP PUSH3 0x13A DUP2 PUSH3 0x10F JUMP JUMPDEST SWAP3 SWAP2 POP POP JUMP JUMPDEST PUSH1 0x0 DUP1 REVERT JUMPDEST PUSH1 0x0 DUP1 REVERT JUMPDEST PUSH1 0x0 PUSH1 0x1F NOT PUSH1 0x1F DUP4 ADD AND SWAP1 POP SWAP2 SWAP1 POP JUMP JUMPDEST PUSH32 0x4E487B7100000000000000000000000000000000000000000000000000000000 PUSH1 0x0 MSTORE PUSH1 0x41 PUSH1 0x4 MSTORE PUSH1 0x24 PUSH1 0x0 REVERT JUMPDEST PUSH3 0x195 DUP3 PUSH3 0x14A JUMP JUMPDEST DUP2 ADD DUP2 DUP2 LT PUSH8 0xFFFFFFFFFFFFFFFF DUP3 GT OR ISZERO PUSH3 0x1B7 JUMPI PUSH3 0x1B6 PUSH3 0x15B JUMP JUMPDEST JUMPDEST DUP1 PUSH1 0x40 MSTORE POP POP POP JUMP JUMPDEST PUSH1 0x0 PUSH3 0x1CC PUSH3 0xB4 JUMP JUMPDEST SWAP1 POP PUSH3 0x1DA DUP3 DUP3 PUSH3 0x18A JUMP JUMPDEST SWAP2 SWAP1 POP JUMP JUMPDEST PUSH1 0x0 PUSH8 0xFFFFFFFFFFFFFFFF DUP3 GT ISZERO PUSH3 0x1FD JUMPI PUSH3 0x1FC PUSH3 0x15B JUMP JUMPDEST JUMPDEST PUSH3 0x208 DUP3 PUSH3 0x14A JUMP JUMPDEST SWAP1 POP PUSH1 0x20 DUP2 ADD SWAP1 POP SWAP2 SWAP1 POP JUMP JUMPDEST PUSH1 0x0 JUMPDEST DUP4 DUP2 LT ISZERO PUSH3 0x235 JUMPI DUP1 DUP3 ADD MLOAD DUP2 DUP5 ADD MSTORE PUSH1 0x20 DUP2 ADD SWAP1 POP PUSH3 0x218 JUMP JUMPDEST PUSH1 0x0 DUP5 DUP5 ADD MSTORE POP POP POP POP JUMP JUMPDEST PUSH1 0x0 PUSH3 0x258 PUSH3 0x252 DUP5 PUSH3 0x1DF JUMP JUMPDEST PUSH3 0x1C0 JUMP JUMPDEST SWAP1 POP DUP3 DUP2 MSTORE PUSH1 0x20 DUP2 ADD DUP5 DUP5 DUP5 ADD GT ISZERO PUSH3 0x277 JUMPI PUSH3 0x276 PUSH3 0x145 JUMP JUMPDEST JUMPDEST PUSH3 0x284 DUP5 DUP3 DUP6 PUSH3 0x215 JUMP JUMPDEST POP SWAP4 SWAP3 POP POP POP JUMP JUMPDEST PUSH1 0x0 DUP3 PUSH1 0x1F DUP4 ADD SLT PUSH3 0x2A4 JUMPI PUSH3 0x2A3 PUSH3 0x140 JUMP JUMPDEST JUMPDEST DUP2 MLOAD PUSH3 0x2B6 DUP5 DUP3 PUSH1 0x20 DUP7 ADD PUSH3 0x241 JUMP JUMPDEST SWAP2 POP POP SWAP3 SWAP2 POP POP JUMP JUMPDEST PUSH1 0x0 DUP1 PUSH1 0x0 PUSH1 0x60 DUP5 DUP7 SUB SLT ISZERO PUSH3 0x2DB JUMPI PUSH3 0x2DA PUSH3 0xBE JUMP JUMPDEST JUMPDEST PUSH1 0x0 PUSH3 0x2EB DUP7 DUP3 DUP8 ADD PUSH3 0xEC JUMP JUMPDEST SWAP4 POP POP PUSH1 0x20 PUSH3 0x2FE DUP7 DUP3 DUP8 ADD PUSH3 0x129 JUMP JUMPDEST SWAP3 POP POP PUSH1 0x40 DUP5 ADD MLOAD PUSH8 0xFFFFFFFFFFFFFFFF DUP2 GT ISZERO PUSH3 0x322 JUMPI PUSH3 0x321 PUSH3 0xC3 JUMP JUMPDEST JUMPDEST PUSH3 0x330 DUP7 DUP3 DUP8 ADD PUSH3 0x28C JUMP JUMPDEST SWAP2 POP POP SWAP3 POP SWAP3 POP SWAP3 JUMP JUMPDEST PUSH1 0x0 DUP2 MLOAD SWAP1 POP SWAP2 SWAP1 POP JUMP JUMPDEST PUSH32 0x4E487B7100000000000000000000000000000000000000000000000000000000 PUSH1 0x0 MSTORE PUSH1 0x22 PUSH1 0x4 MSTORE PUSH1 0x24 PUSH1 0x0 REVERT JUMPDEST PUSH1 0x0 PUSH1 0x2 DUP3 DIV SWAP1 POP PUSH1 0x1 DUP3 AND DUP1 PUSH3 0x38D JUMPI PUSH1 0x7F DUP3 AND SWAP2 POP JUMPDEST PUSH1 0x20 DUP3 LT DUP2 SUB PUSH3 0x3A3 JUMPI PUSH3 0x3A2 PUSH3 0x345 JUMP JUMPDEST JUMPDEST POP SWAP2 SWAP1 POP JUMP JUMPDEST PUSH1 0x0 DUP2 SWAP1 POP DUP2 PUSH1 0x0 MSTORE PUSH1 0x20 PUSH1 0x0 KECCAK256 SWAP1 POP SWAP2 SWAP1 POP JUMP JUMPDEST PUSH1 0x0 PUSH1 0x20 PUSH1 0x1F DUP4 ADD DIV SWAP1 POP SWAP2 SWAP1 POP JUMP JUMPDEST PUSH1 0x0 DUP3 DUP3 SHL SWAP1 POP SWAP3 SWAP2 POP POP JUMP JUMPDEST PUSH1 0x0 PUSH1 0x8 DUP4 MUL PUSH3 0x40D PUSH32 0xFFFFFFFFFFFFFFFFFFFFFFFFFFFFFFFFFFFFFFFFFFFFFFFFFFFFFFFFFFFFFFFF DUP3 PUSH3 0x3CE JUMP JUMPDEST PUSH3 0x419 DUP7 DUP4 PUSH3 0x3CE JUMP JUMPDEST SWAP6 POP DUP1 NOT DUP5 AND SWAP4 POP DUP1 DUP7 AND DUP5 OR SWAP3 POP POP POP SWAP4 SWAP3 POP POP POP JUMP JUMPDEST PUSH1 0x0 DUP2 SWAP1 POP SWAP2 SWAP1 POP JUMP JUMPDEST PUSH1 0x0 PUSH3 0x45C PUSH3 0x456 PUSH3 0x450 DUP5 PUSH3 0xC8 JUMP JUMPDEST PUSH3 0x431 JUMP JUMPDEST PUSH3 0xC8 JUMP JUMPDEST SWAP1 POP SWAP2 SWAP1 POP JUMP JUMPDEST PUSH1 0x0 DUP2 SWAP1 POP SWAP2 SWAP1 POP JUMP JUMPDEST PUSH3 0x478 DUP4 PUSH3 0x43B JUMP JUMPDEST PUSH3 0x490 PUSH3 0x487 DUP3 PUSH3 0x463 JUMP JUMPDEST DUP5 DUP5 SLOAD PUSH3 0x3DB JUMP JUMPDEST DUP3 SSTORE POP POP POP POP JUMP JUMPDEST PUSH1 0x0 SWAP1 JUMP JUMPDEST PUSH3 0x4A7 PUSH3 0x498 JUMP JUMPDEST PUSH3 0x4B4 DUP2 DUP5 DUP5 PUSH3 0x46D JUMP JUMPDEST POP POP POP JUMP JUMPDEST JUMPDEST DUP2 DUP2 LT ISZERO PUSH3 0x4DC JUMPI PUSH3 0x4D0 PUSH1 0x0 DUP3 PUSH3 0x49D JUMP JUMPDEST PUSH1 0x1 DUP2 ADD SWAP1 POP PUSH3 0x4BA JUMP JUMPDEST POP POP JUMP JUMPDEST PUSH1 0x1F DUP3 GT ISZERO PUSH3 0x52B JUMPI PUSH3 0x4F5 DUP2 PUSH3 0x3A9 JUMP JUMPDEST PUSH3 0x500 DUP5 PUSH3 0x3BE JUMP JUMPDEST DUP2 ADD PUSH1 0x20 DUP6 LT ISZERO PUSH3 0x510 JUMPI DUP2 SWAP1 POP JUMPDEST PUSH3 0x528 PUSH3 0x51F DUP6 PUSH3 0x3BE JUMP JUMPDEST DUP4 ADD DUP3 PUSH3 0x4B9 JUMP JUMPDEST POP POP JUMPDEST POP POP POP JUMP JUMPDEST PUSH1 0x0 DUP3 DUP3 SHR SWAP1 POP SWAP3 SWAP2 POP POP JUMP JUMPDEST PUSH1 0x0 PUSH3 0x550 PUSH1 0x0 NOT DUP5 PUSH1 0x8 MUL PUSH3 0x530 JUMP JUMPDEST NOT DUP1 DUP4 AND SWAP2 POP POP SWAP3 SWAP2 POP POP JUMP JUMPDEST PUSH1 0x0 PUSH3 0x56B DUP4 DUP4 PUSH3 0x53D JUMP JUMPDEST SWAP2 POP DUP3 PUSH1 0x2 MUL DUP3 OR SWAP1 POP SWAP3 SWAP2 POP POP JUMP JUMPDEST PUSH3 0x586 DUP3 PUSH3 0x33A JUMP JUMPDEST PUSH8 0xFFFFFFFFFFFFFFFF DUP2 GT ISZERO PUSH3 0x5A2 JUMPI PUSH3 0x5A1 PUSH3 0x15B JUMP JUMPDEST JUMPDEST PUSH3 0x5AE DUP3 SLOAD PUSH3 0x374 JUMP JUMPDEST PUSH3 0x5BB DUP3 DUP3 DUP6 PUSH3 0x4E0 JUMP JUMPDEST PUSH1 0x0 PUSH1 0x20 SWAP1 POP PUSH1 0x1F DUP4 GT PUSH1 0x1 DUP2 EQ PUSH3 0x5F3 JUMPI PUSH1 0x0 DUP5 ISZERO PUSH3 0x5DE JUMPI DUP3 DUP8 ADD MLOAD SWAP1 POP JUMPDEST PUSH3 0x5EA DUP6 DUP3 PUSH3 0x55D JUMP JUMPDEST DUP7 SSTORE POP PUSH3 0x65A JUMP JUMPDEST PUSH1 0x1F NOT DUP5 AND PUSH3 0x603 DUP7 PUSH3 0x3A9 JUMP JUMPDEST PUSH1 0x0 JUMPDEST DUP3 DUP2 LT ISZERO PUSH3 0x62D JUMPI DUP5 DUP10 ADD MLOAD DUP3 SSTORE PUSH1 0x1 DUP3 ADD SWAP2 POP PUSH1 0x20 DUP6 ADD SWAP5 POP PUSH1 0x20 DUP2 ADD SWAP1 POP PUSH3 0x606 JUMP JUMPDEST DUP7 DUP4 LT ISZERO PUSH3 0x64D JUMPI DUP5 DUP10 ADD MLOAD PUSH3 0x649 PUSH1 0x1F DUP10 AND DUP3 PUSH3 0x53D JUMP JUMPDEST DUP4 SSTORE POP JUMPDEST PUSH1 0x1 PUSH1 0x2 DUP9 MUL ADD DUP9 SSTORE POP POP POP JUMPDEST POP POP POP POP POP POP JUMP JUMPDEST PUSH2 0x3A4 DUP1 PUSH3 0x672 PUSH1 0x0 CODECOPY PUSH1 0x0 RETURN INVALID PUSH1 0x80 PUSH1 0x40 MSTORE CALLVALUE DUP1 ISZERO PUSH2 0x10 JUMPI PUSH1 0x0 DUP1 REVERT JUMPDEST POP PUSH1 0x4 CALLDATASIZE LT PUSH2 0x4C JUMPI PUSH1 0x0 CALLDATALOAD PUSH1 0xE0 SHR DUP1 PUSH4 0x6FDDE03 EQ PUSH2 0x51 JUMPI DUP1 PUSH4 0x99AEA0A EQ PUSH2 0x6F JUMPI DUP1 PUSH4 0x3F83EA3B EQ PUSH2 0x8D JUMPI DUP1 PUSH4 0x521EB273 EQ PUSH2 0xAB JUMPI JUMPDEST PUSH1 0x0 DUP1 REVERT JUMPDEST PUSH2 0x59 PUSH2 0xC9 JUMP JUMPDEST PUSH1 0x40 MLOAD PUSH2 0x66 SWAP2 SWAP1 PUSH2 0x226 JUMP JUMPDEST PUSH1 0x40 MLOAD DUP1 SWAP2 SUB SWAP1 RETURN JUMPDEST PUSH2 0x77 PUSH2 0x157 JUMP JUMPDEST PUSH1 0x40 MLOAD PUSH2 0x84 SWAP2 SWAP1 PUSH2 0x263 JUMP JUMPDEST PUSH1 0x40 MLOAD DUP1 SWAP2 SUB SWAP1 RETURN JUMPDEST PUSH2 0x95 PUSH2 0x16A JUMP JUMPDEST PUSH1 0x40 MLOAD PUSH2 0xA2 SWAP2 SWAP1 PUSH2 0x297 JUMP JUMPDEST PUSH1 0x40 MLOAD DUP1 SWAP2 SUB SWAP1 RETURN JUMPDEST PUSH2 0xB3 PUSH2 0x170 JUMP JUMPDEST PUSH1 0x40 MLOAD PUSH2 0xC0 SWAP2 SWAP1 PUSH2 0x2F3 JUMP JUMPDEST PUSH1 0x40 MLOAD DUP1 SWAP2 SUB SWAP1 RETURN JUMPDEST PUSH1 0x2 DUP1 SLOAD PUSH2 0xD6 SWAP1 PUSH2 0x33D JUMP JUMPDEST DUP1 PUSH1 0x1F ADD PUSH1 0x20 DUP1 SWAP2 DIV MUL PUSH1 0x20 ADD PUSH1 0x40 MLOAD SWAP1 DUP2 ADD PUSH1 0x40 MSTORE DUP1 SWAP3 SWAP2 SWAP1 DUP2 DUP2 MSTORE PUSH1 0x20 ADD DUP3 DUP1 SLOAD PUSH2 0x102 SWAP1 PUSH2 0x33D JUMP JUMPDEST DUP1 ISZERO PUSH2 0x14F JUMPI DUP1 PUSH1 0x1F LT PUSH2 0x124 JUMPI PUSH2 0x100 DUP1 DUP4 SLOAD DIV MUL DUP4 MSTORE SWAP2 PUSH1 0x20 ADD SWAP2 PUSH2 0x14F JUMP JUMPDEST DUP3 ADD SWAP2 SWAP1 PUSH1 0x0 MSTORE PUSH1 0x20 PUSH1 0x0 KECCAK256 SWAP1 JUMPDEST DUP2 SLOAD DUP2 MSTORE SWAP1 PUSH1 0x1 ADD SWAP1 PUSH1 0x20 ADD DUP1 DUP4 GT PUSH2 0x132 JUMPI DUP3 SWAP1 SUB PUSH1 0x1F AND DUP3 ADD SWAP2 JUMPDEST POP POP POP POP POP DUP2 JUMP JUMPDEST PUSH1 0x1 PUSH1 0x0 SWAP1 SLOAD SWAP1 PUSH2 0x100 EXP SWAP1 DIV PUSH1 0xFF AND DUP2 JUMP JUMPDEST PUSH1 0x0 SLOAD DUP2 JUMP JUMPDEST PUSH1 0x3 PUSH1 0x0 SWAP1 SLOAD SWAP1 PUSH2 0x100 EXP SWAP1 DIV PUSH20 0xFFFFFFFFFFFFFFFFFFFFFFFFFFFFFFFFFFFFFFFF AND DUP2 JUMP JUMPDEST PUSH1 0x0 DUP2 MLOAD SWAP1 POP SWAP2 SWAP1 POP JUMP JUMPDEST PUSH1 0x0 DUP3 DUP3 MSTORE PUSH1 0x20 DUP3 ADD SWAP1 POP SWAP3 SWAP2 POP POP JUMP JUMPDEST PUSH1 0x0 JUMPDEST DUP4 DUP2 LT ISZERO PUSH2 0x1D0 JUMPI DUP1 DUP3 ADD MLOAD DUP2 DUP5 ADD MSTORE PUSH1 0x20 DUP2 ADD SWAP1 POP PUSH2 0x1B5 JUMP JUMPDEST PUSH1 0x0 DUP5 DUP5 ADD MSTORE POP POP POP POP JUMP JUMPDEST PUSH1 0x0 PUSH1 0x1F NOT PUSH1 0x1F DUP4 ADD AND SWAP1 POP SWAP2 SWAP1 POP JUMP JUMPDEST PUSH1 0x0 PUSH2 0x1F8 DUP3 PUSH2 0x196 JUMP JUMPDEST PUSH2 0x202 DUP2 DUP6 PUSH2 0x1A1 JUMP JUMPDEST SWAP4 POP PUSH2 0x212 DUP2 DUP6 PUSH1 0x20 DUP7 ADD PUSH2 0x1B2 JUMP JUMPDEST PUSH2 0x21B DUP2 PUSH2 0x1DC JUMP JUMPDEST DUP5 ADD SWAP2 POP POP SWAP3 SWAP2 POP POP JUMP JUMPDEST PUSH1 0x0 PUSH1 0x20 DUP3 ADD SWAP1 POP DUP2 DUP2 SUB PUSH1 0x0 DUP4 ADD MSTORE PUSH2 0x240 DUP2 DUP5 PUSH2 0x1ED JUMP JUMPDEST SWAP1 POP SWAP3 SWAP2 POP POP JUMP JUMPDEST PUSH1 0x0 DUP2 ISZERO ISZERO SWAP1 POP SWAP2 SWAP1 POP JUMP JUMPDEST PUSH2 0x25D DUP2 PUSH2 0x248 JUMP JUMPDEST DUP3 MSTORE POP POP JUMP JUMPDEST PUSH1 0x0 PUSH1 0x20 DUP3 ADD SWAP1 POP PUSH2 0x278 PUSH1 0x0 DUP4 ADD DUP5 PUSH2 0x254 JUMP JUMPDEST SWAP3 SWAP2 POP POP JUMP JUMPDEST PUSH1 0x0 DUP2 SWAP1 POP SWAP2 SWAP1 POP JUMP JUMPDEST PUSH2 0x291 DUP2 PUSH2 0x27E JUMP JUMPDEST DUP3 MSTORE POP POP JUMP JUMPDEST PUSH1 0x0 PUSH1 0x20 DUP3 ADD SWAP1 POP PUSH2 0x2AC PUSH1 0x0 DUP4 ADD DUP5 PUSH2 0x288 JUMP JUMPDEST SWAP3 SWAP2 POP POP JUMP JUMPDEST PUSH1 0x0 PUSH20 0xFFFFFFFFFFFFFFFFFFFFFFFFFFFFFFFFFFFFFFFF DUP3 AND SWAP1 POP SWAP2 SWAP1 POP JUMP JUMPDEST PUSH1 0x0 PUSH2 0x2DD DUP3 PUSH2 0x2B2 JUMP JUMPDEST SWAP1 POP SWAP2 SWAP1 POP JUMP JUMPDEST PUSH2 0x2ED DUP2 PUSH2 0x2D2 JUMP JUMPDEST DUP3 MSTORE POP POP JUMP JUMPDEST PUSH1 0x0 PUSH1 0x20 DUP3 ADD SWAP1 POP PUSH2 0x308 PUSH1 0x0 DUP4 ADD DUP5 PUSH2 0x2E4 JUMP JUMPDEST SWAP3 SWAP2 POP POP JUMP JUMPDEST PUSH32 0x4E487B7100000000000000000000000000000000000000000000000000000000 PUSH1 0x0 MSTORE PUSH1 0x22 PUSH1 0x4 MSTORE PUSH1 0x24 PUSH1 0x0 REVERT JUMPDEST PUSH1 0x0 PUSH1 0x2 DUP3 DIV SWAP1 POP PUSH1 0x1 DUP3 AND DUP1 PUSH2 0x355 JUMPI PUSH1 0x7F DUP3 AND SWAP2 POP JUMPDEST PUSH1 0x20 DUP3 LT DUP2 SUB PUSH2 0x368 JUMPI PUSH2 0x367 PUSH2 0x30E JUMP JUMPDEST JUMPDEST POP SWAP2 SWAP1 POP JUMP INVALID LOG2 PUSH5 0x6970667358 0x22 SLT KECCAK256 0xEF 0xAA 0x29 0xE6 0xFC SWAP10 0x21 PUSH17 0xA821FEDA218C7A477A7A9563CBC9580516 DUP14 0xB0 SLT 0xED PUSH13 0x212B64736F6C63430008120033 "
		},
		"gasEstimates": {
			"creation": {
				"codeDepositCost": "186400",
				"executionCost": "infinite",
				"totalCost": "infinite"
			},
			"external": {
				"idNumber()": "2451",
				"isWorking()": "2471",
				"name()": "infinite",
				"wallet()": "2558"
			}
		},
		"methodIdentifiers": {
			"idNumber()": "3f83ea3b",
			"isWorking()": "099aea0a",
			"name()": "06fdde03",
			"wallet()": "521eb273"
		}
	},
	"abi": [
		{
			"inputs": [
				{
					"internalType": "uint256",
					"name": "_idNumber",
					"type": "uint256"
				},
				{
					"internalType": "bool",
					"name": "_isWorking",
					"type": "bool"
				},
				{
					"internalType": "string",
					"name": "_name",
					"type": "string"
				}
			],
			"stateMutability": "nonpayable",
			"type": "constructor"
		},
		{
			"inputs": [],
			"name": "idNumber",
			"outputs": [
				{
					"internalType": "uint256",
					"name": "",
					"type": "uint256"
				}
			],
			"stateMutability": "view",
			"type": "function"
		},
		{
			"inputs": [],
			"name": "isWorking",
			"outputs": [
				{
					"internalType": "bool",
					"name": "",
					"type": "bool"
				}
			],
			"stateMutability": "view",
			"type": "function"
		},
		{
			"inputs": [],
			"name": "name",
			"outputs": [
				{
					"internalType": "string",
					"name": "",
					"type": "string"
				}
			],
			"stateMutability": "view",
			"type": "function"
		},
		{
			"inputs": [],
			"name": "wallet",
			"outputs": [
				{
					"internalType": "address",
					"name": "",
					"type": "address"
				}
			],
			"stateMutability": "view",
			"type": "function"
		}
	]
}