{
	"primerContrato/reto 1/ProjectCrowdfunding.sol": {
		"ProjectCrowdfunding": {
			"abi": [
				{
					"inputs": [
						{
							"internalType": "string",
							"name": "_id",
							"type": "string"
						},
						{
							"internalType": "string",
							"name": "_name",
							"type": "string"
						},
						{
							"internalType": "string",
							"name": "_description",
							"type": "string"
						},
						{
							"internalType": "uint256",
							"name": "_fudraisingGoal",
							"type": "uint256"
						}
					],
					"stateMutability": "nonpayable",
					"type": "constructor"
				},
				{
					"inputs": [],
					"name": "author",
					"outputs": [
						{
							"internalType": "address payable",
							"name": "",
							"type": "address"
						}
					],
					"stateMutability": "view",
					"type": "function"
				},
				{
					"inputs": [
						{
							"internalType": "string",
							"name": "newState",
							"type": "string"
						}
					],
					"name": "changeProjectState",
					"outputs": [],
					"stateMutability": "nonpayable",
					"type": "function"
				},
				{
					"inputs": [],
					"name": "description",
					"outputs": [
						{
							"internalType": "string",
							"name": "",
							"type": "string"
						}
					],
					"stateMutability": "view",
					"type": "function"
				},
				{
					"inputs": [],
					"name": "fudraisingGoal",
					"outputs": [
						{
							"internalType": "uint256",
							"name": "",
							"type": "uint256"
						}
					],
					"stateMutability": "view",
					"type": "function"
				},
				{
					"inputs": [],
					"name": "fundProject",
					"outputs": [],
					"stateMutability": "payable",
					"type": "function"
				},
				{
					"inputs": [],
					"name": "funds",
					"outputs": [
						{
							"internalType": "uint256",
							"name": "",
							"type": "uint256"
						}
					],
					"stateMutability": "view",
					"type": "function"
				},
				{
					"inputs": [],
					"name": "id",
					"outputs": [
						{
							"internalType": "string",
							"name": "",
							"type": "string"
						}
					],
					"stateMutability": "view",
					"type": "function"
				},
				{
					"inputs": [],
					"name": "name",
					"outputs": [
						{
							"internalType": "string",
							"name": "",
							"type": "string"
						}
					],
					"stateMutability": "view",
					"type": "function"
				},
				{
					"inputs": [],
					"name": "state",
					"outputs": [
						{
							"internalType": "string",
							"name": "",
							"type": "string"
						}
					],
					"stateMutability": "view",
					"type": "function"
				}
			],
			"devdoc": {
				"kind": "dev",
				"methods": {},
				"version": 1
			},
			"evm": {
				"assembly": "    /* \"primerContrato/reto 1/ProjectCrowdfunding.sol\":69:982  contract ProjectCrowdfunding { \r... */\n  mstore(0x40, 0x80)\n    /* \"primerContrato/reto 1/ProjectCrowdfunding.sol\":263:293  string public state = 'Opened' */\n  mload(0x40)\n  dup1\n  0x40\n  add\n  0x40\n  mstore\n  dup1\n  0x06\n  dup2\n  mstore\n  0x20\n  add\n  0x4f70656e65640000000000000000000000000000000000000000000000000000\n  dup2\n  mstore\n  pop\n  0x04\n  swap1\n  dup1\n  mload\n  swap1\n  0x20\n  add\n  swap1\n  tag_1\n  swap3\n  swap2\n  swap1\n  tag_2\n  jump\t// in\ntag_1:\n  pop\n    /* \"primerContrato/reto 1/ProjectCrowdfunding.sol\":384:654  constructor(string memory _id,string memory _name, string memory _description ,uint _fudraisingGoal) {\r... */\n  callvalue\n  dup1\n  iszero\n  tag_3\n  jumpi\n  0x00\n  dup1\n  revert\ntag_3:\n  pop\n  mload(0x40)\n  sub(codesize, bytecodeSize)\n  dup1\n  bytecodeSize\n  dup4\n  codecopy\n  dup2\n  dup2\n  add\n  0x40\n  mstore\n  dup2\n  add\n  swap1\n  tag_4\n  swap2\n  swap1\n  tag_5\n  jump\t// in\ntag_4:\n    /* \"primerContrato/reto 1/ProjectCrowdfunding.sol\":501:504  _id */\n  dup4\n    /* \"primerContrato/reto 1/ProjectCrowdfunding.sol\":496:498  id */\n  0x00\n    /* \"primerContrato/reto 1/ProjectCrowdfunding.sol\":496:504  id = _id */\n  swap1\n  dup1\n  mload\n  swap1\n  0x20\n  add\n  swap1\n  tag_8\n  swap3\n  swap2\n  swap1\n  tag_2\n  jump\t// in\ntag_8:\n  pop\n    /* \"primerContrato/reto 1/ProjectCrowdfunding.sol\":522:527  _name */\n  dup3\n    /* \"primerContrato/reto 1/ProjectCrowdfunding.sol\":515:519  name */\n  0x01\n    /* \"primerContrato/reto 1/ProjectCrowdfunding.sol\":515:527  name = _name */\n  swap1\n  dup1\n  mload\n  swap1\n  0x20\n  add\n  swap1\n  tag_9\n  swap3\n  swap2\n  swap1\n  tag_2\n  jump\t// in\ntag_9:\n  pop\n    /* \"primerContrato/reto 1/ProjectCrowdfunding.sol\":552:564  _description */\n  dup2\n    /* \"primerContrato/reto 1/ProjectCrowdfunding.sol\":538:549  description */\n  0x02\n    /* \"primerContrato/reto 1/ProjectCrowdfunding.sol\":538:564  description = _description */\n  swap1\n  dup1\n  mload\n  swap1\n  0x20\n  add\n  swap1\n  tag_10\n  swap3\n  swap2\n  swap1\n  tag_2\n  jump\t// in\ntag_10:\n  pop\n    /* \"primerContrato/reto 1/ProjectCrowdfunding.sol\":592:607  _fudraisingGoal */\n  dup1\n    /* \"primerContrato/reto 1/ProjectCrowdfunding.sol\":575:589  fudraisingGoal */\n  0x06\n    /* \"primerContrato/reto 1/ProjectCrowdfunding.sol\":575:607  fudraisingGoal = _fudraisingGoal */\n  dup2\n  swap1\n  sstore\n  pop\n    /* \"primerContrato/reto 1/ProjectCrowdfunding.sol\":635:645  msg.sender */\n  caller\n    /* \"primerContrato/reto 1/ProjectCrowdfunding.sol\":618:624  author */\n  0x03\n  0x00\n    /* \"primerContrato/reto 1/ProjectCrowdfunding.sol\":618:646  author = payable(msg.sender) */\n  0x0100\n  exp\n  dup2\n  sload\n  dup2\n  0xffffffffffffffffffffffffffffffffffffffff\n  mul\n  not\n  and\n  swap1\n  dup4\n  0xffffffffffffffffffffffffffffffffffffffff\n  and\n  mul\n  or\n  swap1\n  sstore\n  pop\n    /* \"primerContrato/reto 1/ProjectCrowdfunding.sol\":384:654  constructor(string memory _id,string memory _name, string memory _description ,uint _fudraisingGoal) {\r... */\n  pop\n  pop\n  pop\n  pop\n    /* \"primerContrato/reto 1/ProjectCrowdfunding.sol\":69:982  contract ProjectCrowdfunding { \r... */\n  jump(tag_11)\ntag_2:\n  dup3\n  dup1\n  sload\n  tag_12\n  swap1\n  tag_13\n  jump\t// in\ntag_12:\n  swap1\n  0x00\n  mstore\n  keccak256(0x00, 0x20)\n  swap1\n  0x1f\n  add\n  0x20\n  swap1\n  div\n  dup2\n  add\n  swap3\n  dup3\n  tag_15\n  jumpi\n  0x00\n  dup6\n  sstore\n  jump(tag_14)\ntag_15:\n  dup3\n  0x1f\n  lt\n  tag_16\n  jumpi\n  dup1\n  mload\n  not(0xff)\n  and\n  dup4\n  dup1\n  add\n  or\n  dup6\n  sstore\n  jump(tag_14)\ntag_16:\n  dup3\n  dup1\n  add\n  0x01\n  add\n  dup6\n  sstore\n  dup3\n  iszero\n  tag_14\n  jumpi\n  swap2\n  dup3\n  add\ntag_17:\n  dup3\n  dup2\n  gt\n  iszero\n  tag_18\n  jumpi\n  dup3\n  mload\n  dup3\n  sstore\n  swap2\n  0x20\n  add\n  swap2\n  swap1\n  0x01\n  add\n  swap1\n  jump(tag_17)\ntag_18:\ntag_14:\n  pop\n  swap1\n  pop\n  tag_19\n  swap2\n  swap1\n  tag_20\n  jump\t// in\ntag_19:\n  pop\n  swap1\n  jump\t// out\ntag_20:\ntag_21:\n  dup1\n  dup3\n  gt\n  iszero\n  tag_22\n  jumpi\n  0x00\n  dup2\n  0x00\n  swap1\n  sstore\n  pop\n  0x01\n  add\n  jump(tag_21)\ntag_22:\n  pop\n  swap1\n  jump\t// out\n    /* \"#utility.yul\":7:360   */\ntag_24:\n  0x00\n    /* \"#utility.yul\":121:186   */\n  tag_26\n    /* \"#utility.yul\":136:185   */\n  tag_27\n    /* \"#utility.yul\":178:184   */\n  dup5\n    /* \"#utility.yul\":136:185   */\n  tag_28\n  jump\t// in\ntag_27:\n    /* \"#utility.yul\":121:186   */\n  tag_29\n  jump\t// in\ntag_26:\n    /* \"#utility.yul\":112:186   */\n  swap1\n  pop\n    /* \"#utility.yul\":209:215   */\n  dup3\n    /* \"#utility.yul\":202:207   */\n  dup2\n    /* \"#utility.yul\":195:216   */\n  mstore\n    /* \"#utility.yul\":247:251   */\n  0x20\n    /* \"#utility.yul\":240:245   */\n  dup2\n    /* \"#utility.yul\":236:252   */\n  add\n    /* \"#utility.yul\":285:288   */\n  dup5\n    /* \"#utility.yul\":276:282   */\n  dup5\n    /* \"#utility.yul\":271:274   */\n  dup5\n    /* \"#utility.yul\":267:283   */\n  add\n    /* \"#utility.yul\":264:289   */\n  gt\n    /* \"#utility.yul\":261:263   */\n  iszero\n  tag_30\n  jumpi\n    /* \"#utility.yul\":302:303   */\n  0x00\n    /* \"#utility.yul\":299:300   */\n  dup1\n    /* \"#utility.yul\":292:304   */\n  revert\n    /* \"#utility.yul\":261:263   */\ntag_30:\n    /* \"#utility.yul\":315:354   */\n  tag_31\n    /* \"#utility.yul\":347:353   */\n  dup5\n    /* \"#utility.yul\":342:345   */\n  dup3\n    /* \"#utility.yul\":337:340   */\n  dup6\n    /* \"#utility.yul\":315:354   */\n  tag_32\n  jump\t// in\ntag_31:\n    /* \"#utility.yul\":102:360   */\n  pop\n  swap4\n  swap3\n  pop\n  pop\n  pop\n  jump\t// out\n    /* \"#utility.yul\":380:668   */\ntag_33:\n  0x00\n    /* \"#utility.yul\":496:499   */\n  dup3\n    /* \"#utility.yul\":489:493   */\n  0x1f\n    /* \"#utility.yul\":481:487   */\n  dup4\n    /* \"#utility.yul\":477:494   */\n  add\n    /* \"#utility.yul\":473:500   */\n  slt\n    /* \"#utility.yul\":463:465   */\n  tag_35\n  jumpi\n    /* \"#utility.yul\":514:515   */\n  0x00\n    /* \"#utility.yul\":511:512   */\n  dup1\n    /* \"#utility.yul\":504:516   */\n  revert\n    /* \"#utility.yul\":463:465   */\ntag_35:\n    /* \"#utility.yul\":547:553   */\n  dup2\n    /* \"#utility.yul\":541:554   */\n  mload\n    /* \"#utility.yul\":572:662   */\n  tag_36\n    /* \"#utility.yul\":658:661   */\n  dup5\n    /* \"#utility.yul\":650:656   */\n  dup3\n    /* \"#utility.yul\":643:647   */\n  0x20\n    /* \"#utility.yul\":635:641   */\n  dup7\n    /* \"#utility.yul\":631:648   */\n  add\n    /* \"#utility.yul\":572:662   */\n  tag_24\n  jump\t// in\ntag_36:\n    /* \"#utility.yul\":563:662   */\n  swap2\n  pop\n    /* \"#utility.yul\":453:668   */\n  pop\n  swap3\n  swap2\n  pop\n  pop\n  jump\t// out\n    /* \"#utility.yul\":674:817   */\ntag_37:\n  0x00\n    /* \"#utility.yul\":762:768   */\n  dup2\n    /* \"#utility.yul\":756:769   */\n  mload\n    /* \"#utility.yul\":747:769   */\n  swap1\n  pop\n    /* \"#utility.yul\":778:811   */\n  tag_39\n    /* \"#utility.yul\":805:810   */\n  dup2\n    /* \"#utility.yul\":778:811   */\n  tag_40\n  jump\t// in\ntag_39:\n    /* \"#utility.yul\":737:817   */\n  swap3\n  swap2\n  pop\n  pop\n  jump\t// out\n    /* \"#utility.yul\":823:1894   */\ntag_5:\n  0x00\n  dup1\n  0x00\n  dup1\n    /* \"#utility.yul\":1023:1026   */\n  0x80\n    /* \"#utility.yul\":1011:1020   */\n  dup6\n    /* \"#utility.yul\":1002:1009   */\n  dup8\n    /* \"#utility.yul\":998:1021   */\n  sub\n    /* \"#utility.yul\":994:1027   */\n  slt\n    /* \"#utility.yul\":991:993   */\n  iszero\n  tag_42\n  jumpi\n    /* \"#utility.yul\":1040:1041   */\n  0x00\n    /* \"#utility.yul\":1037:1038   */\n  dup1\n    /* \"#utility.yul\":1030:1042   */\n  revert\n    /* \"#utility.yul\":991:993   */\ntag_42:\n    /* \"#utility.yul\":1104:1105   */\n  0x00\n    /* \"#utility.yul\":1093:1102   */\n  dup6\n    /* \"#utility.yul\":1089:1106   */\n  add\n    /* \"#utility.yul\":1083:1107   */\n  mload\n    /* \"#utility.yul\":1134:1152   */\n  0xffffffffffffffff\n    /* \"#utility.yul\":1126:1132   */\n  dup2\n    /* \"#utility.yul\":1123:1153   */\n  gt\n    /* \"#utility.yul\":1120:1122   */\n  iszero\n  tag_43\n  jumpi\n    /* \"#utility.yul\":1166:1167   */\n  0x00\n    /* \"#utility.yul\":1163:1164   */\n  dup1\n    /* \"#utility.yul\":1156:1168   */\n  revert\n    /* \"#utility.yul\":1120:1122   */\ntag_43:\n    /* \"#utility.yul\":1194:1268   */\n  tag_44\n    /* \"#utility.yul\":1260:1267   */\n  dup8\n    /* \"#utility.yul\":1251:1257   */\n  dup3\n    /* \"#utility.yul\":1240:1249   */\n  dup9\n    /* \"#utility.yul\":1236:1258   */\n  add\n    /* \"#utility.yul\":1194:1268   */\n  tag_33\n  jump\t// in\ntag_44:\n    /* \"#utility.yul\":1184:1268   */\n  swap5\n  pop\n    /* \"#utility.yul\":1054:1278   */\n  pop\n    /* \"#utility.yul\":1338:1340   */\n  0x20\n    /* \"#utility.yul\":1327:1336   */\n  dup6\n    /* \"#utility.yul\":1323:1341   */\n  add\n    /* \"#utility.yul\":1317:1342   */\n  mload\n    /* \"#utility.yul\":1369:1387   */\n  0xffffffffffffffff\n    /* \"#utility.yul\":1361:1367   */\n  dup2\n    /* \"#utility.yul\":1358:1388   */\n  gt\n    /* \"#utility.yul\":1355:1357   */\n  iszero\n  tag_45\n  jumpi\n    /* \"#utility.yul\":1401:1402   */\n  0x00\n    /* \"#utility.yul\":1398:1399   */\n  dup1\n    /* \"#utility.yul\":1391:1403   */\n  revert\n    /* \"#utility.yul\":1355:1357   */\ntag_45:\n    /* \"#utility.yul\":1429:1503   */\n  tag_46\n    /* \"#utility.yul\":1495:1502   */\n  dup8\n    /* \"#utility.yul\":1486:1492   */\n  dup3\n    /* \"#utility.yul\":1475:1484   */\n  dup9\n    /* \"#utility.yul\":1471:1493   */\n  add\n    /* \"#utility.yul\":1429:1503   */\n  tag_33\n  jump\t// in\ntag_46:\n    /* \"#utility.yul\":1419:1503   */\n  swap4\n  pop\n    /* \"#utility.yul\":1288:1513   */\n  pop\n    /* \"#utility.yul\":1573:1575   */\n  0x40\n    /* \"#utility.yul\":1562:1571   */\n  dup6\n    /* \"#utility.yul\":1558:1576   */\n  add\n    /* \"#utility.yul\":1552:1577   */\n  mload\n    /* \"#utility.yul\":1604:1622   */\n  0xffffffffffffffff\n    /* \"#utility.yul\":1596:1602   */\n  dup2\n    /* \"#utility.yul\":1593:1623   */\n  gt\n    /* \"#utility.yul\":1590:1592   */\n  iszero\n  tag_47\n  jumpi\n    /* \"#utility.yul\":1636:1637   */\n  0x00\n    /* \"#utility.yul\":1633:1634   */\n  dup1\n    /* \"#utility.yul\":1626:1638   */\n  revert\n    /* \"#utility.yul\":1590:1592   */\ntag_47:\n    /* \"#utility.yul\":1664:1738   */\n  tag_48\n    /* \"#utility.yul\":1730:1737   */\n  dup8\n    /* \"#utility.yul\":1721:1727   */\n  dup3\n    /* \"#utility.yul\":1710:1719   */\n  dup9\n    /* \"#utility.yul\":1706:1728   */\n  add\n    /* \"#utility.yul\":1664:1738   */\n  tag_33\n  jump\t// in\ntag_48:\n    /* \"#utility.yul\":1654:1738   */\n  swap3\n  pop\n    /* \"#utility.yul\":1523:1748   */\n  pop\n    /* \"#utility.yul\":1787:1789   */\n  0x60\n    /* \"#utility.yul\":1813:1877   */\n  tag_49\n    /* \"#utility.yul\":1869:1876   */\n  dup8\n    /* \"#utility.yul\":1860:1866   */\n  dup3\n    /* \"#utility.yul\":1849:1858   */\n  dup9\n    /* \"#utility.yul\":1845:1867   */\n  add\n    /* \"#utility.yul\":1813:1877   */\n  tag_37\n  jump\t// in\ntag_49:\n    /* \"#utility.yul\":1803:1877   */\n  swap2\n  pop\n    /* \"#utility.yul\":1758:1887   */\n  pop\n    /* \"#utility.yul\":981:1894   */\n  swap3\n  swap6\n  swap2\n  swap5\n  pop\n  swap3\n  pop\n  jump\t// out\n    /* \"#utility.yul\":1900:2183   */\ntag_29:\n  0x00\n    /* \"#utility.yul\":1966:1968   */\n  0x40\n    /* \"#utility.yul\":1960:1969   */\n  mload\n    /* \"#utility.yul\":1950:1969   */\n  swap1\n  pop\n    /* \"#utility.yul\":2008:2012   */\n  dup2\n    /* \"#utility.yul\":2000:2006   */\n  dup2\n    /* \"#utility.yul\":1996:2013   */\n  add\n    /* \"#utility.yul\":2115:2121   */\n  dup2\n    /* \"#utility.yul\":2103:2113   */\n  dup2\n    /* \"#utility.yul\":2100:2122   */\n  lt\n    /* \"#utility.yul\":2079:2097   */\n  0xffffffffffffffff\n    /* \"#utility.yul\":2067:2077   */\n  dup3\n    /* \"#utility.yul\":2064:2098   */\n  gt\n    /* \"#utility.yul\":2061:2123   */\n  or\n    /* \"#utility.yul\":2058:2060   */\n  iszero\n  tag_51\n  jumpi\n    /* \"#utility.yul\":2126:2144   */\n  tag_52\n  tag_53\n  jump\t// in\ntag_52:\n    /* \"#utility.yul\":2058:2060   */\ntag_51:\n    /* \"#utility.yul\":2166:2176   */\n  dup1\n    /* \"#utility.yul\":2162:2164   */\n  0x40\n    /* \"#utility.yul\":2155:2177   */\n  mstore\n    /* \"#utility.yul\":1940:2183   */\n  pop\n  swap2\n  swap1\n  pop\n  jump\t// out\n    /* \"#utility.yul\":2189:2521   */\ntag_28:\n  0x00\n    /* \"#utility.yul\":2341:2359   */\n  0xffffffffffffffff\n    /* \"#utility.yul\":2333:2339   */\n  dup3\n    /* \"#utility.yul\":2330:2360   */\n  gt\n    /* \"#utility.yul\":2327:2329   */\n  iszero\n  tag_55\n  jumpi\n    /* \"#utility.yul\":2363:2381   */\n  tag_56\n  tag_53\n  jump\t// in\ntag_56:\n    /* \"#utility.yul\":2327:2329   */\ntag_55:\n    /* \"#utility.yul\":2448:2452   */\n  0x1f\n    /* \"#utility.yul\":2444:2453   */\n  not\n    /* \"#utility.yul\":2437:2441   */\n  0x1f\n    /* \"#utility.yul\":2429:2435   */\n  dup4\n    /* \"#utility.yul\":2425:2442   */\n  add\n    /* \"#utility.yul\":2421:2454   */\n  and\n    /* \"#utility.yul\":2413:2454   */\n  swap1\n  pop\n    /* \"#utility.yul\":2509:2513   */\n  0x20\n    /* \"#utility.yul\":2503:2507   */\n  dup2\n    /* \"#utility.yul\":2499:2514   */\n  add\n    /* \"#utility.yul\":2491:2514   */\n  swap1\n  pop\n    /* \"#utility.yul\":2256:2521   */\n  swap2\n  swap1\n  pop\n  jump\t// out\n    /* \"#utility.yul\":2527:2604   */\ntag_57:\n  0x00\n    /* \"#utility.yul\":2593:2598   */\n  dup2\n    /* \"#utility.yul\":2582:2598   */\n  swap1\n  pop\n    /* \"#utility.yul\":2572:2604   */\n  swap2\n  swap1\n  pop\n  jump\t// out\n    /* \"#utility.yul\":2610:2917   */\ntag_32:\n    /* \"#utility.yul\":2678:2679   */\n  0x00\n    /* \"#utility.yul\":2688:2801   */\ntag_60:\n    /* \"#utility.yul\":2702:2708   */\n  dup4\n    /* \"#utility.yul\":2699:2700   */\n  dup2\n    /* \"#utility.yul\":2696:2709   */\n  lt\n    /* \"#utility.yul\":2688:2801   */\n  iszero\n  tag_62\n  jumpi\n    /* \"#utility.yul\":2787:2788   */\n  dup1\n    /* \"#utility.yul\":2782:2785   */\n  dup3\n    /* \"#utility.yul\":2778:2789   */\n  add\n    /* \"#utility.yul\":2772:2790   */\n  mload\n    /* \"#utility.yul\":2768:2769   */\n  dup2\n    /* \"#utility.yul\":2763:2766   */\n  dup5\n    /* \"#utility.yul\":2759:2770   */\n  add\n    /* \"#utility.yul\":2752:2791   */\n  mstore\n    /* \"#utility.yul\":2724:2726   */\n  0x20\n    /* \"#utility.yul\":2721:2722   */\n  dup2\n    /* \"#utility.yul\":2717:2727   */\n  add\n    /* \"#utility.yul\":2712:2727   */\n  swap1\n  pop\n    /* \"#utility.yul\":2688:2801   */\n  jump(tag_60)\ntag_62:\n    /* \"#utility.yul\":2819:2825   */\n  dup4\n    /* \"#utility.yul\":2816:2817   */\n  dup2\n    /* \"#utility.yul\":2813:2826   */\n  gt\n    /* \"#utility.yul\":2810:2812   */\n  iszero\n  tag_63\n  jumpi\n    /* \"#utility.yul\":2899:2900   */\n  0x00\n    /* \"#utility.yul\":2890:2896   */\n  dup5\n    /* \"#utility.yul\":2885:2888   */\n  dup5\n    /* \"#utility.yul\":2881:2897   */\n  add\n    /* \"#utility.yul\":2874:2901   */\n  mstore\n    /* \"#utility.yul\":2810:2812   */\ntag_63:\n    /* \"#utility.yul\":2659:2917   */\n  pop\n  pop\n  pop\n  pop\n  jump\t// out\n    /* \"#utility.yul\":2923:3243   */\ntag_13:\n  0x00\n    /* \"#utility.yul\":3004:3005   */\n  0x02\n    /* \"#utility.yul\":2998:3002   */\n  dup3\n    /* \"#utility.yul\":2994:3006   */\n  div\n    /* \"#utility.yul\":2984:3006   */\n  swap1\n  pop\n    /* \"#utility.yul\":3051:3052   */\n  0x01\n    /* \"#utility.yul\":3045:3049   */\n  dup3\n    /* \"#utility.yul\":3041:3053   */\n  and\n    /* \"#utility.yul\":3072:3090   */\n  dup1\n    /* \"#utility.yul\":3062:3064   */\n  tag_65\n  jumpi\n    /* \"#utility.yul\":3128:3132   */\n  0x7f\n    /* \"#utility.yul\":3120:3126   */\n  dup3\n    /* \"#utility.yul\":3116:3133   */\n  and\n    /* \"#utility.yul\":3106:3133   */\n  swap2\n  pop\n    /* \"#utility.yul\":3062:3064   */\ntag_65:\n    /* \"#utility.yul\":3190:3192   */\n  0x20\n    /* \"#utility.yul\":3182:3188   */\n  dup3\n    /* \"#utility.yul\":3179:3193   */\n  lt\n    /* \"#utility.yul\":3159:3177   */\n  dup2\n    /* \"#utility.yul\":3156:3194   */\n  eq\n    /* \"#utility.yul\":3153:3155   */\n  iszero\n  tag_66\n  jumpi\n    /* \"#utility.yul\":3209:3227   */\n  tag_67\n  tag_68\n  jump\t// in\ntag_67:\n    /* \"#utility.yul\":3153:3155   */\ntag_66:\n    /* \"#utility.yul\":2974:3243   */\n  pop\n  swap2\n  swap1\n  pop\n  jump\t// out\n    /* \"#utility.yul\":3249:3429   */\ntag_68:\n    /* \"#utility.yul\":3297:3374   */\n  0x4e487b7100000000000000000000000000000000000000000000000000000000\n    /* \"#utility.yul\":3294:3295   */\n  0x00\n    /* \"#utility.yul\":3287:3375   */\n  mstore\n    /* \"#utility.yul\":3394:3398   */\n  0x22\n    /* \"#utility.yul\":3391:3392   */\n  0x04\n    /* \"#utility.yul\":3384:3399   */\n  mstore\n    /* \"#utility.yul\":3418:3422   */\n  0x24\n    /* \"#utility.yul\":3415:3416   */\n  0x00\n    /* \"#utility.yul\":3408:3423   */\n  revert\n    /* \"#utility.yul\":3435:3615   */\ntag_53:\n    /* \"#utility.yul\":3483:3560   */\n  0x4e487b7100000000000000000000000000000000000000000000000000000000\n    /* \"#utility.yul\":3480:3481   */\n  0x00\n    /* \"#utility.yul\":3473:3561   */\n  mstore\n    /* \"#utility.yul\":3580:3584   */\n  0x41\n    /* \"#utility.yul\":3577:3578   */\n  0x04\n    /* \"#utility.yul\":3570:3585   */\n  mstore\n    /* \"#utility.yul\":3604:3608   */\n  0x24\n    /* \"#utility.yul\":3601:3602   */\n  0x00\n    /* \"#utility.yul\":3594:3609   */\n  revert\n    /* \"#utility.yul\":3621:3743   */\ntag_40:\n    /* \"#utility.yul\":3694:3718   */\n  tag_72\n    /* \"#utility.yul\":3712:3717   */\n  dup2\n    /* \"#utility.yul\":3694:3718   */\n  tag_57\n  jump\t// in\ntag_72:\n    /* \"#utility.yul\":3687:3692   */\n  dup2\n    /* \"#utility.yul\":3684:3719   */\n  eq\n    /* \"#utility.yul\":3674:3676   */\n  tag_73\n  jumpi\n    /* \"#utility.yul\":3733:3734   */\n  0x00\n    /* \"#utility.yul\":3730:3731   */\n  dup1\n    /* \"#utility.yul\":3723:3735   */\n  revert\n    /* \"#utility.yul\":3674:3676   */\ntag_73:\n    /* \"#utility.yul\":3664:3743   */\n  pop\n  jump\t// out\n    /* \"primerContrato/reto 1/ProjectCrowdfunding.sol\":69:982  contract ProjectCrowdfunding { \r... */\ntag_11:\n  dataSize(sub_0)\n  dup1\n  dataOffset(sub_0)\n  0x00\n  codecopy\n  0x00\n  return\nstop\n\nsub_0: assembly {\n        /* \"primerContrato/reto 1/ProjectCrowdfunding.sol\":69:982  contract ProjectCrowdfunding { \r... */\n      mstore(0x40, 0x80)\n      jumpi(tag_1, lt(calldatasize, 0x04))\n      shr(0xe0, calldataload(0x00))\n      dup1\n      0xaf640d0f\n      gt\n      tag_11\n      jumpi\n      dup1\n      0xaf640d0f\n      eq\n      tag_6\n      jumpi\n      dup1\n      0xb767050d\n      eq\n      tag_7\n      jumpi\n      dup1\n      0xc19d93fb\n      eq\n      tag_8\n      jumpi\n      dup1\n      0xc89f2ce4\n      eq\n      tag_9\n      jumpi\n      dup1\n      0xd63dc661\n      eq\n      tag_10\n      jumpi\n      jump(tag_1)\n    tag_11:\n      dup1\n      0x06fdde03\n      eq\n      tag_2\n      jumpi\n      dup1\n      0x304d320b\n      eq\n      tag_3\n      jumpi\n      dup1\n      0x7284e416\n      eq\n      tag_4\n      jumpi\n      dup1\n      0xa6c3e6b9\n      eq\n      tag_5\n      jumpi\n    tag_1:\n      0x00\n      dup1\n      revert\n        /* \"primerContrato/reto 1/ProjectCrowdfunding.sol\":170:188  string public name */\n    tag_2:\n      callvalue\n      dup1\n      iszero\n      tag_12\n      jumpi\n      0x00\n      dup1\n      revert\n    tag_12:\n      pop\n      tag_13\n      tag_14\n      jump\t// in\n    tag_13:\n      mload(0x40)\n      tag_15\n      swap2\n      swap1\n      tag_16\n      jump\t// in\n    tag_15:\n      mload(0x40)\n      dup1\n      swap2\n      sub\n      swap1\n      return\n        /* \"primerContrato/reto 1/ProjectCrowdfunding.sol\":324:350  uint public fudraisingGoal */\n    tag_3:\n      callvalue\n      dup1\n      iszero\n      tag_17\n      jumpi\n      0x00\n      dup1\n      revert\n    tag_17:\n      pop\n      tag_18\n      tag_19\n      jump\t// in\n    tag_18:\n      mload(0x40)\n      tag_20\n      swap2\n      swap1\n      tag_21\n      jump\t// in\n    tag_20:\n      mload(0x40)\n      dup1\n      swap2\n      sub\n      swap1\n      return\n        /* \"primerContrato/reto 1/ProjectCrowdfunding.sol\":195:220  string public description */\n    tag_4:\n      callvalue\n      dup1\n      iszero\n      tag_22\n      jumpi\n      0x00\n      dup1\n      revert\n    tag_22:\n      pop\n      tag_23\n      tag_24\n      jump\t// in\n    tag_23:\n      mload(0x40)\n      tag_25\n      swap2\n      swap1\n      tag_16\n      jump\t// in\n    tag_25:\n      mload(0x40)\n      dup1\n      swap2\n      sub\n      swap1\n      return\n        /* \"primerContrato/reto 1/ProjectCrowdfunding.sol\":227:256  address payable public author */\n    tag_5:\n      callvalue\n      dup1\n      iszero\n      tag_26\n      jumpi\n      0x00\n      dup1\n      revert\n    tag_26:\n      pop\n      tag_27\n      tag_28\n      jump\t// in\n    tag_27:\n      mload(0x40)\n      tag_29\n      swap2\n      swap1\n      tag_30\n      jump\t// in\n    tag_29:\n      mload(0x40)\n      dup1\n      swap2\n      sub\n      swap1\n      return\n        /* \"primerContrato/reto 1/ProjectCrowdfunding.sol\":147:163  string public id */\n    tag_6:\n      callvalue\n      dup1\n      iszero\n      tag_31\n      jumpi\n      0x00\n      dup1\n      revert\n    tag_31:\n      pop\n      tag_32\n      tag_33\n      jump\t// in\n    tag_32:\n      mload(0x40)\n      tag_34\n      swap2\n      swap1\n      tag_16\n      jump\t// in\n    tag_34:\n      mload(0x40)\n      dup1\n      swap2\n      sub\n      swap1\n      return\n        /* \"primerContrato/reto 1/ProjectCrowdfunding.sol\":882:979  function changeProjectState(string calldata newState) public  {\r... */\n    tag_7:\n      callvalue\n      dup1\n      iszero\n      tag_35\n      jumpi\n      0x00\n      dup1\n      revert\n    tag_35:\n      pop\n      tag_36\n      0x04\n      dup1\n      calldatasize\n      sub\n      dup2\n      add\n      swap1\n      tag_37\n      swap2\n      swap1\n      tag_38\n      jump\t// in\n    tag_37:\n      tag_39\n      jump\t// in\n    tag_36:\n      stop\n        /* \"primerContrato/reto 1/ProjectCrowdfunding.sol\":263:293  string public state = 'Opened' */\n    tag_8:\n      callvalue\n      dup1\n      iszero\n      tag_40\n      jumpi\n      0x00\n      dup1\n      revert\n    tag_40:\n      pop\n      tag_41\n      tag_42\n      jump\t// in\n    tag_41:\n      mload(0x40)\n      tag_43\n      swap2\n      swap1\n      tag_16\n      jump\t// in\n    tag_43:\n      mload(0x40)\n      dup1\n      swap2\n      sub\n      swap1\n      return\n        /* \"primerContrato/reto 1/ProjectCrowdfunding.sol\":300:317  uint public funds */\n    tag_9:\n      callvalue\n      dup1\n      iszero\n      tag_44\n      jumpi\n      0x00\n      dup1\n      revert\n    tag_44:\n      pop\n      tag_45\n      tag_46\n      jump\t// in\n    tag_45:\n      mload(0x40)\n      tag_47\n      swap2\n      swap1\n      tag_21\n      jump\t// in\n    tag_47:\n      mload(0x40)\n      dup1\n      swap2\n      sub\n      swap1\n      return\n        /* \"primerContrato/reto 1/ProjectCrowdfunding.sol\":710:823  function fundProject() public payable { \r... */\n    tag_10:\n      tag_48\n      tag_49\n      jump\t// in\n    tag_48:\n      stop\n        /* \"primerContrato/reto 1/ProjectCrowdfunding.sol\":170:188  string public name */\n    tag_14:\n      0x01\n      dup1\n      sload\n      tag_50\n      swap1\n      tag_51\n      jump\t// in\n    tag_50:\n      dup1\n      0x1f\n      add\n      0x20\n      dup1\n      swap2\n      div\n      mul\n      0x20\n      add\n      mload(0x40)\n      swap1\n      dup2\n      add\n      0x40\n      mstore\n      dup1\n      swap3\n      swap2\n      swap1\n      dup2\n      dup2\n      mstore\n      0x20\n      add\n      dup3\n      dup1\n      sload\n      tag_52\n      swap1\n      tag_51\n      jump\t// in\n    tag_52:\n      dup1\n      iszero\n      tag_53\n      jumpi\n      dup1\n      0x1f\n      lt\n      tag_54\n      jumpi\n      0x0100\n      dup1\n      dup4\n      sload\n      div\n      mul\n      dup4\n      mstore\n      swap2\n      0x20\n      add\n      swap2\n      jump(tag_53)\n    tag_54:\n      dup3\n      add\n      swap2\n      swap1\n      0x00\n      mstore\n      keccak256(0x00, 0x20)\n      swap1\n    tag_55:\n      dup2\n      sload\n      dup2\n      mstore\n      swap1\n      0x01\n      add\n      swap1\n      0x20\n      add\n      dup1\n      dup4\n      gt\n      tag_55\n      jumpi\n      dup3\n      swap1\n      sub\n      0x1f\n      and\n      dup3\n      add\n      swap2\n    tag_53:\n      pop\n      pop\n      pop\n      pop\n      pop\n      dup2\n      jump\t// out\n        /* \"primerContrato/reto 1/ProjectCrowdfunding.sol\":324:350  uint public fudraisingGoal */\n    tag_19:\n      sload(0x06)\n      dup2\n      jump\t// out\n        /* \"primerContrato/reto 1/ProjectCrowdfunding.sol\":195:220  string public description */\n    tag_24:\n      0x02\n      dup1\n      sload\n      tag_56\n      swap1\n      tag_51\n      jump\t// in\n    tag_56:\n      dup1\n      0x1f\n      add\n      0x20\n      dup1\n      swap2\n      div\n      mul\n      0x20\n      add\n      mload(0x40)\n      swap1\n      dup2\n      add\n      0x40\n      mstore\n      dup1\n      swap3\n      swap2\n      swap1\n      dup2\n      dup2\n      mstore\n      0x20\n      add\n      dup3\n      dup1\n      sload\n      tag_57\n      swap1\n      tag_51\n      jump\t// in\n    tag_57:\n      dup1\n      iszero\n      tag_58\n      jumpi\n      dup1\n      0x1f\n      lt\n      tag_59\n      jumpi\n      0x0100\n      dup1\n      dup4\n      sload\n      div\n      mul\n      dup4\n      mstore\n      swap2\n      0x20\n      add\n      swap2\n      jump(tag_58)\n    tag_59:\n      dup3\n      add\n      swap2\n      swap1\n      0x00\n      mstore\n      keccak256(0x00, 0x20)\n      swap1\n    tag_60:\n      dup2\n      sload\n      dup2\n      mstore\n      swap1\n      0x01\n      add\n      swap1\n      0x20\n      add\n      dup1\n      dup4\n      gt\n      tag_60\n      jumpi\n      dup3\n      swap1\n      sub\n      0x1f\n      and\n      dup3\n      add\n      swap2\n    tag_58:\n      pop\n      pop\n      pop\n      pop\n      pop\n      dup2\n      jump\t// out\n        /* \"primerContrato/reto 1/ProjectCrowdfunding.sol\":227:256  address payable public author */\n    tag_28:\n      0x03\n      0x00\n      swap1\n      sload\n      swap1\n      0x0100\n      exp\n      swap1\n      div\n      0xffffffffffffffffffffffffffffffffffffffff\n      and\n      dup2\n      jump\t// out\n        /* \"primerContrato/reto 1/ProjectCrowdfunding.sol\":147:163  string public id */\n    tag_33:\n      0x00\n      dup1\n      sload\n      tag_61\n      swap1\n      tag_51\n      jump\t// in\n    tag_61:\n      dup1\n      0x1f\n      add\n      0x20\n      dup1\n      swap2\n      div\n      mul\n      0x20\n      add\n      mload(0x40)\n      swap1\n      dup2\n      add\n      0x40\n      mstore\n      dup1\n      swap3\n      swap2\n      swap1\n      dup2\n      dup2\n      mstore\n      0x20\n      add\n      dup3\n      dup1\n      sload\n      tag_62\n      swap1\n      tag_51\n      jump\t// in\n    tag_62:\n      dup1\n      iszero\n      tag_63\n      jumpi\n      dup1\n      0x1f\n      lt\n      tag_64\n      jumpi\n      0x0100\n      dup1\n      dup4\n      sload\n      div\n      mul\n      dup4\n      mstore\n      swap2\n      0x20\n      add\n      swap2\n      jump(tag_63)\n    tag_64:\n      dup3\n      add\n      swap2\n      swap1\n      0x00\n      mstore\n      keccak256(0x00, 0x20)\n      swap1\n    tag_65:\n      dup2\n      sload\n      dup2\n      mstore\n      swap1\n      0x01\n      add\n      swap1\n      0x20\n      add\n      dup1\n      dup4\n      gt\n      tag_65\n      jumpi\n      dup3\n      swap1\n      sub\n      0x1f\n      and\n      dup3\n      add\n      swap2\n    tag_63:\n      pop\n      pop\n      pop\n      pop\n      pop\n      dup2\n      jump\t// out\n        /* \"primerContrato/reto 1/ProjectCrowdfunding.sol\":882:979  function changeProjectState(string calldata newState) public  {\r... */\n    tag_39:\n        /* \"primerContrato/reto 1/ProjectCrowdfunding.sol\":963:971  newState */\n      dup2\n      dup2\n        /* \"primerContrato/reto 1/ProjectCrowdfunding.sol\":955:960  state */\n      0x04\n        /* \"primerContrato/reto 1/ProjectCrowdfunding.sol\":955:971  state = newState */\n      swap2\n      swap1\n      tag_67\n      swap3\n      swap2\n      swap1\n      tag_68\n      jump\t// in\n    tag_67:\n      pop\n        /* \"primerContrato/reto 1/ProjectCrowdfunding.sol\":882:979  function changeProjectState(string calldata newState) public  {\r... */\n      pop\n      pop\n      jump\t// out\n        /* \"primerContrato/reto 1/ProjectCrowdfunding.sol\":263:293  string public state = 'Opened' */\n    tag_42:\n      0x04\n      dup1\n      sload\n      tag_69\n      swap1\n      tag_51\n      jump\t// in\n    tag_69:\n      dup1\n      0x1f\n      add\n      0x20\n      dup1\n      swap2\n      div\n      mul\n      0x20\n      add\n      mload(0x40)\n      swap1\n      dup2\n      add\n      0x40\n      mstore\n      dup1\n      swap3\n      swap2\n      swap1\n      dup2\n      dup2\n      mstore\n      0x20\n      add\n      dup3\n      dup1\n      sload\n      tag_70\n      swap1\n      tag_51\n      jump\t// in\n    tag_70:\n      dup1\n      iszero\n      tag_71\n      jumpi\n      dup1\n      0x1f\n      lt\n      tag_72\n      jumpi\n      0x0100\n      dup1\n      dup4\n      sload\n      div\n      mul\n      dup4\n      mstore\n      swap2\n      0x20\n      add\n      swap2\n      jump(tag_71)\n    tag_72:\n      dup3\n      add\n      swap2\n      swap1\n      0x00\n      mstore\n      keccak256(0x00, 0x20)\n      swap1\n    tag_73:\n      dup2\n      sload\n      dup2\n      mstore\n      swap1\n      0x01\n      add\n      swap1\n      0x20\n      add\n      dup1\n      dup4\n      gt\n      tag_73\n      jumpi\n      dup3\n      swap1\n      sub\n      0x1f\n      and\n      dup3\n      add\n      swap2\n    tag_71:\n      pop\n      pop\n      pop\n      pop\n      pop\n      dup2\n      jump\t// out\n        /* \"primerContrato/reto 1/ProjectCrowdfunding.sol\":300:317  uint public funds */\n    tag_46:\n      sload(0x05)\n      dup2\n      jump\t// out\n        /* \"primerContrato/reto 1/ProjectCrowdfunding.sol\":710:823  function fundProject() public payable { \r... */\n    tag_49:\n        /* \"primerContrato/reto 1/ProjectCrowdfunding.sol\":760:766  author */\n      0x03\n      0x00\n      swap1\n      sload\n      swap1\n      0x0100\n      exp\n      swap1\n      div\n      0xffffffffffffffffffffffffffffffffffffffff\n      and\n        /* \"primerContrato/reto 1/ProjectCrowdfunding.sol\":760:775  author.transfer */\n      0xffffffffffffffffffffffffffffffffffffffff\n      and\n        /* \"primerContrato/reto 1/ProjectCrowdfunding.sol\":760:786  author.transfer(msg.value) */\n      0x08fc\n        /* \"primerContrato/reto 1/ProjectCrowdfunding.sol\":776:785  msg.value */\n      callvalue\n        /* \"primerContrato/reto 1/ProjectCrowdfunding.sol\":760:786  author.transfer(msg.value) */\n      swap1\n      dup2\n      iszero\n      mul\n      swap1\n      mload(0x40)\n      0x00\n      mload(0x40)\n      dup1\n      dup4\n      sub\n      dup2\n      dup6\n      dup9\n      dup9\n      call\n      swap4\n      pop\n      pop\n      pop\n      pop\n      iszero\n      dup1\n      iszero\n      tag_76\n      jumpi\n      returndatasize\n      0x00\n      dup1\n      returndatacopy\n      revert(0x00, returndatasize)\n    tag_76:\n      pop\n        /* \"primerContrato/reto 1/ProjectCrowdfunding.sol\":806:815  msg.value */\n      callvalue\n        /* \"primerContrato/reto 1/ProjectCrowdfunding.sol\":797:802  funds */\n      0x05\n      0x00\n        /* \"primerContrato/reto 1/ProjectCrowdfunding.sol\":797:815  funds += msg.value */\n      dup3\n      dup3\n      sload\n      tag_77\n      swap2\n      swap1\n      tag_78\n      jump\t// in\n    tag_77:\n      swap3\n      pop\n      pop\n      dup2\n      swap1\n      sstore\n      pop\n        /* \"primerContrato/reto 1/ProjectCrowdfunding.sol\":710:823  function fundProject() public payable { \r... */\n      jump\t// out\n    tag_68:\n      dup3\n      dup1\n      sload\n      tag_79\n      swap1\n      tag_51\n      jump\t// in\n    tag_79:\n      swap1\n      0x00\n      mstore\n      keccak256(0x00, 0x20)\n      swap1\n      0x1f\n      add\n      0x20\n      swap1\n      div\n      dup2\n      add\n      swap3\n      dup3\n      tag_81\n      jumpi\n      0x00\n      dup6\n      sstore\n      jump(tag_80)\n    tag_81:\n      dup3\n      0x1f\n      lt\n      tag_82\n      jumpi\n      dup1\n      calldataload\n      not(0xff)\n      and\n      dup4\n      dup1\n      add\n      or\n      dup6\n      sstore\n      jump(tag_80)\n    tag_82:\n      dup3\n      dup1\n      add\n      0x01\n      add\n      dup6\n      sstore\n      dup3\n      iszero\n      tag_80\n      jumpi\n      swap2\n      dup3\n      add\n    tag_83:\n      dup3\n      dup2\n      gt\n      iszero\n      tag_84\n      jumpi\n      dup3\n      calldataload\n      dup3\n      sstore\n      swap2\n      0x20\n      add\n      swap2\n      swap1\n      0x01\n      add\n      swap1\n      jump(tag_83)\n    tag_84:\n    tag_80:\n      pop\n      swap1\n      pop\n      tag_85\n      swap2\n      swap1\n      tag_86\n      jump\t// in\n    tag_85:\n      pop\n      swap1\n      jump\t// out\n    tag_86:\n    tag_87:\n      dup1\n      dup3\n      gt\n      iszero\n      tag_88\n      jumpi\n      0x00\n      dup2\n      0x00\n      swap1\n      sstore\n      pop\n      0x01\n      add\n      jump(tag_87)\n    tag_88:\n      pop\n      swap1\n      jump\t// out\n        /* \"#utility.yul\":21:373   */\n    tag_90:\n      0x00\n      dup1\n        /* \"#utility.yul\":139:142   */\n      dup4\n        /* \"#utility.yul\":132:136   */\n      0x1f\n        /* \"#utility.yul\":124:130   */\n      dup5\n        /* \"#utility.yul\":120:137   */\n      add\n        /* \"#utility.yul\":116:143   */\n      slt\n        /* \"#utility.yul\":106:108   */\n      tag_92\n      jumpi\n        /* \"#utility.yul\":157:158   */\n      0x00\n        /* \"#utility.yul\":154:155   */\n      dup1\n        /* \"#utility.yul\":147:159   */\n      revert\n        /* \"#utility.yul\":106:108   */\n    tag_92:\n        /* \"#utility.yul\":193:199   */\n      dup3\n        /* \"#utility.yul\":180:200   */\n      calldataload\n        /* \"#utility.yul\":170:200   */\n      swap1\n      pop\n        /* \"#utility.yul\":223:241   */\n      0xffffffffffffffff\n        /* \"#utility.yul\":215:221   */\n      dup2\n        /* \"#utility.yul\":212:242   */\n      gt\n        /* \"#utility.yul\":209:211   */\n      iszero\n      tag_93\n      jumpi\n        /* \"#utility.yul\":255:256   */\n      0x00\n        /* \"#utility.yul\":252:253   */\n      dup1\n        /* \"#utility.yul\":245:257   */\n      revert\n        /* \"#utility.yul\":209:211   */\n    tag_93:\n        /* \"#utility.yul\":292:296   */\n      0x20\n        /* \"#utility.yul\":284:290   */\n      dup4\n        /* \"#utility.yul\":280:297   */\n      add\n        /* \"#utility.yul\":268:297   */\n      swap2\n      pop\n        /* \"#utility.yul\":346:349   */\n      dup4\n        /* \"#utility.yul\":338:342   */\n      0x01\n        /* \"#utility.yul\":330:336   */\n      dup3\n        /* \"#utility.yul\":326:343   */\n      mul\n        /* \"#utility.yul\":316:324   */\n      dup4\n        /* \"#utility.yul\":312:344   */\n      add\n        /* \"#utility.yul\":309:350   */\n      gt\n        /* \"#utility.yul\":306:308   */\n      iszero\n      tag_94\n      jumpi\n        /* \"#utility.yul\":363:364   */\n      0x00\n        /* \"#utility.yul\":360:361   */\n      dup1\n        /* \"#utility.yul\":353:365   */\n      revert\n        /* \"#utility.yul\":306:308   */\n    tag_94:\n        /* \"#utility.yul\":96:373   */\n      swap3\n      pop\n      swap3\n      swap1\n      pop\n      jump\t// out\n        /* \"#utility.yul\":379:774   */\n    tag_38:\n      0x00\n      dup1\n        /* \"#utility.yul\":507:509   */\n      0x20\n        /* \"#utility.yul\":495:504   */\n      dup4\n        /* \"#utility.yul\":486:493   */\n      dup6\n        /* \"#utility.yul\":482:505   */\n      sub\n        /* \"#utility.yul\":478:510   */\n      slt\n        /* \"#utility.yul\":475:477   */\n      iszero\n      tag_96\n      jumpi\n        /* \"#utility.yul\":523:524   */\n      0x00\n        /* \"#utility.yul\":520:521   */\n      dup1\n        /* \"#utility.yul\":513:525   */\n      revert\n        /* \"#utility.yul\":475:477   */\n    tag_96:\n        /* \"#utility.yul\":594:595   */\n      0x00\n        /* \"#utility.yul\":583:592   */\n      dup4\n        /* \"#utility.yul\":579:596   */\n      add\n        /* \"#utility.yul\":566:597   */\n      calldataload\n        /* \"#utility.yul\":624:642   */\n      0xffffffffffffffff\n        /* \"#utility.yul\":616:622   */\n      dup2\n        /* \"#utility.yul\":613:643   */\n      gt\n        /* \"#utility.yul\":610:612   */\n      iszero\n      tag_97\n      jumpi\n        /* \"#utility.yul\":656:657   */\n      0x00\n        /* \"#utility.yul\":653:654   */\n      dup1\n        /* \"#utility.yul\":646:658   */\n      revert\n        /* \"#utility.yul\":610:612   */\n    tag_97:\n        /* \"#utility.yul\":692:757   */\n      tag_98\n        /* \"#utility.yul\":749:756   */\n      dup6\n        /* \"#utility.yul\":740:746   */\n      dup3\n        /* \"#utility.yul\":729:738   */\n      dup7\n        /* \"#utility.yul\":725:747   */\n      add\n        /* \"#utility.yul\":692:757   */\n      tag_90\n      jump\t// in\n    tag_98:\n        /* \"#utility.yul\":674:757   */\n      swap3\n      pop\n      swap3\n      pop\n        /* \"#utility.yul\":537:767   */\n      pop\n        /* \"#utility.yul\":465:774   */\n      swap3\n      pop\n      swap3\n      swap1\n      pop\n      jump\t// out\n        /* \"#utility.yul\":780:922   */\n    tag_99:\n        /* \"#utility.yul\":883:915   */\n      tag_101\n        /* \"#utility.yul\":909:914   */\n      dup2\n        /* \"#utility.yul\":883:915   */\n      tag_102\n      jump\t// in\n    tag_101:\n        /* \"#utility.yul\":878:881   */\n      dup3\n        /* \"#utility.yul\":871:916   */\n      mstore\n        /* \"#utility.yul\":861:922   */\n      pop\n      pop\n      jump\t// out\n        /* \"#utility.yul\":928:1292   */\n    tag_103:\n      0x00\n        /* \"#utility.yul\":1044:1083   */\n      tag_105\n        /* \"#utility.yul\":1077:1082   */\n      dup3\n        /* \"#utility.yul\":1044:1083   */\n      tag_106\n      jump\t// in\n    tag_105:\n        /* \"#utility.yul\":1099:1170   */\n      tag_107\n        /* \"#utility.yul\":1163:1169   */\n      dup2\n        /* \"#utility.yul\":1158:1161   */\n      dup6\n        /* \"#utility.yul\":1099:1170   */\n      tag_108\n      jump\t// in\n    tag_107:\n        /* \"#utility.yul\":1092:1170   */\n      swap4\n      pop\n        /* \"#utility.yul\":1179:1231   */\n      tag_109\n        /* \"#utility.yul\":1224:1230   */\n      dup2\n        /* \"#utility.yul\":1219:1222   */\n      dup6\n        /* \"#utility.yul\":1212:1216   */\n      0x20\n        /* \"#utility.yul\":1205:1210   */\n      dup7\n        /* \"#utility.yul\":1201:1217   */\n      add\n        /* \"#utility.yul\":1179:1231   */\n      tag_110\n      jump\t// in\n    tag_109:\n        /* \"#utility.yul\":1256:1285   */\n      tag_111\n        /* \"#utility.yul\":1278:1284   */\n      dup2\n        /* \"#utility.yul\":1256:1285   */\n      tag_112\n      jump\t// in\n    tag_111:\n        /* \"#utility.yul\":1251:1254   */\n      dup5\n        /* \"#utility.yul\":1247:1286   */\n      add\n        /* \"#utility.yul\":1240:1286   */\n      swap2\n      pop\n        /* \"#utility.yul\":1020:1292   */\n      pop\n      swap3\n      swap2\n      pop\n      pop\n      jump\t// out\n        /* \"#utility.yul\":1298:1416   */\n    tag_113:\n        /* \"#utility.yul\":1385:1409   */\n      tag_115\n        /* \"#utility.yul\":1403:1408   */\n      dup2\n        /* \"#utility.yul\":1385:1409   */\n      tag_116\n      jump\t// in\n    tag_115:\n        /* \"#utility.yul\":1380:1383   */\n      dup3\n        /* \"#utility.yul\":1373:1410   */\n      mstore\n        /* \"#utility.yul\":1363:1416   */\n      pop\n      pop\n      jump\t// out\n        /* \"#utility.yul\":1422:1676   */\n    tag_30:\n      0x00\n        /* \"#utility.yul\":1569:1571   */\n      0x20\n        /* \"#utility.yul\":1558:1567   */\n      dup3\n        /* \"#utility.yul\":1554:1572   */\n      add\n        /* \"#utility.yul\":1546:1572   */\n      swap1\n      pop\n        /* \"#utility.yul\":1582:1669   */\n      tag_118\n        /* \"#utility.yul\":1666:1667   */\n      0x00\n        /* \"#utility.yul\":1655:1664   */\n      dup4\n        /* \"#utility.yul\":1651:1668   */\n      add\n        /* \"#utility.yul\":1642:1648   */\n      dup5\n        /* \"#utility.yul\":1582:1669   */\n      tag_99\n      jump\t// in\n    tag_118:\n        /* \"#utility.yul\":1536:1676   */\n      swap3\n      swap2\n      pop\n      pop\n      jump\t// out\n        /* \"#utility.yul\":1682:1995   */\n    tag_16:\n      0x00\n        /* \"#utility.yul\":1833:1835   */\n      0x20\n        /* \"#utility.yul\":1822:1831   */\n      dup3\n        /* \"#utility.yul\":1818:1836   */\n      add\n        /* \"#utility.yul\":1810:1836   */\n      swap1\n      pop\n        /* \"#utility.yul\":1882:1891   */\n      dup2\n        /* \"#utility.yul\":1876:1880   */\n      dup2\n        /* \"#utility.yul\":1872:1892   */\n      sub\n        /* \"#utility.yul\":1868:1869   */\n      0x00\n        /* \"#utility.yul\":1857:1866   */\n      dup4\n        /* \"#utility.yul\":1853:1870   */\n      add\n        /* \"#utility.yul\":1846:1893   */\n      mstore\n        /* \"#utility.yul\":1910:1988   */\n      tag_120\n        /* \"#utility.yul\":1983:1987   */\n      dup2\n        /* \"#utility.yul\":1974:1980   */\n      dup5\n        /* \"#utility.yul\":1910:1988   */\n      tag_103\n      jump\t// in\n    tag_120:\n        /* \"#utility.yul\":1902:1988   */\n      swap1\n      pop\n        /* \"#utility.yul\":1800:1995   */\n      swap3\n      swap2\n      pop\n      pop\n      jump\t// out\n        /* \"#utility.yul\":2001:2223   */\n    tag_21:\n      0x00\n        /* \"#utility.yul\":2132:2134   */\n      0x20\n        /* \"#utility.yul\":2121:2130   */\n      dup3\n        /* \"#utility.yul\":2117:2135   */\n      add\n        /* \"#utility.yul\":2109:2135   */\n      swap1\n      pop\n        /* \"#utility.yul\":2145:2216   */\n      tag_122\n        /* \"#utility.yul\":2213:2214   */\n      0x00\n        /* \"#utility.yul\":2202:2211   */\n      dup4\n        /* \"#utility.yul\":2198:2215   */\n      add\n        /* \"#utility.yul\":2189:2195   */\n      dup5\n        /* \"#utility.yul\":2145:2216   */\n      tag_113\n      jump\t// in\n    tag_122:\n        /* \"#utility.yul\":2099:2223   */\n      swap3\n      swap2\n      pop\n      pop\n      jump\t// out\n        /* \"#utility.yul\":2229:2328   */\n    tag_106:\n      0x00\n        /* \"#utility.yul\":2315:2320   */\n      dup2\n        /* \"#utility.yul\":2309:2321   */\n      mload\n        /* \"#utility.yul\":2299:2321   */\n      swap1\n      pop\n        /* \"#utility.yul\":2288:2328   */\n      swap2\n      swap1\n      pop\n      jump\t// out\n        /* \"#utility.yul\":2334:2503   */\n    tag_108:\n      0x00\n        /* \"#utility.yul\":2452:2458   */\n      dup3\n        /* \"#utility.yul\":2447:2450   */\n      dup3\n        /* \"#utility.yul\":2440:2459   */\n      mstore\n        /* \"#utility.yul\":2492:2496   */\n      0x20\n        /* \"#utility.yul\":2487:2490   */\n      dup3\n        /* \"#utility.yul\":2483:2497   */\n      add\n        /* \"#utility.yul\":2468:2497   */\n      swap1\n      pop\n        /* \"#utility.yul\":2430:2503   */\n      swap3\n      swap2\n      pop\n      pop\n      jump\t// out\n        /* \"#utility.yul\":2509:2814   */\n    tag_78:\n      0x00\n        /* \"#utility.yul\":2568:2588   */\n      tag_126\n        /* \"#utility.yul\":2586:2587   */\n      dup3\n        /* \"#utility.yul\":2568:2588   */\n      tag_116\n      jump\t// in\n    tag_126:\n        /* \"#utility.yul\":2563:2588   */\n      swap2\n      pop\n        /* \"#utility.yul\":2602:2622   */\n      tag_127\n        /* \"#utility.yul\":2620:2621   */\n      dup4\n        /* \"#utility.yul\":2602:2622   */\n      tag_116\n      jump\t// in\n    tag_127:\n        /* \"#utility.yul\":2597:2622   */\n      swap3\n      pop\n        /* \"#utility.yul\":2756:2757   */\n      dup3\n        /* \"#utility.yul\":2688:2754   */\n      0xffffffffffffffffffffffffffffffffffffffffffffffffffffffffffffffff\n        /* \"#utility.yul\":2684:2758   */\n      sub\n        /* \"#utility.yul\":2681:2682   */\n      dup3\n        /* \"#utility.yul\":2678:2759   */\n      gt\n        /* \"#utility.yul\":2675:2677   */\n      iszero\n      tag_128\n      jumpi\n        /* \"#utility.yul\":2762:2780   */\n      tag_129\n      tag_130\n      jump\t// in\n    tag_129:\n        /* \"#utility.yul\":2675:2677   */\n    tag_128:\n        /* \"#utility.yul\":2806:2807   */\n      dup3\n        /* \"#utility.yul\":2803:2804   */\n      dup3\n        /* \"#utility.yul\":2799:2808   */\n      add\n        /* \"#utility.yul\":2792:2808   */\n      swap1\n      pop\n        /* \"#utility.yul\":2553:2814   */\n      swap3\n      swap2\n      pop\n      pop\n      jump\t// out\n        /* \"#utility.yul\":2820:2924   */\n    tag_102:\n      0x00\n        /* \"#utility.yul\":2894:2918   */\n      tag_132\n        /* \"#utility.yul\":2912:2917   */\n      dup3\n        /* \"#utility.yul\":2894:2918   */\n      tag_133\n      jump\t// in\n    tag_132:\n        /* \"#utility.yul\":2883:2918   */\n      swap1\n      pop\n        /* \"#utility.yul\":2873:2924   */\n      swap2\n      swap1\n      pop\n      jump\t// out\n        /* \"#utility.yul\":2930:3056   */\n    tag_133:\n      0x00\n        /* \"#utility.yul\":3007:3049   */\n      0xffffffffffffffffffffffffffffffffffffffff\n        /* \"#utility.yul\":3000:3005   */\n      dup3\n        /* \"#utility.yul\":2996:3050   */\n      and\n        /* \"#utility.yul\":2985:3050   */\n      swap1\n      pop\n        /* \"#utility.yul\":2975:3056   */\n      swap2\n      swap1\n      pop\n      jump\t// out\n        /* \"#utility.yul\":3062:3139   */\n    tag_116:\n      0x00\n        /* \"#utility.yul\":3128:3133   */\n      dup2\n        /* \"#utility.yul\":3117:3133   */\n      swap1\n      pop\n        /* \"#utility.yul\":3107:3139   */\n      swap2\n      swap1\n      pop\n      jump\t// out\n        /* \"#utility.yul\":3145:3452   */\n    tag_110:\n        /* \"#utility.yul\":3213:3214   */\n      0x00\n        /* \"#utility.yul\":3223:3336   */\n    tag_137:\n        /* \"#utility.yul\":3237:3243   */\n      dup4\n        /* \"#utility.yul\":3234:3235   */\n      dup2\n        /* \"#utility.yul\":3231:3244   */\n      lt\n        /* \"#utility.yul\":3223:3336   */\n      iszero\n      tag_139\n      jumpi\n        /* \"#utility.yul\":3322:3323   */\n      dup1\n        /* \"#utility.yul\":3317:3320   */\n      dup3\n        /* \"#utility.yul\":3313:3324   */\n      add\n        /* \"#utility.yul\":3307:3325   */\n      mload\n        /* \"#utility.yul\":3303:3304   */\n      dup2\n        /* \"#utility.yul\":3298:3301   */\n      dup5\n        /* \"#utility.yul\":3294:3305   */\n      add\n        /* \"#utility.yul\":3287:3326   */\n      mstore\n        /* \"#utility.yul\":3259:3261   */\n      0x20\n        /* \"#utility.yul\":3256:3257   */\n      dup2\n        /* \"#utility.yul\":3252:3262   */\n      add\n        /* \"#utility.yul\":3247:3262   */\n      swap1\n      pop\n        /* \"#utility.yul\":3223:3336   */\n      jump(tag_137)\n    tag_139:\n        /* \"#utility.yul\":3354:3360   */\n      dup4\n        /* \"#utility.yul\":3351:3352   */\n      dup2\n        /* \"#utility.yul\":3348:3361   */\n      gt\n        /* \"#utility.yul\":3345:3347   */\n      iszero\n      tag_140\n      jumpi\n        /* \"#utility.yul\":3434:3435   */\n      0x00\n        /* \"#utility.yul\":3425:3431   */\n      dup5\n        /* \"#utility.yul\":3420:3423   */\n      dup5\n        /* \"#utility.yul\":3416:3432   */\n      add\n        /* \"#utility.yul\":3409:3436   */\n      mstore\n        /* \"#utility.yul\":3345:3347   */\n    tag_140:\n        /* \"#utility.yul\":3194:3452   */\n      pop\n      pop\n      pop\n      pop\n      jump\t// out\n        /* \"#utility.yul\":3458:3778   */\n    tag_51:\n      0x00\n        /* \"#utility.yul\":3539:3540   */\n      0x02\n        /* \"#utility.yul\":3533:3537   */\n      dup3\n        /* \"#utility.yul\":3529:3541   */\n      div\n        /* \"#utility.yul\":3519:3541   */\n      swap1\n      pop\n        /* \"#utility.yul\":3586:3587   */\n      0x01\n        /* \"#utility.yul\":3580:3584   */\n      dup3\n        /* \"#utility.yul\":3576:3588   */\n      and\n        /* \"#utility.yul\":3607:3625   */\n      dup1\n        /* \"#utility.yul\":3597:3599   */\n      tag_142\n      jumpi\n        /* \"#utility.yul\":3663:3667   */\n      0x7f\n        /* \"#utility.yul\":3655:3661   */\n      dup3\n        /* \"#utility.yul\":3651:3668   */\n      and\n        /* \"#utility.yul\":3641:3668   */\n      swap2\n      pop\n        /* \"#utility.yul\":3597:3599   */\n    tag_142:\n        /* \"#utility.yul\":3725:3727   */\n      0x20\n        /* \"#utility.yul\":3717:3723   */\n      dup3\n        /* \"#utility.yul\":3714:3728   */\n      lt\n        /* \"#utility.yul\":3694:3712   */\n      dup2\n        /* \"#utility.yul\":3691:3729   */\n      eq\n        /* \"#utility.yul\":3688:3690   */\n      iszero\n      tag_143\n      jumpi\n        /* \"#utility.yul\":3744:3762   */\n      tag_144\n      tag_145\n      jump\t// in\n    tag_144:\n        /* \"#utility.yul\":3688:3690   */\n    tag_143:\n        /* \"#utility.yul\":3509:3778   */\n      pop\n      swap2\n      swap1\n      pop\n      jump\t// out\n        /* \"#utility.yul\":3784:3964   */\n    tag_130:\n        /* \"#utility.yul\":3832:3909   */\n      0x4e487b7100000000000000000000000000000000000000000000000000000000\n        /* \"#utility.yul\":3829:3830   */\n      0x00\n        /* \"#utility.yul\":3822:3910   */\n      mstore\n        /* \"#utility.yul\":3929:3933   */\n      0x11\n        /* \"#utility.yul\":3926:3927   */\n      0x04\n        /* \"#utility.yul\":3919:3934   */\n      mstore\n        /* \"#utility.yul\":3953:3957   */\n      0x24\n        /* \"#utility.yul\":3950:3951   */\n      0x00\n        /* \"#utility.yul\":3943:3958   */\n      revert\n        /* \"#utility.yul\":3970:4150   */\n    tag_145:\n        /* \"#utility.yul\":4018:4095   */\n      0x4e487b7100000000000000000000000000000000000000000000000000000000\n        /* \"#utility.yul\":4015:4016   */\n      0x00\n        /* \"#utility.yul\":4008:4096   */\n      mstore\n        /* \"#utility.yul\":4115:4119   */\n      0x22\n        /* \"#utility.yul\":4112:4113   */\n      0x04\n        /* \"#utility.yul\":4105:4120   */\n      mstore\n        /* \"#utility.yul\":4139:4143   */\n      0x24\n        /* \"#utility.yul\":4136:4137   */\n      0x00\n        /* \"#utility.yul\":4129:4144   */\n      revert\n        /* \"#utility.yul\":4156:4258   */\n    tag_112:\n      0x00\n        /* \"#utility.yul\":4248:4250   */\n      0x1f\n        /* \"#utility.yul\":4244:4251   */\n      not\n        /* \"#utility.yul\":4239:4241   */\n      0x1f\n        /* \"#utility.yul\":4232:4237   */\n      dup4\n        /* \"#utility.yul\":4228:4242   */\n      add\n        /* \"#utility.yul\":4224:4252   */\n      and\n        /* \"#utility.yul\":4214:4252   */\n      swap1\n      pop\n        /* \"#utility.yul\":4204:4258   */\n      swap2\n      swap1\n      pop\n      jump\t// out\n\n    auxdata: 0xa26469706673582212204d2ac92f0599268adb653599ca0ab5cf237fcc4fbedb3f33ca8a7dce4090922864736f6c63430008000033\n}\n",
				"bytecode": {
					"linkReferences": {},
					"object": "60806040526040518060400160405280600681526020017f4f70656e65640000000000000000000000000000000000000000000000000000815250600490805190602001906200005192919062000122565b503480156200005f57600080fd5b5060405162000cff38038062000cff83398181016040528101906200008591906200025b565b83600090805190602001906200009d92919062000122565b508260019080519060200190620000b692919062000122565b508160029080519060200190620000cf92919062000122565b508060068190555033600360006101000a81548173ffffffffffffffffffffffffffffffffffffffff021916908373ffffffffffffffffffffffffffffffffffffffff1602179055505050505062000467565b8280546200013090620003b9565b90600052602060002090601f016020900481019282620001545760008555620001a0565b82601f106200016f57805160ff1916838001178555620001a0565b82800160010185558215620001a0579182015b828111156200019f57825182559160200191906001019062000182565b5b509050620001af9190620001b3565b5090565b5b80821115620001ce576000816000905550600101620001b4565b5090565b6000620001e9620001e38462000346565b62000312565b9050828152602081018484840111156200020257600080fd5b6200020f84828562000383565b509392505050565b600082601f8301126200022957600080fd5b81516200023b848260208601620001d2565b91505092915050565b60008151905062000255816200044d565b92915050565b600080600080608085870312156200027257600080fd5b600085015167ffffffffffffffff8111156200028d57600080fd5b6200029b8782880162000217565b945050602085015167ffffffffffffffff811115620002b957600080fd5b620002c78782880162000217565b935050604085015167ffffffffffffffff811115620002e557600080fd5b620002f38782880162000217565b9250506060620003068782880162000244565b91505092959194509250565b6000604051905081810181811067ffffffffffffffff821117156200033c576200033b6200041e565b5b8060405250919050565b600067ffffffffffffffff8211156200036457620003636200041e565b5b601f19601f8301169050602081019050919050565b6000819050919050565b60005b83811015620003a357808201518184015260208101905062000386565b83811115620003b3576000848401525b50505050565b60006002820490506001821680620003d257607f821691505b60208210811415620003e957620003e8620003ef565b5b50919050565b7f4e487b7100000000000000000000000000000000000000000000000000000000600052602260045260246000fd5b7f4e487b7100000000000000000000000000000000000000000000000000000000600052604160045260246000fd5b620004588162000379565b81146200046457600080fd5b50565b61088880620004776000396000f3fe6080604052600436106100865760003560e01c8063af640d0f11610059578063af640d0f14610137578063b767050d14610162578063c19d93fb1461018b578063c89f2ce4146101b6578063d63dc661146101e157610086565b806306fdde031461008b578063304d320b146100b65780637284e416146100e1578063a6c3e6b91461010c575b600080fd5b34801561009757600080fd5b506100a06101eb565b6040516100ad9190610693565b60405180910390f35b3480156100c257600080fd5b506100cb610279565b6040516100d891906106b5565b60405180910390f35b3480156100ed57600080fd5b506100f661027f565b6040516101039190610693565b60405180910390f35b34801561011857600080fd5b5061012161030d565b60405161012e9190610678565b60405180910390f35b34801561014357600080fd5b5061014c610333565b6040516101599190610693565b60405180910390f35b34801561016e57600080fd5b50610189600480360381019061018491906105dc565b6103c1565b005b34801561019757600080fd5b506101a06103d7565b6040516101ad9190610693565b60405180910390f35b3480156101c257600080fd5b506101cb610465565b6040516101d891906106b5565b60405180910390f35b6101e961046b565b005b600180546101f8906107b1565b80601f0160208091040260200160405190810160405280929190818152602001828054610224906107b1565b80156102715780601f1061024657610100808354040283529160200191610271565b820191906000526020600020905b81548152906001019060200180831161025457829003601f168201915b505050505081565b60065481565b6002805461028c906107b1565b80601f01602080910402602001604051908101604052809291908181526020018280546102b8906107b1565b80156103055780601f106102da57610100808354040283529160200191610305565b820191906000526020600020905b8154815290600101906020018083116102e857829003601f168201915b505050505081565b600360009054906101000a900473ffffffffffffffffffffffffffffffffffffffff1681565b60008054610340906107b1565b80601f016020809104026020016040519081016040528092919081815260200182805461036c906107b1565b80156103b95780601f1061038e576101008083540402835291602001916103b9565b820191906000526020600020905b81548152906001019060200180831161039c57829003601f168201915b505050505081565b8181600491906103d29291906104ef565b505050565b600480546103e4906107b1565b80601f0160208091040260200160405190810160405280929190818152602001828054610410906107b1565b801561045d5780601f106104325761010080835404028352916020019161045d565b820191906000526020600020905b81548152906001019060200180831161044057829003601f168201915b505050505081565b60055481565b600360009054906101000a900473ffffffffffffffffffffffffffffffffffffffff1673ffffffffffffffffffffffffffffffffffffffff166108fc349081150290604051600060405180830381858888f193505050501580156104d3573d6000803e3d6000fd5b5034600560008282546104e691906106ec565b92505081905550565b8280546104fb906107b1565b90600052602060002090601f01602090048101928261051d5760008555610564565b82601f1061053657803560ff1916838001178555610564565b82800160010185558215610564579182015b82811115610563578235825591602001919060010190610548565b5b5090506105719190610575565b5090565b5b8082111561058e576000816000905550600101610576565b5090565b60008083601f8401126105a457600080fd5b8235905067ffffffffffffffff8111156105bd57600080fd5b6020830191508360018202830111156105d557600080fd5b9250929050565b600080602083850312156105ef57600080fd5b600083013567ffffffffffffffff81111561060957600080fd5b61061585828601610592565b92509250509250929050565b61062a81610742565b82525050565b600061063b826106d0565b61064581856106db565b935061065581856020860161077e565b61065e81610841565b840191505092915050565b61067281610774565b82525050565b600060208201905061068d6000830184610621565b92915050565b600060208201905081810360008301526106ad8184610630565b905092915050565b60006020820190506106ca6000830184610669565b92915050565b600081519050919050565b600082825260208201905092915050565b60006106f782610774565b915061070283610774565b9250827fffffffffffffffffffffffffffffffffffffffffffffffffffffffffffffffff03821115610737576107366107e3565b5b828201905092915050565b600061074d82610754565b9050919050565b600073ffffffffffffffffffffffffffffffffffffffff82169050919050565b6000819050919050565b60005b8381101561079c578082015181840152602081019050610781565b838111156107ab576000848401525b50505050565b600060028204905060018216806107c957607f821691505b602082108114156107dd576107dc610812565b5b50919050565b7f4e487b7100000000000000000000000000000000000000000000000000000000600052601160045260246000fd5b7f4e487b7100000000000000000000000000000000000000000000000000000000600052602260045260246000fd5b6000601f19601f830116905091905056fea26469706673582212204d2ac92f0599268adb653599ca0ab5cf237fcc4fbedb3f33ca8a7dce4090922864736f6c63430008000033",
					"opcodes": "PUSH1 0x80 PUSH1 0x40 MSTORE PUSH1 0x40 MLOAD DUP1 PUSH1 0x40 ADD PUSH1 0x40 MSTORE DUP1 PUSH1 0x6 DUP2 MSTORE PUSH1 0x20 ADD PUSH32 0x4F70656E65640000000000000000000000000000000000000000000000000000 DUP2 MSTORE POP PUSH1 0x4 SWAP1 DUP1 MLOAD SWAP1 PUSH1 0x20 ADD SWAP1 PUSH3 0x51 SWAP3 SWAP2 SWAP1 PUSH3 0x122 JUMP JUMPDEST POP CALLVALUE DUP1 ISZERO PUSH3 0x5F JUMPI PUSH1 0x0 DUP1 REVERT JUMPDEST POP PUSH1 0x40 MLOAD PUSH3 0xCFF CODESIZE SUB DUP1 PUSH3 0xCFF DUP4 CODECOPY DUP2 DUP2 ADD PUSH1 0x40 MSTORE DUP2 ADD SWAP1 PUSH3 0x85 SWAP2 SWAP1 PUSH3 0x25B JUMP JUMPDEST DUP4 PUSH1 0x0 SWAP1 DUP1 MLOAD SWAP1 PUSH1 0x20 ADD SWAP1 PUSH3 0x9D SWAP3 SWAP2 SWAP1 PUSH3 0x122 JUMP JUMPDEST POP DUP3 PUSH1 0x1 SWAP1 DUP1 MLOAD SWAP1 PUSH1 0x20 ADD SWAP1 PUSH3 0xB6 SWAP3 SWAP2 SWAP1 PUSH3 0x122 JUMP JUMPDEST POP DUP2 PUSH1 0x2 SWAP1 DUP1 MLOAD SWAP1 PUSH1 0x20 ADD SWAP1 PUSH3 0xCF SWAP3 SWAP2 SWAP1 PUSH3 0x122 JUMP JUMPDEST POP DUP1 PUSH1 0x6 DUP2 SWAP1 SSTORE POP CALLER PUSH1 0x3 PUSH1 0x0 PUSH2 0x100 EXP DUP2 SLOAD DUP2 PUSH20 0xFFFFFFFFFFFFFFFFFFFFFFFFFFFFFFFFFFFFFFFF MUL NOT AND SWAP1 DUP4 PUSH20 0xFFFFFFFFFFFFFFFFFFFFFFFFFFFFFFFFFFFFFFFF AND MUL OR SWAP1 SSTORE POP POP POP POP POP PUSH3 0x467 JUMP JUMPDEST DUP3 DUP1 SLOAD PUSH3 0x130 SWAP1 PUSH3 0x3B9 JUMP JUMPDEST SWAP1 PUSH1 0x0 MSTORE PUSH1 0x20 PUSH1 0x0 KECCAK256 SWAP1 PUSH1 0x1F ADD PUSH1 0x20 SWAP1 DIV DUP2 ADD SWAP3 DUP3 PUSH3 0x154 JUMPI PUSH1 0x0 DUP6 SSTORE PUSH3 0x1A0 JUMP JUMPDEST DUP3 PUSH1 0x1F LT PUSH3 0x16F JUMPI DUP1 MLOAD PUSH1 0xFF NOT AND DUP4 DUP1 ADD OR DUP6 SSTORE PUSH3 0x1A0 JUMP JUMPDEST DUP3 DUP1 ADD PUSH1 0x1 ADD DUP6 SSTORE DUP3 ISZERO PUSH3 0x1A0 JUMPI SWAP2 DUP3 ADD JUMPDEST DUP3 DUP2 GT ISZERO PUSH3 0x19F JUMPI DUP3 MLOAD DUP3 SSTORE SWAP2 PUSH1 0x20 ADD SWAP2 SWAP1 PUSH1 0x1 ADD SWAP1 PUSH3 0x182 JUMP JUMPDEST JUMPDEST POP SWAP1 POP PUSH3 0x1AF SWAP2 SWAP1 PUSH3 0x1B3 JUMP JUMPDEST POP SWAP1 JUMP JUMPDEST JUMPDEST DUP1 DUP3 GT ISZERO PUSH3 0x1CE JUMPI PUSH1 0x0 DUP2 PUSH1 0x0 SWAP1 SSTORE POP PUSH1 0x1 ADD PUSH3 0x1B4 JUMP JUMPDEST POP SWAP1 JUMP JUMPDEST PUSH1 0x0 PUSH3 0x1E9 PUSH3 0x1E3 DUP5 PUSH3 0x346 JUMP JUMPDEST PUSH3 0x312 JUMP JUMPDEST SWAP1 POP DUP3 DUP2 MSTORE PUSH1 0x20 DUP2 ADD DUP5 DUP5 DUP5 ADD GT ISZERO PUSH3 0x202 JUMPI PUSH1 0x0 DUP1 REVERT JUMPDEST PUSH3 0x20F DUP5 DUP3 DUP6 PUSH3 0x383 JUMP JUMPDEST POP SWAP4 SWAP3 POP POP POP JUMP JUMPDEST PUSH1 0x0 DUP3 PUSH1 0x1F DUP4 ADD SLT PUSH3 0x229 JUMPI PUSH1 0x0 DUP1 REVERT JUMPDEST DUP2 MLOAD PUSH3 0x23B DUP5 DUP3 PUSH1 0x20 DUP7 ADD PUSH3 0x1D2 JUMP JUMPDEST SWAP2 POP POP SWAP3 SWAP2 POP POP JUMP JUMPDEST PUSH1 0x0 DUP2 MLOAD SWAP1 POP PUSH3 0x255 DUP2 PUSH3 0x44D JUMP JUMPDEST SWAP3 SWAP2 POP POP JUMP JUMPDEST PUSH1 0x0 DUP1 PUSH1 0x0 DUP1 PUSH1 0x80 DUP6 DUP8 SUB SLT ISZERO PUSH3 0x272 JUMPI PUSH1 0x0 DUP1 REVERT JUMPDEST PUSH1 0x0 DUP6 ADD MLOAD PUSH8 0xFFFFFFFFFFFFFFFF DUP2 GT ISZERO PUSH3 0x28D JUMPI PUSH1 0x0 DUP1 REVERT JUMPDEST PUSH3 0x29B DUP8 DUP3 DUP9 ADD PUSH3 0x217 JUMP JUMPDEST SWAP5 POP POP PUSH1 0x20 DUP6 ADD MLOAD PUSH8 0xFFFFFFFFFFFFFFFF DUP2 GT ISZERO PUSH3 0x2B9 JUMPI PUSH1 0x0 DUP1 REVERT JUMPDEST PUSH3 0x2C7 DUP8 DUP3 DUP9 ADD PUSH3 0x217 JUMP JUMPDEST SWAP4 POP POP PUSH1 0x40 DUP6 ADD MLOAD PUSH8 0xFFFFFFFFFFFFFFFF DUP2 GT ISZERO PUSH3 0x2E5 JUMPI PUSH1 0x0 DUP1 REVERT JUMPDEST PUSH3 0x2F3 DUP8 DUP3 DUP9 ADD PUSH3 0x217 JUMP JUMPDEST SWAP3 POP POP PUSH1 0x60 PUSH3 0x306 DUP8 DUP3 DUP9 ADD PUSH3 0x244 JUMP JUMPDEST SWAP2 POP POP SWAP3 SWAP6 SWAP2 SWAP5 POP SWAP3 POP JUMP JUMPDEST PUSH1 0x0 PUSH1 0x40 MLOAD SWAP1 POP DUP2 DUP2 ADD DUP2 DUP2 LT PUSH8 0xFFFFFFFFFFFFFFFF DUP3 GT OR ISZERO PUSH3 0x33C JUMPI PUSH3 0x33B PUSH3 0x41E JUMP JUMPDEST JUMPDEST DUP1 PUSH1 0x40 MSTORE POP SWAP2 SWAP1 POP JUMP JUMPDEST PUSH1 0x0 PUSH8 0xFFFFFFFFFFFFFFFF DUP3 GT ISZERO PUSH3 0x364 JUMPI PUSH3 0x363 PUSH3 0x41E JUMP JUMPDEST JUMPDEST PUSH1 0x1F NOT PUSH1 0x1F DUP4 ADD AND SWAP1 POP PUSH1 0x20 DUP2 ADD SWAP1 POP SWAP2 SWAP1 POP JUMP JUMPDEST PUSH1 0x0 DUP2 SWAP1 POP SWAP2 SWAP1 POP JUMP JUMPDEST PUSH1 0x0 JUMPDEST DUP4 DUP2 LT ISZERO PUSH3 0x3A3 JUMPI DUP1 DUP3 ADD MLOAD DUP2 DUP5 ADD MSTORE PUSH1 0x20 DUP2 ADD SWAP1 POP PUSH3 0x386 JUMP JUMPDEST DUP4 DUP2 GT ISZERO PUSH3 0x3B3 JUMPI PUSH1 0x0 DUP5 DUP5 ADD MSTORE JUMPDEST POP POP POP POP JUMP JUMPDEST PUSH1 0x0 PUSH1 0x2 DUP3 DIV SWAP1 POP PUSH1 0x1 DUP3 AND DUP1 PUSH3 0x3D2 JUMPI PUSH1 0x7F DUP3 AND SWAP2 POP JUMPDEST PUSH1 0x20 DUP3 LT DUP2 EQ ISZERO PUSH3 0x3E9 JUMPI PUSH3 0x3E8 PUSH3 0x3EF JUMP JUMPDEST JUMPDEST POP SWAP2 SWAP1 POP JUMP JUMPDEST PUSH32 0x4E487B7100000000000000000000000000000000000000000000000000000000 PUSH1 0x0 MSTORE PUSH1 0x22 PUSH1 0x4 MSTORE PUSH1 0x24 PUSH1 0x0 REVERT JUMPDEST PUSH32 0x4E487B7100000000000000000000000000000000000000000000000000000000 PUSH1 0x0 MSTORE PUSH1 0x41 PUSH1 0x4 MSTORE PUSH1 0x24 PUSH1 0x0 REVERT JUMPDEST PUSH3 0x458 DUP2 PUSH3 0x379 JUMP JUMPDEST DUP2 EQ PUSH3 0x464 JUMPI PUSH1 0x0 DUP1 REVERT JUMPDEST POP JUMP JUMPDEST PUSH2 0x888 DUP1 PUSH3 0x477 PUSH1 0x0 CODECOPY PUSH1 0x0 RETURN INVALID PUSH1 0x80 PUSH1 0x40 MSTORE PUSH1 0x4 CALLDATASIZE LT PUSH2 0x86 JUMPI PUSH1 0x0 CALLDATALOAD PUSH1 0xE0 SHR DUP1 PUSH4 0xAF640D0F GT PUSH2 0x59 JUMPI DUP1 PUSH4 0xAF640D0F EQ PUSH2 0x137 JUMPI DUP1 PUSH4 0xB767050D EQ PUSH2 0x162 JUMPI DUP1 PUSH4 0xC19D93FB EQ PUSH2 0x18B JUMPI DUP1 PUSH4 0xC89F2CE4 EQ PUSH2 0x1B6 JUMPI DUP1 PUSH4 0xD63DC661 EQ PUSH2 0x1E1 JUMPI PUSH2 0x86 JUMP JUMPDEST DUP1 PUSH4 0x6FDDE03 EQ PUSH2 0x8B JUMPI DUP1 PUSH4 0x304D320B EQ PUSH2 0xB6 JUMPI DUP1 PUSH4 0x7284E416 EQ PUSH2 0xE1 JUMPI DUP1 PUSH4 0xA6C3E6B9 EQ PUSH2 0x10C JUMPI JUMPDEST PUSH1 0x0 DUP1 REVERT JUMPDEST CALLVALUE DUP1 ISZERO PUSH2 0x97 JUMPI PUSH1 0x0 DUP1 REVERT JUMPDEST POP PUSH2 0xA0 PUSH2 0x1EB JUMP JUMPDEST PUSH1 0x40 MLOAD PUSH2 0xAD SWAP2 SWAP1 PUSH2 0x693 JUMP JUMPDEST PUSH1 0x40 MLOAD DUP1 SWAP2 SUB SWAP1 RETURN JUMPDEST CALLVALUE DUP1 ISZERO PUSH2 0xC2 JUMPI PUSH1 0x0 DUP1 REVERT JUMPDEST POP PUSH2 0xCB PUSH2 0x279 JUMP JUMPDEST PUSH1 0x40 MLOAD PUSH2 0xD8 SWAP2 SWAP1 PUSH2 0x6B5 JUMP JUMPDEST PUSH1 0x40 MLOAD DUP1 SWAP2 SUB SWAP1 RETURN JUMPDEST CALLVALUE DUP1 ISZERO PUSH2 0xED JUMPI PUSH1 0x0 DUP1 REVERT JUMPDEST POP PUSH2 0xF6 PUSH2 0x27F JUMP JUMPDEST PUSH1 0x40 MLOAD PUSH2 0x103 SWAP2 SWAP1 PUSH2 0x693 JUMP JUMPDEST PUSH1 0x40 MLOAD DUP1 SWAP2 SUB SWAP1 RETURN JUMPDEST CALLVALUE DUP1 ISZERO PUSH2 0x118 JUMPI PUSH1 0x0 DUP1 REVERT JUMPDEST POP PUSH2 0x121 PUSH2 0x30D JUMP JUMPDEST PUSH1 0x40 MLOAD PUSH2 0x12E SWAP2 SWAP1 PUSH2 0x678 JUMP JUMPDEST PUSH1 0x40 MLOAD DUP1 SWAP2 SUB SWAP1 RETURN JUMPDEST CALLVALUE DUP1 ISZERO PUSH2 0x143 JUMPI PUSH1 0x0 DUP1 REVERT JUMPDEST POP PUSH2 0x14C PUSH2 0x333 JUMP JUMPDEST PUSH1 0x40 MLOAD PUSH2 0x159 SWAP2 SWAP1 PUSH2 0x693 JUMP JUMPDEST PUSH1 0x40 MLOAD DUP1 SWAP2 SUB SWAP1 RETURN JUMPDEST CALLVALUE DUP1 ISZERO PUSH2 0x16E JUMPI PUSH1 0x0 DUP1 REVERT JUMPDEST POP PUSH2 0x189 PUSH1 0x4 DUP1 CALLDATASIZE SUB DUP2 ADD SWAP1 PUSH2 0x184 SWAP2 SWAP1 PUSH2 0x5DC JUMP JUMPDEST PUSH2 0x3C1 JUMP JUMPDEST STOP JUMPDEST CALLVALUE DUP1 ISZERO PUSH2 0x197 JUMPI PUSH1 0x0 DUP1 REVERT JUMPDEST POP PUSH2 0x1A0 PUSH2 0x3D7 JUMP JUMPDEST PUSH1 0x40 MLOAD PUSH2 0x1AD SWAP2 SWAP1 PUSH2 0x693 JUMP JUMPDEST PUSH1 0x40 MLOAD DUP1 SWAP2 SUB SWAP1 RETURN JUMPDEST CALLVALUE DUP1 ISZERO PUSH2 0x1C2 JUMPI PUSH1 0x0 DUP1 REVERT JUMPDEST POP PUSH2 0x1CB PUSH2 0x465 JUMP JUMPDEST PUSH1 0x40 MLOAD PUSH2 0x1D8 SWAP2 SWAP1 PUSH2 0x6B5 JUMP JUMPDEST PUSH1 0x40 MLOAD DUP1 SWAP2 SUB SWAP1 RETURN JUMPDEST PUSH2 0x1E9 PUSH2 0x46B JUMP JUMPDEST STOP JUMPDEST PUSH1 0x1 DUP1 SLOAD PUSH2 0x1F8 SWAP1 PUSH2 0x7B1 JUMP JUMPDEST DUP1 PUSH1 0x1F ADD PUSH1 0x20 DUP1 SWAP2 DIV MUL PUSH1 0x20 ADD PUSH1 0x40 MLOAD SWAP1 DUP2 ADD PUSH1 0x40 MSTORE DUP1 SWAP3 SWAP2 SWAP1 DUP2 DUP2 MSTORE PUSH1 0x20 ADD DUP3 DUP1 SLOAD PUSH2 0x224 SWAP1 PUSH2 0x7B1 JUMP JUMPDEST DUP1 ISZERO PUSH2 0x271 JUMPI DUP1 PUSH1 0x1F LT PUSH2 0x246 JUMPI PUSH2 0x100 DUP1 DUP4 SLOAD DIV MUL DUP4 MSTORE SWAP2 PUSH1 0x20 ADD SWAP2 PUSH2 0x271 JUMP JUMPDEST DUP3 ADD SWAP2 SWAP1 PUSH1 0x0 MSTORE PUSH1 0x20 PUSH1 0x0 KECCAK256 SWAP1 JUMPDEST DUP2 SLOAD DUP2 MSTORE SWAP1 PUSH1 0x1 ADD SWAP1 PUSH1 0x20 ADD DUP1 DUP4 GT PUSH2 0x254 JUMPI DUP3 SWAP1 SUB PUSH1 0x1F AND DUP3 ADD SWAP2 JUMPDEST POP POP POP POP POP DUP2 JUMP JUMPDEST PUSH1 0x6 SLOAD DUP2 JUMP JUMPDEST PUSH1 0x2 DUP1 SLOAD PUSH2 0x28C SWAP1 PUSH2 0x7B1 JUMP JUMPDEST DUP1 PUSH1 0x1F ADD PUSH1 0x20 DUP1 SWAP2 DIV MUL PUSH1 0x20 ADD PUSH1 0x40 MLOAD SWAP1 DUP2 ADD PUSH1 0x40 MSTORE DUP1 SWAP3 SWAP2 SWAP1 DUP2 DUP2 MSTORE PUSH1 0x20 ADD DUP3 DUP1 SLOAD PUSH2 0x2B8 SWAP1 PUSH2 0x7B1 JUMP JUMPDEST DUP1 ISZERO PUSH2 0x305 JUMPI DUP1 PUSH1 0x1F LT PUSH2 0x2DA JUMPI PUSH2 0x100 DUP1 DUP4 SLOAD DIV MUL DUP4 MSTORE SWAP2 PUSH1 0x20 ADD SWAP2 PUSH2 0x305 JUMP JUMPDEST DUP3 ADD SWAP2 SWAP1 PUSH1 0x0 MSTORE PUSH1 0x20 PUSH1 0x0 KECCAK256 SWAP1 JUMPDEST DUP2 SLOAD DUP2 MSTORE SWAP1 PUSH1 0x1 ADD SWAP1 PUSH1 0x20 ADD DUP1 DUP4 GT PUSH2 0x2E8 JUMPI DUP3 SWAP1 SUB PUSH1 0x1F AND DUP3 ADD SWAP2 JUMPDEST POP POP POP POP POP DUP2 JUMP JUMPDEST PUSH1 0x3 PUSH1 0x0 SWAP1 SLOAD SWAP1 PUSH2 0x100 EXP SWAP1 DIV PUSH20 0xFFFFFFFFFFFFFFFFFFFFFFFFFFFFFFFFFFFFFFFF AND DUP2 JUMP JUMPDEST PUSH1 0x0 DUP1 SLOAD PUSH2 0x340 SWAP1 PUSH2 0x7B1 JUMP JUMPDEST DUP1 PUSH1 0x1F ADD PUSH1 0x20 DUP1 SWAP2 DIV MUL PUSH1 0x20 ADD PUSH1 0x40 MLOAD SWAP1 DUP2 ADD PUSH1 0x40 MSTORE DUP1 SWAP3 SWAP2 SWAP1 DUP2 DUP2 MSTORE PUSH1 0x20 ADD DUP3 DUP1 SLOAD PUSH2 0x36C SWAP1 PUSH2 0x7B1 JUMP JUMPDEST DUP1 ISZERO PUSH2 0x3B9 JUMPI DUP1 PUSH1 0x1F LT PUSH2 0x38E JUMPI PUSH2 0x100 DUP1 DUP4 SLOAD DIV MUL DUP4 MSTORE SWAP2 PUSH1 0x20 ADD SWAP2 PUSH2 0x3B9 JUMP JUMPDEST DUP3 ADD SWAP2 SWAP1 PUSH1 0x0 MSTORE PUSH1 0x20 PUSH1 0x0 KECCAK256 SWAP1 JUMPDEST DUP2 SLOAD DUP2 MSTORE SWAP1 PUSH1 0x1 ADD SWAP1 PUSH1 0x20 ADD DUP1 DUP4 GT PUSH2 0x39C JUMPI DUP3 SWAP1 SUB PUSH1 0x1F AND DUP3 ADD SWAP2 JUMPDEST POP POP POP POP POP DUP2 JUMP JUMPDEST DUP2 DUP2 PUSH1 0x4 SWAP2 SWAP1 PUSH2 0x3D2 SWAP3 SWAP2 SWAP1 PUSH2 0x4EF JUMP JUMPDEST POP POP POP JUMP JUMPDEST PUSH1 0x4 DUP1 SLOAD PUSH2 0x3E4 SWAP1 PUSH2 0x7B1 JUMP JUMPDEST DUP1 PUSH1 0x1F ADD PUSH1 0x20 DUP1 SWAP2 DIV MUL PUSH1 0x20 ADD PUSH1 0x40 MLOAD SWAP1 DUP2 ADD PUSH1 0x40 MSTORE DUP1 SWAP3 SWAP2 SWAP1 DUP2 DUP2 MSTORE PUSH1 0x20 ADD DUP3 DUP1 SLOAD PUSH2 0x410 SWAP1 PUSH2 0x7B1 JUMP JUMPDEST DUP1 ISZERO PUSH2 0x45D JUMPI DUP1 PUSH1 0x1F LT PUSH2 0x432 JUMPI PUSH2 0x100 DUP1 DUP4 SLOAD DIV MUL DUP4 MSTORE SWAP2 PUSH1 0x20 ADD SWAP2 PUSH2 0x45D JUMP JUMPDEST DUP3 ADD SWAP2 SWAP1 PUSH1 0x0 MSTORE PUSH1 0x20 PUSH1 0x0 KECCAK256 SWAP1 JUMPDEST DUP2 SLOAD DUP2 MSTORE SWAP1 PUSH1 0x1 ADD SWAP1 PUSH1 0x20 ADD DUP1 DUP4 GT PUSH2 0x440 JUMPI DUP3 SWAP1 SUB PUSH1 0x1F AND DUP3 ADD SWAP2 JUMPDEST POP POP POP POP POP DUP2 JUMP JUMPDEST PUSH1 0x5 SLOAD DUP2 JUMP JUMPDEST PUSH1 0x3 PUSH1 0x0 SWAP1 SLOAD SWAP1 PUSH2 0x100 EXP SWAP1 DIV PUSH20 0xFFFFFFFFFFFFFFFFFFFFFFFFFFFFFFFFFFFFFFFF AND PUSH20 0xFFFFFFFFFFFFFFFFFFFFFFFFFFFFFFFFFFFFFFFF AND PUSH2 0x8FC CALLVALUE SWAP1 DUP2 ISZERO MUL SWAP1 PUSH1 0x40 MLOAD PUSH1 0x0 PUSH1 0x40 MLOAD DUP1 DUP4 SUB DUP2 DUP6 DUP9 DUP9 CALL SWAP4 POP POP POP POP ISZERO DUP1 ISZERO PUSH2 0x4D3 JUMPI RETURNDATASIZE PUSH1 0x0 DUP1 RETURNDATACOPY RETURNDATASIZE PUSH1 0x0 REVERT JUMPDEST POP CALLVALUE PUSH1 0x5 PUSH1 0x0 DUP3 DUP3 SLOAD PUSH2 0x4E6 SWAP2 SWAP1 PUSH2 0x6EC JUMP JUMPDEST SWAP3 POP POP DUP2 SWAP1 SSTORE POP JUMP JUMPDEST DUP3 DUP1 SLOAD PUSH2 0x4FB SWAP1 PUSH2 0x7B1 JUMP JUMPDEST SWAP1 PUSH1 0x0 MSTORE PUSH1 0x20 PUSH1 0x0 KECCAK256 SWAP1 PUSH1 0x1F ADD PUSH1 0x20 SWAP1 DIV DUP2 ADD SWAP3 DUP3 PUSH2 0x51D JUMPI PUSH1 0x0 DUP6 SSTORE PUSH2 0x564 JUMP JUMPDEST DUP3 PUSH1 0x1F LT PUSH2 0x536 JUMPI DUP1 CALLDATALOAD PUSH1 0xFF NOT AND DUP4 DUP1 ADD OR DUP6 SSTORE PUSH2 0x564 JUMP JUMPDEST DUP3 DUP1 ADD PUSH1 0x1 ADD DUP6 SSTORE DUP3 ISZERO PUSH2 0x564 JUMPI SWAP2 DUP3 ADD JUMPDEST DUP3 DUP2 GT ISZERO PUSH2 0x563 JUMPI DUP3 CALLDATALOAD DUP3 SSTORE SWAP2 PUSH1 0x20 ADD SWAP2 SWAP1 PUSH1 0x1 ADD SWAP1 PUSH2 0x548 JUMP JUMPDEST JUMPDEST POP SWAP1 POP PUSH2 0x571 SWAP2 SWAP1 PUSH2 0x575 JUMP JUMPDEST POP SWAP1 JUMP JUMPDEST JUMPDEST DUP1 DUP3 GT ISZERO PUSH2 0x58E JUMPI PUSH1 0x0 DUP2 PUSH1 0x0 SWAP1 SSTORE POP PUSH1 0x1 ADD PUSH2 0x576 JUMP JUMPDEST POP SWAP1 JUMP JUMPDEST PUSH1 0x0 DUP1 DUP4 PUSH1 0x1F DUP5 ADD SLT PUSH2 0x5A4 JUMPI PUSH1 0x0 DUP1 REVERT JUMPDEST DUP3 CALLDATALOAD SWAP1 POP PUSH8 0xFFFFFFFFFFFFFFFF DUP2 GT ISZERO PUSH2 0x5BD JUMPI PUSH1 0x0 DUP1 REVERT JUMPDEST PUSH1 0x20 DUP4 ADD SWAP2 POP DUP4 PUSH1 0x1 DUP3 MUL DUP4 ADD GT ISZERO PUSH2 0x5D5 JUMPI PUSH1 0x0 DUP1 REVERT JUMPDEST SWAP3 POP SWAP3 SWAP1 POP JUMP JUMPDEST PUSH1 0x0 DUP1 PUSH1 0x20 DUP4 DUP6 SUB SLT ISZERO PUSH2 0x5EF JUMPI PUSH1 0x0 DUP1 REVERT JUMPDEST PUSH1 0x0 DUP4 ADD CALLDATALOAD PUSH8 0xFFFFFFFFFFFFFFFF DUP2 GT ISZERO PUSH2 0x609 JUMPI PUSH1 0x0 DUP1 REVERT JUMPDEST PUSH2 0x615 DUP6 DUP3 DUP7 ADD PUSH2 0x592 JUMP JUMPDEST SWAP3 POP SWAP3 POP POP SWAP3 POP SWAP3 SWAP1 POP JUMP JUMPDEST PUSH2 0x62A DUP2 PUSH2 0x742 JUMP JUMPDEST DUP3 MSTORE POP POP JUMP JUMPDEST PUSH1 0x0 PUSH2 0x63B DUP3 PUSH2 0x6D0 JUMP JUMPDEST PUSH2 0x645 DUP2 DUP6 PUSH2 0x6DB JUMP JUMPDEST SWAP4 POP PUSH2 0x655 DUP2 DUP6 PUSH1 0x20 DUP7 ADD PUSH2 0x77E JUMP JUMPDEST PUSH2 0x65E DUP2 PUSH2 0x841 JUMP JUMPDEST DUP5 ADD SWAP2 POP POP SWAP3 SWAP2 POP POP JUMP JUMPDEST PUSH2 0x672 DUP2 PUSH2 0x774 JUMP JUMPDEST DUP3 MSTORE POP POP JUMP JUMPDEST PUSH1 0x0 PUSH1 0x20 DUP3 ADD SWAP1 POP PUSH2 0x68D PUSH1 0x0 DUP4 ADD DUP5 PUSH2 0x621 JUMP JUMPDEST SWAP3 SWAP2 POP POP JUMP JUMPDEST PUSH1 0x0 PUSH1 0x20 DUP3 ADD SWAP1 POP DUP2 DUP2 SUB PUSH1 0x0 DUP4 ADD MSTORE PUSH2 0x6AD DUP2 DUP5 PUSH2 0x630 JUMP JUMPDEST SWAP1 POP SWAP3 SWAP2 POP POP JUMP JUMPDEST PUSH1 0x0 PUSH1 0x20 DUP3 ADD SWAP1 POP PUSH2 0x6CA PUSH1 0x0 DUP4 ADD DUP5 PUSH2 0x669 JUMP JUMPDEST SWAP3 SWAP2 POP POP JUMP JUMPDEST PUSH1 0x0 DUP2 MLOAD SWAP1 POP SWAP2 SWAP1 POP JUMP JUMPDEST PUSH1 0x0 DUP3 DUP3 MSTORE PUSH1 0x20 DUP3 ADD SWAP1 POP SWAP3 SWAP2 POP POP JUMP JUMPDEST PUSH1 0x0 PUSH2 0x6F7 DUP3 PUSH2 0x774 JUMP JUMPDEST SWAP2 POP PUSH2 0x702 DUP4 PUSH2 0x774 JUMP JUMPDEST SWAP3 POP DUP3 PUSH32 0xFFFFFFFFFFFFFFFFFFFFFFFFFFFFFFFFFFFFFFFFFFFFFFFFFFFFFFFFFFFFFFFF SUB DUP3 GT ISZERO PUSH2 0x737 JUMPI PUSH2 0x736 PUSH2 0x7E3 JUMP JUMPDEST JUMPDEST DUP3 DUP3 ADD SWAP1 POP SWAP3 SWAP2 POP POP JUMP JUMPDEST PUSH1 0x0 PUSH2 0x74D DUP3 PUSH2 0x754 JUMP JUMPDEST SWAP1 POP SWAP2 SWAP1 POP JUMP JUMPDEST PUSH1 0x0 PUSH20 0xFFFFFFFFFFFFFFFFFFFFFFFFFFFFFFFFFFFFFFFF DUP3 AND SWAP1 POP SWAP2 SWAP1 POP JUMP JUMPDEST PUSH1 0x0 DUP2 SWAP1 POP SWAP2 SWAP1 POP JUMP JUMPDEST PUSH1 0x0 JUMPDEST DUP4 DUP2 LT ISZERO PUSH2 0x79C JUMPI DUP1 DUP3 ADD MLOAD DUP2 DUP5 ADD MSTORE PUSH1 0x20 DUP2 ADD SWAP1 POP PUSH2 0x781 JUMP JUMPDEST DUP4 DUP2 GT ISZERO PUSH2 0x7AB JUMPI PUSH1 0x0 DUP5 DUP5 ADD MSTORE JUMPDEST POP POP POP POP JUMP JUMPDEST PUSH1 0x0 PUSH1 0x2 DUP3 DIV SWAP1 POP PUSH1 0x1 DUP3 AND DUP1 PUSH2 0x7C9 JUMPI PUSH1 0x7F DUP3 AND SWAP2 POP JUMPDEST PUSH1 0x20 DUP3 LT DUP2 EQ ISZERO PUSH2 0x7DD JUMPI PUSH2 0x7DC PUSH2 0x812 JUMP JUMPDEST JUMPDEST POP SWAP2 SWAP1 POP JUMP JUMPDEST PUSH32 0x4E487B7100000000000000000000000000000000000000000000000000000000 PUSH1 0x0 MSTORE PUSH1 0x11 PUSH1 0x4 MSTORE PUSH1 0x24 PUSH1 0x0 REVERT JUMPDEST PUSH32 0x4E487B7100000000000000000000000000000000000000000000000000000000 PUSH1 0x0 MSTORE PUSH1 0x22 PUSH1 0x4 MSTORE PUSH1 0x24 PUSH1 0x0 REVERT JUMPDEST PUSH1 0x0 PUSH1 0x1F NOT PUSH1 0x1F DUP4 ADD AND SWAP1 POP SWAP2 SWAP1 POP JUMP INVALID LOG2 PUSH5 0x6970667358 0x22 SLT KECCAK256 0x4D 0x2A 0xC9 0x2F SDIV SWAP10 0x26 DUP11 0xDB PUSH6 0x3599CA0AB5CF 0x23 PUSH32 0xCC4FBEDB3F33CA8A7DCE4090922864736F6C6343000800003300000000000000 "
				},
				"gasEstimates": {
					"creation": {
						"codeDepositCost": "436800",
						"executionCost": "infinite",
						"totalCost": "infinite"
					},
					"external": {
						"author()": "1281",
						"changeProjectState(string)": "infinite",
						"description()": "infinite",
						"fudraisingGoal()": "1152",
						"fundProject()": "infinite",
						"funds()": "1195",
						"id()": "infinite",
						"name()": "infinite",
						"state()": "infinite"
					}
				},
				"methodIdentifiers": {
					"author()": "a6c3e6b9",
					"changeProjectState(string)": "b767050d",
					"description()": "7284e416",
					"fudraisingGoal()": "304d320b",
					"fundProject()": "d63dc661",
					"funds()": "c89f2ce4",
					"id()": "af640d0f",
					"name()": "06fdde03",
					"state()": "c19d93fb"
				}
			},
			"storageLayout": {
				"storage": [
					{
						"astId": 3,
						"contract": "primerContrato/reto 1/ProjectCrowdfunding.sol:ProjectCrowdfunding",
						"label": "id",
						"offset": 0,
						"slot": "0",
						"type": "t_string_storage"
					},
					{
						"astId": 5,
						"contract": "primerContrato/reto 1/ProjectCrowdfunding.sol:ProjectCrowdfunding",
						"label": "name",
						"offset": 0,
						"slot": "1",
						"type": "t_string_storage"
					},
					{
						"astId": 7,
						"contract": "primerContrato/reto 1/ProjectCrowdfunding.sol:ProjectCrowdfunding",
						"label": "description",
						"offset": 0,
						"slot": "2",
						"type": "t_string_storage"
					},
					{
						"astId": 9,
						"contract": "primerContrato/reto 1/ProjectCrowdfunding.sol:ProjectCrowdfunding",
						"label": "author",
						"offset": 0,
						"slot": "3",
						"type": "t_address_payable"
					},
					{
						"astId": 12,
						"contract": "primerContrato/reto 1/ProjectCrowdfunding.sol:ProjectCrowdfunding",
						"label": "state",
						"offset": 0,
						"slot": "4",
						"type": "t_string_storage"
					},
					{
						"astId": 14,
						"contract": "primerContrato/reto 1/ProjectCrowdfunding.sol:ProjectCrowdfunding",
						"label": "funds",
						"offset": 0,
						"slot": "5",
						"type": "t_uint256"
					},
					{
						"astId": 16,
						"contract": "primerContrato/reto 1/ProjectCrowdfunding.sol:ProjectCrowdfunding",
						"label": "fudraisingGoal",
						"offset": 0,
						"slot": "6",
						"type": "t_uint256"
					}
				],
				"types": {
					"t_address_payable": {
						"encoding": "inplace",
						"label": "address payable",
						"numberOfBytes": "20"
					},
					"t_string_storage": {
						"encoding": "bytes",
						"label": "string",
						"numberOfBytes": "32"
					},
					"t_uint256": {
						"encoding": "inplace",
						"label": "uint256",
						"numberOfBytes": "32"
					}
				}
			},
			"userdoc": {
				"kind": "user",
				"methods": {},
				"version": 1
			}
		}
	}
}