{
	"data": {
		"bytecode": {
			"linkReferences": {},
			"object": "608060405234801561001057600080fd5b5033600160006101000a81548173ffffffffffffffffffffffffffffffffffffffff021916908373ffffffffffffffffffffffffffffffffffffffff160217905550610be2806100616000396000f3fe608060405234801561001057600080fd5b506004361061004c5760003560e01c80638da5cb5b14610051578063a22641bc1461006f578063bda028421461008b578063cffb703c146100bb575b600080fd5b6100596100ec565b6040516100669190610450565b60405180910390f35b610089600480360381019061008491906105fb565b610112565b005b6100a560048036038101906100a09190610657565b610199565b6040516100b2919061069d565b60405180910390f35b6100d560048036038101906100d09190610657565b610259565b6040516100e3929190610737565b60405180910390f35b600160009054906101000a900473ffffffffffffffffffffffffffffffffffffffff1681565b6005811115610156576040517f08c379a000000000000000000000000000000000000000000000000000000000815260040161014d906107e0565b60405180910390fd5b6101956040518060400160405280600a81526020017f48616d62757267756572000000000000000000000000000000000000000000008152508361039d565b5050565b60003373ffffffffffffffffffffffffffffffffffffffff16600160009054906101000a900473ffffffffffffffffffffffffffffffffffffffff1673ffffffffffffffffffffffffffffffffffffffff161461022b576040517f08c379a000000000000000000000000000000000000000000000000000000000815260040161022290610872565b60405180910390fd5b8160405160200161023c91906108b3565b604051602081830303815290604052805190602001209050919050565b6000818154811061026957600080fd5b906000526020600020906002020160009150905080600001805461028c906108fd565b80601f01602080910402602001604051908101604052809291908181526020018280546102b8906108fd565b80156103055780601f106102da57610100808354040283529160200191610305565b820191906000526020600020905b8154815290600101906020018083116102e857829003601f168201915b50505050509080600101805461031a906108fd565b80601f0160208091040260200160405190810160405280929190818152602001828054610346906108fd565b80156103935780601f1061036857610100808354040283529160200191610393565b820191906000526020600020905b81548152906001019060200180831161037657829003601f168201915b5050505050905082565b6000604051806040016040528084815260200183815250908060018154018082558091505060019003906000526020600020906002020160009091909190915060008201518160000190816103f29190610ada565b5060208201518160010190816104089190610ada565b5050505050565b600073ffffffffffffffffffffffffffffffffffffffff82169050919050565b600061043a8261040f565b9050919050565b61044a8161042f565b82525050565b60006020820190506104656000830184610441565b92915050565b6000604051905090565b600080fd5b600080fd5b600080fd5b600080fd5b6000601f19601f8301169050919050565b7f4e487b7100000000000000000000000000000000000000000000000000000000600052604160045260246000fd5b6104d282610489565b810181811067ffffffffffffffff821117156104f1576104f061049a565b5b80604052505050565b600061050461046b565b905061051082826104c9565b919050565b600067ffffffffffffffff8211156105305761052f61049a565b5b61053982610489565b9050602081019050919050565b82818337600083830152505050565b600061056861056384610515565b6104fa565b90508281526020810184848401111561058457610583610484565b5b61058f848285610546565b509392505050565b600082601f8301126105ac576105ab61047f565b5b81356105bc848260208601610555565b91505092915050565b6000819050919050565b6105d8816105c5565b81146105e357600080fd5b50565b6000813590506105f5816105cf565b92915050565b6000806040838503121561061257610611610475565b5b600083013567ffffffffffffffff8111156106305761062f61047a565b5b61063c85828601610597565b925050602061064d858286016105e6565b9150509250929050565b60006020828403121561066d5761066c610475565b5b600061067b848285016105e6565b91505092915050565b6000819050919050565b61069781610684565b82525050565b60006020820190506106b2600083018461068e565b92915050565b600081519050919050565b600082825260208201905092915050565b60005b838110156106f25780820151818401526020810190506106d7565b60008484015250505050565b6000610709826106b8565b61071381856106c3565b93506107238185602086016106d4565b61072c81610489565b840191505092915050565b6000604082019050818103600083015261075181856106fe565b9050818103602083015261076581846106fe565b90509392505050565b7f5570732c206e6f207075656465732070656469722074616e7461732068616d6260008201527f7572677565736173000000000000000000000000000000000000000000000000602082015250565b60006107ca6028836106c3565b91506107d58261076e565b604082019050919050565b600060208201905081810360008301526107f9816107bd565b9050919050565b7f6e6f207469656e6573207065726d6939736f73207061726120656a656375746160008201527f7220657374612066756e63696f6e000000000000000000000000000000000000602082015250565b600061085c602e836106c3565b915061086782610800565b604082019050919050565b6000602082019050818103600083015261088b8161084f565b9050919050565b6000819050919050565b6108ad6108a8826105c5565b610892565b82525050565b60006108bf828461089c565b60208201915081905092915050565b7f4e487b7100000000000000000000000000000000000000000000000000000000600052602260045260246000fd5b6000600282049050600182168061091557607f821691505b602082108103610928576109276108ce565b5b50919050565b60008190508160005260206000209050919050565b60006020601f8301049050919050565b600082821b905092915050565b6000600883026109907fffffffffffffffffffffffffffffffffffffffffffffffffffffffffffffffff82610953565b61099a8683610953565b95508019841693508086168417925050509392505050565b6000819050919050565b60006109d76109d26109cd846105c5565b6109b2565b6105c5565b9050919050565b6000819050919050565b6109f1836109bc565b610a056109fd826109de565b848454610960565b825550505050565b600090565b610a1a610a0d565b610a258184846109e8565b505050565b5b81811015610a4957610a3e600082610a12565b600181019050610a2b565b5050565b601f821115610a8e57610a5f8161092e565b610a6884610943565b81016020851015610a77578190505b610a8b610a8385610943565b830182610a2a565b50505b505050565b600082821c905092915050565b6000610ab160001984600802610a93565b1980831691505092915050565b6000610aca8383610aa0565b9150826002028217905092915050565b610ae3826106b8565b67ffffffffffffffff811115610afc57610afb61049a565b5b610b0682546108fd565b610b11828285610a4d565b600060209050601f831160018114610b445760008415610b32578287015190505b610b3c8582610abe565b865550610ba4565b601f198416610b528661092e565b60005b82811015610b7a57848901518255600182019150602085019450602081019050610b55565b86831015610b975784890151610b93601f891682610aa0565b8355505b6001600288020188555050505b50505050505056fea2646970667358221220b3e3b1f8b1c25e6889ce99ddc23f9c57caca03b5e9017d91bb9cd24ff201a91e64736f6c63430008120033",
			"opcodes": "PUSH1 0x80 PUSH1 0x40 MSTORE CALLVALUE DUP1 ISZERO PUSH2 0x10 JUMPI PUSH1 0x0 DUP1 REVERT JUMPDEST POP CALLER PUSH1 0x1 PUSH1 0x0 PUSH2 0x100 EXP DUP2 SLOAD DUP2 PUSH20 0xFFFFFFFFFFFFFFFFFFFFFFFFFFFFFFFFFFFFFFFF MUL NOT AND SWAP1 DUP4 PUSH20 0xFFFFFFFFFFFFFFFFFFFFFFFFFFFFFFFFFFFFFFFF AND MUL OR SWAP1 SSTORE POP PUSH2 0xBE2 DUP1 PUSH2 0x61 PUSH1 0x0 CODECOPY PUSH1 0x0 RETURN INVALID PUSH1 0x80 PUSH1 0x40 MSTORE CALLVALUE DUP1 ISZERO PUSH2 0x10 JUMPI PUSH1 0x0 DUP1 REVERT JUMPDEST POP PUSH1 0x4 CALLDATASIZE LT PUSH2 0x4C JUMPI PUSH1 0x0 CALLDATALOAD PUSH1 0xE0 SHR DUP1 PUSH4 0x8DA5CB5B EQ PUSH2 0x51 JUMPI DUP1 PUSH4 0xA22641BC EQ PUSH2 0x6F JUMPI DUP1 PUSH4 0xBDA02842 EQ PUSH2 0x8B JUMPI DUP1 PUSH4 0xCFFB703C EQ PUSH2 0xBB JUMPI JUMPDEST PUSH1 0x0 DUP1 REVERT JUMPDEST PUSH2 0x59 PUSH2 0xEC JUMP JUMPDEST PUSH1 0x40 MLOAD PUSH2 0x66 SWAP2 SWAP1 PUSH2 0x450 JUMP JUMPDEST PUSH1 0x40 MLOAD DUP1 SWAP2 SUB SWAP1 RETURN JUMPDEST PUSH2 0x89 PUSH1 0x4 DUP1 CALLDATASIZE SUB DUP2 ADD SWAP1 PUSH2 0x84 SWAP2 SWAP1 PUSH2 0x5FB JUMP JUMPDEST PUSH2 0x112 JUMP JUMPDEST STOP JUMPDEST PUSH2 0xA5 PUSH1 0x4 DUP1 CALLDATASIZE SUB DUP2 ADD SWAP1 PUSH2 0xA0 SWAP2 SWAP1 PUSH2 0x657 JUMP JUMPDEST PUSH2 0x199 JUMP JUMPDEST PUSH1 0x40 MLOAD PUSH2 0xB2 SWAP2 SWAP1 PUSH2 0x69D JUMP JUMPDEST PUSH1 0x40 MLOAD DUP1 SWAP2 SUB SWAP1 RETURN JUMPDEST PUSH2 0xD5 PUSH1 0x4 DUP1 CALLDATASIZE SUB DUP2 ADD SWAP1 PUSH2 0xD0 SWAP2 SWAP1 PUSH2 0x657 JUMP JUMPDEST PUSH2 0x259 JUMP JUMPDEST PUSH1 0x40 MLOAD PUSH2 0xE3 SWAP3 SWAP2 SWAP1 PUSH2 0x737 JUMP JUMPDEST PUSH1 0x40 MLOAD DUP1 SWAP2 SUB SWAP1 RETURN JUMPDEST PUSH1 0x1 PUSH1 0x0 SWAP1 SLOAD SWAP1 PUSH2 0x100 EXP SWAP1 DIV PUSH20 0xFFFFFFFFFFFFFFFFFFFFFFFFFFFFFFFFFFFFFFFF AND DUP2 JUMP JUMPDEST PUSH1 0x5 DUP2 GT ISZERO PUSH2 0x156 JUMPI PUSH1 0x40 MLOAD PUSH32 0x8C379A000000000000000000000000000000000000000000000000000000000 DUP2 MSTORE PUSH1 0x4 ADD PUSH2 0x14D SWAP1 PUSH2 0x7E0 JUMP JUMPDEST PUSH1 0x40 MLOAD DUP1 SWAP2 SUB SWAP1 REVERT JUMPDEST PUSH2 0x195 PUSH1 0x40 MLOAD DUP1 PUSH1 0x40 ADD PUSH1 0x40 MSTORE DUP1 PUSH1 0xA DUP2 MSTORE PUSH1 0x20 ADD PUSH32 0x48616D6275726775657200000000000000000000000000000000000000000000 DUP2 MSTORE POP DUP4 PUSH2 0x39D JUMP JUMPDEST POP POP JUMP JUMPDEST PUSH1 0x0 CALLER PUSH20 0xFFFFFFFFFFFFFFFFFFFFFFFFFFFFFFFFFFFFFFFF AND PUSH1 0x1 PUSH1 0x0 SWAP1 SLOAD SWAP1 PUSH2 0x100 EXP SWAP1 DIV PUSH20 0xFFFFFFFFFFFFFFFFFFFFFFFFFFFFFFFFFFFFFFFF AND PUSH20 0xFFFFFFFFFFFFFFFFFFFFFFFFFFFFFFFFFFFFFFFF AND EQ PUSH2 0x22B JUMPI PUSH1 0x40 MLOAD PUSH32 0x8C379A000000000000000000000000000000000000000000000000000000000 DUP2 MSTORE PUSH1 0x4 ADD PUSH2 0x222 SWAP1 PUSH2 0x872 JUMP JUMPDEST PUSH1 0x40 MLOAD DUP1 SWAP2 SUB SWAP1 REVERT JUMPDEST DUP2 PUSH1 0x40 MLOAD PUSH1 0x20 ADD PUSH2 0x23C SWAP2 SWAP1 PUSH2 0x8B3 JUMP JUMPDEST PUSH1 0x40 MLOAD PUSH1 0x20 DUP2 DUP4 SUB SUB DUP2 MSTORE SWAP1 PUSH1 0x40 MSTORE DUP1 MLOAD SWAP1 PUSH1 0x20 ADD KECCAK256 SWAP1 POP SWAP2 SWAP1 POP JUMP JUMPDEST PUSH1 0x0 DUP2 DUP2 SLOAD DUP2 LT PUSH2 0x269 JUMPI PUSH1 0x0 DUP1 REVERT JUMPDEST SWAP1 PUSH1 0x0 MSTORE PUSH1 0x20 PUSH1 0x0 KECCAK256 SWAP1 PUSH1 0x2 MUL ADD PUSH1 0x0 SWAP2 POP SWAP1 POP DUP1 PUSH1 0x0 ADD DUP1 SLOAD PUSH2 0x28C SWAP1 PUSH2 0x8FD JUMP JUMPDEST DUP1 PUSH1 0x1F ADD PUSH1 0x20 DUP1 SWAP2 DIV MUL PUSH1 0x20 ADD PUSH1 0x40 MLOAD SWAP1 DUP2 ADD PUSH1 0x40 MSTORE DUP1 SWAP3 SWAP2 SWAP1 DUP2 DUP2 MSTORE PUSH1 0x20 ADD DUP3 DUP1 SLOAD PUSH2 0x2B8 SWAP1 PUSH2 0x8FD JUMP JUMPDEST DUP1 ISZERO PUSH2 0x305 JUMPI DUP1 PUSH1 0x1F LT PUSH2 0x2DA JUMPI PUSH2 0x100 DUP1 DUP4 SLOAD DIV MUL DUP4 MSTORE SWAP2 PUSH1 0x20 ADD SWAP2 PUSH2 0x305 JUMP JUMPDEST DUP3 ADD SWAP2 SWAP1 PUSH1 0x0 MSTORE PUSH1 0x20 PUSH1 0x0 KECCAK256 SWAP1 JUMPDEST DUP2 SLOAD DUP2 MSTORE SWAP1 PUSH1 0x1 ADD SWAP1 PUSH1 0x20 ADD DUP1 DUP4 GT PUSH2 0x2E8 JUMPI DUP3 SWAP1 SUB PUSH1 0x1F AND DUP3 ADD SWAP2 JUMPDEST POP POP POP POP POP SWAP1 DUP1 PUSH1 0x1 ADD DUP1 SLOAD PUSH2 0x31A SWAP1 PUSH2 0x8FD JUMP JUMPDEST DUP1 PUSH1 0x1F ADD PUSH1 0x20 DUP1 SWAP2 DIV MUL PUSH1 0x20 ADD PUSH1 0x40 MLOAD SWAP1 DUP2 ADD PUSH1 0x40 MSTORE DUP1 SWAP3 SWAP2 SWAP1 DUP2 DUP2 MSTORE PUSH1 0x20 ADD DUP3 DUP1 SLOAD PUSH2 0x346 SWAP1 PUSH2 0x8FD JUMP JUMPDEST DUP1 ISZERO PUSH2 0x393 JUMPI DUP1 PUSH1 0x1F LT PUSH2 0x368 JUMPI PUSH2 0x100 DUP1 DUP4 SLOAD DIV MUL DUP4 MSTORE SWAP2 PUSH1 0x20 ADD SWAP2 PUSH2 0x393 JUMP JUMPDEST DUP3 ADD SWAP2 SWAP1 PUSH1 0x0 MSTORE PUSH1 0x20 PUSH1 0x0 KECCAK256 SWAP1 JUMPDEST DUP2 SLOAD DUP2 MSTORE SWAP1 PUSH1 0x1 ADD SWAP1 PUSH1 0x20 ADD DUP1 DUP4 GT PUSH2 0x376 JUMPI DUP3 SWAP1 SUB PUSH1 0x1F AND DUP3 ADD SWAP2 JUMPDEST POP POP POP POP POP SWAP1 POP DUP3 JUMP JUMPDEST PUSH1 0x0 PUSH1 0x40 MLOAD DUP1 PUSH1 0x40 ADD PUSH1 0x40 MSTORE DUP1 DUP5 DUP2 MSTORE PUSH1 0x20 ADD DUP4 DUP2 MSTORE POP SWAP1 DUP1 PUSH1 0x1 DUP2 SLOAD ADD DUP1 DUP3 SSTORE DUP1 SWAP2 POP POP PUSH1 0x1 SWAP1 SUB SWAP1 PUSH1 0x0 MSTORE PUSH1 0x20 PUSH1 0x0 KECCAK256 SWAP1 PUSH1 0x2 MUL ADD PUSH1 0x0 SWAP1 SWAP2 SWAP1 SWAP2 SWAP1 SWAP2 POP PUSH1 0x0 DUP3 ADD MLOAD DUP2 PUSH1 0x0 ADD SWAP1 DUP2 PUSH2 0x3F2 SWAP2 SWAP1 PUSH2 0xADA JUMP JUMPDEST POP PUSH1 0x20 DUP3 ADD MLOAD DUP2 PUSH1 0x1 ADD SWAP1 DUP2 PUSH2 0x408 SWAP2 SWAP1 PUSH2 0xADA JUMP JUMPDEST POP POP POP POP POP JUMP JUMPDEST PUSH1 0x0 PUSH20 0xFFFFFFFFFFFFFFFFFFFFFFFFFFFFFFFFFFFFFFFF DUP3 AND SWAP1 POP SWAP2 SWAP1 POP JUMP JUMPDEST PUSH1 0x0 PUSH2 0x43A DUP3 PUSH2 0x40F JUMP JUMPDEST SWAP1 POP SWAP2 SWAP1 POP JUMP JUMPDEST PUSH2 0x44A DUP2 PUSH2 0x42F JUMP JUMPDEST DUP3 MSTORE POP POP JUMP JUMPDEST PUSH1 0x0 PUSH1 0x20 DUP3 ADD SWAP1 POP PUSH2 0x465 PUSH1 0x0 DUP4 ADD DUP5 PUSH2 0x441 JUMP JUMPDEST SWAP3 SWAP2 POP POP JUMP JUMPDEST PUSH1 0x0 PUSH1 0x40 MLOAD SWAP1 POP SWAP1 JUMP JUMPDEST PUSH1 0x0 DUP1 REVERT JUMPDEST PUSH1 0x0 DUP1 REVERT JUMPDEST PUSH1 0x0 DUP1 REVERT JUMPDEST PUSH1 0x0 DUP1 REVERT JUMPDEST PUSH1 0x0 PUSH1 0x1F NOT PUSH1 0x1F DUP4 ADD AND SWAP1 POP SWAP2 SWAP1 POP JUMP JUMPDEST PUSH32 0x4E487B7100000000000000000000000000000000000000000000000000000000 PUSH1 0x0 MSTORE PUSH1 0x41 PUSH1 0x4 MSTORE PUSH1 0x24 PUSH1 0x0 REVERT JUMPDEST PUSH2 0x4D2 DUP3 PUSH2 0x489 JUMP JUMPDEST DUP2 ADD DUP2 DUP2 LT PUSH8 0xFFFFFFFFFFFFFFFF DUP3 GT OR ISZERO PUSH2 0x4F1 JUMPI PUSH2 0x4F0 PUSH2 0x49A JUMP JUMPDEST JUMPDEST DUP1 PUSH1 0x40 MSTORE POP POP POP JUMP JUMPDEST PUSH1 0x0 PUSH2 0x504 PUSH2 0x46B JUMP JUMPDEST SWAP1 POP PUSH2 0x510 DUP3 DUP3 PUSH2 0x4C9 JUMP JUMPDEST SWAP2 SWAP1 POP JUMP JUMPDEST PUSH1 0x0 PUSH8 0xFFFFFFFFFFFFFFFF DUP3 GT ISZERO PUSH2 0x530 JUMPI PUSH2 0x52F PUSH2 0x49A JUMP JUMPDEST JUMPDEST PUSH2 0x539 DUP3 PUSH2 0x489 JUMP JUMPDEST SWAP1 POP PUSH1 0x20 DUP2 ADD SWAP1 POP SWAP2 SWAP1 POP JUMP JUMPDEST DUP3 DUP2 DUP4 CALLDATACOPY PUSH1 0x0 DUP4 DUP4 ADD MSTORE POP POP POP JUMP JUMPDEST PUSH1 0x0 PUSH2 0x568 PUSH2 0x563 DUP5 PUSH2 0x515 JUMP JUMPDEST PUSH2 0x4FA JUMP JUMPDEST SWAP1 POP DUP3 DUP2 MSTORE PUSH1 0x20 DUP2 ADD DUP5 DUP5 DUP5 ADD GT ISZERO PUSH2 0x584 JUMPI PUSH2 0x583 PUSH2 0x484 JUMP JUMPDEST JUMPDEST PUSH2 0x58F DUP5 DUP3 DUP6 PUSH2 0x546 JUMP JUMPDEST POP SWAP4 SWAP3 POP POP POP JUMP JUMPDEST PUSH1 0x0 DUP3 PUSH1 0x1F DUP4 ADD SLT PUSH2 0x5AC JUMPI PUSH2 0x5AB PUSH2 0x47F JUMP JUMPDEST JUMPDEST DUP2 CALLDATALOAD PUSH2 0x5BC DUP5 DUP3 PUSH1 0x20 DUP7 ADD PUSH2 0x555 JUMP JUMPDEST SWAP2 POP POP SWAP3 SWAP2 POP POP JUMP JUMPDEST PUSH1 0x0 DUP2 SWAP1 POP SWAP2 SWAP1 POP JUMP JUMPDEST PUSH2 0x5D8 DUP2 PUSH2 0x5C5 JUMP JUMPDEST DUP2 EQ PUSH2 0x5E3 JUMPI PUSH1 0x0 DUP1 REVERT JUMPDEST POP JUMP JUMPDEST PUSH1 0x0 DUP2 CALLDATALOAD SWAP1 POP PUSH2 0x5F5 DUP2 PUSH2 0x5CF JUMP JUMPDEST SWAP3 SWAP2 POP POP JUMP JUMPDEST PUSH1 0x0 DUP1 PUSH1 0x40 DUP4 DUP6 SUB SLT ISZERO PUSH2 0x612 JUMPI PUSH2 0x611 PUSH2 0x475 JUMP JUMPDEST JUMPDEST PUSH1 0x0 DUP4 ADD CALLDATALOAD PUSH8 0xFFFFFFFFFFFFFFFF DUP2 GT ISZERO PUSH2 0x630 JUMPI PUSH2 0x62F PUSH2 0x47A JUMP JUMPDEST JUMPDEST PUSH2 0x63C DUP6 DUP3 DUP7 ADD PUSH2 0x597 JUMP JUMPDEST SWAP3 POP POP PUSH1 0x20 PUSH2 0x64D DUP6 DUP3 DUP7 ADD PUSH2 0x5E6 JUMP JUMPDEST SWAP2 POP POP SWAP3 POP SWAP3 SWAP1 POP JUMP JUMPDEST PUSH1 0x0 PUSH1 0x20 DUP3 DUP5 SUB SLT ISZERO PUSH2 0x66D JUMPI PUSH2 0x66C PUSH2 0x475 JUMP JUMPDEST JUMPDEST PUSH1 0x0 PUSH2 0x67B DUP5 DUP3 DUP6 ADD PUSH2 0x5E6 JUMP JUMPDEST SWAP2 POP POP SWAP3 SWAP2 POP POP JUMP JUMPDEST PUSH1 0x0 DUP2 SWAP1 POP SWAP2 SWAP1 POP JUMP JUMPDEST PUSH2 0x697 DUP2 PUSH2 0x684 JUMP JUMPDEST DUP3 MSTORE POP POP JUMP JUMPDEST PUSH1 0x0 PUSH1 0x20 DUP3 ADD SWAP1 POP PUSH2 0x6B2 PUSH1 0x0 DUP4 ADD DUP5 PUSH2 0x68E JUMP JUMPDEST SWAP3 SWAP2 POP POP JUMP JUMPDEST PUSH1 0x0 DUP2 MLOAD SWAP1 POP SWAP2 SWAP1 POP JUMP JUMPDEST PUSH1 0x0 DUP3 DUP3 MSTORE PUSH1 0x20 DUP3 ADD SWAP1 POP SWAP3 SWAP2 POP POP JUMP JUMPDEST PUSH1 0x0 JUMPDEST DUP4 DUP2 LT ISZERO PUSH2 0x6F2 JUMPI DUP1 DUP3 ADD MLOAD DUP2 DUP5 ADD MSTORE PUSH1 0x20 DUP2 ADD SWAP1 POP PUSH2 0x6D7 JUMP JUMPDEST PUSH1 0x0 DUP5 DUP5 ADD MSTORE POP POP POP POP JUMP JUMPDEST PUSH1 0x0 PUSH2 0x709 DUP3 PUSH2 0x6B8 JUMP JUMPDEST PUSH2 0x713 DUP2 DUP6 PUSH2 0x6C3 JUMP JUMPDEST SWAP4 POP PUSH2 0x723 DUP2 DUP6 PUSH1 0x20 DUP7 ADD PUSH2 0x6D4 JUMP JUMPDEST PUSH2 0x72C DUP2 PUSH2 0x489 JUMP JUMPDEST DUP5 ADD SWAP2 POP POP SWAP3 SWAP2 POP POP JUMP JUMPDEST PUSH1 0x0 PUSH1 0x40 DUP3 ADD SWAP1 POP DUP2 DUP2 SUB PUSH1 0x0 DUP4 ADD MSTORE PUSH2 0x751 DUP2 DUP6 PUSH2 0x6FE JUMP JUMPDEST SWAP1 POP DUP2 DUP2 SUB PUSH1 0x20 DUP4 ADD MSTORE PUSH2 0x765 DUP2 DUP5 PUSH2 0x6FE JUMP JUMPDEST SWAP1 POP SWAP4 SWAP3 POP POP POP JUMP JUMPDEST PUSH32 0x5570732C206E6F207075656465732070656469722074616E7461732068616D62 PUSH1 0x0 DUP3 ADD MSTORE PUSH32 0x7572677565736173000000000000000000000000000000000000000000000000 PUSH1 0x20 DUP3 ADD MSTORE POP JUMP JUMPDEST PUSH1 0x0 PUSH2 0x7CA PUSH1 0x28 DUP4 PUSH2 0x6C3 JUMP JUMPDEST SWAP2 POP PUSH2 0x7D5 DUP3 PUSH2 0x76E JUMP JUMPDEST PUSH1 0x40 DUP3 ADD SWAP1 POP SWAP2 SWAP1 POP JUMP JUMPDEST PUSH1 0x0 PUSH1 0x20 DUP3 ADD SWAP1 POP DUP2 DUP2 SUB PUSH1 0x0 DUP4 ADD MSTORE PUSH2 0x7F9 DUP2 PUSH2 0x7BD JUMP JUMPDEST SWAP1 POP SWAP2 SWAP1 POP JUMP JUMPDEST PUSH32 0x6E6F207469656E6573207065726D6939736F73207061726120656A6563757461 PUSH1 0x0 DUP3 ADD MSTORE PUSH32 0x7220657374612066756E63696F6E000000000000000000000000000000000000 PUSH1 0x20 DUP3 ADD MSTORE POP JUMP JUMPDEST PUSH1 0x0 PUSH2 0x85C PUSH1 0x2E DUP4 PUSH2 0x6C3 JUMP JUMPDEST SWAP2 POP PUSH2 0x867 DUP3 PUSH2 0x800 JUMP JUMPDEST PUSH1 0x40 DUP3 ADD SWAP1 POP SWAP2 SWAP1 POP JUMP JUMPDEST PUSH1 0x0 PUSH1 0x20 DUP3 ADD SWAP1 POP DUP2 DUP2 SUB PUSH1 0x0 DUP4 ADD MSTORE PUSH2 0x88B DUP2 PUSH2 0x84F JUMP JUMPDEST SWAP1 POP SWAP2 SWAP1 POP JUMP JUMPDEST PUSH1 0x0 DUP2 SWAP1 POP SWAP2 SWAP1 POP JUMP JUMPDEST PUSH2 0x8AD PUSH2 0x8A8 DUP3 PUSH2 0x5C5 JUMP JUMPDEST PUSH2 0x892 JUMP JUMPDEST DUP3 MSTORE POP POP JUMP JUMPDEST PUSH1 0x0 PUSH2 0x8BF DUP3 DUP5 PUSH2 0x89C JUMP JUMPDEST PUSH1 0x20 DUP3 ADD SWAP2 POP DUP2 SWAP1 POP SWAP3 SWAP2 POP POP JUMP JUMPDEST PUSH32 0x4E487B7100000000000000000000000000000000000000000000000000000000 PUSH1 0x0 MSTORE PUSH1 0x22 PUSH1 0x4 MSTORE PUSH1 0x24 PUSH1 0x0 REVERT JUMPDEST PUSH1 0x0 PUSH1 0x2 DUP3 DIV SWAP1 POP PUSH1 0x1 DUP3 AND DUP1 PUSH2 0x915 JUMPI PUSH1 0x7F DUP3 AND SWAP2 POP JUMPDEST PUSH1 0x20 DUP3 LT DUP2 SUB PUSH2 0x928 JUMPI PUSH2 0x927 PUSH2 0x8CE JUMP JUMPDEST JUMPDEST POP SWAP2 SWAP1 POP JUMP JUMPDEST PUSH1 0x0 DUP2 SWAP1 POP DUP2 PUSH1 0x0 MSTORE PUSH1 0x20 PUSH1 0x0 KECCAK256 SWAP1 POP SWAP2 SWAP1 POP JUMP JUMPDEST PUSH1 0x0 PUSH1 0x20 PUSH1 0x1F DUP4 ADD DIV SWAP1 POP SWAP2 SWAP1 POP JUMP JUMPDEST PUSH1 0x0 DUP3 DUP3 SHL SWAP1 POP SWAP3 SWAP2 POP POP JUMP JUMPDEST PUSH1 0x0 PUSH1 0x8 DUP4 MUL PUSH2 0x990 PUSH32 0xFFFFFFFFFFFFFFFFFFFFFFFFFFFFFFFFFFFFFFFFFFFFFFFFFFFFFFFFFFFFFFFF DUP3 PUSH2 0x953 JUMP JUMPDEST PUSH2 0x99A DUP7 DUP4 PUSH2 0x953 JUMP JUMPDEST SWAP6 POP DUP1 NOT DUP5 AND SWAP4 POP DUP1 DUP7 AND DUP5 OR SWAP3 POP POP POP SWAP4 SWAP3 POP POP POP JUMP JUMPDEST PUSH1 0x0 DUP2 SWAP1 POP SWAP2 SWAP1 POP JUMP JUMPDEST PUSH1 0x0 PUSH2 0x9D7 PUSH2 0x9D2 PUSH2 0x9CD DUP5 PUSH2 0x5C5 JUMP JUMPDEST PUSH2 0x9B2 JUMP JUMPDEST PUSH2 0x5C5 JUMP JUMPDEST SWAP1 POP SWAP2 SWAP1 POP JUMP JUMPDEST PUSH1 0x0 DUP2 SWAP1 POP SWAP2 SWAP1 POP JUMP JUMPDEST PUSH2 0x9F1 DUP4 PUSH2 0x9BC JUMP JUMPDEST PUSH2 0xA05 PUSH2 0x9FD DUP3 PUSH2 0x9DE JUMP JUMPDEST DUP5 DUP5 SLOAD PUSH2 0x960 JUMP JUMPDEST DUP3 SSTORE POP POP POP POP JUMP JUMPDEST PUSH1 0x0 SWAP1 JUMP JUMPDEST PUSH2 0xA1A PUSH2 0xA0D JUMP JUMPDEST PUSH2 0xA25 DUP2 DUP5 DUP5 PUSH2 0x9E8 JUMP JUMPDEST POP POP POP JUMP JUMPDEST JUMPDEST DUP2 DUP2 LT ISZERO PUSH2 0xA49 JUMPI PUSH2 0xA3E PUSH1 0x0 DUP3 PUSH2 0xA12 JUMP JUMPDEST PUSH1 0x1 DUP2 ADD SWAP1 POP PUSH2 0xA2B JUMP JUMPDEST POP POP JUMP JUMPDEST PUSH1 0x1F DUP3 GT ISZERO PUSH2 0xA8E JUMPI PUSH2 0xA5F DUP2 PUSH2 0x92E JUMP JUMPDEST PUSH2 0xA68 DUP5 PUSH2 0x943 JUMP JUMPDEST DUP2 ADD PUSH1 0x20 DUP6 LT ISZERO PUSH2 0xA77 JUMPI DUP2 SWAP1 POP JUMPDEST PUSH2 0xA8B PUSH2 0xA83 DUP6 PUSH2 0x943 JUMP JUMPDEST DUP4 ADD DUP3 PUSH2 0xA2A JUMP JUMPDEST POP POP JUMPDEST POP POP POP JUMP JUMPDEST PUSH1 0x0 DUP3 DUP3 SHR SWAP1 POP SWAP3 SWAP2 POP POP JUMP JUMPDEST PUSH1 0x0 PUSH2 0xAB1 PUSH1 0x0 NOT DUP5 PUSH1 0x8 MUL PUSH2 0xA93 JUMP JUMPDEST NOT DUP1 DUP4 AND SWAP2 POP POP SWAP3 SWAP2 POP POP JUMP JUMPDEST PUSH1 0x0 PUSH2 0xACA DUP4 DUP4 PUSH2 0xAA0 JUMP JUMPDEST SWAP2 POP DUP3 PUSH1 0x2 MUL DUP3 OR SWAP1 POP SWAP3 SWAP2 POP POP JUMP JUMPDEST PUSH2 0xAE3 DUP3 PUSH2 0x6B8 JUMP JUMPDEST PUSH8 0xFFFFFFFFFFFFFFFF DUP2 GT ISZERO PUSH2 0xAFC JUMPI PUSH2 0xAFB PUSH2 0x49A JUMP JUMPDEST JUMPDEST PUSH2 0xB06 DUP3 SLOAD PUSH2 0x8FD JUMP JUMPDEST PUSH2 0xB11 DUP3 DUP3 DUP6 PUSH2 0xA4D JUMP JUMPDEST PUSH1 0x0 PUSH1 0x20 SWAP1 POP PUSH1 0x1F DUP4 GT PUSH1 0x1 DUP2 EQ PUSH2 0xB44 JUMPI PUSH1 0x0 DUP5 ISZERO PUSH2 0xB32 JUMPI DUP3 DUP8 ADD MLOAD SWAP1 POP JUMPDEST PUSH2 0xB3C DUP6 DUP3 PUSH2 0xABE JUMP JUMPDEST DUP7 SSTORE POP PUSH2 0xBA4 JUMP JUMPDEST PUSH1 0x1F NOT DUP5 AND PUSH2 0xB52 DUP7 PUSH2 0x92E JUMP JUMPDEST PUSH1 0x0 JUMPDEST DUP3 DUP2 LT ISZERO PUSH2 0xB7A JUMPI DUP5 DUP10 ADD MLOAD DUP3 SSTORE PUSH1 0x1 DUP3 ADD SWAP2 POP PUSH1 0x20 DUP6 ADD SWAP5 POP PUSH1 0x20 DUP2 ADD SWAP1 POP PUSH2 0xB55 JUMP JUMPDEST DUP7 DUP4 LT ISZERO PUSH2 0xB97 JUMPI DUP5 DUP10 ADD MLOAD PUSH2 0xB93 PUSH1 0x1F DUP10 AND DUP3 PUSH2 0xAA0 JUMP JUMPDEST DUP4 SSTORE POP JUMPDEST PUSH1 0x1 PUSH1 0x2 DUP9 MUL ADD DUP9 SSTORE POP POP POP JUMPDEST POP POP POP POP POP POP JUMP INVALID LOG2 PUSH5 0x6970667358 0x22 SLT KECCAK256 0xB3 0xE3 0xB1 0xF8 0xB1 0xC2 0x5E PUSH9 0x89CE99DDC23F9C57CA 0xCA SUB 0xB5 0xE9 ADD PUSH30 0x91BB9CD24FF201A91E64736F6C6343000812003300000000000000000000 "
		},
		"gasEstimates": {
			"creation": {
				"codeDepositCost": "608400",
				"executionCost": "24911",
				"totalCost": "633311"
			},
			"external": {
				"doHamburger(string,uint256)": "infinite",
				"hashPrivateNumber(uint256)": "infinite",
				"menu(uint256)": "infinite",
				"owner()": "2492"
			}
		},
		"methodIdentifiers": {
			"doHamburger(string,uint256)": "a22641bc",
			"hashPrivateNumber(uint256)": "bda02842",
			"menu(uint256)": "cffb703c",
			"owner()": "8da5cb5b"
		}
	},
	"abi": [
		{
			"inputs": [],
			"stateMutability": "nonpayable",
			"type": "constructor"
		},
		{
			"inputs": [
				{
					"internalType": "string",
					"name": "_ingredients",
					"type": "string"
				},
				{
					"internalType": "uint256",
					"name": "_units",
					"type": "uint256"
				}
			],
			"name": "doHamburger",
			"outputs": [],
			"stateMutability": "nonpayable",
			"type": "function"
		},
		{
			"inputs": [
				{
					"internalType": "uint256",
					"name": "_number",
					"type": "uint256"
				}
			],
			"name": "hashPrivateNumber",
			"outputs": [
				{
					"internalType": "bytes32",
					"name": "",
					"type": "bytes32"
				}
			],
			"stateMutability": "view",
			"type": "function"
		},
		{
			"inputs": [
				{
					"internalType": "uint256",
					"name": "",
					"type": "uint256"
				}
			],
			"name": "menu",
			"outputs": [
				{
					"internalType": "string",
					"name": "name",
					"type": "string"
				},
				{
					"internalType": "string",
					"name": "ingredients",
					"type": "string"
				}
			],
			"stateMutability": "view",
			"type": "function"
		},
		{
			"inputs": [],
			"name": "owner",
			"outputs": [
				{
					"internalType": "address",
					"name": "",
					"type": "address"
				}
			],
			"stateMutability": "view",
			"type": "function"
		}
	]
}