{
	"data": {
		"bytecode": {
			"linkReferences": {},
			"object": "608060405234801561001057600080fd5b50610309806100206000396000f3fe608060405234801561001057600080fd5b50600436106100365760003560e01c8063188b85b41461003b578063c12363a21461006b575b600080fd5b61005560048036038101906100509190610171565b610089565b60405161006291906101ad565b60405180910390f35b6100736100d5565b60405161008091906101ad565b60405180910390f35b6000806000905060008390505b83600a6100a391906101f7565b8110156100cb5780826100b691906101f7565b915080806100c39061022b565b915050610096565b5080915050919050565b600080600090506000805b600a81101561012d5760006002836100f891906102a2565b1461011a57818361010991906101f7565b925080806101169061022b565b9150505b81806101259061022b565b9250506100e0565b82935050505090565b600080fd5b6000819050919050565b61014e8161013b565b811461015957600080fd5b50565b60008135905061016b81610145565b92915050565b60006020828403121561018757610186610136565b5b60006101958482850161015c565b91505092915050565b6101a78161013b565b82525050565b60006020820190506101c2600083018461019e565b92915050565b7f4e487b7100000000000000000000000000000000000000000000000000000000600052601160045260246000fd5b60006102028261013b565b915061020d8361013b565b9250828201905080821115610225576102246101c8565b5b92915050565b60006102368261013b565b91507fffffffffffffffffffffffffffffffffffffffffffffffffffffffffffffffff8203610268576102676101c8565b5b600182019050919050565b7f4e487b7100000000000000000000000000000000000000000000000000000000600052601260045260246000fd5b60006102ad8261013b565b91506102b88361013b565b9250826102c8576102c7610273565b5b82820690509291505056fea2646970667358221220a4c28c460a45cb083949710fa23fb2a3706c697c44f962768671d0e46dc28a3c64736f6c63430008120033",
			"opcodes": "PUSH1 0x80 PUSH1 0x40 MSTORE CALLVALUE DUP1 ISZERO PUSH2 0x10 JUMPI PUSH1 0x0 DUP1 REVERT JUMPDEST POP PUSH2 0x309 DUP1 PUSH2 0x20 PUSH1 0x0 CODECOPY PUSH1 0x0 RETURN INVALID PUSH1 0x80 PUSH1 0x40 MSTORE CALLVALUE DUP1 ISZERO PUSH2 0x10 JUMPI PUSH1 0x0 DUP1 REVERT JUMPDEST POP PUSH1 0x4 CALLDATASIZE LT PUSH2 0x36 JUMPI PUSH1 0x0 CALLDATALOAD PUSH1 0xE0 SHR DUP1 PUSH4 0x188B85B4 EQ PUSH2 0x3B JUMPI DUP1 PUSH4 0xC12363A2 EQ PUSH2 0x6B JUMPI JUMPDEST PUSH1 0x0 DUP1 REVERT JUMPDEST PUSH2 0x55 PUSH1 0x4 DUP1 CALLDATASIZE SUB DUP2 ADD SWAP1 PUSH2 0x50 SWAP2 SWAP1 PUSH2 0x171 JUMP JUMPDEST PUSH2 0x89 JUMP JUMPDEST PUSH1 0x40 MLOAD PUSH2 0x62 SWAP2 SWAP1 PUSH2 0x1AD JUMP JUMPDEST PUSH1 0x40 MLOAD DUP1 SWAP2 SUB SWAP1 RETURN JUMPDEST PUSH2 0x73 PUSH2 0xD5 JUMP JUMPDEST PUSH1 0x40 MLOAD PUSH2 0x80 SWAP2 SWAP1 PUSH2 0x1AD JUMP JUMPDEST PUSH1 0x40 MLOAD DUP1 SWAP2 SUB SWAP1 RETURN JUMPDEST PUSH1 0x0 DUP1 PUSH1 0x0 SWAP1 POP PUSH1 0x0 DUP4 SWAP1 POP JUMPDEST DUP4 PUSH1 0xA PUSH2 0xA3 SWAP2 SWAP1 PUSH2 0x1F7 JUMP JUMPDEST DUP2 LT ISZERO PUSH2 0xCB JUMPI DUP1 DUP3 PUSH2 0xB6 SWAP2 SWAP1 PUSH2 0x1F7 JUMP JUMPDEST SWAP2 POP DUP1 DUP1 PUSH2 0xC3 SWAP1 PUSH2 0x22B JUMP JUMPDEST SWAP2 POP POP PUSH2 0x96 JUMP JUMPDEST POP DUP1 SWAP2 POP POP SWAP2 SWAP1 POP JUMP JUMPDEST PUSH1 0x0 DUP1 PUSH1 0x0 SWAP1 POP PUSH1 0x0 DUP1 JUMPDEST PUSH1 0xA DUP2 LT ISZERO PUSH2 0x12D JUMPI PUSH1 0x0 PUSH1 0x2 DUP4 PUSH2 0xF8 SWAP2 SWAP1 PUSH2 0x2A2 JUMP JUMPDEST EQ PUSH2 0x11A JUMPI DUP2 DUP4 PUSH2 0x109 SWAP2 SWAP1 PUSH2 0x1F7 JUMP JUMPDEST SWAP3 POP DUP1 DUP1 PUSH2 0x116 SWAP1 PUSH2 0x22B JUMP JUMPDEST SWAP2 POP POP JUMPDEST DUP2 DUP1 PUSH2 0x125 SWAP1 PUSH2 0x22B JUMP JUMPDEST SWAP3 POP POP PUSH2 0xE0 JUMP JUMPDEST DUP3 SWAP4 POP POP POP POP SWAP1 JUMP JUMPDEST PUSH1 0x0 DUP1 REVERT JUMPDEST PUSH1 0x0 DUP2 SWAP1 POP SWAP2 SWAP1 POP JUMP JUMPDEST PUSH2 0x14E DUP2 PUSH2 0x13B JUMP JUMPDEST DUP2 EQ PUSH2 0x159 JUMPI PUSH1 0x0 DUP1 REVERT JUMPDEST POP JUMP JUMPDEST PUSH1 0x0 DUP2 CALLDATALOAD SWAP1 POP PUSH2 0x16B DUP2 PUSH2 0x145 JUMP JUMPDEST SWAP3 SWAP2 POP POP JUMP JUMPDEST PUSH1 0x0 PUSH1 0x20 DUP3 DUP5 SUB SLT ISZERO PUSH2 0x187 JUMPI PUSH2 0x186 PUSH2 0x136 JUMP JUMPDEST JUMPDEST PUSH1 0x0 PUSH2 0x195 DUP5 DUP3 DUP6 ADD PUSH2 0x15C JUMP JUMPDEST SWAP2 POP POP SWAP3 SWAP2 POP POP JUMP JUMPDEST PUSH2 0x1A7 DUP2 PUSH2 0x13B JUMP JUMPDEST DUP3 MSTORE POP POP JUMP JUMPDEST PUSH1 0x0 PUSH1 0x20 DUP3 ADD SWAP1 POP PUSH2 0x1C2 PUSH1 0x0 DUP4 ADD DUP5 PUSH2 0x19E JUMP JUMPDEST SWAP3 SWAP2 POP POP JUMP JUMPDEST PUSH32 0x4E487B7100000000000000000000000000000000000000000000000000000000 PUSH1 0x0 MSTORE PUSH1 0x11 PUSH1 0x4 MSTORE PUSH1 0x24 PUSH1 0x0 REVERT JUMPDEST PUSH1 0x0 PUSH2 0x202 DUP3 PUSH2 0x13B JUMP JUMPDEST SWAP2 POP PUSH2 0x20D DUP4 PUSH2 0x13B JUMP JUMPDEST SWAP3 POP DUP3 DUP3 ADD SWAP1 POP DUP1 DUP3 GT ISZERO PUSH2 0x225 JUMPI PUSH2 0x224 PUSH2 0x1C8 JUMP JUMPDEST JUMPDEST SWAP3 SWAP2 POP POP JUMP JUMPDEST PUSH1 0x0 PUSH2 0x236 DUP3 PUSH2 0x13B JUMP JUMPDEST SWAP2 POP PUSH32 0xFFFFFFFFFFFFFFFFFFFFFFFFFFFFFFFFFFFFFFFFFFFFFFFFFFFFFFFFFFFFFFFF DUP3 SUB PUSH2 0x268 JUMPI PUSH2 0x267 PUSH2 0x1C8 JUMP JUMPDEST JUMPDEST PUSH1 0x1 DUP3 ADD SWAP1 POP SWAP2 SWAP1 POP JUMP JUMPDEST PUSH32 0x4E487B7100000000000000000000000000000000000000000000000000000000 PUSH1 0x0 MSTORE PUSH1 0x12 PUSH1 0x4 MSTORE PUSH1 0x24 PUSH1 0x0 REVERT JUMPDEST PUSH1 0x0 PUSH2 0x2AD DUP3 PUSH2 0x13B JUMP JUMPDEST SWAP2 POP PUSH2 0x2B8 DUP4 PUSH2 0x13B JUMP JUMPDEST SWAP3 POP DUP3 PUSH2 0x2C8 JUMPI PUSH2 0x2C7 PUSH2 0x273 JUMP JUMPDEST JUMPDEST DUP3 DUP3 MOD SWAP1 POP SWAP3 SWAP2 POP POP JUMP INVALID LOG2 PUSH5 0x6970667358 0x22 SLT KECCAK256 LOG4 0xC2 DUP13 CHAINID EXP GASLIMIT 0xCB ADDMOD CODECOPY 0x49 PUSH18 0xFA23FB2A3706C697C44F962768671D0E46D 0xC2 DUP11 EXTCODECOPY PUSH5 0x736F6C6343 STOP ADDMOD SLT STOP CALLER "
		},
		"gasEstimates": {
			"creation": {
				"codeDepositCost": "155400",
				"executionCost": "202",
				"totalCost": "155602"
			},
			"external": {
				"odd()": "infinite",
				"sum(uint256)": "infinite"
			}
		},
		"methodIdentifiers": {
			"odd()": "c12363a2",
			"sum(uint256)": "188b85b4"
		}
	},
	"abi": [
		{
			"inputs": [],
			"name": "odd",
			"outputs": [
				{
					"internalType": "uint256",
					"name": "",
					"type": "uint256"
				}
			],
			"stateMutability": "pure",
			"type": "function"
		},
		{
			"inputs": [
				{
					"internalType": "uint256",
					"name": "_number",
					"type": "uint256"
				}
			],
			"name": "sum",
			"outputs": [
				{
					"internalType": "uint256",
					"name": "",
					"type": "uint256"
				}
			],
			"stateMutability": "pure",
			"type": "function"
		}
	]
}