{
	"data": {
		"bytecode": {
			"linkReferences": {},
			"object": "608060405234801561001057600080fd5b506107f1806100206000396000f3fe608060405234801561001057600080fd5b50600436106100885760003560e01c8063b1b45b1b1161005b578063b1b45b1b1461014e578063dd125e371461017e578063e989d9cc146101af578063f43f523a146101df57610088565b8063424bd6201461008d5780634c627bad146100bd578063871f9af4146100ed578063a391c15b1461011e575b600080fd5b6100a760048036038101906100a2919061033e565b61020f565b6040516100b4919061038d565b60405180910390f35b6100d760048036038101906100d291906103de565b610225565b6040516100e4919061042d565b60405180910390f35b61010760048036038101906101029190610448565b61023b565b60405161011592919061049b565b60405180910390f35b6101386004803603810190610133919061033e565b610273565b604051610145919061038d565b60405180910390f35b6101686004803603810190610163919061033e565b610289565b604051610175919061038d565b60405180910390f35b61019860048036038101906101939190610448565b61029f565b6040516101a692919061049b565b60405180910390f35b6101c960048036038101906101c4919061033e565b6102d7565b6040516101d6919061038d565b60405180910390f35b6101f960048036038101906101f4919061033e565b6102ed565b604051610206919061038d565b60405180910390f35b6000818361021d91906104f3565b905092915050565b600081836102339190610535565b905092915050565b600080828061024d5761024c610578565b5b84860983858761025d91906105a7565b61026791906105db565b91509150935093915050565b60008183610281919061060c565b905092915050565b6000818361029791906105a7565b905092915050565b60008082806102b1576102b0610578565b5b8486088385876102c191906105a7565b6102cb91906105db565b91509150935093915050565b600081836102e59190610770565b905092915050565b600081836102fb91906105db565b905092915050565b600080fd5b6000819050919050565b61031b81610308565b811461032657600080fd5b50565b60008135905061033881610312565b92915050565b6000806040838503121561035557610354610303565b5b600061036385828601610329565b925050602061037485828601610329565b9150509250929050565b61038781610308565b82525050565b60006020820190506103a2600083018461037e565b92915050565b6000819050919050565b6103bb816103a8565b81146103c657600080fd5b50565b6000813590506103d8816103b2565b92915050565b600080604083850312156103f5576103f4610303565b5b6000610403858286016103c9565b9250506020610414858286016103c9565b9150509250929050565b610427816103a8565b82525050565b6000602082019050610442600083018461041e565b92915050565b60008060006060848603121561046157610460610303565b5b600061046f86828701610329565b935050602061048086828701610329565b925050604061049186828701610329565b9150509250925092565b60006040820190506104b0600083018561037e565b6104bd602083018461037e565b9392505050565b7f4e487b7100000000000000000000000000000000000000000000000000000000600052601160045260246000fd5b60006104fe82610308565b915061050983610308565b925082820261051781610308565b9150828204841483151761052e5761052d6104c4565b5b5092915050565b6000610540826103a8565b915061054b836103a8565b9250828203905081811260008412168282136000851215161715610572576105716104c4565b5b92915050565b7f4e487b7100000000000000000000000000000000000000000000000000000000600052601260045260246000fd5b60006105b282610308565b91506105bd83610308565b92508282019050808211156105d5576105d46104c4565b5b92915050565b60006105e682610308565b91506105f183610308565b92508261060157610600610578565b5b828206905092915050565b600061061782610308565b915061062283610308565b92508261063257610631610578565b5b828204905092915050565b60008160011c9050919050565b6000808291508390505b6001851115610694578086048111156106705761066f6104c4565b5b600185161561067f5780820291505b808102905061068d8561063d565b9450610654565b94509492505050565b6000826106ad5760019050610769565b816106bb5760009050610769565b81600181146106d157600281146106db5761070a565b6001915050610769565b60ff8411156106ed576106ec6104c4565b5b8360020a915084821115610704576107036104c4565b5b50610769565b5060208310610133831016604e8410600b841016171561073f5782820a90508381111561073a576107396104c4565b5b610769565b61074c848484600161064a565b92509050818404811115610763576107626104c4565b5b81810290505b9392505050565b600061077b82610308565b915061078683610308565b92506107b37fffffffffffffffffffffffffffffffffffffffffffffffffffffffffffffffff848461069d565b90509291505056fea26469706673582212207a917a615421e66e87d1b2d595597475ecdd1e64a22312a356d5cd29335bcf0964736f6c63430008120033",
			"opcodes": "PUSH1 0x80 PUSH1 0x40 MSTORE CALLVALUE DUP1 ISZERO PUSH2 0x10 JUMPI PUSH1 0x0 DUP1 REVERT JUMPDEST POP PUSH2 0x7F1 DUP1 PUSH2 0x20 PUSH1 0x0 CODECOPY PUSH1 0x0 RETURN INVALID PUSH1 0x80 PUSH1 0x40 MSTORE CALLVALUE DUP1 ISZERO PUSH2 0x10 JUMPI PUSH1 0x0 DUP1 REVERT JUMPDEST POP PUSH1 0x4 CALLDATASIZE LT PUSH2 0x88 JUMPI PUSH1 0x0 CALLDATALOAD PUSH1 0xE0 SHR DUP1 PUSH4 0xB1B45B1B GT PUSH2 0x5B JUMPI DUP1 PUSH4 0xB1B45B1B EQ PUSH2 0x14E JUMPI DUP1 PUSH4 0xDD125E37 EQ PUSH2 0x17E JUMPI DUP1 PUSH4 0xE989D9CC EQ PUSH2 0x1AF JUMPI DUP1 PUSH4 0xF43F523A EQ PUSH2 0x1DF JUMPI PUSH2 0x88 JUMP JUMPDEST DUP1 PUSH4 0x424BD620 EQ PUSH2 0x8D JUMPI DUP1 PUSH4 0x4C627BAD EQ PUSH2 0xBD JUMPI DUP1 PUSH4 0x871F9AF4 EQ PUSH2 0xED JUMPI DUP1 PUSH4 0xA391C15B EQ PUSH2 0x11E JUMPI JUMPDEST PUSH1 0x0 DUP1 REVERT JUMPDEST PUSH2 0xA7 PUSH1 0x4 DUP1 CALLDATASIZE SUB DUP2 ADD SWAP1 PUSH2 0xA2 SWAP2 SWAP1 PUSH2 0x33E JUMP JUMPDEST PUSH2 0x20F JUMP JUMPDEST PUSH1 0x40 MLOAD PUSH2 0xB4 SWAP2 SWAP1 PUSH2 0x38D JUMP JUMPDEST PUSH1 0x40 MLOAD DUP1 SWAP2 SUB SWAP1 RETURN JUMPDEST PUSH2 0xD7 PUSH1 0x4 DUP1 CALLDATASIZE SUB DUP2 ADD SWAP1 PUSH2 0xD2 SWAP2 SWAP1 PUSH2 0x3DE JUMP JUMPDEST PUSH2 0x225 JUMP JUMPDEST PUSH1 0x40 MLOAD PUSH2 0xE4 SWAP2 SWAP1 PUSH2 0x42D JUMP JUMPDEST PUSH1 0x40 MLOAD DUP1 SWAP2 SUB SWAP1 RETURN JUMPDEST PUSH2 0x107 PUSH1 0x4 DUP1 CALLDATASIZE SUB DUP2 ADD SWAP1 PUSH2 0x102 SWAP2 SWAP1 PUSH2 0x448 JUMP JUMPDEST PUSH2 0x23B JUMP JUMPDEST PUSH1 0x40 MLOAD PUSH2 0x115 SWAP3 SWAP2 SWAP1 PUSH2 0x49B JUMP JUMPDEST PUSH1 0x40 MLOAD DUP1 SWAP2 SUB SWAP1 RETURN JUMPDEST PUSH2 0x138 PUSH1 0x4 DUP1 CALLDATASIZE SUB DUP2 ADD SWAP1 PUSH2 0x133 SWAP2 SWAP1 PUSH2 0x33E JUMP JUMPDEST PUSH2 0x273 JUMP JUMPDEST PUSH1 0x40 MLOAD PUSH2 0x145 SWAP2 SWAP1 PUSH2 0x38D JUMP JUMPDEST PUSH1 0x40 MLOAD DUP1 SWAP2 SUB SWAP1 RETURN JUMPDEST PUSH2 0x168 PUSH1 0x4 DUP1 CALLDATASIZE SUB DUP2 ADD SWAP1 PUSH2 0x163 SWAP2 SWAP1 PUSH2 0x33E JUMP JUMPDEST PUSH2 0x289 JUMP JUMPDEST PUSH1 0x40 MLOAD PUSH2 0x175 SWAP2 SWAP1 PUSH2 0x38D JUMP JUMPDEST PUSH1 0x40 MLOAD DUP1 SWAP2 SUB SWAP1 RETURN JUMPDEST PUSH2 0x198 PUSH1 0x4 DUP1 CALLDATASIZE SUB DUP2 ADD SWAP1 PUSH2 0x193 SWAP2 SWAP1 PUSH2 0x448 JUMP JUMPDEST PUSH2 0x29F JUMP JUMPDEST PUSH1 0x40 MLOAD PUSH2 0x1A6 SWAP3 SWAP2 SWAP1 PUSH2 0x49B JUMP JUMPDEST PUSH1 0x40 MLOAD DUP1 SWAP2 SUB SWAP1 RETURN JUMPDEST PUSH2 0x1C9 PUSH1 0x4 DUP1 CALLDATASIZE SUB DUP2 ADD SWAP1 PUSH2 0x1C4 SWAP2 SWAP1 PUSH2 0x33E JUMP JUMPDEST PUSH2 0x2D7 JUMP JUMPDEST PUSH1 0x40 MLOAD PUSH2 0x1D6 SWAP2 SWAP1 PUSH2 0x38D JUMP JUMPDEST PUSH1 0x40 MLOAD DUP1 SWAP2 SUB SWAP1 RETURN JUMPDEST PUSH2 0x1F9 PUSH1 0x4 DUP1 CALLDATASIZE SUB DUP2 ADD SWAP1 PUSH2 0x1F4 SWAP2 SWAP1 PUSH2 0x33E JUMP JUMPDEST PUSH2 0x2ED JUMP JUMPDEST PUSH1 0x40 MLOAD PUSH2 0x206 SWAP2 SWAP1 PUSH2 0x38D JUMP JUMPDEST PUSH1 0x40 MLOAD DUP1 SWAP2 SUB SWAP1 RETURN JUMPDEST PUSH1 0x0 DUP2 DUP4 PUSH2 0x21D SWAP2 SWAP1 PUSH2 0x4F3 JUMP JUMPDEST SWAP1 POP SWAP3 SWAP2 POP POP JUMP JUMPDEST PUSH1 0x0 DUP2 DUP4 PUSH2 0x233 SWAP2 SWAP1 PUSH2 0x535 JUMP JUMPDEST SWAP1 POP SWAP3 SWAP2 POP POP JUMP JUMPDEST PUSH1 0x0 DUP1 DUP3 DUP1 PUSH2 0x24D JUMPI PUSH2 0x24C PUSH2 0x578 JUMP JUMPDEST JUMPDEST DUP5 DUP7 MULMOD DUP4 DUP6 DUP8 PUSH2 0x25D SWAP2 SWAP1 PUSH2 0x5A7 JUMP JUMPDEST PUSH2 0x267 SWAP2 SWAP1 PUSH2 0x5DB JUMP JUMPDEST SWAP2 POP SWAP2 POP SWAP4 POP SWAP4 SWAP2 POP POP JUMP JUMPDEST PUSH1 0x0 DUP2 DUP4 PUSH2 0x281 SWAP2 SWAP1 PUSH2 0x60C JUMP JUMPDEST SWAP1 POP SWAP3 SWAP2 POP POP JUMP JUMPDEST PUSH1 0x0 DUP2 DUP4 PUSH2 0x297 SWAP2 SWAP1 PUSH2 0x5A7 JUMP JUMPDEST SWAP1 POP SWAP3 SWAP2 POP POP JUMP JUMPDEST PUSH1 0x0 DUP1 DUP3 DUP1 PUSH2 0x2B1 JUMPI PUSH2 0x2B0 PUSH2 0x578 JUMP JUMPDEST JUMPDEST DUP5 DUP7 ADDMOD DUP4 DUP6 DUP8 PUSH2 0x2C1 SWAP2 SWAP1 PUSH2 0x5A7 JUMP JUMPDEST PUSH2 0x2CB SWAP2 SWAP1 PUSH2 0x5DB JUMP JUMPDEST SWAP2 POP SWAP2 POP SWAP4 POP SWAP4 SWAP2 POP POP JUMP JUMPDEST PUSH1 0x0 DUP2 DUP4 PUSH2 0x2E5 SWAP2 SWAP1 PUSH2 0x770 JUMP JUMPDEST SWAP1 POP SWAP3 SWAP2 POP POP JUMP JUMPDEST PUSH1 0x0 DUP2 DUP4 PUSH2 0x2FB SWAP2 SWAP1 PUSH2 0x5DB JUMP JUMPDEST SWAP1 POP SWAP3 SWAP2 POP POP JUMP JUMPDEST PUSH1 0x0 DUP1 REVERT JUMPDEST PUSH1 0x0 DUP2 SWAP1 POP SWAP2 SWAP1 POP JUMP JUMPDEST PUSH2 0x31B DUP2 PUSH2 0x308 JUMP JUMPDEST DUP2 EQ PUSH2 0x326 JUMPI PUSH1 0x0 DUP1 REVERT JUMPDEST POP JUMP JUMPDEST PUSH1 0x0 DUP2 CALLDATALOAD SWAP1 POP PUSH2 0x338 DUP2 PUSH2 0x312 JUMP JUMPDEST SWAP3 SWAP2 POP POP JUMP JUMPDEST PUSH1 0x0 DUP1 PUSH1 0x40 DUP4 DUP6 SUB SLT ISZERO PUSH2 0x355 JUMPI PUSH2 0x354 PUSH2 0x303 JUMP JUMPDEST JUMPDEST PUSH1 0x0 PUSH2 0x363 DUP6 DUP3 DUP7 ADD PUSH2 0x329 JUMP JUMPDEST SWAP3 POP POP PUSH1 0x20 PUSH2 0x374 DUP6 DUP3 DUP7 ADD PUSH2 0x329 JUMP JUMPDEST SWAP2 POP POP SWAP3 POP SWAP3 SWAP1 POP JUMP JUMPDEST PUSH2 0x387 DUP2 PUSH2 0x308 JUMP JUMPDEST DUP3 MSTORE POP POP JUMP JUMPDEST PUSH1 0x0 PUSH1 0x20 DUP3 ADD SWAP1 POP PUSH2 0x3A2 PUSH1 0x0 DUP4 ADD DUP5 PUSH2 0x37E JUMP JUMPDEST SWAP3 SWAP2 POP POP JUMP JUMPDEST PUSH1 0x0 DUP2 SWAP1 POP SWAP2 SWAP1 POP JUMP JUMPDEST PUSH2 0x3BB DUP2 PUSH2 0x3A8 JUMP JUMPDEST DUP2 EQ PUSH2 0x3C6 JUMPI PUSH1 0x0 DUP1 REVERT JUMPDEST POP JUMP JUMPDEST PUSH1 0x0 DUP2 CALLDATALOAD SWAP1 POP PUSH2 0x3D8 DUP2 PUSH2 0x3B2 JUMP JUMPDEST SWAP3 SWAP2 POP POP JUMP JUMPDEST PUSH1 0x0 DUP1 PUSH1 0x40 DUP4 DUP6 SUB SLT ISZERO PUSH2 0x3F5 JUMPI PUSH2 0x3F4 PUSH2 0x303 JUMP JUMPDEST JUMPDEST PUSH1 0x0 PUSH2 0x403 DUP6 DUP3 DUP7 ADD PUSH2 0x3C9 JUMP JUMPDEST SWAP3 POP POP PUSH1 0x20 PUSH2 0x414 DUP6 DUP3 DUP7 ADD PUSH2 0x3C9 JUMP JUMPDEST SWAP2 POP POP SWAP3 POP SWAP3 SWAP1 POP JUMP JUMPDEST PUSH2 0x427 DUP2 PUSH2 0x3A8 JUMP JUMPDEST DUP3 MSTORE POP POP JUMP JUMPDEST PUSH1 0x0 PUSH1 0x20 DUP3 ADD SWAP1 POP PUSH2 0x442 PUSH1 0x0 DUP4 ADD DUP5 PUSH2 0x41E JUMP JUMPDEST SWAP3 SWAP2 POP POP JUMP JUMPDEST PUSH1 0x0 DUP1 PUSH1 0x0 PUSH1 0x60 DUP5 DUP7 SUB SLT ISZERO PUSH2 0x461 JUMPI PUSH2 0x460 PUSH2 0x303 JUMP JUMPDEST JUMPDEST PUSH1 0x0 PUSH2 0x46F DUP7 DUP3 DUP8 ADD PUSH2 0x329 JUMP JUMPDEST SWAP4 POP POP PUSH1 0x20 PUSH2 0x480 DUP7 DUP3 DUP8 ADD PUSH2 0x329 JUMP JUMPDEST SWAP3 POP POP PUSH1 0x40 PUSH2 0x491 DUP7 DUP3 DUP8 ADD PUSH2 0x329 JUMP JUMPDEST SWAP2 POP POP SWAP3 POP SWAP3 POP SWAP3 JUMP JUMPDEST PUSH1 0x0 PUSH1 0x40 DUP3 ADD SWAP1 POP PUSH2 0x4B0 PUSH1 0x0 DUP4 ADD DUP6 PUSH2 0x37E JUMP JUMPDEST PUSH2 0x4BD PUSH1 0x20 DUP4 ADD DUP5 PUSH2 0x37E JUMP JUMPDEST SWAP4 SWAP3 POP POP POP JUMP JUMPDEST PUSH32 0x4E487B7100000000000000000000000000000000000000000000000000000000 PUSH1 0x0 MSTORE PUSH1 0x11 PUSH1 0x4 MSTORE PUSH1 0x24 PUSH1 0x0 REVERT JUMPDEST PUSH1 0x0 PUSH2 0x4FE DUP3 PUSH2 0x308 JUMP JUMPDEST SWAP2 POP PUSH2 0x509 DUP4 PUSH2 0x308 JUMP JUMPDEST SWAP3 POP DUP3 DUP3 MUL PUSH2 0x517 DUP2 PUSH2 0x308 JUMP JUMPDEST SWAP2 POP DUP3 DUP3 DIV DUP5 EQ DUP4 ISZERO OR PUSH2 0x52E JUMPI PUSH2 0x52D PUSH2 0x4C4 JUMP JUMPDEST JUMPDEST POP SWAP3 SWAP2 POP POP JUMP JUMPDEST PUSH1 0x0 PUSH2 0x540 DUP3 PUSH2 0x3A8 JUMP JUMPDEST SWAP2 POP PUSH2 0x54B DUP4 PUSH2 0x3A8 JUMP JUMPDEST SWAP3 POP DUP3 DUP3 SUB SWAP1 POP DUP2 DUP2 SLT PUSH1 0x0 DUP5 SLT AND DUP3 DUP3 SGT PUSH1 0x0 DUP6 SLT ISZERO AND OR ISZERO PUSH2 0x572 JUMPI PUSH2 0x571 PUSH2 0x4C4 JUMP JUMPDEST JUMPDEST SWAP3 SWAP2 POP POP JUMP JUMPDEST PUSH32 0x4E487B7100000000000000000000000000000000000000000000000000000000 PUSH1 0x0 MSTORE PUSH1 0x12 PUSH1 0x4 MSTORE PUSH1 0x24 PUSH1 0x0 REVERT JUMPDEST PUSH1 0x0 PUSH2 0x5B2 DUP3 PUSH2 0x308 JUMP JUMPDEST SWAP2 POP PUSH2 0x5BD DUP4 PUSH2 0x308 JUMP JUMPDEST SWAP3 POP DUP3 DUP3 ADD SWAP1 POP DUP1 DUP3 GT ISZERO PUSH2 0x5D5 JUMPI PUSH2 0x5D4 PUSH2 0x4C4 JUMP JUMPDEST JUMPDEST SWAP3 SWAP2 POP POP JUMP JUMPDEST PUSH1 0x0 PUSH2 0x5E6 DUP3 PUSH2 0x308 JUMP JUMPDEST SWAP2 POP PUSH2 0x5F1 DUP4 PUSH2 0x308 JUMP JUMPDEST SWAP3 POP DUP3 PUSH2 0x601 JUMPI PUSH2 0x600 PUSH2 0x578 JUMP JUMPDEST JUMPDEST DUP3 DUP3 MOD SWAP1 POP SWAP3 SWAP2 POP POP JUMP JUMPDEST PUSH1 0x0 PUSH2 0x617 DUP3 PUSH2 0x308 JUMP JUMPDEST SWAP2 POP PUSH2 0x622 DUP4 PUSH2 0x308 JUMP JUMPDEST SWAP3 POP DUP3 PUSH2 0x632 JUMPI PUSH2 0x631 PUSH2 0x578 JUMP JUMPDEST JUMPDEST DUP3 DUP3 DIV SWAP1 POP SWAP3 SWAP2 POP POP JUMP JUMPDEST PUSH1 0x0 DUP2 PUSH1 0x1 SHR SWAP1 POP SWAP2 SWAP1 POP JUMP JUMPDEST PUSH1 0x0 DUP1 DUP3 SWAP2 POP DUP4 SWAP1 POP JUMPDEST PUSH1 0x1 DUP6 GT ISZERO PUSH2 0x694 JUMPI DUP1 DUP7 DIV DUP2 GT ISZERO PUSH2 0x670 JUMPI PUSH2 0x66F PUSH2 0x4C4 JUMP JUMPDEST JUMPDEST PUSH1 0x1 DUP6 AND ISZERO PUSH2 0x67F JUMPI DUP1 DUP3 MUL SWAP2 POP JUMPDEST DUP1 DUP2 MUL SWAP1 POP PUSH2 0x68D DUP6 PUSH2 0x63D JUMP JUMPDEST SWAP5 POP PUSH2 0x654 JUMP JUMPDEST SWAP5 POP SWAP5 SWAP3 POP POP POP JUMP JUMPDEST PUSH1 0x0 DUP3 PUSH2 0x6AD JUMPI PUSH1 0x1 SWAP1 POP PUSH2 0x769 JUMP JUMPDEST DUP2 PUSH2 0x6BB JUMPI PUSH1 0x0 SWAP1 POP PUSH2 0x769 JUMP JUMPDEST DUP2 PUSH1 0x1 DUP2 EQ PUSH2 0x6D1 JUMPI PUSH1 0x2 DUP2 EQ PUSH2 0x6DB JUMPI PUSH2 0x70A JUMP JUMPDEST PUSH1 0x1 SWAP2 POP POP PUSH2 0x769 JUMP JUMPDEST PUSH1 0xFF DUP5 GT ISZERO PUSH2 0x6ED JUMPI PUSH2 0x6EC PUSH2 0x4C4 JUMP JUMPDEST JUMPDEST DUP4 PUSH1 0x2 EXP SWAP2 POP DUP5 DUP3 GT ISZERO PUSH2 0x704 JUMPI PUSH2 0x703 PUSH2 0x4C4 JUMP JUMPDEST JUMPDEST POP PUSH2 0x769 JUMP JUMPDEST POP PUSH1 0x20 DUP4 LT PUSH2 0x133 DUP4 LT AND PUSH1 0x4E DUP5 LT PUSH1 0xB DUP5 LT AND OR ISZERO PUSH2 0x73F JUMPI DUP3 DUP3 EXP SWAP1 POP DUP4 DUP2 GT ISZERO PUSH2 0x73A JUMPI PUSH2 0x739 PUSH2 0x4C4 JUMP JUMPDEST JUMPDEST PUSH2 0x769 JUMP JUMPDEST PUSH2 0x74C DUP5 DUP5 DUP5 PUSH1 0x1 PUSH2 0x64A JUMP JUMPDEST SWAP3 POP SWAP1 POP DUP2 DUP5 DIV DUP2 GT ISZERO PUSH2 0x763 JUMPI PUSH2 0x762 PUSH2 0x4C4 JUMP JUMPDEST JUMPDEST DUP2 DUP2 MUL SWAP1 POP JUMPDEST SWAP4 SWAP3 POP POP POP JUMP JUMPDEST PUSH1 0x0 PUSH2 0x77B DUP3 PUSH2 0x308 JUMP JUMPDEST SWAP2 POP PUSH2 0x786 DUP4 PUSH2 0x308 JUMP JUMPDEST SWAP3 POP PUSH2 0x7B3 PUSH32 0xFFFFFFFFFFFFFFFFFFFFFFFFFFFFFFFFFFFFFFFFFFFFFFFFFFFFFFFFFFFFFFFF DUP5 DUP5 PUSH2 0x69D JUMP JUMPDEST SWAP1 POP SWAP3 SWAP2 POP POP JUMP INVALID LOG2 PUSH5 0x6970667358 0x22 SLT KECCAK256 PUSH27 0x917A615421E66E87D1B2D595597475ECDD1E64A22312A356D5CD29 CALLER JUMPDEST 0xCF MULMOD PUSH5 0x736F6C6343 STOP ADDMOD SLT STOP CALLER "
		},
		"gasEstimates": {
			"creation": {
				"codeDepositCost": "406600",
				"executionCost": "443",
				"totalCost": "407043"
			},
			"external": {
				"_addmod(uint256,uint256,uint256)": "infinite",
				"_mulmod(uint256,uint256,uint256)": "infinite",
				"div(uint256,uint256)": "infinite",
				"expon(uint256,uint256)": "infinite",
				"mod(uint256,uint256)": "infinite",
				"prod(uint256,uint256)": "infinite",
				"resta(int256,int256)": "infinite",
				"suma(uint256,uint256)": "infinite"
			}
		},
		"methodIdentifiers": {
			"_addmod(uint256,uint256,uint256)": "dd125e37",
			"_mulmod(uint256,uint256,uint256)": "871f9af4",
			"div(uint256,uint256)": "a391c15b",
			"expon(uint256,uint256)": "e989d9cc",
			"mod(uint256,uint256)": "f43f523a",
			"prod(uint256,uint256)": "424bd620",
			"resta(int256,int256)": "4c627bad",
			"suma(uint256,uint256)": "b1b45b1b"
		}
	},
	"abi": [
		{
			"inputs": [
				{
					"internalType": "uint256",
					"name": "x",
					"type": "uint256"
				},
				{
					"internalType": "uint256",
					"name": "y",
					"type": "uint256"
				},
				{
					"internalType": "uint256",
					"name": "k",
					"type": "uint256"
				}
			],
			"name": "_addmod",
			"outputs": [
				{
					"internalType": "uint256",
					"name": "",
					"type": "uint256"
				},
				{
					"internalType": "uint256",
					"name": "",
					"type": "uint256"
				}
			],
			"stateMutability": "pure",
			"type": "function"
		},
		{
			"inputs": [
				{
					"internalType": "uint256",
					"name": "x",
					"type": "uint256"
				},
				{
					"internalType": "uint256",
					"name": "y",
					"type": "uint256"
				},
				{
					"internalType": "uint256",
					"name": "k",
					"type": "uint256"
				}
			],
			"name": "_mulmod",
			"outputs": [
				{
					"internalType": "uint256",
					"name": "",
					"type": "uint256"
				},
				{
					"internalType": "uint256",
					"name": "",
					"type": "uint256"
				}
			],
			"stateMutability": "pure",
			"type": "function"
		},
		{
			"inputs": [
				{
					"internalType": "uint256",
					"name": "a",
					"type": "uint256"
				},
				{
					"internalType": "uint256",
					"name": "b",
					"type": "uint256"
				}
			],
			"name": "div",
			"outputs": [
				{
					"internalType": "uint256",
					"name": "",
					"type": "uint256"
				}
			],
			"stateMutability": "pure",
			"type": "function"
		},
		{
			"inputs": [
				{
					"internalType": "uint256",
					"name": "a",
					"type": "uint256"
				},
				{
					"internalType": "uint256",
					"name": "b",
					"type": "uint256"
				}
			],
			"name": "expon",
			"outputs": [
				{
					"internalType": "uint256",
					"name": "",
					"type": "uint256"
				}
			],
			"stateMutability": "pure",
			"type": "function"
		},
		{
			"inputs": [
				{
					"internalType": "uint256",
					"name": "a",
					"type": "uint256"
				},
				{
					"internalType": "uint256",
					"name": "b",
					"type": "uint256"
				}
			],
			"name": "mod",
			"outputs": [
				{
					"internalType": "uint256",
					"name": "",
					"type": "uint256"
				}
			],
			"stateMutability": "pure",
			"type": "function"
		},
		{
			"inputs": [
				{
					"internalType": "uint256",
					"name": "a",
					"type": "uint256"
				},
				{
					"internalType": "uint256",
					"name": "b",
					"type": "uint256"
				}
			],
			"name": "prod",
			"outputs": [
				{
					"internalType": "uint256",
					"name": "",
					"type": "uint256"
				}
			],
			"stateMutability": "pure",
			"type": "function"
		},
		{
			"inputs": [
				{
					"internalType": "int256",
					"name": "a",
					"type": "int256"
				},
				{
					"internalType": "int256",
					"name": "b",
					"type": "int256"
				}
			],
			"name": "resta",
			"outputs": [
				{
					"internalType": "int256",
					"name": "",
					"type": "int256"
				}
			],
			"stateMutability": "pure",
			"type": "function"
		},
		{
			"inputs": [
				{
					"internalType": "uint256",
					"name": "a",
					"type": "uint256"
				},
				{
					"internalType": "uint256",
					"name": "b",
					"type": "uint256"
				}
			],
			"name": "suma",
			"outputs": [
				{
					"internalType": "uint256",
					"name": "",
					"type": "uint256"
				}
			],
			"stateMutability": "pure",
			"type": "function"
		}
	]
}