{
	"primerContrato/Smart_Contracts/3_hashing.sol": {
		"hashing": {
			"abi": [
				{
					"inputs": [],
					"name": "hashing_keccak256",
					"outputs": [
						{
							"internalType": "bytes32",
							"name": "",
							"type": "bytes32"
						}
					],
					"stateMutability": "view",
					"type": "function"
				},
				{
					"inputs": [],
					"name": "hashing_ripemd160",
					"outputs": [
						{
							"internalType": "bytes20",
							"name": "",
							"type": "bytes20"
						}
					],
					"stateMutability": "view",
					"type": "function"
				},
				{
					"inputs": [],
					"name": "hashing_sha256",
					"outputs": [
						{
							"internalType": "bytes32",
							"name": "",
							"type": "bytes32"
						}
					],
					"stateMutability": "view",
					"type": "function"
				},
				{
					"inputs": [],
					"name": "hello",
					"outputs": [
						{
							"internalType": "string",
							"name": "",
							"type": "string"
						}
					],
					"stateMutability": "view",
					"type": "function"
				}
			],
			"devdoc": {
				"kind": "dev",
				"methods": {},
				"version": 1
			},
			"evm": {
				"assembly": "    /* \"primerContrato/Smart_Contracts/3_hashing.sol\":61:395  contract hashing { ... */\n  mstore(0x40, 0x80)\n    /* \"primerContrato/Smart_Contracts/3_hashing.sol\":155:185  abi.encodePacked(\"Hola\",\"Isa\") */\n  add(0x20, mload(0x40))\n  tag_1\n  swap1\n  tag_2\n  jump\t// in\ntag_1:\n  mload(0x40)\n  0x20\n  dup2\n  dup4\n  sub\n  sub\n  dup2\n  mstore\n  swap1\n  0x40\n  mstore\n    /* \"primerContrato/Smart_Contracts/3_hashing.sol\":145:186  keccak256(abi.encodePacked(\"Hola\",\"Isa\")) */\n  dup1\n  mload\n  swap1\n  0x20\n  add\n  keccak256\n    /* \"primerContrato/Smart_Contracts/3_hashing.sol\":110:186  bytes32 public hashing_keccak256 = keccak256(abi.encodePacked(\"Hola\",\"Isa\")) */\n  0x00\n  sstore\n    /* \"primerContrato/Smart_Contracts/3_hashing.sol\":221:264  sha256(abi.encodePacked(\"Hello Pendejos!\")) */\n  0x02\n    /* \"primerContrato/Smart_Contracts/3_hashing.sol\":228:263  abi.encodePacked(\"Hello Pendejos!\") */\n  add(0x20, mload(0x40))\n  tag_3\n  swap1\n  tag_4\n  jump\t// in\ntag_3:\n  mload(0x40)\n  0x20\n  dup2\n  dup4\n  sub\n  sub\n  dup2\n  mstore\n  swap1\n  0x40\n  mstore\n    /* \"primerContrato/Smart_Contracts/3_hashing.sol\":221:264  sha256(abi.encodePacked(\"Hello Pendejos!\")) */\n  mload(0x40)\n  tag_5\n  swap2\n  swap1\n  tag_6\n  jump\t// in\ntag_5:\n  0x20\n  mload(0x40)\n  dup1\n  dup4\n  sub\n  dup2\n  dup6\n  gas\n  staticcall\n  iszero\n  dup1\n  iszero\n  tag_8\n  jumpi\n  returndatasize\n  0x00\n  dup1\n  returndatacopy\n  revert(0x00, returndatasize)\ntag_8:\n  pop\n  pop\n  pop\n  mload(0x40)\n  returndatasize\n  not(0x1f)\n  0x1f\n  dup3\n  add\n  and\n  dup3\n  add\n  dup1\n  0x40\n  mstore\n  pop\n  dup2\n  add\n  swap1\n  tag_9\n  swap2\n  swap1\n  tag_10\n  jump\t// in\ntag_9:\n    /* \"primerContrato/Smart_Contracts/3_hashing.sol\":190:264  bytes32 public hashing_sha256 =sha256(abi.encodePacked(\"Hello Pendejos!\")) */\n  0x01\n  sstore\n    /* \"primerContrato/Smart_Contracts/3_hashing.sol\":303:345  ripemd160(abi.encodePacked(\"Hello word!\")) */\n  0x03\n    /* \"primerContrato/Smart_Contracts/3_hashing.sol\":313:344  abi.encodePacked(\"Hello word!\") */\n  add(0x20, mload(0x40))\n  tag_11\n  swap1\n  tag_12\n  jump\t// in\ntag_11:\n  mload(0x40)\n  0x20\n  dup2\n  dup4\n  sub\n  sub\n  dup2\n  mstore\n  swap1\n  0x40\n  mstore\n    /* \"primerContrato/Smart_Contracts/3_hashing.sol\":303:345  ripemd160(abi.encodePacked(\"Hello word!\")) */\n  mload(0x40)\n  tag_13\n  swap2\n  swap1\n  tag_6\n  jump\t// in\ntag_13:\n  0x20\n  mload(0x40)\n  dup1\n  dup4\n  sub\n  dup2\n  dup6\n  gas\n  staticcall\n  iszero\n  dup1\n  iszero\n  tag_15\n  jumpi\n  returndatasize\n  0x00\n  dup1\n  returndatacopy\n  revert(0x00, returndatasize)\ntag_15:\n  pop\n  pop\n  pop\n  shl(0x60, mload(mload(0x40)))\n    /* \"primerContrato/Smart_Contracts/3_hashing.sol\":268:345  bytes20 public hashing_ripemd160 = ripemd160(abi.encodePacked(\"Hello word!\")) */\n  0x02\n  exp(0x0100, 0x00)\n  dup2\n  sload\n  dup2\n  0xffffffffffffffffffffffffffffffffffffffff\n  mul\n  not\n  and\n  swap1\n  dup4\n  0x60\n  shr\n  mul\n  or\n  swap1\n  sstore\n  pop\n    /* \"primerContrato/Smart_Contracts/3_hashing.sol\":351:385  string public  hello = \"pendejos!\" */\n  mload(0x40)\n  dup1\n  0x40\n  add\n  0x40\n  mstore\n  dup1\n  0x09\n  dup2\n  mstore\n  0x20\n  add\n  0x70656e64656a6f73210000000000000000000000000000000000000000000000\n  dup2\n  mstore\n  pop\n  0x03\n  swap1\n  dup2\n  tag_16\n  swap2\n  swap1\n  tag_17\n  jump\t// in\ntag_16:\n  pop\n    /* \"primerContrato/Smart_Contracts/3_hashing.sol\":61:395  contract hashing { ... */\n  callvalue\n  dup1\n  iszero\n  tag_18\n  jumpi\n  0x00\n  dup1\n  revert\ntag_18:\n  pop\n  jump(tag_19)\n    /* \"#utility.yul\":7:155   */\ntag_20:\n    /* \"#utility.yul\":109:120   */\n  0x00\n    /* \"#utility.yul\":146:149   */\n  dup2\n    /* \"#utility.yul\":131:149   */\n  swap1\n  pop\n    /* \"#utility.yul\":7:155   */\n  swap3\n  swap2\n  pop\n  pop\n  jump\t// out\n    /* \"#utility.yul\":161:315   */\ntag_21:\n    /* \"#utility.yul\":301:307   */\n  0x486f6c6100000000000000000000000000000000000000000000000000000000\n    /* \"#utility.yul\":297:298   */\n  0x00\n    /* \"#utility.yul\":289:295   */\n  dup3\n    /* \"#utility.yul\":285:299   */\n  add\n    /* \"#utility.yul\":278:308   */\n  mstore\n    /* \"#utility.yul\":161:315   */\n  pop\n  jump\t// out\n    /* \"#utility.yul\":321:721   */\ntag_22:\n    /* \"#utility.yul\":481:484   */\n  0x00\n    /* \"#utility.yul\":502:586   */\n  tag_63\n    /* \"#utility.yul\":584:585   */\n  0x04\n    /* \"#utility.yul\":579:582   */\n  dup4\n    /* \"#utility.yul\":502:586   */\n  tag_20\n  jump\t// in\ntag_63:\n    /* \"#utility.yul\":495:586   */\n  swap2\n  pop\n    /* \"#utility.yul\":595:688   */\n  tag_64\n    /* \"#utility.yul\":684:687   */\n  dup3\n    /* \"#utility.yul\":595:688   */\n  tag_21\n  jump\t// in\ntag_64:\n    /* \"#utility.yul\":713:714   */\n  0x04\n    /* \"#utility.yul\":708:711   */\n  dup3\n    /* \"#utility.yul\":704:715   */\n  add\n    /* \"#utility.yul\":697:715   */\n  swap1\n  pop\n    /* \"#utility.yul\":321:721   */\n  swap2\n  swap1\n  pop\n  jump\t// out\n    /* \"#utility.yul\":727:880   */\ntag_23:\n    /* \"#utility.yul\":867:872   */\n  0x4973610000000000000000000000000000000000000000000000000000000000\n    /* \"#utility.yul\":863:864   */\n  0x00\n    /* \"#utility.yul\":855:861   */\n  dup3\n    /* \"#utility.yul\":851:865   */\n  add\n    /* \"#utility.yul\":844:873   */\n  mstore\n    /* \"#utility.yul\":727:880   */\n  pop\n  jump\t// out\n    /* \"#utility.yul\":886:1286   */\ntag_24:\n    /* \"#utility.yul\":1046:1049   */\n  0x00\n    /* \"#utility.yul\":1067:1151   */\n  tag_67\n    /* \"#utility.yul\":1149:1150   */\n  0x03\n    /* \"#utility.yul\":1144:1147   */\n  dup4\n    /* \"#utility.yul\":1067:1151   */\n  tag_20\n  jump\t// in\ntag_67:\n    /* \"#utility.yul\":1060:1151   */\n  swap2\n  pop\n    /* \"#utility.yul\":1160:1253   */\n  tag_68\n    /* \"#utility.yul\":1249:1252   */\n  dup3\n    /* \"#utility.yul\":1160:1253   */\n  tag_23\n  jump\t// in\ntag_68:\n    /* \"#utility.yul\":1278:1279   */\n  0x03\n    /* \"#utility.yul\":1273:1276   */\n  dup3\n    /* \"#utility.yul\":1269:1280   */\n  add\n    /* \"#utility.yul\":1262:1280   */\n  swap1\n  pop\n    /* \"#utility.yul\":886:1286   */\n  swap2\n  swap1\n  pop\n  jump\t// out\n    /* \"#utility.yul\":1292:1939   */\ntag_2:\n    /* \"#utility.yul\":1578:1581   */\n  0x00\n    /* \"#utility.yul\":1600:1748   */\n  tag_70\n    /* \"#utility.yul\":1744:1747   */\n  dup3\n    /* \"#utility.yul\":1600:1748   */\n  tag_22\n  jump\t// in\ntag_70:\n    /* \"#utility.yul\":1593:1748   */\n  swap2\n  pop\n    /* \"#utility.yul\":1765:1913   */\n  tag_71\n    /* \"#utility.yul\":1909:1912   */\n  dup3\n    /* \"#utility.yul\":1765:1913   */\n  tag_24\n  jump\t// in\ntag_71:\n    /* \"#utility.yul\":1758:1913   */\n  swap2\n  pop\n    /* \"#utility.yul\":1930:1933   */\n  dup2\n    /* \"#utility.yul\":1923:1933   */\n  swap1\n  pop\n    /* \"#utility.yul\":1292:1939   */\n  swap2\n  swap1\n  pop\n  jump\t// out\n    /* \"#utility.yul\":1945:2110   */\ntag_25:\n    /* \"#utility.yul\":2085:2102   */\n  0x48656c6c6f2050656e64656a6f73210000000000000000000000000000000000\n    /* \"#utility.yul\":2081:2082   */\n  0x00\n    /* \"#utility.yul\":2073:2079   */\n  dup3\n    /* \"#utility.yul\":2069:2083   */\n  add\n    /* \"#utility.yul\":2062:2103   */\n  mstore\n    /* \"#utility.yul\":1945:2110   */\n  pop\n  jump\t// out\n    /* \"#utility.yul\":2116:2518   */\ntag_26:\n    /* \"#utility.yul\":2276:2279   */\n  0x00\n    /* \"#utility.yul\":2297:2382   */\n  tag_74\n    /* \"#utility.yul\":2379:2381   */\n  0x0f\n    /* \"#utility.yul\":2374:2377   */\n  dup4\n    /* \"#utility.yul\":2297:2382   */\n  tag_20\n  jump\t// in\ntag_74:\n    /* \"#utility.yul\":2290:2382   */\n  swap2\n  pop\n    /* \"#utility.yul\":2391:2484   */\n  tag_75\n    /* \"#utility.yul\":2480:2483   */\n  dup3\n    /* \"#utility.yul\":2391:2484   */\n  tag_25\n  jump\t// in\ntag_75:\n    /* \"#utility.yul\":2509:2511   */\n  0x0f\n    /* \"#utility.yul\":2504:2507   */\n  dup3\n    /* \"#utility.yul\":2500:2512   */\n  add\n    /* \"#utility.yul\":2493:2512   */\n  swap1\n  pop\n    /* \"#utility.yul\":2116:2518   */\n  swap2\n  swap1\n  pop\n  jump\t// out\n    /* \"#utility.yul\":2524:2905   */\ntag_4:\n    /* \"#utility.yul\":2709:2712   */\n  0x00\n    /* \"#utility.yul\":2731:2879   */\n  tag_77\n    /* \"#utility.yul\":2875:2878   */\n  dup3\n    /* \"#utility.yul\":2731:2879   */\n  tag_26\n  jump\t// in\ntag_77:\n    /* \"#utility.yul\":2724:2879   */\n  swap2\n  pop\n    /* \"#utility.yul\":2896:2899   */\n  dup2\n    /* \"#utility.yul\":2889:2899   */\n  swap1\n  pop\n    /* \"#utility.yul\":2524:2905   */\n  swap2\n  swap1\n  pop\n  jump\t// out\n    /* \"#utility.yul\":2911:3009   */\ntag_27:\n    /* \"#utility.yul\":2962:2968   */\n  0x00\n    /* \"#utility.yul\":2996:3001   */\n  dup2\n    /* \"#utility.yul\":2990:3002   */\n  mload\n    /* \"#utility.yul\":2980:3002   */\n  swap1\n  pop\n    /* \"#utility.yul\":2911:3009   */\n  swap2\n  swap1\n  pop\n  jump\t// out\n    /* \"#utility.yul\":3015:3162   */\ntag_28:\n    /* \"#utility.yul\":3116:3127   */\n  0x00\n    /* \"#utility.yul\":3153:3156   */\n  dup2\n    /* \"#utility.yul\":3138:3156   */\n  swap1\n  pop\n    /* \"#utility.yul\":3015:3162   */\n  swap3\n  swap2\n  pop\n  pop\n  jump\t// out\n    /* \"#utility.yul\":3168:3414   */\ntag_29:\n    /* \"#utility.yul\":3249:3250   */\n  0x00\n    /* \"#utility.yul\":3259:3372   */\ntag_81:\n    /* \"#utility.yul\":3273:3279   */\n  dup4\n    /* \"#utility.yul\":3270:3271   */\n  dup2\n    /* \"#utility.yul\":3267:3280   */\n  lt\n    /* \"#utility.yul\":3259:3372   */\n  iszero\n  tag_83\n  jumpi\n    /* \"#utility.yul\":3358:3359   */\n  dup1\n    /* \"#utility.yul\":3353:3356   */\n  dup3\n    /* \"#utility.yul\":3349:3360   */\n  add\n    /* \"#utility.yul\":3343:3361   */\n  mload\n    /* \"#utility.yul\":3339:3340   */\n  dup2\n    /* \"#utility.yul\":3334:3337   */\n  dup5\n    /* \"#utility.yul\":3330:3341   */\n  add\n    /* \"#utility.yul\":3323:3362   */\n  mstore\n    /* \"#utility.yul\":3295:3297   */\n  0x20\n    /* \"#utility.yul\":3292:3293   */\n  dup2\n    /* \"#utility.yul\":3288:3298   */\n  add\n    /* \"#utility.yul\":3283:3298   */\n  swap1\n  pop\n    /* \"#utility.yul\":3259:3372   */\n  jump(tag_81)\ntag_83:\n    /* \"#utility.yul\":3406:3407   */\n  0x00\n    /* \"#utility.yul\":3397:3403   */\n  dup5\n    /* \"#utility.yul\":3392:3395   */\n  dup5\n    /* \"#utility.yul\":3388:3404   */\n  add\n    /* \"#utility.yul\":3381:3408   */\n  mstore\n    /* \"#utility.yul\":3230:3414   */\n  pop\n    /* \"#utility.yul\":3168:3414   */\n  pop\n  pop\n  pop\n  jump\t// out\n    /* \"#utility.yul\":3420:3806   */\ntag_30:\n    /* \"#utility.yul\":3524:3527   */\n  0x00\n    /* \"#utility.yul\":3552:3590   */\n  tag_85\n    /* \"#utility.yul\":3584:3589   */\n  dup3\n    /* \"#utility.yul\":3552:3590   */\n  tag_27\n  jump\t// in\ntag_85:\n    /* \"#utility.yul\":3606:3694   */\n  tag_86\n    /* \"#utility.yul\":3687:3693   */\n  dup2\n    /* \"#utility.yul\":3682:3685   */\n  dup6\n    /* \"#utility.yul\":3606:3694   */\n  tag_28\n  jump\t// in\ntag_86:\n    /* \"#utility.yul\":3599:3694   */\n  swap4\n  pop\n    /* \"#utility.yul\":3703:3768   */\n  tag_87\n    /* \"#utility.yul\":3761:3767   */\n  dup2\n    /* \"#utility.yul\":3756:3759   */\n  dup6\n    /* \"#utility.yul\":3749:3753   */\n  0x20\n    /* \"#utility.yul\":3742:3747   */\n  dup7\n    /* \"#utility.yul\":3738:3754   */\n  add\n    /* \"#utility.yul\":3703:3768   */\n  tag_29\n  jump\t// in\ntag_87:\n    /* \"#utility.yul\":3793:3799   */\n  dup1\n    /* \"#utility.yul\":3788:3791   */\n  dup5\n    /* \"#utility.yul\":3784:3800   */\n  add\n    /* \"#utility.yul\":3777:3800   */\n  swap2\n  pop\n    /* \"#utility.yul\":3528:3806   */\n  pop\n    /* \"#utility.yul\":3420:3806   */\n  swap3\n  swap2\n  pop\n  pop\n  jump\t// out\n    /* \"#utility.yul\":3812:4083   */\ntag_6:\n    /* \"#utility.yul\":3942:3945   */\n  0x00\n    /* \"#utility.yul\":3964:4057   */\n  tag_89\n    /* \"#utility.yul\":4053:4056   */\n  dup3\n    /* \"#utility.yul\":4044:4050   */\n  dup5\n    /* \"#utility.yul\":3964:4057   */\n  tag_30\n  jump\t// in\ntag_89:\n    /* \"#utility.yul\":3957:4057   */\n  swap2\n  pop\n    /* \"#utility.yul\":4074:4077   */\n  dup2\n    /* \"#utility.yul\":4067:4077   */\n  swap1\n  pop\n    /* \"#utility.yul\":3812:4083   */\n  swap3\n  swap2\n  pop\n  pop\n  jump\t// out\n    /* \"#utility.yul\":4170:4287   */\ntag_32:\n    /* \"#utility.yul\":4279:4280   */\n  0x00\n    /* \"#utility.yul\":4276:4277   */\n  dup1\n    /* \"#utility.yul\":4269:4281   */\n  revert\n    /* \"#utility.yul\":4416:4493   */\ntag_34:\n    /* \"#utility.yul\":4453:4460   */\n  0x00\n    /* \"#utility.yul\":4482:4487   */\n  dup2\n    /* \"#utility.yul\":4471:4487   */\n  swap1\n  pop\n    /* \"#utility.yul\":4416:4493   */\n  swap2\n  swap1\n  pop\n  jump\t// out\n    /* \"#utility.yul\":4499:4621   */\ntag_35:\n    /* \"#utility.yul\":4572:4596   */\n  tag_95\n    /* \"#utility.yul\":4590:4595   */\n  dup2\n    /* \"#utility.yul\":4572:4596   */\n  tag_34\n  jump\t// in\ntag_95:\n    /* \"#utility.yul\":4565:4570   */\n  dup2\n    /* \"#utility.yul\":4562:4597   */\n  eq\n    /* \"#utility.yul\":4552:4615   */\n  tag_96\n  jumpi\n    /* \"#utility.yul\":4611:4612   */\n  0x00\n    /* \"#utility.yul\":4608:4609   */\n  dup1\n    /* \"#utility.yul\":4601:4613   */\n  revert\n    /* \"#utility.yul\":4552:4615   */\ntag_96:\n    /* \"#utility.yul\":4499:4621   */\n  pop\n  jump\t// out\n    /* \"#utility.yul\":4627:4770   */\ntag_36:\n    /* \"#utility.yul\":4684:4689   */\n  0x00\n    /* \"#utility.yul\":4715:4721   */\n  dup2\n    /* \"#utility.yul\":4709:4722   */\n  mload\n    /* \"#utility.yul\":4700:4722   */\n  swap1\n  pop\n    /* \"#utility.yul\":4731:4764   */\n  tag_98\n    /* \"#utility.yul\":4758:4763   */\n  dup2\n    /* \"#utility.yul\":4731:4764   */\n  tag_35\n  jump\t// in\ntag_98:\n    /* \"#utility.yul\":4627:4770   */\n  swap3\n  swap2\n  pop\n  pop\n  jump\t// out\n    /* \"#utility.yul\":4776:5127   */\ntag_10:\n    /* \"#utility.yul\":4846:4852   */\n  0x00\n    /* \"#utility.yul\":4895:4897   */\n  0x20\n    /* \"#utility.yul\":4883:4892   */\n  dup3\n    /* \"#utility.yul\":4874:4881   */\n  dup5\n    /* \"#utility.yul\":4870:4893   */\n  sub\n    /* \"#utility.yul\":4866:4898   */\n  slt\n    /* \"#utility.yul\":4863:4982   */\n  iszero\n  tag_100\n  jumpi\n    /* \"#utility.yul\":4901:4980   */\n  tag_101\n  tag_32\n  jump\t// in\ntag_101:\n    /* \"#utility.yul\":4863:4982   */\ntag_100:\n    /* \"#utility.yul\":5021:5022   */\n  0x00\n    /* \"#utility.yul\":5046:5110   */\n  tag_102\n    /* \"#utility.yul\":5102:5109   */\n  dup5\n    /* \"#utility.yul\":5093:5099   */\n  dup3\n    /* \"#utility.yul\":5082:5091   */\n  dup6\n    /* \"#utility.yul\":5078:5100   */\n  add\n    /* \"#utility.yul\":5046:5110   */\n  tag_36\n  jump\t// in\ntag_102:\n    /* \"#utility.yul\":5036:5110   */\n  swap2\n  pop\n    /* \"#utility.yul\":4992:5120   */\n  pop\n    /* \"#utility.yul\":4776:5127   */\n  swap3\n  swap2\n  pop\n  pop\n  jump\t// out\n    /* \"#utility.yul\":5133:5294   */\ntag_37:\n    /* \"#utility.yul\":5273:5286   */\n  0x48656c6c6f20776f726421000000000000000000000000000000000000000000\n    /* \"#utility.yul\":5269:5270   */\n  0x00\n    /* \"#utility.yul\":5261:5267   */\n  dup3\n    /* \"#utility.yul\":5257:5271   */\n  add\n    /* \"#utility.yul\":5250:5287   */\n  mstore\n    /* \"#utility.yul\":5133:5294   */\n  pop\n  jump\t// out\n    /* \"#utility.yul\":5300:5702   */\ntag_38:\n    /* \"#utility.yul\":5460:5463   */\n  0x00\n    /* \"#utility.yul\":5481:5566   */\n  tag_105\n    /* \"#utility.yul\":5563:5565   */\n  0x0b\n    /* \"#utility.yul\":5558:5561   */\n  dup4\n    /* \"#utility.yul\":5481:5566   */\n  tag_20\n  jump\t// in\ntag_105:\n    /* \"#utility.yul\":5474:5566   */\n  swap2\n  pop\n    /* \"#utility.yul\":5575:5668   */\n  tag_106\n    /* \"#utility.yul\":5664:5667   */\n  dup3\n    /* \"#utility.yul\":5575:5668   */\n  tag_37\n  jump\t// in\ntag_106:\n    /* \"#utility.yul\":5693:5695   */\n  0x0b\n    /* \"#utility.yul\":5688:5691   */\n  dup3\n    /* \"#utility.yul\":5684:5696   */\n  add\n    /* \"#utility.yul\":5677:5696   */\n  swap1\n  pop\n    /* \"#utility.yul\":5300:5702   */\n  swap2\n  swap1\n  pop\n  jump\t// out\n    /* \"#utility.yul\":5708:6089   */\ntag_12:\n    /* \"#utility.yul\":5893:5896   */\n  0x00\n    /* \"#utility.yul\":5915:6063   */\n  tag_108\n    /* \"#utility.yul\":6059:6062   */\n  dup3\n    /* \"#utility.yul\":5915:6063   */\n  tag_38\n  jump\t// in\ntag_108:\n    /* \"#utility.yul\":5908:6063   */\n  swap2\n  pop\n    /* \"#utility.yul\":6080:6083   */\n  dup2\n    /* \"#utility.yul\":6073:6083   */\n  swap1\n  pop\n    /* \"#utility.yul\":5708:6089   */\n  swap2\n  swap1\n  pop\n  jump\t// out\n    /* \"#utility.yul\":6095:6194   */\ntag_39:\n    /* \"#utility.yul\":6147:6153   */\n  0x00\n    /* \"#utility.yul\":6181:6186   */\n  dup2\n    /* \"#utility.yul\":6175:6187   */\n  mload\n    /* \"#utility.yul\":6165:6187   */\n  swap1\n  pop\n    /* \"#utility.yul\":6095:6194   */\n  swap2\n  swap1\n  pop\n  jump\t// out\n    /* \"#utility.yul\":6200:6380   */\ntag_40:\n    /* \"#utility.yul\":6248:6325   */\n  0x4e487b7100000000000000000000000000000000000000000000000000000000\n    /* \"#utility.yul\":6245:6246   */\n  0x00\n    /* \"#utility.yul\":6238:6326   */\n  mstore\n    /* \"#utility.yul\":6345:6349   */\n  0x41\n    /* \"#utility.yul\":6342:6343   */\n  0x04\n    /* \"#utility.yul\":6335:6350   */\n  mstore\n    /* \"#utility.yul\":6369:6373   */\n  0x24\n    /* \"#utility.yul\":6366:6367   */\n  0x00\n    /* \"#utility.yul\":6359:6374   */\n  revert\n    /* \"#utility.yul\":6386:6566   */\ntag_41:\n    /* \"#utility.yul\":6434:6511   */\n  0x4e487b7100000000000000000000000000000000000000000000000000000000\n    /* \"#utility.yul\":6431:6432   */\n  0x00\n    /* \"#utility.yul\":6424:6512   */\n  mstore\n    /* \"#utility.yul\":6531:6535   */\n  0x22\n    /* \"#utility.yul\":6528:6529   */\n  0x04\n    /* \"#utility.yul\":6521:6536   */\n  mstore\n    /* \"#utility.yul\":6555:6559   */\n  0x24\n    /* \"#utility.yul\":6552:6553   */\n  0x00\n    /* \"#utility.yul\":6545:6560   */\n  revert\n    /* \"#utility.yul\":6572:6892   */\ntag_42:\n    /* \"#utility.yul\":6616:6622   */\n  0x00\n    /* \"#utility.yul\":6653:6654   */\n  0x02\n    /* \"#utility.yul\":6647:6651   */\n  dup3\n    /* \"#utility.yul\":6643:6655   */\n  div\n    /* \"#utility.yul\":6633:6655   */\n  swap1\n  pop\n    /* \"#utility.yul\":6700:6701   */\n  0x01\n    /* \"#utility.yul\":6694:6698   */\n  dup3\n    /* \"#utility.yul\":6690:6702   */\n  and\n    /* \"#utility.yul\":6721:6739   */\n  dup1\n    /* \"#utility.yul\":6711:6792   */\n  tag_113\n  jumpi\n    /* \"#utility.yul\":6777:6781   */\n  0x7f\n    /* \"#utility.yul\":6769:6775   */\n  dup3\n    /* \"#utility.yul\":6765:6782   */\n  and\n    /* \"#utility.yul\":6755:6782   */\n  swap2\n  pop\n    /* \"#utility.yul\":6711:6792   */\ntag_113:\n    /* \"#utility.yul\":6839:6841   */\n  0x20\n    /* \"#utility.yul\":6831:6837   */\n  dup3\n    /* \"#utility.yul\":6828:6842   */\n  lt\n    /* \"#utility.yul\":6808:6826   */\n  dup2\n    /* \"#utility.yul\":6805:6843   */\n  sub\n    /* \"#utility.yul\":6802:6886   */\n  tag_114\n  jumpi\n    /* \"#utility.yul\":6858:6876   */\n  tag_115\n  tag_41\n  jump\t// in\ntag_115:\n    /* \"#utility.yul\":6802:6886   */\ntag_114:\n    /* \"#utility.yul\":6623:6892   */\n  pop\n    /* \"#utility.yul\":6572:6892   */\n  swap2\n  swap1\n  pop\n  jump\t// out\n    /* \"#utility.yul\":6898:7039   */\ntag_43:\n    /* \"#utility.yul\":6947:6951   */\n  0x00\n    /* \"#utility.yul\":6970:6973   */\n  dup2\n    /* \"#utility.yul\":6962:6973   */\n  swap1\n  pop\n    /* \"#utility.yul\":6993:6996   */\n  dup2\n    /* \"#utility.yul\":6990:6991   */\n  0x00\n    /* \"#utility.yul\":6983:6997   */\n  mstore\n    /* \"#utility.yul\":7027:7031   */\n  0x20\n    /* \"#utility.yul\":7024:7025   */\n  0x00\n    /* \"#utility.yul\":7014:7032   */\n  keccak256\n    /* \"#utility.yul\":7006:7032   */\n  swap1\n  pop\n    /* \"#utility.yul\":6898:7039   */\n  swap2\n  swap1\n  pop\n  jump\t// out\n    /* \"#utility.yul\":7045:7138   */\ntag_44:\n    /* \"#utility.yul\":7082:7088   */\n  0x00\n    /* \"#utility.yul\":7129:7131   */\n  0x20\n    /* \"#utility.yul\":7124:7126   */\n  0x1f\n    /* \"#utility.yul\":7117:7122   */\n  dup4\n    /* \"#utility.yul\":7113:7127   */\n  add\n    /* \"#utility.yul\":7109:7132   */\n  div\n    /* \"#utility.yul\":7099:7132   */\n  swap1\n  pop\n    /* \"#utility.yul\":7045:7138   */\n  swap2\n  swap1\n  pop\n  jump\t// out\n    /* \"#utility.yul\":7144:7251   */\ntag_45:\n    /* \"#utility.yul\":7188:7196   */\n  0x00\n    /* \"#utility.yul\":7238:7243   */\n  dup3\n    /* \"#utility.yul\":7232:7236   */\n  dup3\n    /* \"#utility.yul\":7228:7244   */\n  shl\n    /* \"#utility.yul\":7207:7244   */\n  swap1\n  pop\n    /* \"#utility.yul\":7144:7251   */\n  swap3\n  swap2\n  pop\n  pop\n  jump\t// out\n    /* \"#utility.yul\":7257:7650   */\ntag_46:\n    /* \"#utility.yul\":7326:7332   */\n  0x00\n    /* \"#utility.yul\":7376:7377   */\n  0x08\n    /* \"#utility.yul\":7364:7374   */\n  dup4\n    /* \"#utility.yul\":7360:7378   */\n  mul\n    /* \"#utility.yul\":7399:7496   */\n  tag_120\n    /* \"#utility.yul\":7429:7495   */\n  0xffffffffffffffffffffffffffffffffffffffffffffffffffffffffffffffff\n    /* \"#utility.yul\":7418:7427   */\n  dup3\n    /* \"#utility.yul\":7399:7496   */\n  tag_45\n  jump\t// in\ntag_120:\n    /* \"#utility.yul\":7517:7556   */\n  tag_121\n    /* \"#utility.yul\":7547:7555   */\n  dup7\n    /* \"#utility.yul\":7536:7545   */\n  dup4\n    /* \"#utility.yul\":7517:7556   */\n  tag_45\n  jump\t// in\ntag_121:\n    /* \"#utility.yul\":7505:7556   */\n  swap6\n  pop\n    /* \"#utility.yul\":7589:7593   */\n  dup1\n    /* \"#utility.yul\":7585:7594   */\n  not\n    /* \"#utility.yul\":7578:7583   */\n  dup5\n    /* \"#utility.yul\":7574:7595   */\n  and\n    /* \"#utility.yul\":7565:7595   */\n  swap4\n  pop\n    /* \"#utility.yul\":7638:7642   */\n  dup1\n    /* \"#utility.yul\":7628:7636   */\n  dup7\n    /* \"#utility.yul\":7624:7643   */\n  and\n    /* \"#utility.yul\":7617:7622   */\n  dup5\n    /* \"#utility.yul\":7614:7644   */\n  or\n    /* \"#utility.yul\":7604:7644   */\n  swap3\n  pop\n    /* \"#utility.yul\":7333:7650   */\n  pop\n  pop\n    /* \"#utility.yul\":7257:7650   */\n  swap4\n  swap3\n  pop\n  pop\n  pop\n  jump\t// out\n    /* \"#utility.yul\":7656:7733   */\ntag_47:\n    /* \"#utility.yul\":7693:7700   */\n  0x00\n    /* \"#utility.yul\":7722:7727   */\n  dup2\n    /* \"#utility.yul\":7711:7727   */\n  swap1\n  pop\n    /* \"#utility.yul\":7656:7733   */\n  swap2\n  swap1\n  pop\n  jump\t// out\n    /* \"#utility.yul\":7739:7799   */\ntag_48:\n    /* \"#utility.yul\":7767:7770   */\n  0x00\n    /* \"#utility.yul\":7788:7793   */\n  dup2\n    /* \"#utility.yul\":7781:7793   */\n  swap1\n  pop\n    /* \"#utility.yul\":7739:7799   */\n  swap2\n  swap1\n  pop\n  jump\t// out\n    /* \"#utility.yul\":7805:7947   */\ntag_49:\n    /* \"#utility.yul\":7855:7864   */\n  0x00\n    /* \"#utility.yul\":7888:7941   */\n  tag_125\n    /* \"#utility.yul\":7906:7940   */\n  tag_126\n    /* \"#utility.yul\":7915:7939   */\n  tag_127\n    /* \"#utility.yul\":7933:7938   */\n  dup5\n    /* \"#utility.yul\":7915:7939   */\n  tag_47\n  jump\t// in\ntag_127:\n    /* \"#utility.yul\":7906:7940   */\n  tag_48\n  jump\t// in\ntag_126:\n    /* \"#utility.yul\":7888:7941   */\n  tag_47\n  jump\t// in\ntag_125:\n    /* \"#utility.yul\":7875:7941   */\n  swap1\n  pop\n    /* \"#utility.yul\":7805:7947   */\n  swap2\n  swap1\n  pop\n  jump\t// out\n    /* \"#utility.yul\":7953:8028   */\ntag_50:\n    /* \"#utility.yul\":7996:7999   */\n  0x00\n    /* \"#utility.yul\":8017:8022   */\n  dup2\n    /* \"#utility.yul\":8010:8022   */\n  swap1\n  pop\n    /* \"#utility.yul\":7953:8028   */\n  swap2\n  swap1\n  pop\n  jump\t// out\n    /* \"#utility.yul\":8034:8303   */\ntag_51:\n    /* \"#utility.yul\":8144:8183   */\n  tag_130\n    /* \"#utility.yul\":8175:8182   */\n  dup4\n    /* \"#utility.yul\":8144:8183   */\n  tag_49\n  jump\t// in\ntag_130:\n    /* \"#utility.yul\":8205:8296   */\n  tag_131\n    /* \"#utility.yul\":8254:8295   */\n  tag_132\n    /* \"#utility.yul\":8278:8294   */\n  dup3\n    /* \"#utility.yul\":8254:8295   */\n  tag_50\n  jump\t// in\ntag_132:\n    /* \"#utility.yul\":8246:8252   */\n  dup5\n    /* \"#utility.yul\":8239:8243   */\n  dup5\n    /* \"#utility.yul\":8233:8244   */\n  sload\n    /* \"#utility.yul\":8205:8296   */\n  tag_46\n  jump\t// in\ntag_131:\n    /* \"#utility.yul\":8199:8203   */\n  dup3\n    /* \"#utility.yul\":8192:8297   */\n  sstore\n    /* \"#utility.yul\":8110:8303   */\n  pop\n    /* \"#utility.yul\":8034:8303   */\n  pop\n  pop\n  pop\n  jump\t// out\n    /* \"#utility.yul\":8309:8382   */\ntag_52:\n    /* \"#utility.yul\":8354:8357   */\n  0x00\n    /* \"#utility.yul\":8309:8382   */\n  swap1\n  jump\t// out\n    /* \"#utility.yul\":8388:8577   */\ntag_53:\n    /* \"#utility.yul\":8465:8497   */\n  tag_135\n  tag_52\n  jump\t// in\ntag_135:\n    /* \"#utility.yul\":8506:8571   */\n  tag_136\n    /* \"#utility.yul\":8564:8570   */\n  dup2\n    /* \"#utility.yul\":8556:8562   */\n  dup5\n    /* \"#utility.yul\":8550:8554   */\n  dup5\n    /* \"#utility.yul\":8506:8571   */\n  tag_51\n  jump\t// in\ntag_136:\n    /* \"#utility.yul\":8441:8577   */\n  pop\n    /* \"#utility.yul\":8388:8577   */\n  pop\n  pop\n  jump\t// out\n    /* \"#utility.yul\":8583:8769   */\ntag_54:\n    /* \"#utility.yul\":8643:8763   */\ntag_138:\n    /* \"#utility.yul\":8660:8663   */\n  dup2\n    /* \"#utility.yul\":8653:8658   */\n  dup2\n    /* \"#utility.yul\":8650:8664   */\n  lt\n    /* \"#utility.yul\":8643:8763   */\n  iszero\n  tag_140\n  jumpi\n    /* \"#utility.yul\":8714:8753   */\n  tag_141\n    /* \"#utility.yul\":8751:8752   */\n  0x00\n    /* \"#utility.yul\":8744:8749   */\n  dup3\n    /* \"#utility.yul\":8714:8753   */\n  tag_53\n  jump\t// in\ntag_141:\n    /* \"#utility.yul\":8687:8688   */\n  0x01\n    /* \"#utility.yul\":8680:8685   */\n  dup2\n    /* \"#utility.yul\":8676:8689   */\n  add\n    /* \"#utility.yul\":8667:8689   */\n  swap1\n  pop\n    /* \"#utility.yul\":8643:8763   */\n  jump(tag_138)\ntag_140:\n    /* \"#utility.yul\":8583:8769   */\n  pop\n  pop\n  jump\t// out\n    /* \"#utility.yul\":8775:9318   */\ntag_55:\n    /* \"#utility.yul\":8876:8878   */\n  0x1f\n    /* \"#utility.yul\":8871:8874   */\n  dup3\n    /* \"#utility.yul\":8868:8879   */\n  gt\n    /* \"#utility.yul\":8865:9311   */\n  iszero\n  tag_143\n  jumpi\n    /* \"#utility.yul\":8910:8948   */\n  tag_144\n    /* \"#utility.yul\":8942:8947   */\n  dup2\n    /* \"#utility.yul\":8910:8948   */\n  tag_43\n  jump\t// in\ntag_144:\n    /* \"#utility.yul\":8994:9023   */\n  tag_145\n    /* \"#utility.yul\":9012:9022   */\n  dup5\n    /* \"#utility.yul\":8994:9023   */\n  tag_44\n  jump\t// in\ntag_145:\n    /* \"#utility.yul\":8984:8992   */\n  dup2\n    /* \"#utility.yul\":8980:9024   */\n  add\n    /* \"#utility.yul\":9177:9179   */\n  0x20\n    /* \"#utility.yul\":9165:9175   */\n  dup6\n    /* \"#utility.yul\":9162:9180   */\n  lt\n    /* \"#utility.yul\":9159:9208   */\n  iszero\n  tag_146\n  jumpi\n    /* \"#utility.yul\":9198:9206   */\n  dup2\n    /* \"#utility.yul\":9183:9206   */\n  swap1\n  pop\n    /* \"#utility.yul\":9159:9208   */\ntag_146:\n    /* \"#utility.yul\":9221:9301   */\n  tag_147\n    /* \"#utility.yul\":9277:9299   */\n  tag_148\n    /* \"#utility.yul\":9295:9298   */\n  dup6\n    /* \"#utility.yul\":9277:9299   */\n  tag_44\n  jump\t// in\ntag_148:\n    /* \"#utility.yul\":9267:9275   */\n  dup4\n    /* \"#utility.yul\":9263:9300   */\n  add\n    /* \"#utility.yul\":9250:9261   */\n  dup3\n    /* \"#utility.yul\":9221:9301   */\n  tag_54\n  jump\t// in\ntag_147:\n    /* \"#utility.yul\":8880:9311   */\n  pop\n  pop\n    /* \"#utility.yul\":8865:9311   */\ntag_143:\n    /* \"#utility.yul\":8775:9318   */\n  pop\n  pop\n  pop\n  jump\t// out\n    /* \"#utility.yul\":9324:9441   */\ntag_56:\n    /* \"#utility.yul\":9378:9386   */\n  0x00\n    /* \"#utility.yul\":9428:9433   */\n  dup3\n    /* \"#utility.yul\":9422:9426   */\n  dup3\n    /* \"#utility.yul\":9418:9434   */\n  shr\n    /* \"#utility.yul\":9397:9434   */\n  swap1\n  pop\n    /* \"#utility.yul\":9324:9441   */\n  swap3\n  swap2\n  pop\n  pop\n  jump\t// out\n    /* \"#utility.yul\":9447:9616   */\ntag_57:\n    /* \"#utility.yul\":9491:9497   */\n  0x00\n    /* \"#utility.yul\":9524:9575   */\n  tag_151\n    /* \"#utility.yul\":9572:9573   */\n  0x00\n    /* \"#utility.yul\":9568:9574   */\n  not\n    /* \"#utility.yul\":9560:9565   */\n  dup5\n    /* \"#utility.yul\":9557:9558   */\n  0x08\n    /* \"#utility.yul\":9553:9566   */\n  mul\n    /* \"#utility.yul\":9524:9575   */\n  tag_56\n  jump\t// in\ntag_151:\n    /* \"#utility.yul\":9520:9576   */\n  not\n    /* \"#utility.yul\":9605:9609   */\n  dup1\n    /* \"#utility.yul\":9599:9603   */\n  dup4\n    /* \"#utility.yul\":9595:9610   */\n  and\n    /* \"#utility.yul\":9585:9610   */\n  swap2\n  pop\n    /* \"#utility.yul\":9498:9616   */\n  pop\n    /* \"#utility.yul\":9447:9616   */\n  swap3\n  swap2\n  pop\n  pop\n  jump\t// out\n    /* \"#utility.yul\":9621:9916   */\ntag_58:\n    /* \"#utility.yul\":9697:9701   */\n  0x00\n    /* \"#utility.yul\":9843:9872   */\n  tag_153\n    /* \"#utility.yul\":9868:9871   */\n  dup4\n    /* \"#utility.yul\":9862:9866   */\n  dup4\n    /* \"#utility.yul\":9843:9872   */\n  tag_57\n  jump\t// in\ntag_153:\n    /* \"#utility.yul\":9835:9872   */\n  swap2\n  pop\n    /* \"#utility.yul\":9905:9908   */\n  dup3\n    /* \"#utility.yul\":9902:9903   */\n  0x02\n    /* \"#utility.yul\":9898:9909   */\n  mul\n    /* \"#utility.yul\":9892:9896   */\n  dup3\n    /* \"#utility.yul\":9889:9910   */\n  or\n    /* \"#utility.yul\":9881:9910   */\n  swap1\n  pop\n    /* \"#utility.yul\":9621:9916   */\n  swap3\n  swap2\n  pop\n  pop\n  jump\t// out\n    /* \"#utility.yul\":9921:11316   */\ntag_17:\n    /* \"#utility.yul\":10038:10075   */\n  tag_155\n    /* \"#utility.yul\":10071:10074   */\n  dup3\n    /* \"#utility.yul\":10038:10075   */\n  tag_39\n  jump\t// in\ntag_155:\n    /* \"#utility.yul\":10140:10158   */\n  0xffffffffffffffff\n    /* \"#utility.yul\":10132:10138   */\n  dup2\n    /* \"#utility.yul\":10129:10159   */\n  gt\n    /* \"#utility.yul\":10126:10182   */\n  iszero\n  tag_156\n  jumpi\n    /* \"#utility.yul\":10162:10180   */\n  tag_157\n  tag_40\n  jump\t// in\ntag_157:\n    /* \"#utility.yul\":10126:10182   */\ntag_156:\n    /* \"#utility.yul\":10206:10244   */\n  tag_158\n    /* \"#utility.yul\":10238:10242   */\n  dup3\n    /* \"#utility.yul\":10232:10243   */\n  sload\n    /* \"#utility.yul\":10206:10244   */\n  tag_42\n  jump\t// in\ntag_158:\n    /* \"#utility.yul\":10291:10358   */\n  tag_159\n    /* \"#utility.yul\":10351:10357   */\n  dup3\n    /* \"#utility.yul\":10343:10349   */\n  dup3\n    /* \"#utility.yul\":10337:10341   */\n  dup6\n    /* \"#utility.yul\":10291:10358   */\n  tag_55\n  jump\t// in\ntag_159:\n    /* \"#utility.yul\":10385:10386   */\n  0x00\n    /* \"#utility.yul\":10409:10413   */\n  0x20\n    /* \"#utility.yul\":10396:10413   */\n  swap1\n  pop\n    /* \"#utility.yul\":10441:10443   */\n  0x1f\n    /* \"#utility.yul\":10433:10439   */\n  dup4\n    /* \"#utility.yul\":10430:10444   */\n  gt\n    /* \"#utility.yul\":10458:10459   */\n  0x01\n    /* \"#utility.yul\":10453:11071   */\n  dup2\n  eq\n  tag_161\n  jumpi\n    /* \"#utility.yul\":11115:11116   */\n  0x00\n    /* \"#utility.yul\":11132:11138   */\n  dup5\n    /* \"#utility.yul\":11129:11206   */\n  iszero\n  tag_162\n  jumpi\n    /* \"#utility.yul\":11181:11190   */\n  dup3\n    /* \"#utility.yul\":11176:11179   */\n  dup8\n    /* \"#utility.yul\":11172:11191   */\n  add\n    /* \"#utility.yul\":11166:11192   */\n  mload\n    /* \"#utility.yul\":11157:11192   */\n  swap1\n  pop\n    /* \"#utility.yul\":11129:11206   */\ntag_162:\n    /* \"#utility.yul\":11232:11299   */\n  tag_163\n    /* \"#utility.yul\":11292:11298   */\n  dup6\n    /* \"#utility.yul\":11285:11290   */\n  dup3\n    /* \"#utility.yul\":11232:11299   */\n  tag_58\n  jump\t// in\ntag_163:\n    /* \"#utility.yul\":11226:11230   */\n  dup7\n    /* \"#utility.yul\":11219:11300   */\n  sstore\n    /* \"#utility.yul\":11088:11310   */\n  pop\n    /* \"#utility.yul\":10423:11310   */\n  jump(tag_160)\n    /* \"#utility.yul\":10453:11071   */\ntag_161:\n    /* \"#utility.yul\":10505:10509   */\n  0x1f\n    /* \"#utility.yul\":10501:10510   */\n  not\n    /* \"#utility.yul\":10493:10499   */\n  dup5\n    /* \"#utility.yul\":10489:10511   */\n  and\n    /* \"#utility.yul\":10539:10576   */\n  tag_164\n    /* \"#utility.yul\":10571:10575   */\n  dup7\n    /* \"#utility.yul\":10539:10576   */\n  tag_43\n  jump\t// in\ntag_164:\n    /* \"#utility.yul\":10598:10599   */\n  0x00\n    /* \"#utility.yul\":10612:10820   */\ntag_165:\n    /* \"#utility.yul\":10626:10633   */\n  dup3\n    /* \"#utility.yul\":10623:10624   */\n  dup2\n    /* \"#utility.yul\":10620:10634   */\n  lt\n    /* \"#utility.yul\":10612:10820   */\n  iszero\n  tag_167\n  jumpi\n    /* \"#utility.yul\":10705:10714   */\n  dup5\n    /* \"#utility.yul\":10700:10703   */\n  dup10\n    /* \"#utility.yul\":10696:10715   */\n  add\n    /* \"#utility.yul\":10690:10716   */\n  mload\n    /* \"#utility.yul\":10682:10688   */\n  dup3\n    /* \"#utility.yul\":10675:10717   */\n  sstore\n    /* \"#utility.yul\":10756:10757   */\n  0x01\n    /* \"#utility.yul\":10748:10754   */\n  dup3\n    /* \"#utility.yul\":10744:10758   */\n  add\n    /* \"#utility.yul\":10734:10758   */\n  swap2\n  pop\n    /* \"#utility.yul\":10803:10805   */\n  0x20\n    /* \"#utility.yul\":10792:10801   */\n  dup6\n    /* \"#utility.yul\":10788:10806   */\n  add\n    /* \"#utility.yul\":10775:10806   */\n  swap5\n  pop\n    /* \"#utility.yul\":10649:10653   */\n  0x20\n    /* \"#utility.yul\":10646:10647   */\n  dup2\n    /* \"#utility.yul\":10642:10654   */\n  add\n    /* \"#utility.yul\":10637:10654   */\n  swap1\n  pop\n    /* \"#utility.yul\":10612:10820   */\n  jump(tag_165)\ntag_167:\n    /* \"#utility.yul\":10848:10854   */\n  dup7\n    /* \"#utility.yul\":10839:10846   */\n  dup4\n    /* \"#utility.yul\":10836:10855   */\n  lt\n    /* \"#utility.yul\":10833:11012   */\n  iszero\n  tag_168\n  jumpi\n    /* \"#utility.yul\":10906:10915   */\n  dup5\n    /* \"#utility.yul\":10901:10904   */\n  dup10\n    /* \"#utility.yul\":10897:10916   */\n  add\n    /* \"#utility.yul\":10891:10917   */\n  mload\n    /* \"#utility.yul\":10949:10997   */\n  tag_169\n    /* \"#utility.yul\":10991:10995   */\n  0x1f\n    /* \"#utility.yul\":10983:10989   */\n  dup10\n    /* \"#utility.yul\":10979:10996   */\n  and\n    /* \"#utility.yul\":10968:10977   */\n  dup3\n    /* \"#utility.yul\":10949:10997   */\n  tag_57\n  jump\t// in\ntag_169:\n    /* \"#utility.yul\":10941:10947   */\n  dup4\n    /* \"#utility.yul\":10934:10998   */\n  sstore\n    /* \"#utility.yul\":10856:11012   */\n  pop\n    /* \"#utility.yul\":10833:11012   */\ntag_168:\n    /* \"#utility.yul\":11058:11059   */\n  0x01\n    /* \"#utility.yul\":11054:11055   */\n  0x02\n    /* \"#utility.yul\":11046:11052   */\n  dup9\n    /* \"#utility.yul\":11042:11056   */\n  mul\n    /* \"#utility.yul\":11038:11060   */\n  add\n    /* \"#utility.yul\":11032:11036   */\n  dup9\n    /* \"#utility.yul\":11025:11061   */\n  sstore\n    /* \"#utility.yul\":10460:11071   */\n  pop\n  pop\n  pop\n    /* \"#utility.yul\":10423:11310   */\ntag_160:\n  pop\n    /* \"#utility.yul\":10013:11316   */\n  pop\n  pop\n  pop\n    /* \"#utility.yul\":9921:11316   */\n  pop\n  pop\n  jump\t// out\n    /* \"primerContrato/Smart_Contracts/3_hashing.sol\":61:395  contract hashing { ... */\ntag_19:\n  dataSize(sub_0)\n  dup1\n  dataOffset(sub_0)\n  0x00\n  codecopy\n  0x00\n  return\nstop\n\nsub_0: assembly {\n        /* \"primerContrato/Smart_Contracts/3_hashing.sol\":61:395  contract hashing { ... */\n      mstore(0x40, 0x80)\n      callvalue\n      dup1\n      iszero\n      tag_1\n      jumpi\n      0x00\n      dup1\n      revert\n    tag_1:\n      pop\n      jumpi(tag_2, lt(calldatasize, 0x04))\n      shr(0xe0, calldataload(0x00))\n      dup1\n      0x19ff1d21\n      eq\n      tag_3\n      jumpi\n      dup1\n      0x2b73648d\n      eq\n      tag_4\n      jumpi\n      dup1\n      0x7a68ef7f\n      eq\n      tag_5\n      jumpi\n      dup1\n      0xc7109d04\n      eq\n      tag_6\n      jumpi\n    tag_2:\n      0x00\n      dup1\n      revert\n        /* \"primerContrato/Smart_Contracts/3_hashing.sol\":351:385  string public  hello = \"pendejos!\" */\n    tag_3:\n      tag_7\n      tag_8\n      jump\t// in\n    tag_7:\n      mload(0x40)\n      tag_9\n      swap2\n      swap1\n      tag_10\n      jump\t// in\n    tag_9:\n      mload(0x40)\n      dup1\n      swap2\n      sub\n      swap1\n      return\n        /* \"primerContrato/Smart_Contracts/3_hashing.sol\":110:186  bytes32 public hashing_keccak256 = keccak256(abi.encodePacked(\"Hola\",\"Isa\")) */\n    tag_4:\n      tag_11\n      tag_12\n      jump\t// in\n    tag_11:\n      mload(0x40)\n      tag_13\n      swap2\n      swap1\n      tag_14\n      jump\t// in\n    tag_13:\n      mload(0x40)\n      dup1\n      swap2\n      sub\n      swap1\n      return\n        /* \"primerContrato/Smart_Contracts/3_hashing.sol\":268:345  bytes20 public hashing_ripemd160 = ripemd160(abi.encodePacked(\"Hello word!\")) */\n    tag_5:\n      tag_15\n      tag_16\n      jump\t// in\n    tag_15:\n      mload(0x40)\n      tag_17\n      swap2\n      swap1\n      tag_18\n      jump\t// in\n    tag_17:\n      mload(0x40)\n      dup1\n      swap2\n      sub\n      swap1\n      return\n        /* \"primerContrato/Smart_Contracts/3_hashing.sol\":190:264  bytes32 public hashing_sha256 =sha256(abi.encodePacked(\"Hello Pendejos!\")) */\n    tag_6:\n      tag_19\n      tag_20\n      jump\t// in\n    tag_19:\n      mload(0x40)\n      tag_21\n      swap2\n      swap1\n      tag_14\n      jump\t// in\n    tag_21:\n      mload(0x40)\n      dup1\n      swap2\n      sub\n      swap1\n      return\n        /* \"primerContrato/Smart_Contracts/3_hashing.sol\":351:385  string public  hello = \"pendejos!\" */\n    tag_8:\n      0x03\n      dup1\n      sload\n      tag_22\n      swap1\n      tag_23\n      jump\t// in\n    tag_22:\n      dup1\n      0x1f\n      add\n      0x20\n      dup1\n      swap2\n      div\n      mul\n      0x20\n      add\n      mload(0x40)\n      swap1\n      dup2\n      add\n      0x40\n      mstore\n      dup1\n      swap3\n      swap2\n      swap1\n      dup2\n      dup2\n      mstore\n      0x20\n      add\n      dup3\n      dup1\n      sload\n      tag_24\n      swap1\n      tag_23\n      jump\t// in\n    tag_24:\n      dup1\n      iszero\n      tag_25\n      jumpi\n      dup1\n      0x1f\n      lt\n      tag_26\n      jumpi\n      0x0100\n      dup1\n      dup4\n      sload\n      div\n      mul\n      dup4\n      mstore\n      swap2\n      0x20\n      add\n      swap2\n      jump(tag_25)\n    tag_26:\n      dup3\n      add\n      swap2\n      swap1\n      0x00\n      mstore\n      keccak256(0x00, 0x20)\n      swap1\n    tag_27:\n      dup2\n      sload\n      dup2\n      mstore\n      swap1\n      0x01\n      add\n      swap1\n      0x20\n      add\n      dup1\n      dup4\n      gt\n      tag_27\n      jumpi\n      dup3\n      swap1\n      sub\n      0x1f\n      and\n      dup3\n      add\n      swap2\n    tag_25:\n      pop\n      pop\n      pop\n      pop\n      pop\n      dup2\n      jump\t// out\n        /* \"primerContrato/Smart_Contracts/3_hashing.sol\":110:186  bytes32 public hashing_keccak256 = keccak256(abi.encodePacked(\"Hola\",\"Isa\")) */\n    tag_12:\n      sload(0x00)\n      dup2\n      jump\t// out\n        /* \"primerContrato/Smart_Contracts/3_hashing.sol\":268:345  bytes20 public hashing_ripemd160 = ripemd160(abi.encodePacked(\"Hello word!\")) */\n    tag_16:\n      0x02\n      0x00\n      swap1\n      sload\n      swap1\n      0x0100\n      exp\n      swap1\n      div\n      0x60\n      shl\n      dup2\n      jump\t// out\n        /* \"primerContrato/Smart_Contracts/3_hashing.sol\":190:264  bytes32 public hashing_sha256 =sha256(abi.encodePacked(\"Hello Pendejos!\")) */\n    tag_20:\n      sload(0x01)\n      dup2\n      jump\t// out\n        /* \"#utility.yul\":7:106   */\n    tag_28:\n        /* \"#utility.yul\":59:65   */\n      0x00\n        /* \"#utility.yul\":93:98   */\n      dup2\n        /* \"#utility.yul\":87:99   */\n      mload\n        /* \"#utility.yul\":77:99   */\n      swap1\n      pop\n        /* \"#utility.yul\":7:106   */\n      swap2\n      swap1\n      pop\n      jump\t// out\n        /* \"#utility.yul\":112:281   */\n    tag_29:\n        /* \"#utility.yul\":196:207   */\n      0x00\n        /* \"#utility.yul\":230:236   */\n      dup3\n        /* \"#utility.yul\":225:228   */\n      dup3\n        /* \"#utility.yul\":218:237   */\n      mstore\n        /* \"#utility.yul\":270:274   */\n      0x20\n        /* \"#utility.yul\":265:268   */\n      dup3\n        /* \"#utility.yul\":261:275   */\n      add\n        /* \"#utility.yul\":246:275   */\n      swap1\n      pop\n        /* \"#utility.yul\":112:281   */\n      swap3\n      swap2\n      pop\n      pop\n      jump\t// out\n        /* \"#utility.yul\":287:533   */\n    tag_30:\n        /* \"#utility.yul\":368:369   */\n      0x00\n        /* \"#utility.yul\":378:491   */\n    tag_42:\n        /* \"#utility.yul\":392:398   */\n      dup4\n        /* \"#utility.yul\":389:390   */\n      dup2\n        /* \"#utility.yul\":386:399   */\n      lt\n        /* \"#utility.yul\":378:491   */\n      iszero\n      tag_44\n      jumpi\n        /* \"#utility.yul\":477:478   */\n      dup1\n        /* \"#utility.yul\":472:475   */\n      dup3\n        /* \"#utility.yul\":468:479   */\n      add\n        /* \"#utility.yul\":462:480   */\n      mload\n        /* \"#utility.yul\":458:459   */\n      dup2\n        /* \"#utility.yul\":453:456   */\n      dup5\n        /* \"#utility.yul\":449:460   */\n      add\n        /* \"#utility.yul\":442:481   */\n      mstore\n        /* \"#utility.yul\":414:416   */\n      0x20\n        /* \"#utility.yul\":411:412   */\n      dup2\n        /* \"#utility.yul\":407:417   */\n      add\n        /* \"#utility.yul\":402:417   */\n      swap1\n      pop\n        /* \"#utility.yul\":378:491   */\n      jump(tag_42)\n    tag_44:\n        /* \"#utility.yul\":525:526   */\n      0x00\n        /* \"#utility.yul\":516:522   */\n      dup5\n        /* \"#utility.yul\":511:514   */\n      dup5\n        /* \"#utility.yul\":507:523   */\n      add\n        /* \"#utility.yul\":500:527   */\n      mstore\n        /* \"#utility.yul\":349:533   */\n      pop\n        /* \"#utility.yul\":287:533   */\n      pop\n      pop\n      pop\n      jump\t// out\n        /* \"#utility.yul\":539:641   */\n    tag_31:\n        /* \"#utility.yul\":580:586   */\n      0x00\n        /* \"#utility.yul\":631:633   */\n      0x1f\n        /* \"#utility.yul\":627:634   */\n      not\n        /* \"#utility.yul\":622:624   */\n      0x1f\n        /* \"#utility.yul\":615:620   */\n      dup4\n        /* \"#utility.yul\":611:625   */\n      add\n        /* \"#utility.yul\":607:635   */\n      and\n        /* \"#utility.yul\":597:635   */\n      swap1\n      pop\n        /* \"#utility.yul\":539:641   */\n      swap2\n      swap1\n      pop\n      jump\t// out\n        /* \"#utility.yul\":647:1024   */\n    tag_32:\n        /* \"#utility.yul\":735:738   */\n      0x00\n        /* \"#utility.yul\":763:802   */\n      tag_47\n        /* \"#utility.yul\":796:801   */\n      dup3\n        /* \"#utility.yul\":763:802   */\n      tag_28\n      jump\t// in\n    tag_47:\n        /* \"#utility.yul\":818:889   */\n      tag_48\n        /* \"#utility.yul\":882:888   */\n      dup2\n        /* \"#utility.yul\":877:880   */\n      dup6\n        /* \"#utility.yul\":818:889   */\n      tag_29\n      jump\t// in\n    tag_48:\n        /* \"#utility.yul\":811:889   */\n      swap4\n      pop\n        /* \"#utility.yul\":898:963   */\n      tag_49\n        /* \"#utility.yul\":956:962   */\n      dup2\n        /* \"#utility.yul\":951:954   */\n      dup6\n        /* \"#utility.yul\":944:948   */\n      0x20\n        /* \"#utility.yul\":937:942   */\n      dup7\n        /* \"#utility.yul\":933:949   */\n      add\n        /* \"#utility.yul\":898:963   */\n      tag_30\n      jump\t// in\n    tag_49:\n        /* \"#utility.yul\":988:1017   */\n      tag_50\n        /* \"#utility.yul\":1010:1016   */\n      dup2\n        /* \"#utility.yul\":988:1017   */\n      tag_31\n      jump\t// in\n    tag_50:\n        /* \"#utility.yul\":983:986   */\n      dup5\n        /* \"#utility.yul\":979:1018   */\n      add\n        /* \"#utility.yul\":972:1018   */\n      swap2\n      pop\n        /* \"#utility.yul\":739:1024   */\n      pop\n        /* \"#utility.yul\":647:1024   */\n      swap3\n      swap2\n      pop\n      pop\n      jump\t// out\n        /* \"#utility.yul\":1030:1343   */\n    tag_10:\n        /* \"#utility.yul\":1143:1147   */\n      0x00\n        /* \"#utility.yul\":1181:1183   */\n      0x20\n        /* \"#utility.yul\":1170:1179   */\n      dup3\n        /* \"#utility.yul\":1166:1184   */\n      add\n        /* \"#utility.yul\":1158:1184   */\n      swap1\n      pop\n        /* \"#utility.yul\":1230:1239   */\n      dup2\n        /* \"#utility.yul\":1224:1228   */\n      dup2\n        /* \"#utility.yul\":1220:1240   */\n      sub\n        /* \"#utility.yul\":1216:1217   */\n      0x00\n        /* \"#utility.yul\":1205:1214   */\n      dup4\n        /* \"#utility.yul\":1201:1218   */\n      add\n        /* \"#utility.yul\":1194:1241   */\n      mstore\n        /* \"#utility.yul\":1258:1336   */\n      tag_52\n        /* \"#utility.yul\":1331:1335   */\n      dup2\n        /* \"#utility.yul\":1322:1328   */\n      dup5\n        /* \"#utility.yul\":1258:1336   */\n      tag_32\n      jump\t// in\n    tag_52:\n        /* \"#utility.yul\":1250:1336   */\n      swap1\n      pop\n        /* \"#utility.yul\":1030:1343   */\n      swap3\n      swap2\n      pop\n      pop\n      jump\t// out\n        /* \"#utility.yul\":1349:1426   */\n    tag_33:\n        /* \"#utility.yul\":1386:1393   */\n      0x00\n        /* \"#utility.yul\":1415:1420   */\n      dup2\n        /* \"#utility.yul\":1404:1420   */\n      swap1\n      pop\n        /* \"#utility.yul\":1349:1426   */\n      swap2\n      swap1\n      pop\n      jump\t// out\n        /* \"#utility.yul\":1432:1550   */\n    tag_34:\n        /* \"#utility.yul\":1519:1543   */\n      tag_55\n        /* \"#utility.yul\":1537:1542   */\n      dup2\n        /* \"#utility.yul\":1519:1543   */\n      tag_33\n      jump\t// in\n    tag_55:\n        /* \"#utility.yul\":1514:1517   */\n      dup3\n        /* \"#utility.yul\":1507:1544   */\n      mstore\n        /* \"#utility.yul\":1432:1550   */\n      pop\n      pop\n      jump\t// out\n        /* \"#utility.yul\":1556:1778   */\n    tag_14:\n        /* \"#utility.yul\":1649:1653   */\n      0x00\n        /* \"#utility.yul\":1687:1689   */\n      0x20\n        /* \"#utility.yul\":1676:1685   */\n      dup3\n        /* \"#utility.yul\":1672:1690   */\n      add\n        /* \"#utility.yul\":1664:1690   */\n      swap1\n      pop\n        /* \"#utility.yul\":1700:1771   */\n      tag_57\n        /* \"#utility.yul\":1768:1769   */\n      0x00\n        /* \"#utility.yul\":1757:1766   */\n      dup4\n        /* \"#utility.yul\":1753:1770   */\n      add\n        /* \"#utility.yul\":1744:1750   */\n      dup5\n        /* \"#utility.yul\":1700:1771   */\n      tag_34\n      jump\t// in\n    tag_57:\n        /* \"#utility.yul\":1556:1778   */\n      swap3\n      swap2\n      pop\n      pop\n      jump\t// out\n        /* \"#utility.yul\":1784:1934   */\n    tag_35:\n        /* \"#utility.yul\":1821:1828   */\n      0x00\n        /* \"#utility.yul\":1861:1927   */\n      0xffffffffffffffffffffffffffffffffffffffff000000000000000000000000\n        /* \"#utility.yul\":1854:1859   */\n      dup3\n        /* \"#utility.yul\":1850:1928   */\n      and\n        /* \"#utility.yul\":1839:1928   */\n      swap1\n      pop\n        /* \"#utility.yul\":1784:1934   */\n      swap2\n      swap1\n      pop\n      jump\t// out\n        /* \"#utility.yul\":1940:2058   */\n    tag_36:\n        /* \"#utility.yul\":2027:2051   */\n      tag_60\n        /* \"#utility.yul\":2045:2050   */\n      dup2\n        /* \"#utility.yul\":2027:2051   */\n      tag_35\n      jump\t// in\n    tag_60:\n        /* \"#utility.yul\":2022:2025   */\n      dup3\n        /* \"#utility.yul\":2015:2052   */\n      mstore\n        /* \"#utility.yul\":1940:2058   */\n      pop\n      pop\n      jump\t// out\n        /* \"#utility.yul\":2064:2286   */\n    tag_18:\n        /* \"#utility.yul\":2157:2161   */\n      0x00\n        /* \"#utility.yul\":2195:2197   */\n      0x20\n        /* \"#utility.yul\":2184:2193   */\n      dup3\n        /* \"#utility.yul\":2180:2198   */\n      add\n        /* \"#utility.yul\":2172:2198   */\n      swap1\n      pop\n        /* \"#utility.yul\":2208:2279   */\n      tag_62\n        /* \"#utility.yul\":2276:2277   */\n      0x00\n        /* \"#utility.yul\":2265:2274   */\n      dup4\n        /* \"#utility.yul\":2261:2278   */\n      add\n        /* \"#utility.yul\":2252:2258   */\n      dup5\n        /* \"#utility.yul\":2208:2279   */\n      tag_36\n      jump\t// in\n    tag_62:\n        /* \"#utility.yul\":2064:2286   */\n      swap3\n      swap2\n      pop\n      pop\n      jump\t// out\n        /* \"#utility.yul\":2292:2472   */\n    tag_37:\n        /* \"#utility.yul\":2340:2417   */\n      0x4e487b7100000000000000000000000000000000000000000000000000000000\n        /* \"#utility.yul\":2337:2338   */\n      0x00\n        /* \"#utility.yul\":2330:2418   */\n      mstore\n        /* \"#utility.yul\":2437:2441   */\n      0x22\n        /* \"#utility.yul\":2434:2435   */\n      0x04\n        /* \"#utility.yul\":2427:2442   */\n      mstore\n        /* \"#utility.yul\":2461:2465   */\n      0x24\n        /* \"#utility.yul\":2458:2459   */\n      0x00\n        /* \"#utility.yul\":2451:2466   */\n      revert\n        /* \"#utility.yul\":2478:2798   */\n    tag_23:\n        /* \"#utility.yul\":2522:2528   */\n      0x00\n        /* \"#utility.yul\":2559:2560   */\n      0x02\n        /* \"#utility.yul\":2553:2557   */\n      dup3\n        /* \"#utility.yul\":2549:2561   */\n      div\n        /* \"#utility.yul\":2539:2561   */\n      swap1\n      pop\n        /* \"#utility.yul\":2606:2607   */\n      0x01\n        /* \"#utility.yul\":2600:2604   */\n      dup3\n        /* \"#utility.yul\":2596:2608   */\n      and\n        /* \"#utility.yul\":2627:2645   */\n      dup1\n        /* \"#utility.yul\":2617:2698   */\n      tag_65\n      jumpi\n        /* \"#utility.yul\":2683:2687   */\n      0x7f\n        /* \"#utility.yul\":2675:2681   */\n      dup3\n        /* \"#utility.yul\":2671:2688   */\n      and\n        /* \"#utility.yul\":2661:2688   */\n      swap2\n      pop\n        /* \"#utility.yul\":2617:2698   */\n    tag_65:\n        /* \"#utility.yul\":2745:2747   */\n      0x20\n        /* \"#utility.yul\":2737:2743   */\n      dup3\n        /* \"#utility.yul\":2734:2748   */\n      lt\n        /* \"#utility.yul\":2714:2732   */\n      dup2\n        /* \"#utility.yul\":2711:2749   */\n      sub\n        /* \"#utility.yul\":2708:2792   */\n      tag_66\n      jumpi\n        /* \"#utility.yul\":2764:2782   */\n      tag_67\n      tag_37\n      jump\t// in\n    tag_67:\n        /* \"#utility.yul\":2708:2792   */\n    tag_66:\n        /* \"#utility.yul\":2529:2798   */\n      pop\n        /* \"#utility.yul\":2478:2798   */\n      swap2\n      swap1\n      pop\n      jump\t// out\n\n    auxdata: 0xa2646970667358221220c06478d95a8f74e704d662808b016052d7604596510566319aab6f22843bb97264736f6c63430008120033\n}\n",
				"bytecode": {
					"linkReferences": {},
					"object": "6080604052604051602001620000159062000231565b6040516020818303038152906040528051906020012060005560026040516020016200004190620002a5565b6040516020818303038152906040526040516200005f919062000335565b602060405180830381855afa1580156200007d573d6000803e3d6000fd5b5050506040513d601f19601f82011682018060405250810190620000a291906200038e565b6001556003604051602001620000b89062000410565b604051602081830303815290604052604051620000d6919062000335565b602060405180830381855afa158015620000f4573d6000803e3d6000fd5b5050506040515160601b600260006101000a81548173ffffffffffffffffffffffffffffffffffffffff021916908360601c02179055506040518060400160405280600981526020017f70656e64656a6f7321000000000000000000000000000000000000000000000081525060039081620001719190620006a1565b503480156200017f57600080fd5b5062000788565b600081905092915050565b7f486f6c6100000000000000000000000000000000000000000000000000000000600082015250565b6000620001c960048362000186565b9150620001d68262000191565b600482019050919050565b7f4973610000000000000000000000000000000000000000000000000000000000600082015250565b60006200021960038362000186565b91506200022682620001e1565b600382019050919050565b60006200023e82620001ba565b91506200024b826200020a565b9150819050919050565b7f48656c6c6f2050656e64656a6f73210000000000000000000000000000000000600082015250565b60006200028d600f8362000186565b91506200029a8262000255565b600f82019050919050565b6000620002b2826200027e565b9150819050919050565b600081519050919050565b600081905092915050565b60005b83811015620002f2578082015181840152602081019050620002d5565b60008484015250505050565b60006200030b82620002bc565b620003178185620002c7565b935062000329818560208601620002d2565b80840191505092915050565b6000620003438284620002fe565b915081905092915050565b600080fd5b6000819050919050565b620003688162000353565b81146200037457600080fd5b50565b60008151905062000388816200035d565b92915050565b600060208284031215620003a757620003a66200034e565b5b6000620003b78482850162000377565b91505092915050565b7f48656c6c6f20776f726421000000000000000000000000000000000000000000600082015250565b6000620003f8600b8362000186565b91506200040582620003c0565b600b82019050919050565b60006200041d82620003e9565b9150819050919050565b600081519050919050565b7f4e487b7100000000000000000000000000000000000000000000000000000000600052604160045260246000fd5b7f4e487b7100000000000000000000000000000000000000000000000000000000600052602260045260246000fd5b60006002820490506001821680620004a957607f821691505b602082108103620004bf57620004be62000461565b5b50919050565b60008190508160005260206000209050919050565b60006020601f8301049050919050565b600082821b905092915050565b600060088302620005297fffffffffffffffffffffffffffffffffffffffffffffffffffffffffffffffff82620004ea565b620005358683620004ea565b95508019841693508086168417925050509392505050565b6000819050919050565b6000819050919050565b6000620005826200057c62000576846200054d565b62000557565b6200054d565b9050919050565b6000819050919050565b6200059e8362000561565b620005b6620005ad8262000589565b848454620004f7565b825550505050565b600090565b620005cd620005be565b620005da81848462000593565b505050565b5b818110156200060257620005f6600082620005c3565b600181019050620005e0565b5050565b601f82111562000651576200061b81620004c5565b6200062684620004da565b8101602085101562000636578190505b6200064e6200064585620004da565b830182620005df565b50505b505050565b600082821c905092915050565b6000620006766000198460080262000656565b1980831691505092915050565b600062000691838362000663565b9150826002028217905092915050565b620006ac8262000427565b67ffffffffffffffff811115620006c857620006c762000432565b5b620006d4825462000490565b620006e182828562000606565b600060209050601f83116001811462000719576000841562000704578287015190505b62000710858262000683565b86555062000780565b601f1984166200072986620004c5565b60005b8281101562000753578489015182556001820191506020850194506020810190506200072c565b868310156200077357848901516200076f601f89168262000663565b8355505b6001600288020188555050505b505050505050565b61034880620007986000396000f3fe608060405234801561001057600080fd5b506004361061004c5760003560e01c806319ff1d21146100515780632b73648d1461006f5780637a68ef7f1461008d578063c7109d04146100ab575b600080fd5b6100596100c9565b6040516100669190610206565b60405180910390f35b610077610157565b6040516100849190610241565b60405180910390f35b61009561015d565b6040516100a29190610297565b60405180910390f35b6100b3610170565b6040516100c09190610241565b60405180910390f35b600380546100d6906102e1565b80601f0160208091040260200160405190810160405280929190818152602001828054610102906102e1565b801561014f5780601f106101245761010080835404028352916020019161014f565b820191906000526020600020905b81548152906001019060200180831161013257829003601f168201915b505050505081565b60005481565b600260009054906101000a900460601b81565b60015481565b600081519050919050565b600082825260208201905092915050565b60005b838110156101b0578082015181840152602081019050610195565b60008484015250505050565b6000601f19601f8301169050919050565b60006101d882610176565b6101e28185610181565b93506101f2818560208601610192565b6101fb816101bc565b840191505092915050565b6000602082019050818103600083015261022081846101cd565b905092915050565b6000819050919050565b61023b81610228565b82525050565b60006020820190506102566000830184610232565b92915050565b60007fffffffffffffffffffffffffffffffffffffffff00000000000000000000000082169050919050565b6102918161025c565b82525050565b60006020820190506102ac6000830184610288565b92915050565b7f4e487b7100000000000000000000000000000000000000000000000000000000600052602260045260246000fd5b600060028204905060018216806102f957607f821691505b60208210810361030c5761030b6102b2565b5b5091905056fea2646970667358221220c06478d95a8f74e704d662808b016052d7604596510566319aab6f22843bb97264736f6c63430008120033",
					"opcodes": "PUSH1 0x80 PUSH1 0x40 MSTORE PUSH1 0x40 MLOAD PUSH1 0x20 ADD PUSH3 0x15 SWAP1 PUSH3 0x231 JUMP JUMPDEST PUSH1 0x40 MLOAD PUSH1 0x20 DUP2 DUP4 SUB SUB DUP2 MSTORE SWAP1 PUSH1 0x40 MSTORE DUP1 MLOAD SWAP1 PUSH1 0x20 ADD KECCAK256 PUSH1 0x0 SSTORE PUSH1 0x2 PUSH1 0x40 MLOAD PUSH1 0x20 ADD PUSH3 0x41 SWAP1 PUSH3 0x2A5 JUMP JUMPDEST PUSH1 0x40 MLOAD PUSH1 0x20 DUP2 DUP4 SUB SUB DUP2 MSTORE SWAP1 PUSH1 0x40 MSTORE PUSH1 0x40 MLOAD PUSH3 0x5F SWAP2 SWAP1 PUSH3 0x335 JUMP JUMPDEST PUSH1 0x20 PUSH1 0x40 MLOAD DUP1 DUP4 SUB DUP2 DUP6 GAS STATICCALL ISZERO DUP1 ISZERO PUSH3 0x7D JUMPI RETURNDATASIZE PUSH1 0x0 DUP1 RETURNDATACOPY RETURNDATASIZE PUSH1 0x0 REVERT JUMPDEST POP POP POP PUSH1 0x40 MLOAD RETURNDATASIZE PUSH1 0x1F NOT PUSH1 0x1F DUP3 ADD AND DUP3 ADD DUP1 PUSH1 0x40 MSTORE POP DUP2 ADD SWAP1 PUSH3 0xA2 SWAP2 SWAP1 PUSH3 0x38E JUMP JUMPDEST PUSH1 0x1 SSTORE PUSH1 0x3 PUSH1 0x40 MLOAD PUSH1 0x20 ADD PUSH3 0xB8 SWAP1 PUSH3 0x410 JUMP JUMPDEST PUSH1 0x40 MLOAD PUSH1 0x20 DUP2 DUP4 SUB SUB DUP2 MSTORE SWAP1 PUSH1 0x40 MSTORE PUSH1 0x40 MLOAD PUSH3 0xD6 SWAP2 SWAP1 PUSH3 0x335 JUMP JUMPDEST PUSH1 0x20 PUSH1 0x40 MLOAD DUP1 DUP4 SUB DUP2 DUP6 GAS STATICCALL ISZERO DUP1 ISZERO PUSH3 0xF4 JUMPI RETURNDATASIZE PUSH1 0x0 DUP1 RETURNDATACOPY RETURNDATASIZE PUSH1 0x0 REVERT JUMPDEST POP POP POP PUSH1 0x40 MLOAD MLOAD PUSH1 0x60 SHL PUSH1 0x2 PUSH1 0x0 PUSH2 0x100 EXP DUP2 SLOAD DUP2 PUSH20 0xFFFFFFFFFFFFFFFFFFFFFFFFFFFFFFFFFFFFFFFF MUL NOT AND SWAP1 DUP4 PUSH1 0x60 SHR MUL OR SWAP1 SSTORE POP PUSH1 0x40 MLOAD DUP1 PUSH1 0x40 ADD PUSH1 0x40 MSTORE DUP1 PUSH1 0x9 DUP2 MSTORE PUSH1 0x20 ADD PUSH32 0x70656E64656A6F73210000000000000000000000000000000000000000000000 DUP2 MSTORE POP PUSH1 0x3 SWAP1 DUP2 PUSH3 0x171 SWAP2 SWAP1 PUSH3 0x6A1 JUMP JUMPDEST POP CALLVALUE DUP1 ISZERO PUSH3 0x17F JUMPI PUSH1 0x0 DUP1 REVERT JUMPDEST POP PUSH3 0x788 JUMP JUMPDEST PUSH1 0x0 DUP2 SWAP1 POP SWAP3 SWAP2 POP POP JUMP JUMPDEST PUSH32 0x486F6C6100000000000000000000000000000000000000000000000000000000 PUSH1 0x0 DUP3 ADD MSTORE POP JUMP JUMPDEST PUSH1 0x0 PUSH3 0x1C9 PUSH1 0x4 DUP4 PUSH3 0x186 JUMP JUMPDEST SWAP2 POP PUSH3 0x1D6 DUP3 PUSH3 0x191 JUMP JUMPDEST PUSH1 0x4 DUP3 ADD SWAP1 POP SWAP2 SWAP1 POP JUMP JUMPDEST PUSH32 0x4973610000000000000000000000000000000000000000000000000000000000 PUSH1 0x0 DUP3 ADD MSTORE POP JUMP JUMPDEST PUSH1 0x0 PUSH3 0x219 PUSH1 0x3 DUP4 PUSH3 0x186 JUMP JUMPDEST SWAP2 POP PUSH3 0x226 DUP3 PUSH3 0x1E1 JUMP JUMPDEST PUSH1 0x3 DUP3 ADD SWAP1 POP SWAP2 SWAP1 POP JUMP JUMPDEST PUSH1 0x0 PUSH3 0x23E DUP3 PUSH3 0x1BA JUMP JUMPDEST SWAP2 POP PUSH3 0x24B DUP3 PUSH3 0x20A JUMP JUMPDEST SWAP2 POP DUP2 SWAP1 POP SWAP2 SWAP1 POP JUMP JUMPDEST PUSH32 0x48656C6C6F2050656E64656A6F73210000000000000000000000000000000000 PUSH1 0x0 DUP3 ADD MSTORE POP JUMP JUMPDEST PUSH1 0x0 PUSH3 0x28D PUSH1 0xF DUP4 PUSH3 0x186 JUMP JUMPDEST SWAP2 POP PUSH3 0x29A DUP3 PUSH3 0x255 JUMP JUMPDEST PUSH1 0xF DUP3 ADD SWAP1 POP SWAP2 SWAP1 POP JUMP JUMPDEST PUSH1 0x0 PUSH3 0x2B2 DUP3 PUSH3 0x27E JUMP JUMPDEST SWAP2 POP DUP2 SWAP1 POP SWAP2 SWAP1 POP JUMP JUMPDEST PUSH1 0x0 DUP2 MLOAD SWAP1 POP SWAP2 SWAP1 POP JUMP JUMPDEST PUSH1 0x0 DUP2 SWAP1 POP SWAP3 SWAP2 POP POP JUMP JUMPDEST PUSH1 0x0 JUMPDEST DUP4 DUP2 LT ISZERO PUSH3 0x2F2 JUMPI DUP1 DUP3 ADD MLOAD DUP2 DUP5 ADD MSTORE PUSH1 0x20 DUP2 ADD SWAP1 POP PUSH3 0x2D5 JUMP JUMPDEST PUSH1 0x0 DUP5 DUP5 ADD MSTORE POP POP POP POP JUMP JUMPDEST PUSH1 0x0 PUSH3 0x30B DUP3 PUSH3 0x2BC JUMP JUMPDEST PUSH3 0x317 DUP2 DUP6 PUSH3 0x2C7 JUMP JUMPDEST SWAP4 POP PUSH3 0x329 DUP2 DUP6 PUSH1 0x20 DUP7 ADD PUSH3 0x2D2 JUMP JUMPDEST DUP1 DUP5 ADD SWAP2 POP POP SWAP3 SWAP2 POP POP JUMP JUMPDEST PUSH1 0x0 PUSH3 0x343 DUP3 DUP5 PUSH3 0x2FE JUMP JUMPDEST SWAP2 POP DUP2 SWAP1 POP SWAP3 SWAP2 POP POP JUMP JUMPDEST PUSH1 0x0 DUP1 REVERT JUMPDEST PUSH1 0x0 DUP2 SWAP1 POP SWAP2 SWAP1 POP JUMP JUMPDEST PUSH3 0x368 DUP2 PUSH3 0x353 JUMP JUMPDEST DUP2 EQ PUSH3 0x374 JUMPI PUSH1 0x0 DUP1 REVERT JUMPDEST POP JUMP JUMPDEST PUSH1 0x0 DUP2 MLOAD SWAP1 POP PUSH3 0x388 DUP2 PUSH3 0x35D JUMP JUMPDEST SWAP3 SWAP2 POP POP JUMP JUMPDEST PUSH1 0x0 PUSH1 0x20 DUP3 DUP5 SUB SLT ISZERO PUSH3 0x3A7 JUMPI PUSH3 0x3A6 PUSH3 0x34E JUMP JUMPDEST JUMPDEST PUSH1 0x0 PUSH3 0x3B7 DUP5 DUP3 DUP6 ADD PUSH3 0x377 JUMP JUMPDEST SWAP2 POP POP SWAP3 SWAP2 POP POP JUMP JUMPDEST PUSH32 0x48656C6C6F20776F726421000000000000000000000000000000000000000000 PUSH1 0x0 DUP3 ADD MSTORE POP JUMP JUMPDEST PUSH1 0x0 PUSH3 0x3F8 PUSH1 0xB DUP4 PUSH3 0x186 JUMP JUMPDEST SWAP2 POP PUSH3 0x405 DUP3 PUSH3 0x3C0 JUMP JUMPDEST PUSH1 0xB DUP3 ADD SWAP1 POP SWAP2 SWAP1 POP JUMP JUMPDEST PUSH1 0x0 PUSH3 0x41D DUP3 PUSH3 0x3E9 JUMP JUMPDEST SWAP2 POP DUP2 SWAP1 POP SWAP2 SWAP1 POP JUMP JUMPDEST PUSH1 0x0 DUP2 MLOAD SWAP1 POP SWAP2 SWAP1 POP JUMP JUMPDEST PUSH32 0x4E487B7100000000000000000000000000000000000000000000000000000000 PUSH1 0x0 MSTORE PUSH1 0x41 PUSH1 0x4 MSTORE PUSH1 0x24 PUSH1 0x0 REVERT JUMPDEST PUSH32 0x4E487B7100000000000000000000000000000000000000000000000000000000 PUSH1 0x0 MSTORE PUSH1 0x22 PUSH1 0x4 MSTORE PUSH1 0x24 PUSH1 0x0 REVERT JUMPDEST PUSH1 0x0 PUSH1 0x2 DUP3 DIV SWAP1 POP PUSH1 0x1 DUP3 AND DUP1 PUSH3 0x4A9 JUMPI PUSH1 0x7F DUP3 AND SWAP2 POP JUMPDEST PUSH1 0x20 DUP3 LT DUP2 SUB PUSH3 0x4BF JUMPI PUSH3 0x4BE PUSH3 0x461 JUMP JUMPDEST JUMPDEST POP SWAP2 SWAP1 POP JUMP JUMPDEST PUSH1 0x0 DUP2 SWAP1 POP DUP2 PUSH1 0x0 MSTORE PUSH1 0x20 PUSH1 0x0 KECCAK256 SWAP1 POP SWAP2 SWAP1 POP JUMP JUMPDEST PUSH1 0x0 PUSH1 0x20 PUSH1 0x1F DUP4 ADD DIV SWAP1 POP SWAP2 SWAP1 POP JUMP JUMPDEST PUSH1 0x0 DUP3 DUP3 SHL SWAP1 POP SWAP3 SWAP2 POP POP JUMP JUMPDEST PUSH1 0x0 PUSH1 0x8 DUP4 MUL PUSH3 0x529 PUSH32 0xFFFFFFFFFFFFFFFFFFFFFFFFFFFFFFFFFFFFFFFFFFFFFFFFFFFFFFFFFFFFFFFF DUP3 PUSH3 0x4EA JUMP JUMPDEST PUSH3 0x535 DUP7 DUP4 PUSH3 0x4EA JUMP JUMPDEST SWAP6 POP DUP1 NOT DUP5 AND SWAP4 POP DUP1 DUP7 AND DUP5 OR SWAP3 POP POP POP SWAP4 SWAP3 POP POP POP JUMP JUMPDEST PUSH1 0x0 DUP2 SWAP1 POP SWAP2 SWAP1 POP JUMP JUMPDEST PUSH1 0x0 DUP2 SWAP1 POP SWAP2 SWAP1 POP JUMP JUMPDEST PUSH1 0x0 PUSH3 0x582 PUSH3 0x57C PUSH3 0x576 DUP5 PUSH3 0x54D JUMP JUMPDEST PUSH3 0x557 JUMP JUMPDEST PUSH3 0x54D JUMP JUMPDEST SWAP1 POP SWAP2 SWAP1 POP JUMP JUMPDEST PUSH1 0x0 DUP2 SWAP1 POP SWAP2 SWAP1 POP JUMP JUMPDEST PUSH3 0x59E DUP4 PUSH3 0x561 JUMP JUMPDEST PUSH3 0x5B6 PUSH3 0x5AD DUP3 PUSH3 0x589 JUMP JUMPDEST DUP5 DUP5 SLOAD PUSH3 0x4F7 JUMP JUMPDEST DUP3 SSTORE POP POP POP POP JUMP JUMPDEST PUSH1 0x0 SWAP1 JUMP JUMPDEST PUSH3 0x5CD PUSH3 0x5BE JUMP JUMPDEST PUSH3 0x5DA DUP2 DUP5 DUP5 PUSH3 0x593 JUMP JUMPDEST POP POP POP JUMP JUMPDEST JUMPDEST DUP2 DUP2 LT ISZERO PUSH3 0x602 JUMPI PUSH3 0x5F6 PUSH1 0x0 DUP3 PUSH3 0x5C3 JUMP JUMPDEST PUSH1 0x1 DUP2 ADD SWAP1 POP PUSH3 0x5E0 JUMP JUMPDEST POP POP JUMP JUMPDEST PUSH1 0x1F DUP3 GT ISZERO PUSH3 0x651 JUMPI PUSH3 0x61B DUP2 PUSH3 0x4C5 JUMP JUMPDEST PUSH3 0x626 DUP5 PUSH3 0x4DA JUMP JUMPDEST DUP2 ADD PUSH1 0x20 DUP6 LT ISZERO PUSH3 0x636 JUMPI DUP2 SWAP1 POP JUMPDEST PUSH3 0x64E PUSH3 0x645 DUP6 PUSH3 0x4DA JUMP JUMPDEST DUP4 ADD DUP3 PUSH3 0x5DF JUMP JUMPDEST POP POP JUMPDEST POP POP POP JUMP JUMPDEST PUSH1 0x0 DUP3 DUP3 SHR SWAP1 POP SWAP3 SWAP2 POP POP JUMP JUMPDEST PUSH1 0x0 PUSH3 0x676 PUSH1 0x0 NOT DUP5 PUSH1 0x8 MUL PUSH3 0x656 JUMP JUMPDEST NOT DUP1 DUP4 AND SWAP2 POP POP SWAP3 SWAP2 POP POP JUMP JUMPDEST PUSH1 0x0 PUSH3 0x691 DUP4 DUP4 PUSH3 0x663 JUMP JUMPDEST SWAP2 POP DUP3 PUSH1 0x2 MUL DUP3 OR SWAP1 POP SWAP3 SWAP2 POP POP JUMP JUMPDEST PUSH3 0x6AC DUP3 PUSH3 0x427 JUMP JUMPDEST PUSH8 0xFFFFFFFFFFFFFFFF DUP2 GT ISZERO PUSH3 0x6C8 JUMPI PUSH3 0x6C7 PUSH3 0x432 JUMP JUMPDEST JUMPDEST PUSH3 0x6D4 DUP3 SLOAD PUSH3 0x490 JUMP JUMPDEST PUSH3 0x6E1 DUP3 DUP3 DUP6 PUSH3 0x606 JUMP JUMPDEST PUSH1 0x0 PUSH1 0x20 SWAP1 POP PUSH1 0x1F DUP4 GT PUSH1 0x1 DUP2 EQ PUSH3 0x719 JUMPI PUSH1 0x0 DUP5 ISZERO PUSH3 0x704 JUMPI DUP3 DUP8 ADD MLOAD SWAP1 POP JUMPDEST PUSH3 0x710 DUP6 DUP3 PUSH3 0x683 JUMP JUMPDEST DUP7 SSTORE POP PUSH3 0x780 JUMP JUMPDEST PUSH1 0x1F NOT DUP5 AND PUSH3 0x729 DUP7 PUSH3 0x4C5 JUMP JUMPDEST PUSH1 0x0 JUMPDEST DUP3 DUP2 LT ISZERO PUSH3 0x753 JUMPI DUP5 DUP10 ADD MLOAD DUP3 SSTORE PUSH1 0x1 DUP3 ADD SWAP2 POP PUSH1 0x20 DUP6 ADD SWAP5 POP PUSH1 0x20 DUP2 ADD SWAP1 POP PUSH3 0x72C JUMP JUMPDEST DUP7 DUP4 LT ISZERO PUSH3 0x773 JUMPI DUP5 DUP10 ADD MLOAD PUSH3 0x76F PUSH1 0x1F DUP10 AND DUP3 PUSH3 0x663 JUMP JUMPDEST DUP4 SSTORE POP JUMPDEST PUSH1 0x1 PUSH1 0x2 DUP9 MUL ADD DUP9 SSTORE POP POP POP JUMPDEST POP POP POP POP POP POP JUMP JUMPDEST PUSH2 0x348 DUP1 PUSH3 0x798 PUSH1 0x0 CODECOPY PUSH1 0x0 RETURN INVALID PUSH1 0x80 PUSH1 0x40 MSTORE CALLVALUE DUP1 ISZERO PUSH2 0x10 JUMPI PUSH1 0x0 DUP1 REVERT JUMPDEST POP PUSH1 0x4 CALLDATASIZE LT PUSH2 0x4C JUMPI PUSH1 0x0 CALLDATALOAD PUSH1 0xE0 SHR DUP1 PUSH4 0x19FF1D21 EQ PUSH2 0x51 JUMPI DUP1 PUSH4 0x2B73648D EQ PUSH2 0x6F JUMPI DUP1 PUSH4 0x7A68EF7F EQ PUSH2 0x8D JUMPI DUP1 PUSH4 0xC7109D04 EQ PUSH2 0xAB JUMPI JUMPDEST PUSH1 0x0 DUP1 REVERT JUMPDEST PUSH2 0x59 PUSH2 0xC9 JUMP JUMPDEST PUSH1 0x40 MLOAD PUSH2 0x66 SWAP2 SWAP1 PUSH2 0x206 JUMP JUMPDEST PUSH1 0x40 MLOAD DUP1 SWAP2 SUB SWAP1 RETURN JUMPDEST PUSH2 0x77 PUSH2 0x157 JUMP JUMPDEST PUSH1 0x40 MLOAD PUSH2 0x84 SWAP2 SWAP1 PUSH2 0x241 JUMP JUMPDEST PUSH1 0x40 MLOAD DUP1 SWAP2 SUB SWAP1 RETURN JUMPDEST PUSH2 0x95 PUSH2 0x15D JUMP JUMPDEST PUSH1 0x40 MLOAD PUSH2 0xA2 SWAP2 SWAP1 PUSH2 0x297 JUMP JUMPDEST PUSH1 0x40 MLOAD DUP1 SWAP2 SUB SWAP1 RETURN JUMPDEST PUSH2 0xB3 PUSH2 0x170 JUMP JUMPDEST PUSH1 0x40 MLOAD PUSH2 0xC0 SWAP2 SWAP1 PUSH2 0x241 JUMP JUMPDEST PUSH1 0x40 MLOAD DUP1 SWAP2 SUB SWAP1 RETURN JUMPDEST PUSH1 0x3 DUP1 SLOAD PUSH2 0xD6 SWAP1 PUSH2 0x2E1 JUMP JUMPDEST DUP1 PUSH1 0x1F ADD PUSH1 0x20 DUP1 SWAP2 DIV MUL PUSH1 0x20 ADD PUSH1 0x40 MLOAD SWAP1 DUP2 ADD PUSH1 0x40 MSTORE DUP1 SWAP3 SWAP2 SWAP1 DUP2 DUP2 MSTORE PUSH1 0x20 ADD DUP3 DUP1 SLOAD PUSH2 0x102 SWAP1 PUSH2 0x2E1 JUMP JUMPDEST DUP1 ISZERO PUSH2 0x14F JUMPI DUP1 PUSH1 0x1F LT PUSH2 0x124 JUMPI PUSH2 0x100 DUP1 DUP4 SLOAD DIV MUL DUP4 MSTORE SWAP2 PUSH1 0x20 ADD SWAP2 PUSH2 0x14F JUMP JUMPDEST DUP3 ADD SWAP2 SWAP1 PUSH1 0x0 MSTORE PUSH1 0x20 PUSH1 0x0 KECCAK256 SWAP1 JUMPDEST DUP2 SLOAD DUP2 MSTORE SWAP1 PUSH1 0x1 ADD SWAP1 PUSH1 0x20 ADD DUP1 DUP4 GT PUSH2 0x132 JUMPI DUP3 SWAP1 SUB PUSH1 0x1F AND DUP3 ADD SWAP2 JUMPDEST POP POP POP POP POP DUP2 JUMP JUMPDEST PUSH1 0x0 SLOAD DUP2 JUMP JUMPDEST PUSH1 0x2 PUSH1 0x0 SWAP1 SLOAD SWAP1 PUSH2 0x100 EXP SWAP1 DIV PUSH1 0x60 SHL DUP2 JUMP JUMPDEST PUSH1 0x1 SLOAD DUP2 JUMP JUMPDEST PUSH1 0x0 DUP2 MLOAD SWAP1 POP SWAP2 SWAP1 POP JUMP JUMPDEST PUSH1 0x0 DUP3 DUP3 MSTORE PUSH1 0x20 DUP3 ADD SWAP1 POP SWAP3 SWAP2 POP POP JUMP JUMPDEST PUSH1 0x0 JUMPDEST DUP4 DUP2 LT ISZERO PUSH2 0x1B0 JUMPI DUP1 DUP3 ADD MLOAD DUP2 DUP5 ADD MSTORE PUSH1 0x20 DUP2 ADD SWAP1 POP PUSH2 0x195 JUMP JUMPDEST PUSH1 0x0 DUP5 DUP5 ADD MSTORE POP POP POP POP JUMP JUMPDEST PUSH1 0x0 PUSH1 0x1F NOT PUSH1 0x1F DUP4 ADD AND SWAP1 POP SWAP2 SWAP1 POP JUMP JUMPDEST PUSH1 0x0 PUSH2 0x1D8 DUP3 PUSH2 0x176 JUMP JUMPDEST PUSH2 0x1E2 DUP2 DUP6 PUSH2 0x181 JUMP JUMPDEST SWAP4 POP PUSH2 0x1F2 DUP2 DUP6 PUSH1 0x20 DUP7 ADD PUSH2 0x192 JUMP JUMPDEST PUSH2 0x1FB DUP2 PUSH2 0x1BC JUMP JUMPDEST DUP5 ADD SWAP2 POP POP SWAP3 SWAP2 POP POP JUMP JUMPDEST PUSH1 0x0 PUSH1 0x20 DUP3 ADD SWAP1 POP DUP2 DUP2 SUB PUSH1 0x0 DUP4 ADD MSTORE PUSH2 0x220 DUP2 DUP5 PUSH2 0x1CD JUMP JUMPDEST SWAP1 POP SWAP3 SWAP2 POP POP JUMP JUMPDEST PUSH1 0x0 DUP2 SWAP1 POP SWAP2 SWAP1 POP JUMP JUMPDEST PUSH2 0x23B DUP2 PUSH2 0x228 JUMP JUMPDEST DUP3 MSTORE POP POP JUMP JUMPDEST PUSH1 0x0 PUSH1 0x20 DUP3 ADD SWAP1 POP PUSH2 0x256 PUSH1 0x0 DUP4 ADD DUP5 PUSH2 0x232 JUMP JUMPDEST SWAP3 SWAP2 POP POP JUMP JUMPDEST PUSH1 0x0 PUSH32 0xFFFFFFFFFFFFFFFFFFFFFFFFFFFFFFFFFFFFFFFF000000000000000000000000 DUP3 AND SWAP1 POP SWAP2 SWAP1 POP JUMP JUMPDEST PUSH2 0x291 DUP2 PUSH2 0x25C JUMP JUMPDEST DUP3 MSTORE POP POP JUMP JUMPDEST PUSH1 0x0 PUSH1 0x20 DUP3 ADD SWAP1 POP PUSH2 0x2AC PUSH1 0x0 DUP4 ADD DUP5 PUSH2 0x288 JUMP JUMPDEST SWAP3 SWAP2 POP POP JUMP JUMPDEST PUSH32 0x4E487B7100000000000000000000000000000000000000000000000000000000 PUSH1 0x0 MSTORE PUSH1 0x22 PUSH1 0x4 MSTORE PUSH1 0x24 PUSH1 0x0 REVERT JUMPDEST PUSH1 0x0 PUSH1 0x2 DUP3 DIV SWAP1 POP PUSH1 0x1 DUP3 AND DUP1 PUSH2 0x2F9 JUMPI PUSH1 0x7F DUP3 AND SWAP2 POP JUMPDEST PUSH1 0x20 DUP3 LT DUP2 SUB PUSH2 0x30C JUMPI PUSH2 0x30B PUSH2 0x2B2 JUMP JUMPDEST JUMPDEST POP SWAP2 SWAP1 POP JUMP INVALID LOG2 PUSH5 0x6970667358 0x22 SLT KECCAK256 0xC0 PUSH5 0x78D95A8F74 0xE7 DIV 0xD6 PUSH3 0x808B01 PUSH1 0x52 0xD7 PUSH1 0x45 SWAP7 MLOAD SDIV PUSH7 0x319AAB6F22843B 0xB9 PUSH19 0x64736F6C634300081200330000000000000000 "
				},
				"gasEstimates": {
					"creation": {
						"codeDepositCost": "168000",
						"executionCost": "infinite",
						"totalCost": "infinite"
					},
					"external": {
						"hashing_keccak256()": "2429",
						"hashing_ripemd160()": "2493",
						"hashing_sha256()": "2473",
						"hello()": "infinite"
					}
				},
				"methodIdentifiers": {
					"hashing_keccak256()": "2b73648d",
					"hashing_ripemd160()": "7a68ef7f",
					"hashing_sha256()": "c7109d04",
					"hello()": "19ff1d21"
				}
			},
			"storageLayout": {
				"storage": [
					{
						"astId": 10,
						"contract": "primerContrato/Smart_Contracts/3_hashing.sol:hashing",
						"label": "hashing_keccak256",
						"offset": 0,
						"slot": "0",
						"type": "t_bytes32"
					},
					{
						"astId": 18,
						"contract": "primerContrato/Smart_Contracts/3_hashing.sol:hashing",
						"label": "hashing_sha256",
						"offset": 0,
						"slot": "1",
						"type": "t_bytes32"
					},
					{
						"astId": 26,
						"contract": "primerContrato/Smart_Contracts/3_hashing.sol:hashing",
						"label": "hashing_ripemd160",
						"offset": 0,
						"slot": "2",
						"type": "t_bytes20"
					},
					{
						"astId": 29,
						"contract": "primerContrato/Smart_Contracts/3_hashing.sol:hashing",
						"label": "hello",
						"offset": 0,
						"slot": "3",
						"type": "t_string_storage"
					}
				],
				"types": {
					"t_bytes20": {
						"encoding": "inplace",
						"label": "bytes20",
						"numberOfBytes": "20"
					},
					"t_bytes32": {
						"encoding": "inplace",
						"label": "bytes32",
						"numberOfBytes": "32"
					},
					"t_string_storage": {
						"encoding": "bytes",
						"label": "string",
						"numberOfBytes": "32"
					}
				}
			},
			"userdoc": {
				"kind": "user",
				"methods": {},
				"version": 1
			}
		}
	}
}