{
	"primerContrato/Smart_Contracts/5_payable.sol": {
		"ethSend": {
			"abi": [
				{
					"inputs": [],
					"stateMutability": "payable",
					"type": "constructor"
				},
				{
					"anonymous": false,
					"inputs": [
						{
							"indexed": false,
							"internalType": "bool",
							"name": "",
							"type": "bool"
						},
						{
							"indexed": false,
							"internalType": "bytes",
							"name": "",
							"type": "bytes"
						}
					],
					"name": "callStatus",
					"type": "event"
				},
				{
					"anonymous": false,
					"inputs": [
						{
							"indexed": false,
							"internalType": "bool",
							"name": "",
							"type": "bool"
						}
					],
					"name": "sendStatus",
					"type": "event"
				},
				{
					"inputs": [
						{
							"internalType": "address payable",
							"name": "_to",
							"type": "address"
						}
					],
					"name": "sendViaCall",
					"outputs": [],
					"stateMutability": "payable",
					"type": "function"
				},
				{
					"inputs": [
						{
							"internalType": "address payable",
							"name": "_to",
							"type": "address"
						}
					],
					"name": "sendViaSend",
					"outputs": [],
					"stateMutability": "payable",
					"type": "function"
				},
				{
					"inputs": [
						{
							"internalType": "address payable",
							"name": "_to",
							"type": "address"
						}
					],
					"name": "sendViaTransfer",
					"outputs": [],
					"stateMutability": "payable",
					"type": "function"
				},
				{
					"stateMutability": "payable",
					"type": "receive"
				}
			],
			"devdoc": {
				"kind": "dev",
				"methods": {},
				"version": 1
			},
			"evm": {
				"assembly": "    /* \"primerContrato/Smart_Contracts/5_payable.sol\":60:832  contract ethSend { ... */\n  mstore(0x40, 0x80)\n  dataSize(sub_0)\n  dup1\n  dataOffset(sub_0)\n  0x00\n  codecopy\n  0x00\n  return\nstop\n\nsub_0: assembly {\n        /* \"primerContrato/Smart_Contracts/5_payable.sol\":60:832  contract ethSend { ... */\n      mstore(0x40, 0x80)\n      jumpi(tag_1, lt(calldatasize, 0x04))\n      shr(0xe0, calldataload(0x00))\n      dup1\n      0x636e082b\n      eq\n      tag_3\n      jumpi\n      dup1\n      0x74be4806\n      eq\n      tag_4\n      jumpi\n      dup1\n      0x830c29ae\n      eq\n      tag_5\n      jumpi\n      jump(tag_2)\n    tag_1:\n      jumpi(tag_2, calldatasize)\n      stop\n    tag_2:\n      0x00\n      dup1\n      revert\n        /* \"primerContrato/Smart_Contracts/5_payable.sol\":255:356  function sendViaTransfer(address payable _to) public payable {... */\n    tag_3:\n      tag_8\n      0x04\n      dup1\n      calldatasize\n      sub\n      dup2\n      add\n      swap1\n      tag_9\n      swap2\n      swap1\n      tag_10\n      jump\t// in\n    tag_9:\n      tag_11\n      jump\t// in\n    tag_8:\n      stop\n        /* \"primerContrato/Smart_Contracts/5_payable.sol\":377:570  function sendViaSend(address payable _to) public payable  {... */\n    tag_4:\n      tag_12\n      0x04\n      dup1\n      calldatasize\n      sub\n      dup2\n      add\n      swap1\n      tag_13\n      swap2\n      swap1\n      tag_10\n      jump\t// in\n    tag_13:\n      tag_14\n      jump\t// in\n    tag_12:\n      stop\n        /* \"primerContrato/Smart_Contracts/5_payable.sol\":593:829  function sendViaCall(address payable _to) public payable { ... */\n    tag_5:\n      tag_15\n      0x04\n      dup1\n      calldatasize\n      sub\n      dup2\n      add\n      swap1\n      tag_16\n      swap2\n      swap1\n      tag_10\n      jump\t// in\n    tag_16:\n      tag_17\n      jump\t// in\n    tag_15:\n      stop\n        /* \"primerContrato/Smart_Contracts/5_payable.sol\":255:356  function sendViaTransfer(address payable _to) public payable {... */\n    tag_11:\n        /* \"primerContrato/Smart_Contracts/5_payable.sol\":327:330  _to */\n      dup1\n        /* \"primerContrato/Smart_Contracts/5_payable.sol\":327:339  _to.transfer */\n      0xffffffffffffffffffffffffffffffffffffffff\n      and\n        /* \"primerContrato/Smart_Contracts/5_payable.sol\":327:348  _to.transfer(1 ether) */\n      0x08fc\n        /* \"primerContrato/Smart_Contracts/5_payable.sol\":340:347  1 ether */\n      0x0de0b6b3a7640000\n        /* \"primerContrato/Smart_Contracts/5_payable.sol\":327:348  _to.transfer(1 ether) */\n      swap1\n      dup2\n      iszero\n      mul\n      swap1\n      mload(0x40)\n      0x00\n      mload(0x40)\n      dup1\n      dup4\n      sub\n      dup2\n      dup6\n      dup9\n      dup9\n      call\n      swap4\n      pop\n      pop\n      pop\n      pop\n      iszero\n      dup1\n      iszero\n      tag_20\n      jumpi\n      returndatasize\n      0x00\n      dup1\n      returndatacopy\n      revert(0x00, returndatasize)\n    tag_20:\n      pop\n        /* \"primerContrato/Smart_Contracts/5_payable.sol\":255:356  function sendViaTransfer(address payable _to) public payable {... */\n      pop\n      jump\t// out\n        /* \"primerContrato/Smart_Contracts/5_payable.sol\":377:570  function sendViaSend(address payable _to) public payable  {... */\n    tag_14:\n        /* \"primerContrato/Smart_Contracts/5_payable.sol\":446:455  bool sent */\n      0x00\n        /* \"primerContrato/Smart_Contracts/5_payable.sol\":458:461  _to */\n      dup2\n        /* \"primerContrato/Smart_Contracts/5_payable.sol\":458:466  _to.send */\n      0xffffffffffffffffffffffffffffffffffffffff\n      and\n        /* \"primerContrato/Smart_Contracts/5_payable.sol\":458:475  _to.send(1 ether) */\n      0x08fc\n        /* \"primerContrato/Smart_Contracts/5_payable.sol\":467:474  1 ether */\n      0x0de0b6b3a7640000\n        /* \"primerContrato/Smart_Contracts/5_payable.sol\":458:475  _to.send(1 ether) */\n      swap1\n      dup2\n      iszero\n      mul\n      swap1\n      mload(0x40)\n      0x00\n      mload(0x40)\n      dup1\n      dup4\n      sub\n      dup2\n      dup6\n      dup9\n      dup9\n      call\n      swap4\n      pop\n      pop\n      pop\n      pop\n        /* \"primerContrato/Smart_Contracts/5_payable.sol\":446:475  bool sent = _to.send(1 ether) */\n      swap1\n      pop\n        /* \"primerContrato/Smart_Contracts/5_payable.sol\":491:507  sendStatus(sent) */\n      0x0c46a72a145bed1fc3c2d4b0e023bd11ddb1e3204a898f4119357ecde6d5fe99\n        /* \"primerContrato/Smart_Contracts/5_payable.sol\":502:506  sent */\n      dup2\n        /* \"primerContrato/Smart_Contracts/5_payable.sol\":491:507  sendStatus(sent) */\n      mload(0x40)\n      tag_23\n      swap2\n      swap1\n      tag_24\n      jump\t// in\n    tag_23:\n      mload(0x40)\n      dup1\n      swap2\n      sub\n      swap1\n      log1\n        /* \"primerContrato/Smart_Contracts/5_payable.sol\":534:538  true */\n      0x01\n        /* \"primerContrato/Smart_Contracts/5_payable.sol\":526:538  sent == true */\n      iszero\n      iszero\n        /* \"primerContrato/Smart_Contracts/5_payable.sol\":526:530  sent */\n      dup2\n        /* \"primerContrato/Smart_Contracts/5_payable.sol\":526:538  sent == true */\n      iszero\n      iszero\n      eq\n        /* \"primerContrato/Smart_Contracts/5_payable.sol\":518:562  require(sent == true, \"El envio ha fallado\") */\n      tag_25\n      jumpi\n      mload(0x40)\n      0x08c379a000000000000000000000000000000000000000000000000000000000\n      dup2\n      mstore\n      0x04\n      add\n      tag_26\n      swap1\n      tag_27\n      jump\t// in\n    tag_26:\n      mload(0x40)\n      dup1\n      swap2\n      sub\n      swap1\n      revert\n    tag_25:\n        /* \"primerContrato/Smart_Contracts/5_payable.sol\":435:570  {... */\n      pop\n        /* \"primerContrato/Smart_Contracts/5_payable.sol\":377:570  function sendViaSend(address payable _to) public payable  {... */\n      pop\n      jump\t// out\n        /* \"primerContrato/Smart_Contracts/5_payable.sol\":593:829  function sendViaCall(address payable _to) public payable { ... */\n    tag_17:\n        /* \"primerContrato/Smart_Contracts/5_payable.sol\":662:674  bool success */\n      0x00\n        /* \"primerContrato/Smart_Contracts/5_payable.sol\":675:692  bytes memory data */\n      dup1\n        /* \"primerContrato/Smart_Contracts/5_payable.sol\":697:700  _to */\n      dup3\n        /* \"primerContrato/Smart_Contracts/5_payable.sol\":697:705  _to.call */\n      0xffffffffffffffffffffffffffffffffffffffff\n      and\n        /* \"primerContrato/Smart_Contracts/5_payable.sol\":713:720  1 ether */\n      0x0de0b6b3a7640000\n        /* \"primerContrato/Smart_Contracts/5_payable.sol\":697:725  _to.call{value: 1 ether}(\"\") */\n      mload(0x40)\n      tag_29\n      swap1\n      tag_30\n      jump\t// in\n    tag_29:\n      0x00\n      mload(0x40)\n      dup1\n      dup4\n      sub\n      dup2\n      dup6\n      dup8\n      gas\n      call\n      swap3\n      pop\n      pop\n      pop\n      returndatasize\n      dup1\n      0x00\n      dup2\n      eq\n      tag_33\n      jumpi\n      mload(0x40)\n      swap2\n      pop\n      and(add(returndatasize, 0x3f), not(0x1f))\n      dup3\n      add\n      0x40\n      mstore\n      returndatasize\n      dup3\n      mstore\n      returndatasize\n      0x00\n      0x20\n      dup5\n      add\n      returndatacopy\n      jump(tag_32)\n    tag_33:\n      0x60\n      swap2\n      pop\n    tag_32:\n      pop\n        /* \"primerContrato/Smart_Contracts/5_payable.sol\":661:725  (bool success,bytes memory data) =  _to.call{value: 1 ether}(\"\") */\n      swap2\n      pop\n      swap2\n      pop\n        /* \"primerContrato/Smart_Contracts/5_payable.sol\":740:764  callStatus(success,data) */\n      0x265b43034d55cb12c6ef2185c7789690588a255cd2822a7b2776748ead4b3203\n        /* \"primerContrato/Smart_Contracts/5_payable.sol\":751:758  success */\n      dup3\n        /* \"primerContrato/Smart_Contracts/5_payable.sol\":759:763  data */\n      dup3\n        /* \"primerContrato/Smart_Contracts/5_payable.sol\":740:764  callStatus(success,data) */\n      mload(0x40)\n      tag_34\n      swap3\n      swap2\n      swap1\n      tag_35\n      jump\t// in\n    tag_34:\n      mload(0x40)\n      dup1\n      swap2\n      sub\n      swap1\n      log1\n        /* \"primerContrato/Smart_Contracts/5_payable.sol\":793:797  true */\n      0x01\n        /* \"primerContrato/Smart_Contracts/5_payable.sol\":782:797  success == true */\n      iszero\n      iszero\n        /* \"primerContrato/Smart_Contracts/5_payable.sol\":782:789  success */\n      dup3\n        /* \"primerContrato/Smart_Contracts/5_payable.sol\":782:797  success == true */\n      iszero\n      iszero\n      eq\n        /* \"primerContrato/Smart_Contracts/5_payable.sol\":774:821  require(success == true, \"El envio ha fallado\") */\n      tag_36\n      jumpi\n      mload(0x40)\n      0x08c379a000000000000000000000000000000000000000000000000000000000\n      dup2\n      mstore\n      0x04\n      add\n      tag_37\n      swap1\n      tag_27\n      jump\t// in\n    tag_37:\n      mload(0x40)\n      dup1\n      swap2\n      sub\n      swap1\n      revert\n    tag_36:\n        /* \"primerContrato/Smart_Contracts/5_payable.sol\":650:829  { ... */\n      pop\n      pop\n        /* \"primerContrato/Smart_Contracts/5_payable.sol\":593:829  function sendViaCall(address payable _to) public payable { ... */\n      pop\n      jump\t// out\n        /* \"#utility.yul\":88:205   */\n    tag_39:\n        /* \"#utility.yul\":197:198   */\n      0x00\n        /* \"#utility.yul\":194:195   */\n      dup1\n        /* \"#utility.yul\":187:199   */\n      revert\n        /* \"#utility.yul\":334:460   */\n    tag_41:\n        /* \"#utility.yul\":371:378   */\n      0x00\n        /* \"#utility.yul\":411:453   */\n      0xffffffffffffffffffffffffffffffffffffffff\n        /* \"#utility.yul\":404:409   */\n      dup3\n        /* \"#utility.yul\":400:454   */\n      and\n        /* \"#utility.yul\":389:454   */\n      swap1\n      pop\n        /* \"#utility.yul\":334:460   */\n      swap2\n      swap1\n      pop\n      jump\t// out\n        /* \"#utility.yul\":466:570   */\n    tag_42:\n        /* \"#utility.yul\":511:518   */\n      0x00\n        /* \"#utility.yul\":540:564   */\n      tag_64\n        /* \"#utility.yul\":558:563   */\n      dup3\n        /* \"#utility.yul\":540:564   */\n      tag_41\n      jump\t// in\n    tag_64:\n        /* \"#utility.yul\":529:564   */\n      swap1\n      pop\n        /* \"#utility.yul\":466:570   */\n      swap2\n      swap1\n      pop\n      jump\t// out\n        /* \"#utility.yul\":576:714   */\n    tag_43:\n        /* \"#utility.yul\":657:689   */\n      tag_66\n        /* \"#utility.yul\":683:688   */\n      dup2\n        /* \"#utility.yul\":657:689   */\n      tag_42\n      jump\t// in\n    tag_66:\n        /* \"#utility.yul\":650:655   */\n      dup2\n        /* \"#utility.yul\":647:690   */\n      eq\n        /* \"#utility.yul\":637:708   */\n      tag_67\n      jumpi\n        /* \"#utility.yul\":704:705   */\n      0x00\n        /* \"#utility.yul\":701:702   */\n      dup1\n        /* \"#utility.yul\":694:706   */\n      revert\n        /* \"#utility.yul\":637:708   */\n    tag_67:\n        /* \"#utility.yul\":576:714   */\n      pop\n      jump\t// out\n        /* \"#utility.yul\":720:875   */\n    tag_44:\n        /* \"#utility.yul\":774:779   */\n      0x00\n        /* \"#utility.yul\":812:818   */\n      dup2\n        /* \"#utility.yul\":799:819   */\n      calldataload\n        /* \"#utility.yul\":790:819   */\n      swap1\n      pop\n        /* \"#utility.yul\":828:869   */\n      tag_69\n        /* \"#utility.yul\":863:868   */\n      dup2\n        /* \"#utility.yul\":828:869   */\n      tag_43\n      jump\t// in\n    tag_69:\n        /* \"#utility.yul\":720:875   */\n      swap3\n      swap2\n      pop\n      pop\n      jump\t// out\n        /* \"#utility.yul\":881:1226   */\n    tag_10:\n        /* \"#utility.yul\":948:954   */\n      0x00\n        /* \"#utility.yul\":997:999   */\n      0x20\n        /* \"#utility.yul\":985:994   */\n      dup3\n        /* \"#utility.yul\":976:983   */\n      dup5\n        /* \"#utility.yul\":972:995   */\n      sub\n        /* \"#utility.yul\":968:1000   */\n      slt\n        /* \"#utility.yul\":965:1084   */\n      iszero\n      tag_71\n      jumpi\n        /* \"#utility.yul\":1003:1082   */\n      tag_72\n      tag_39\n      jump\t// in\n    tag_72:\n        /* \"#utility.yul\":965:1084   */\n    tag_71:\n        /* \"#utility.yul\":1123:1124   */\n      0x00\n        /* \"#utility.yul\":1148:1209   */\n      tag_73\n        /* \"#utility.yul\":1201:1208   */\n      dup5\n        /* \"#utility.yul\":1192:1198   */\n      dup3\n        /* \"#utility.yul\":1181:1190   */\n      dup6\n        /* \"#utility.yul\":1177:1199   */\n      add\n        /* \"#utility.yul\":1148:1209   */\n      tag_44\n      jump\t// in\n    tag_73:\n        /* \"#utility.yul\":1138:1209   */\n      swap2\n      pop\n        /* \"#utility.yul\":1094:1219   */\n      pop\n        /* \"#utility.yul\":881:1226   */\n      swap3\n      swap2\n      pop\n      pop\n      jump\t// out\n        /* \"#utility.yul\":1232:1322   */\n    tag_45:\n        /* \"#utility.yul\":1266:1273   */\n      0x00\n        /* \"#utility.yul\":1309:1314   */\n      dup2\n        /* \"#utility.yul\":1302:1315   */\n      iszero\n        /* \"#utility.yul\":1295:1316   */\n      iszero\n        /* \"#utility.yul\":1284:1316   */\n      swap1\n      pop\n        /* \"#utility.yul\":1232:1322   */\n      swap2\n      swap1\n      pop\n      jump\t// out\n        /* \"#utility.yul\":1328:1437   */\n    tag_46:\n        /* \"#utility.yul\":1409:1430   */\n      tag_76\n        /* \"#utility.yul\":1424:1429   */\n      dup2\n        /* \"#utility.yul\":1409:1430   */\n      tag_45\n      jump\t// in\n    tag_76:\n        /* \"#utility.yul\":1404:1407   */\n      dup3\n        /* \"#utility.yul\":1397:1431   */\n      mstore\n        /* \"#utility.yul\":1328:1437   */\n      pop\n      pop\n      jump\t// out\n        /* \"#utility.yul\":1443:1653   */\n    tag_24:\n        /* \"#utility.yul\":1530:1534   */\n      0x00\n        /* \"#utility.yul\":1568:1570   */\n      0x20\n        /* \"#utility.yul\":1557:1566   */\n      dup3\n        /* \"#utility.yul\":1553:1571   */\n      add\n        /* \"#utility.yul\":1545:1571   */\n      swap1\n      pop\n        /* \"#utility.yul\":1581:1646   */\n      tag_78\n        /* \"#utility.yul\":1643:1644   */\n      0x00\n        /* \"#utility.yul\":1632:1641   */\n      dup4\n        /* \"#utility.yul\":1628:1645   */\n      add\n        /* \"#utility.yul\":1619:1625   */\n      dup5\n        /* \"#utility.yul\":1581:1646   */\n      tag_46\n      jump\t// in\n    tag_78:\n        /* \"#utility.yul\":1443:1653   */\n      swap3\n      swap2\n      pop\n      pop\n      jump\t// out\n        /* \"#utility.yul\":1659:1828   */\n    tag_47:\n        /* \"#utility.yul\":1743:1754   */\n      0x00\n        /* \"#utility.yul\":1777:1783   */\n      dup3\n        /* \"#utility.yul\":1772:1775   */\n      dup3\n        /* \"#utility.yul\":1765:1784   */\n      mstore\n        /* \"#utility.yul\":1817:1821   */\n      0x20\n        /* \"#utility.yul\":1812:1815   */\n      dup3\n        /* \"#utility.yul\":1808:1822   */\n      add\n        /* \"#utility.yul\":1793:1822   */\n      swap1\n      pop\n        /* \"#utility.yul\":1659:1828   */\n      swap3\n      swap2\n      pop\n      pop\n      jump\t// out\n        /* \"#utility.yul\":1834:2003   */\n    tag_48:\n        /* \"#utility.yul\":1974:1995   */\n      0x456c20656e76696f2068612066616c6c61646f00000000000000000000000000\n        /* \"#utility.yul\":1970:1971   */\n      0x00\n        /* \"#utility.yul\":1962:1968   */\n      dup3\n        /* \"#utility.yul\":1958:1972   */\n      add\n        /* \"#utility.yul\":1951:1996   */\n      mstore\n        /* \"#utility.yul\":1834:2003   */\n      pop\n      jump\t// out\n        /* \"#utility.yul\":2009:2375   */\n    tag_49:\n        /* \"#utility.yul\":2151:2154   */\n      0x00\n        /* \"#utility.yul\":2172:2239   */\n      tag_82\n        /* \"#utility.yul\":2236:2238   */\n      0x13\n        /* \"#utility.yul\":2231:2234   */\n      dup4\n        /* \"#utility.yul\":2172:2239   */\n      tag_47\n      jump\t// in\n    tag_82:\n        /* \"#utility.yul\":2165:2239   */\n      swap2\n      pop\n        /* \"#utility.yul\":2248:2341   */\n      tag_83\n        /* \"#utility.yul\":2337:2340   */\n      dup3\n        /* \"#utility.yul\":2248:2341   */\n      tag_48\n      jump\t// in\n    tag_83:\n        /* \"#utility.yul\":2366:2368   */\n      0x20\n        /* \"#utility.yul\":2361:2364   */\n      dup3\n        /* \"#utility.yul\":2357:2369   */\n      add\n        /* \"#utility.yul\":2350:2369   */\n      swap1\n      pop\n        /* \"#utility.yul\":2009:2375   */\n      swap2\n      swap1\n      pop\n      jump\t// out\n        /* \"#utility.yul\":2381:2800   */\n    tag_27:\n        /* \"#utility.yul\":2547:2551   */\n      0x00\n        /* \"#utility.yul\":2585:2587   */\n      0x20\n        /* \"#utility.yul\":2574:2583   */\n      dup3\n        /* \"#utility.yul\":2570:2588   */\n      add\n        /* \"#utility.yul\":2562:2588   */\n      swap1\n      pop\n        /* \"#utility.yul\":2634:2643   */\n      dup2\n        /* \"#utility.yul\":2628:2632   */\n      dup2\n        /* \"#utility.yul\":2624:2644   */\n      sub\n        /* \"#utility.yul\":2620:2621   */\n      0x00\n        /* \"#utility.yul\":2609:2618   */\n      dup4\n        /* \"#utility.yul\":2605:2622   */\n      add\n        /* \"#utility.yul\":2598:2645   */\n      mstore\n        /* \"#utility.yul\":2662:2793   */\n      tag_85\n        /* \"#utility.yul\":2788:2792   */\n      dup2\n        /* \"#utility.yul\":2662:2793   */\n      tag_49\n      jump\t// in\n    tag_85:\n        /* \"#utility.yul\":2654:2793   */\n      swap1\n      pop\n        /* \"#utility.yul\":2381:2800   */\n      swap2\n      swap1\n      pop\n      jump\t// out\n        /* \"#utility.yul\":2806:2953   */\n    tag_50:\n        /* \"#utility.yul\":2907:2918   */\n      0x00\n        /* \"#utility.yul\":2944:2947   */\n      dup2\n        /* \"#utility.yul\":2929:2947   */\n      swap1\n      pop\n        /* \"#utility.yul\":2806:2953   */\n      swap3\n      swap2\n      pop\n      pop\n      jump\t// out\n        /* \"#utility.yul\":2959:3073   */\n    tag_51:\n      pop\n      jump\t// out\n        /* \"#utility.yul\":3079:3477   */\n    tag_52:\n        /* \"#utility.yul\":3238:3241   */\n      0x00\n        /* \"#utility.yul\":3259:3342   */\n      tag_89\n        /* \"#utility.yul\":3340:3341   */\n      0x00\n        /* \"#utility.yul\":3335:3338   */\n      dup4\n        /* \"#utility.yul\":3259:3342   */\n      tag_50\n      jump\t// in\n    tag_89:\n        /* \"#utility.yul\":3252:3342   */\n      swap2\n      pop\n        /* \"#utility.yul\":3351:3444   */\n      tag_90\n        /* \"#utility.yul\":3440:3443   */\n      dup3\n        /* \"#utility.yul\":3351:3444   */\n      tag_51\n      jump\t// in\n    tag_90:\n        /* \"#utility.yul\":3469:3470   */\n      0x00\n        /* \"#utility.yul\":3464:3467   */\n      dup3\n        /* \"#utility.yul\":3460:3471   */\n      add\n        /* \"#utility.yul\":3453:3471   */\n      swap1\n      pop\n        /* \"#utility.yul\":3079:3477   */\n      swap2\n      swap1\n      pop\n      jump\t// out\n        /* \"#utility.yul\":3483:3862   */\n    tag_30:\n        /* \"#utility.yul\":3667:3670   */\n      0x00\n        /* \"#utility.yul\":3689:3836   */\n      tag_92\n        /* \"#utility.yul\":3832:3835   */\n      dup3\n        /* \"#utility.yul\":3689:3836   */\n      tag_52\n      jump\t// in\n    tag_92:\n        /* \"#utility.yul\":3682:3836   */\n      swap2\n      pop\n        /* \"#utility.yul\":3853:3856   */\n      dup2\n        /* \"#utility.yul\":3846:3856   */\n      swap1\n      pop\n        /* \"#utility.yul\":3483:3862   */\n      swap2\n      swap1\n      pop\n      jump\t// out\n        /* \"#utility.yul\":3868:3966   */\n    tag_53:\n        /* \"#utility.yul\":3919:3925   */\n      0x00\n        /* \"#utility.yul\":3953:3958   */\n      dup2\n        /* \"#utility.yul\":3947:3959   */\n      mload\n        /* \"#utility.yul\":3937:3959   */\n      swap1\n      pop\n        /* \"#utility.yul\":3868:3966   */\n      swap2\n      swap1\n      pop\n      jump\t// out\n        /* \"#utility.yul\":3972:4140   */\n    tag_54:\n        /* \"#utility.yul\":4055:4066   */\n      0x00\n        /* \"#utility.yul\":4089:4095   */\n      dup3\n        /* \"#utility.yul\":4084:4087   */\n      dup3\n        /* \"#utility.yul\":4077:4096   */\n      mstore\n        /* \"#utility.yul\":4129:4133   */\n      0x20\n        /* \"#utility.yul\":4124:4127   */\n      dup3\n        /* \"#utility.yul\":4120:4134   */\n      add\n        /* \"#utility.yul\":4105:4134   */\n      swap1\n      pop\n        /* \"#utility.yul\":3972:4140   */\n      swap3\n      swap2\n      pop\n      pop\n      jump\t// out\n        /* \"#utility.yul\":4146:4392   */\n    tag_55:\n        /* \"#utility.yul\":4227:4228   */\n      0x00\n        /* \"#utility.yul\":4237:4350   */\n    tag_96:\n        /* \"#utility.yul\":4251:4257   */\n      dup4\n        /* \"#utility.yul\":4248:4249   */\n      dup2\n        /* \"#utility.yul\":4245:4258   */\n      lt\n        /* \"#utility.yul\":4237:4350   */\n      iszero\n      tag_98\n      jumpi\n        /* \"#utility.yul\":4336:4337   */\n      dup1\n        /* \"#utility.yul\":4331:4334   */\n      dup3\n        /* \"#utility.yul\":4327:4338   */\n      add\n        /* \"#utility.yul\":4321:4339   */\n      mload\n        /* \"#utility.yul\":4317:4318   */\n      dup2\n        /* \"#utility.yul\":4312:4315   */\n      dup5\n        /* \"#utility.yul\":4308:4319   */\n      add\n        /* \"#utility.yul\":4301:4340   */\n      mstore\n        /* \"#utility.yul\":4273:4275   */\n      0x20\n        /* \"#utility.yul\":4270:4271   */\n      dup2\n        /* \"#utility.yul\":4266:4276   */\n      add\n        /* \"#utility.yul\":4261:4276   */\n      swap1\n      pop\n        /* \"#utility.yul\":4237:4350   */\n      jump(tag_96)\n    tag_98:\n        /* \"#utility.yul\":4384:4385   */\n      0x00\n        /* \"#utility.yul\":4375:4381   */\n      dup5\n        /* \"#utility.yul\":4370:4373   */\n      dup5\n        /* \"#utility.yul\":4366:4382   */\n      add\n        /* \"#utility.yul\":4359:4386   */\n      mstore\n        /* \"#utility.yul\":4208:4392   */\n      pop\n        /* \"#utility.yul\":4146:4392   */\n      pop\n      pop\n      pop\n      jump\t// out\n        /* \"#utility.yul\":4398:4500   */\n    tag_56:\n        /* \"#utility.yul\":4439:4445   */\n      0x00\n        /* \"#utility.yul\":4490:4492   */\n      0x1f\n        /* \"#utility.yul\":4486:4493   */\n      not\n        /* \"#utility.yul\":4481:4483   */\n      0x1f\n        /* \"#utility.yul\":4474:4479   */\n      dup4\n        /* \"#utility.yul\":4470:4484   */\n      add\n        /* \"#utility.yul\":4466:4494   */\n      and\n        /* \"#utility.yul\":4456:4494   */\n      swap1\n      pop\n        /* \"#utility.yul\":4398:4500   */\n      swap2\n      swap1\n      pop\n      jump\t// out\n        /* \"#utility.yul\":4506:4879   */\n    tag_57:\n        /* \"#utility.yul\":4592:4595   */\n      0x00\n        /* \"#utility.yul\":4620:4658   */\n      tag_101\n        /* \"#utility.yul\":4652:4657   */\n      dup3\n        /* \"#utility.yul\":4620:4658   */\n      tag_53\n      jump\t// in\n    tag_101:\n        /* \"#utility.yul\":4674:4744   */\n      tag_102\n        /* \"#utility.yul\":4737:4743   */\n      dup2\n        /* \"#utility.yul\":4732:4735   */\n      dup6\n        /* \"#utility.yul\":4674:4744   */\n      tag_54\n      jump\t// in\n    tag_102:\n        /* \"#utility.yul\":4667:4744   */\n      swap4\n      pop\n        /* \"#utility.yul\":4753:4818   */\n      tag_103\n        /* \"#utility.yul\":4811:4817   */\n      dup2\n        /* \"#utility.yul\":4806:4809   */\n      dup6\n        /* \"#utility.yul\":4799:4803   */\n      0x20\n        /* \"#utility.yul\":4792:4797   */\n      dup7\n        /* \"#utility.yul\":4788:4804   */\n      add\n        /* \"#utility.yul\":4753:4818   */\n      tag_55\n      jump\t// in\n    tag_103:\n        /* \"#utility.yul\":4843:4872   */\n      tag_104\n        /* \"#utility.yul\":4865:4871   */\n      dup2\n        /* \"#utility.yul\":4843:4872   */\n      tag_56\n      jump\t// in\n    tag_104:\n        /* \"#utility.yul\":4838:4841   */\n      dup5\n        /* \"#utility.yul\":4834:4873   */\n      add\n        /* \"#utility.yul\":4827:4873   */\n      swap2\n      pop\n        /* \"#utility.yul\":4596:4879   */\n      pop\n        /* \"#utility.yul\":4506:4879   */\n      swap3\n      swap2\n      pop\n      pop\n      jump\t// out\n        /* \"#utility.yul\":4885:5292   */\n    tag_35:\n        /* \"#utility.yul\":5018:5022   */\n      0x00\n        /* \"#utility.yul\":5056:5058   */\n      0x40\n        /* \"#utility.yul\":5045:5054   */\n      dup3\n        /* \"#utility.yul\":5041:5059   */\n      add\n        /* \"#utility.yul\":5033:5059   */\n      swap1\n      pop\n        /* \"#utility.yul\":5069:5134   */\n      tag_106\n        /* \"#utility.yul\":5131:5132   */\n      0x00\n        /* \"#utility.yul\":5120:5129   */\n      dup4\n        /* \"#utility.yul\":5116:5133   */\n      add\n        /* \"#utility.yul\":5107:5113   */\n      dup6\n        /* \"#utility.yul\":5069:5134   */\n      tag_46\n      jump\t// in\n    tag_106:\n        /* \"#utility.yul\":5181:5190   */\n      dup2\n        /* \"#utility.yul\":5175:5179   */\n      dup2\n        /* \"#utility.yul\":5171:5191   */\n      sub\n        /* \"#utility.yul\":5166:5168   */\n      0x20\n        /* \"#utility.yul\":5155:5164   */\n      dup4\n        /* \"#utility.yul\":5151:5169   */\n      add\n        /* \"#utility.yul\":5144:5192   */\n      mstore\n        /* \"#utility.yul\":5209:5285   */\n      tag_107\n        /* \"#utility.yul\":5280:5284   */\n      dup2\n        /* \"#utility.yul\":5271:5277   */\n      dup5\n        /* \"#utility.yul\":5209:5285   */\n      tag_57\n      jump\t// in\n    tag_107:\n        /* \"#utility.yul\":5201:5285   */\n      swap1\n      pop\n        /* \"#utility.yul\":4885:5292   */\n      swap4\n      swap3\n      pop\n      pop\n      pop\n      jump\t// out\n\n    auxdata: 0xa26469706673582212205543793c9ae25e3ce9a3429ff381d20dcf51c6c507f8428ead7c700f6e348b8964736f6c63430008120033\n}\n",
				"bytecode": {
					"linkReferences": {},
					"object": "6080604052610527806100136000396000f3fe6080604052600436106100385760003560e01c8063636e082b1461004457806374be480614610060578063830c29ae1461007c5761003f565b3661003f57005b600080fd5b61005e6004803603810190610059919061030b565b610098565b005b61007a6004803603810190610075919061030b565b6100ea565b005b6100966004803603810190610091919061030b565b6101ad565b005b8073ffffffffffffffffffffffffffffffffffffffff166108fc670de0b6b3a76400009081150290604051600060405180830381858888f193505050501580156100e6573d6000803e3d6000fd5b5050565b60008173ffffffffffffffffffffffffffffffffffffffff166108fc670de0b6b3a76400009081150290604051600060405180830381858888f1935050505090507f0c46a72a145bed1fc3c2d4b0e023bd11ddb1e3204a898f4119357ecde6d5fe998160405161015a9190610353565b60405180910390a160011515811515146101a9576040517f08c379a00000000000000000000000000000000000000000000000000000000081526004016101a0906103cb565b60405180910390fd5b5050565b6000808273ffffffffffffffffffffffffffffffffffffffff16670de0b6b3a76400006040516101dc9061041c565b60006040518083038185875af1925050503d8060008114610219576040519150601f19603f3d011682016040523d82523d6000602084013e61021e565b606091505b50915091507f265b43034d55cb12c6ef2185c7789690588a255cd2822a7b2776748ead4b320382826040516102549291906104c1565b60405180910390a160011515821515146102a3576040517f08c379a000000000000000000000000000000000000000000000000000000000815260040161029a906103cb565b60405180910390fd5b505050565b600080fd5b600073ffffffffffffffffffffffffffffffffffffffff82169050919050565b60006102d8826102ad565b9050919050565b6102e8816102cd565b81146102f357600080fd5b50565b600081359050610305816102df565b92915050565b600060208284031215610321576103206102a8565b5b600061032f848285016102f6565b91505092915050565b60008115159050919050565b61034d81610338565b82525050565b60006020820190506103686000830184610344565b92915050565b600082825260208201905092915050565b7f456c20656e76696f2068612066616c6c61646f00000000000000000000000000600082015250565b60006103b560138361036e565b91506103c08261037f565b602082019050919050565b600060208201905081810360008301526103e4816103a8565b9050919050565b600081905092915050565b50565b60006104066000836103eb565b9150610411826103f6565b600082019050919050565b6000610427826103f9565b9150819050919050565b600081519050919050565b600082825260208201905092915050565b60005b8381101561046b578082015181840152602081019050610450565b60008484015250505050565b6000601f19601f8301169050919050565b600061049382610431565b61049d818561043c565b93506104ad81856020860161044d565b6104b681610477565b840191505092915050565b60006040820190506104d66000830185610344565b81810360208301526104e88184610488565b9050939250505056fea26469706673582212205543793c9ae25e3ce9a3429ff381d20dcf51c6c507f8428ead7c700f6e348b8964736f6c63430008120033",
					"opcodes": "PUSH1 0x80 PUSH1 0x40 MSTORE PUSH2 0x527 DUP1 PUSH2 0x13 PUSH1 0x0 CODECOPY PUSH1 0x0 RETURN INVALID PUSH1 0x80 PUSH1 0x40 MSTORE PUSH1 0x4 CALLDATASIZE LT PUSH2 0x38 JUMPI PUSH1 0x0 CALLDATALOAD PUSH1 0xE0 SHR DUP1 PUSH4 0x636E082B EQ PUSH2 0x44 JUMPI DUP1 PUSH4 0x74BE4806 EQ PUSH2 0x60 JUMPI DUP1 PUSH4 0x830C29AE EQ PUSH2 0x7C JUMPI PUSH2 0x3F JUMP JUMPDEST CALLDATASIZE PUSH2 0x3F JUMPI STOP JUMPDEST PUSH1 0x0 DUP1 REVERT JUMPDEST PUSH2 0x5E PUSH1 0x4 DUP1 CALLDATASIZE SUB DUP2 ADD SWAP1 PUSH2 0x59 SWAP2 SWAP1 PUSH2 0x30B JUMP JUMPDEST PUSH2 0x98 JUMP JUMPDEST STOP JUMPDEST PUSH2 0x7A PUSH1 0x4 DUP1 CALLDATASIZE SUB DUP2 ADD SWAP1 PUSH2 0x75 SWAP2 SWAP1 PUSH2 0x30B JUMP JUMPDEST PUSH2 0xEA JUMP JUMPDEST STOP JUMPDEST PUSH2 0x96 PUSH1 0x4 DUP1 CALLDATASIZE SUB DUP2 ADD SWAP1 PUSH2 0x91 SWAP2 SWAP1 PUSH2 0x30B JUMP JUMPDEST PUSH2 0x1AD JUMP JUMPDEST STOP JUMPDEST DUP1 PUSH20 0xFFFFFFFFFFFFFFFFFFFFFFFFFFFFFFFFFFFFFFFF AND PUSH2 0x8FC PUSH8 0xDE0B6B3A7640000 SWAP1 DUP2 ISZERO MUL SWAP1 PUSH1 0x40 MLOAD PUSH1 0x0 PUSH1 0x40 MLOAD DUP1 DUP4 SUB DUP2 DUP6 DUP9 DUP9 CALL SWAP4 POP POP POP POP ISZERO DUP1 ISZERO PUSH2 0xE6 JUMPI RETURNDATASIZE PUSH1 0x0 DUP1 RETURNDATACOPY RETURNDATASIZE PUSH1 0x0 REVERT JUMPDEST POP POP JUMP JUMPDEST PUSH1 0x0 DUP2 PUSH20 0xFFFFFFFFFFFFFFFFFFFFFFFFFFFFFFFFFFFFFFFF AND PUSH2 0x8FC PUSH8 0xDE0B6B3A7640000 SWAP1 DUP2 ISZERO MUL SWAP1 PUSH1 0x40 MLOAD PUSH1 0x0 PUSH1 0x40 MLOAD DUP1 DUP4 SUB DUP2 DUP6 DUP9 DUP9 CALL SWAP4 POP POP POP POP SWAP1 POP PUSH32 0xC46A72A145BED1FC3C2D4B0E023BD11DDB1E3204A898F4119357ECDE6D5FE99 DUP2 PUSH1 0x40 MLOAD PUSH2 0x15A SWAP2 SWAP1 PUSH2 0x353 JUMP JUMPDEST PUSH1 0x40 MLOAD DUP1 SWAP2 SUB SWAP1 LOG1 PUSH1 0x1 ISZERO ISZERO DUP2 ISZERO ISZERO EQ PUSH2 0x1A9 JUMPI PUSH1 0x40 MLOAD PUSH32 0x8C379A000000000000000000000000000000000000000000000000000000000 DUP2 MSTORE PUSH1 0x4 ADD PUSH2 0x1A0 SWAP1 PUSH2 0x3CB JUMP JUMPDEST PUSH1 0x40 MLOAD DUP1 SWAP2 SUB SWAP1 REVERT JUMPDEST POP POP JUMP JUMPDEST PUSH1 0x0 DUP1 DUP3 PUSH20 0xFFFFFFFFFFFFFFFFFFFFFFFFFFFFFFFFFFFFFFFF AND PUSH8 0xDE0B6B3A7640000 PUSH1 0x40 MLOAD PUSH2 0x1DC SWAP1 PUSH2 0x41C JUMP JUMPDEST PUSH1 0x0 PUSH1 0x40 MLOAD DUP1 DUP4 SUB DUP2 DUP6 DUP8 GAS CALL SWAP3 POP POP POP RETURNDATASIZE DUP1 PUSH1 0x0 DUP2 EQ PUSH2 0x219 JUMPI PUSH1 0x40 MLOAD SWAP2 POP PUSH1 0x1F NOT PUSH1 0x3F RETURNDATASIZE ADD AND DUP3 ADD PUSH1 0x40 MSTORE RETURNDATASIZE DUP3 MSTORE RETURNDATASIZE PUSH1 0x0 PUSH1 0x20 DUP5 ADD RETURNDATACOPY PUSH2 0x21E JUMP JUMPDEST PUSH1 0x60 SWAP2 POP JUMPDEST POP SWAP2 POP SWAP2 POP PUSH32 0x265B43034D55CB12C6EF2185C7789690588A255CD2822A7B2776748EAD4B3203 DUP3 DUP3 PUSH1 0x40 MLOAD PUSH2 0x254 SWAP3 SWAP2 SWAP1 PUSH2 0x4C1 JUMP JUMPDEST PUSH1 0x40 MLOAD DUP1 SWAP2 SUB SWAP1 LOG1 PUSH1 0x1 ISZERO ISZERO DUP3 ISZERO ISZERO EQ PUSH2 0x2A3 JUMPI PUSH1 0x40 MLOAD PUSH32 0x8C379A000000000000000000000000000000000000000000000000000000000 DUP2 MSTORE PUSH1 0x4 ADD PUSH2 0x29A SWAP1 PUSH2 0x3CB JUMP JUMPDEST PUSH1 0x40 MLOAD DUP1 SWAP2 SUB SWAP1 REVERT JUMPDEST POP POP POP JUMP JUMPDEST PUSH1 0x0 DUP1 REVERT JUMPDEST PUSH1 0x0 PUSH20 0xFFFFFFFFFFFFFFFFFFFFFFFFFFFFFFFFFFFFFFFF DUP3 AND SWAP1 POP SWAP2 SWAP1 POP JUMP JUMPDEST PUSH1 0x0 PUSH2 0x2D8 DUP3 PUSH2 0x2AD JUMP JUMPDEST SWAP1 POP SWAP2 SWAP1 POP JUMP JUMPDEST PUSH2 0x2E8 DUP2 PUSH2 0x2CD JUMP JUMPDEST DUP2 EQ PUSH2 0x2F3 JUMPI PUSH1 0x0 DUP1 REVERT JUMPDEST POP JUMP JUMPDEST PUSH1 0x0 DUP2 CALLDATALOAD SWAP1 POP PUSH2 0x305 DUP2 PUSH2 0x2DF JUMP JUMPDEST SWAP3 SWAP2 POP POP JUMP JUMPDEST PUSH1 0x0 PUSH1 0x20 DUP3 DUP5 SUB SLT ISZERO PUSH2 0x321 JUMPI PUSH2 0x320 PUSH2 0x2A8 JUMP JUMPDEST JUMPDEST PUSH1 0x0 PUSH2 0x32F DUP5 DUP3 DUP6 ADD PUSH2 0x2F6 JUMP JUMPDEST SWAP2 POP POP SWAP3 SWAP2 POP POP JUMP JUMPDEST PUSH1 0x0 DUP2 ISZERO ISZERO SWAP1 POP SWAP2 SWAP1 POP JUMP JUMPDEST PUSH2 0x34D DUP2 PUSH2 0x338 JUMP JUMPDEST DUP3 MSTORE POP POP JUMP JUMPDEST PUSH1 0x0 PUSH1 0x20 DUP3 ADD SWAP1 POP PUSH2 0x368 PUSH1 0x0 DUP4 ADD DUP5 PUSH2 0x344 JUMP JUMPDEST SWAP3 SWAP2 POP POP JUMP JUMPDEST PUSH1 0x0 DUP3 DUP3 MSTORE PUSH1 0x20 DUP3 ADD SWAP1 POP SWAP3 SWAP2 POP POP JUMP JUMPDEST PUSH32 0x456C20656E76696F2068612066616C6C61646F00000000000000000000000000 PUSH1 0x0 DUP3 ADD MSTORE POP JUMP JUMPDEST PUSH1 0x0 PUSH2 0x3B5 PUSH1 0x13 DUP4 PUSH2 0x36E JUMP JUMPDEST SWAP2 POP PUSH2 0x3C0 DUP3 PUSH2 0x37F JUMP JUMPDEST PUSH1 0x20 DUP3 ADD SWAP1 POP SWAP2 SWAP1 POP JUMP JUMPDEST PUSH1 0x0 PUSH1 0x20 DUP3 ADD SWAP1 POP DUP2 DUP2 SUB PUSH1 0x0 DUP4 ADD MSTORE PUSH2 0x3E4 DUP2 PUSH2 0x3A8 JUMP JUMPDEST SWAP1 POP SWAP2 SWAP1 POP JUMP JUMPDEST PUSH1 0x0 DUP2 SWAP1 POP SWAP3 SWAP2 POP POP JUMP JUMPDEST POP JUMP JUMPDEST PUSH1 0x0 PUSH2 0x406 PUSH1 0x0 DUP4 PUSH2 0x3EB JUMP JUMPDEST SWAP2 POP PUSH2 0x411 DUP3 PUSH2 0x3F6 JUMP JUMPDEST PUSH1 0x0 DUP3 ADD SWAP1 POP SWAP2 SWAP1 POP JUMP JUMPDEST PUSH1 0x0 PUSH2 0x427 DUP3 PUSH2 0x3F9 JUMP JUMPDEST SWAP2 POP DUP2 SWAP1 POP SWAP2 SWAP1 POP JUMP JUMPDEST PUSH1 0x0 DUP2 MLOAD SWAP1 POP SWAP2 SWAP1 POP JUMP JUMPDEST PUSH1 0x0 DUP3 DUP3 MSTORE PUSH1 0x20 DUP3 ADD SWAP1 POP SWAP3 SWAP2 POP POP JUMP JUMPDEST PUSH1 0x0 JUMPDEST DUP4 DUP2 LT ISZERO PUSH2 0x46B JUMPI DUP1 DUP3 ADD MLOAD DUP2 DUP5 ADD MSTORE PUSH1 0x20 DUP2 ADD SWAP1 POP PUSH2 0x450 JUMP JUMPDEST PUSH1 0x0 DUP5 DUP5 ADD MSTORE POP POP POP POP JUMP JUMPDEST PUSH1 0x0 PUSH1 0x1F NOT PUSH1 0x1F DUP4 ADD AND SWAP1 POP SWAP2 SWAP1 POP JUMP JUMPDEST PUSH1 0x0 PUSH2 0x493 DUP3 PUSH2 0x431 JUMP JUMPDEST PUSH2 0x49D DUP2 DUP6 PUSH2 0x43C JUMP JUMPDEST SWAP4 POP PUSH2 0x4AD DUP2 DUP6 PUSH1 0x20 DUP7 ADD PUSH2 0x44D JUMP JUMPDEST PUSH2 0x4B6 DUP2 PUSH2 0x477 JUMP JUMPDEST DUP5 ADD SWAP2 POP POP SWAP3 SWAP2 POP POP JUMP JUMPDEST PUSH1 0x0 PUSH1 0x40 DUP3 ADD SWAP1 POP PUSH2 0x4D6 PUSH1 0x0 DUP4 ADD DUP6 PUSH2 0x344 JUMP JUMPDEST DUP2 DUP2 SUB PUSH1 0x20 DUP4 ADD MSTORE PUSH2 0x4E8 DUP2 DUP5 PUSH2 0x488 JUMP JUMPDEST SWAP1 POP SWAP4 SWAP3 POP POP POP JUMP INVALID LOG2 PUSH5 0x6970667358 0x22 SLT KECCAK256 SSTORE NUMBER PUSH26 0x3C9AE25E3CE9A3429FF381D20DCF51C6C507F8428EAD7C700F6E CALLVALUE DUP12 DUP10 PUSH5 0x736F6C6343 STOP ADDMOD SLT STOP CALLER "
				},
				"gasEstimates": {
					"creation": {
						"codeDepositCost": "263800",
						"executionCost": "282",
						"totalCost": "264082"
					},
					"external": {
						"sendViaCall(address)": "infinite",
						"sendViaSend(address)": "infinite",
						"sendViaTransfer(address)": "infinite"
					}
				},
				"methodIdentifiers": {
					"sendViaCall(address)": "830c29ae",
					"sendViaSend(address)": "74be4806",
					"sendViaTransfer(address)": "636e082b"
				}
			},
			"storageLayout": {
				"storage": [],
				"types": null
			},
			"userdoc": {
				"kind": "user",
				"methods": {},
				"version": 1
			}
		}
	}
}