{
	"primerContrato/Smart_Contracts/2_variables_modificadores.sol": {
		"variables_modicadores": {
			"abi": [
				{
					"inputs": [],
					"name": "address2",
					"outputs": [
						{
							"internalType": "address",
							"name": "",
							"type": "address"
						}
					],
					"stateMutability": "view",
					"type": "function"
				},
				{
					"inputs": [],
					"name": "addressa",
					"outputs": [
						{
							"internalType": "address",
							"name": "",
							"type": "address"
						}
					],
					"stateMutability": "view",
					"type": "function"
				},
				{
					"inputs": [],
					"name": "b",
					"outputs": [
						{
							"internalType": "uint8",
							"name": "",
							"type": "uint8"
						}
					],
					"stateMutability": "view",
					"type": "function"
				},
				{
					"inputs": [],
					"name": "boolean_true",
					"outputs": [
						{
							"internalType": "bool",
							"name": "",
							"type": "bool"
						}
					],
					"stateMutability": "view",
					"type": "function"
				},
				{
					"inputs": [],
					"name": "d",
					"outputs": [
						{
							"internalType": "int8",
							"name": "",
							"type": "int8"
						}
					],
					"stateMutability": "view",
					"type": "function"
				},
				{
					"inputs": [],
					"name": "displayState",
					"outputs": [
						{
							"internalType": "enum variables_modicadores.options",
							"name": "",
							"type": "uint8"
						}
					],
					"stateMutability": "view",
					"type": "function"
				},
				{
					"inputs": [],
					"name": "hashing",
					"outputs": [
						{
							"internalType": "bytes32",
							"name": "",
							"type": "bytes32"
						}
					],
					"stateMutability": "view",
					"type": "function"
				},
				{
					"inputs": [],
					"name": "str_public",
					"outputs": [
						{
							"internalType": "string",
							"name": "",
							"type": "string"
						}
					],
					"stateMutability": "view",
					"type": "function"
				},
				{
					"inputs": [],
					"name": "turnOff",
					"outputs": [],
					"stateMutability": "nonpayable",
					"type": "function"
				},
				{
					"inputs": [],
					"name": "turnOn",
					"outputs": [],
					"stateMutability": "nonpayable",
					"type": "function"
				}
			],
			"devdoc": {
				"kind": "dev",
				"methods": {},
				"version": 1
			},
			"evm": {
				"assembly": "    /* \"primerContrato/Smart_Contracts/2_variables_modificadores.sol\":61:1325  contract variables_modicadores {\r... */\n  mstore(0x40, 0x80)\n    /* \"primerContrato/Smart_Contracts/2_variables_modificadores.sol\":172:173  3 */\n  0x03\n    /* \"primerContrato/Smart_Contracts/2_variables_modificadores.sol\":154:173  uint8 public  b = 3 */\n  0x01\n  exp(0x0100, 0x00)\n  dup2\n  sload\n  dup2\n  0xff\n  mul\n  not\n  and\n  swap1\n  dup4\n  0xff\n  and\n  mul\n  or\n  swap1\n  sstore\n  pop\n    /* \"primerContrato/Smart_Contracts/2_variables_modificadores.sol\":251:254  -32 */\n  0xffffffffffffffffffffffffffffffffffffffffffffffffffffffffffffffe0\n    /* \"primerContrato/Smart_Contracts/2_variables_modificadores.sol\":234:254  int8 public  d = -32 */\n  0x03\n  exp(0x0100, 0x00)\n  dup2\n  sload\n  dup2\n  0xff\n  mul\n  not\n  and\n  swap1\n  dup4\n  0x00\n  signextend\n  0xff\n  and\n  mul\n  or\n  swap1\n  sstore\n  pop\n    /* \"primerContrato/Smart_Contracts/2_variables_modificadores.sol\":269:271  65 */\n  0x41\n    /* \"primerContrato/Smart_Contracts/2_variables_modificadores.sol\":261:271  int e = 65 */\n  0x04\n  sstore\n    /* \"primerContrato/Smart_Contracts/2_variables_modificadores.sol\":325:369  string public str_public = \"Esto es publico\" */\n  mload(0x40)\n  dup1\n  0x40\n  add\n  0x40\n  mstore\n  dup1\n  0x0f\n  dup2\n  mstore\n  0x20\n  add\n  0x4573746f206573207075626c69636f0000000000000000000000000000000000\n  dup2\n  mstore\n  pop\n  0x06\n  swap1\n  dup1\n  mload\n  swap1\n  0x20\n  add\n  swap1\n  tag_1\n  swap3\n  swap2\n  swap1\n  tag_2\n  jump\t// in\ntag_1:\n  pop\n    /* \"primerContrato/Smart_Contracts/2_variables_modificadores.sol\":377:423  string private str_private = \"Esto es privada\" */\n  mload(0x40)\n  dup1\n  0x40\n  add\n  0x40\n  mstore\n  dup1\n  0x0f\n  dup2\n  mstore\n  0x20\n  add\n  0x4573746f20657320707269766164610000000000000000000000000000000000\n  dup2\n  mstore\n  pop\n  0x07\n  swap1\n  dup1\n  mload\n  swap1\n  0x20\n  add\n  swap1\n  tag_3\n  swap3\n  swap2\n  swap1\n  tag_2\n  jump\t// in\ntag_3:\n  pop\n    /* \"primerContrato/Smart_Contracts/2_variables_modificadores.sol\":506:510  true */\n  0x01\n    /* \"primerContrato/Smart_Contracts/2_variables_modificadores.sol\":479:510  bool public boolean_true = true */\n  0x08\n  exp(0x0100, 0x01)\n  dup2\n  sload\n  dup2\n  0xff\n  mul\n  not\n  and\n  swap1\n  dup4\n  iszero\n  iszero\n  mul\n  or\n  swap1\n  sstore\n  pop\n    /* \"primerContrato/Smart_Contracts/2_variables_modificadores.sol\":547:552  false */\n  0x00\n    /* \"primerContrato/Smart_Contracts/2_variables_modificadores.sol\":518:552  bool private boolean_false = false */\n  0x08\n  exp(0x0100, 0x02)\n  dup2\n  sload\n  dup2\n  0xff\n  mul\n  not\n  and\n  swap1\n  dup4\n  iszero\n  iszero\n  mul\n  or\n  swap1\n  sstore\n  pop\n    /* \"primerContrato/Smart_Contracts/2_variables_modificadores.sol\":731:763  abi.encodePacked(\"Hola pendejo\") */\n  add(0x20, mload(0x40))\n  tag_4\n  swap1\n  tag_5\n  jump\t// in\ntag_4:\n  mload(0x40)\n  0x20\n  dup2\n  dup4\n  sub\n  sub\n  dup2\n  mstore\n  swap1\n  0x40\n  mstore\n    /* \"primerContrato/Smart_Contracts/2_variables_modificadores.sol\":721:764  keccak256(abi.encodePacked(\"Hola pendejo\")) */\n  dup1\n  mload\n  swap1\n  0x20\n  add\n  keccak256\n    /* \"primerContrato/Smart_Contracts/2_variables_modificadores.sol\":696:764  bytes32 public hashing = keccak256(abi.encodePacked(\"Hola pendejo\")) */\n  0x0b\n  sstore\n    /* \"primerContrato/Smart_Contracts/2_variables_modificadores.sol\":851:893  0x5B38Da6a701c568545dCfcB03FcB875f56beddC4 */\n  0x5b38da6a701c568545dcfcb03fcb875f56beddc4\n    /* \"primerContrato/Smart_Contracts/2_variables_modificadores.sol\":825:893  address public addressa = 0x5B38Da6a701c568545dCfcB03FcB875f56beddC4 */\n  0x0d\n  exp(0x0100, 0x00)\n  dup2\n  sload\n  dup2\n  0xffffffffffffffffffffffffffffffffffffffff\n  mul\n  not\n  and\n  swap1\n  dup4\n  0xffffffffffffffffffffffffffffffffffffffff\n  and\n  mul\n  or\n  swap1\n  sstore\n  pop\n    /* \"primerContrato/Smart_Contracts/2_variables_modificadores.sol\":927:937  msg.sender */\n  caller\n    /* \"primerContrato/Smart_Contracts/2_variables_modificadores.sol\":901:937  address public address2 = msg.sender */\n  0x0e\n  exp(0x0100, 0x00)\n  dup2\n  sload\n  dup2\n  0xffffffffffffffffffffffffffffffffffffffff\n  mul\n  not\n  and\n  swap1\n  dup4\n  0xffffffffffffffffffffffffffffffffffffffff\n  and\n  mul\n  or\n  swap1\n  sstore\n  pop\n    /* \"primerContrato/Smart_Contracts/2_variables_modificadores.sol\":61:1325  contract variables_modicadores {\r... */\n  callvalue\n  dup1\n  iszero\n  tag_6\n  jumpi\n  0x00\n  dup1\n  revert\ntag_6:\n  pop\n  jump(tag_7)\ntag_2:\n  dup3\n  dup1\n  sload\n  tag_8\n  swap1\n  tag_9\n  jump\t// in\ntag_8:\n  swap1\n  0x00\n  mstore\n  keccak256(0x00, 0x20)\n  swap1\n  0x1f\n  add\n  0x20\n  swap1\n  div\n  dup2\n  add\n  swap3\n  dup3\n  tag_11\n  jumpi\n  0x00\n  dup6\n  sstore\n  jump(tag_10)\ntag_11:\n  dup3\n  0x1f\n  lt\n  tag_12\n  jumpi\n  dup1\n  mload\n  not(0xff)\n  and\n  dup4\n  dup1\n  add\n  or\n  dup6\n  sstore\n  jump(tag_10)\ntag_12:\n  dup3\n  dup1\n  add\n  0x01\n  add\n  dup6\n  sstore\n  dup3\n  iszero\n  tag_10\n  jumpi\n  swap2\n  dup3\n  add\ntag_13:\n  dup3\n  dup2\n  gt\n  iszero\n  tag_14\n  jumpi\n  dup3\n  mload\n  dup3\n  sstore\n  swap2\n  0x20\n  add\n  swap2\n  swap1\n  0x01\n  add\n  swap1\n  jump(tag_13)\ntag_14:\ntag_10:\n  pop\n  swap1\n  pop\n  tag_15\n  swap2\n  swap1\n  tag_16\n  jump\t// in\ntag_15:\n  pop\n  swap1\n  jump\t// out\ntag_16:\ntag_17:\n  dup1\n  dup3\n  gt\n  iszero\n  tag_18\n  jumpi\n  0x00\n  dup2\n  0x00\n  swap1\n  sstore\n  pop\n  0x01\n  add\n  jump(tag_17)\ntag_18:\n  pop\n  swap1\n  jump\t// out\n    /* \"#utility.yul\":7:409   */\ntag_20:\n    /* \"#utility.yul\":167:170   */\n  0x00\n    /* \"#utility.yul\":188:273   */\n  tag_22\n    /* \"#utility.yul\":270:272   */\n  0x0c\n    /* \"#utility.yul\":265:268   */\n  dup4\n    /* \"#utility.yul\":188:273   */\n  tag_23\n  jump\t// in\ntag_22:\n    /* \"#utility.yul\":181:273   */\n  swap2\n  pop\n    /* \"#utility.yul\":282:375   */\n  tag_24\n    /* \"#utility.yul\":371:374   */\n  dup3\n    /* \"#utility.yul\":282:375   */\n  tag_25\n  jump\t// in\ntag_24:\n    /* \"#utility.yul\":400:402   */\n  0x0c\n    /* \"#utility.yul\":395:398   */\n  dup3\n    /* \"#utility.yul\":391:403   */\n  add\n    /* \"#utility.yul\":384:403   */\n  swap1\n  pop\n    /* \"#utility.yul\":171:409   */\n  swap2\n  swap1\n  pop\n  jump\t// out\n    /* \"#utility.yul\":415:796   */\ntag_5:\n    /* \"#utility.yul\":600:603   */\n  0x00\n    /* \"#utility.yul\":622:770   */\n  tag_27\n    /* \"#utility.yul\":766:769   */\n  dup3\n    /* \"#utility.yul\":622:770   */\n  tag_20\n  jump\t// in\ntag_27:\n    /* \"#utility.yul\":615:770   */\n  swap2\n  pop\n    /* \"#utility.yul\":787:790   */\n  dup2\n    /* \"#utility.yul\":780:790   */\n  swap1\n  pop\n    /* \"#utility.yul\":604:796   */\n  swap2\n  swap1\n  pop\n  jump\t// out\n    /* \"#utility.yul\":802:950   */\ntag_23:\n    /* \"#utility.yul\":904:915   */\n  0x00\n    /* \"#utility.yul\":941:944   */\n  dup2\n    /* \"#utility.yul\":926:944   */\n  swap1\n  pop\n    /* \"#utility.yul\":916:950   */\n  swap3\n  swap2\n  pop\n  pop\n  jump\t// out\n    /* \"#utility.yul\":956:1276   */\ntag_9:\n    /* \"#utility.yul\":1000:1006   */\n  0x00\n    /* \"#utility.yul\":1037:1038   */\n  0x02\n    /* \"#utility.yul\":1031:1035   */\n  dup3\n    /* \"#utility.yul\":1027:1039   */\n  div\n    /* \"#utility.yul\":1017:1039   */\n  swap1\n  pop\n    /* \"#utility.yul\":1084:1085   */\n  0x01\n    /* \"#utility.yul\":1078:1082   */\n  dup3\n    /* \"#utility.yul\":1074:1086   */\n  and\n    /* \"#utility.yul\":1105:1123   */\n  dup1\n    /* \"#utility.yul\":1095:1097   */\n  tag_30\n  jumpi\n    /* \"#utility.yul\":1161:1165   */\n  0x7f\n    /* \"#utility.yul\":1153:1159   */\n  dup3\n    /* \"#utility.yul\":1149:1166   */\n  and\n    /* \"#utility.yul\":1139:1166   */\n  swap2\n  pop\n    /* \"#utility.yul\":1095:1097   */\ntag_30:\n    /* \"#utility.yul\":1223:1225   */\n  0x20\n    /* \"#utility.yul\":1215:1221   */\n  dup3\n    /* \"#utility.yul\":1212:1226   */\n  lt\n    /* \"#utility.yul\":1192:1210   */\n  dup2\n    /* \"#utility.yul\":1189:1227   */\n  eq\n    /* \"#utility.yul\":1186:1188   */\n  iszero\n  tag_31\n  jumpi\n    /* \"#utility.yul\":1242:1260   */\n  tag_32\n  tag_33\n  jump\t// in\ntag_32:\n    /* \"#utility.yul\":1186:1188   */\ntag_31:\n    /* \"#utility.yul\":1007:1276   */\n  pop\n  swap2\n  swap1\n  pop\n  jump\t// out\n    /* \"#utility.yul\":1282:1462   */\ntag_33:\n    /* \"#utility.yul\":1330:1407   */\n  0x4e487b7100000000000000000000000000000000000000000000000000000000\n    /* \"#utility.yul\":1327:1328   */\n  0x00\n    /* \"#utility.yul\":1320:1408   */\n  mstore\n    /* \"#utility.yul\":1427:1431   */\n  0x22\n    /* \"#utility.yul\":1424:1425   */\n  0x04\n    /* \"#utility.yul\":1417:1432   */\n  mstore\n    /* \"#utility.yul\":1451:1455   */\n  0x24\n    /* \"#utility.yul\":1448:1449   */\n  0x00\n    /* \"#utility.yul\":1441:1456   */\n  revert\n    /* \"#utility.yul\":1468:1630   */\ntag_25:\n    /* \"#utility.yul\":1608:1622   */\n  0x486f6c612070656e64656a6f0000000000000000000000000000000000000000\n    /* \"#utility.yul\":1604:1605   */\n  0x00\n    /* \"#utility.yul\":1596:1602   */\n  dup3\n    /* \"#utility.yul\":1592:1606   */\n  add\n    /* \"#utility.yul\":1585:1623   */\n  mstore\n    /* \"#utility.yul\":1574:1630   */\n  pop\n  jump\t// out\n    /* \"primerContrato/Smart_Contracts/2_variables_modificadores.sol\":61:1325  contract variables_modicadores {\r... */\ntag_7:\n  dataSize(sub_0)\n  dup1\n  dataOffset(sub_0)\n  0x00\n  codecopy\n  0x00\n  return\nstop\n\nsub_0: assembly {\n        /* \"primerContrato/Smart_Contracts/2_variables_modificadores.sol\":61:1325  contract variables_modicadores {\r... */\n      mstore(0x40, 0x80)\n      callvalue\n      dup1\n      iszero\n      tag_1\n      jumpi\n      0x00\n      dup1\n      revert\n    tag_1:\n      pop\n      jumpi(tag_2, lt(calldatasize, 0x04))\n      shr(0xe0, calldataload(0x00))\n      dup1\n      0x9eea4a3a\n      gt\n      tag_13\n      jumpi\n      dup1\n      0x9eea4a3a\n      eq\n      tag_8\n      jumpi\n      dup1\n      0xaf10c810\n      eq\n      tag_9\n      jumpi\n      dup1\n      0xb83d07b7\n      eq\n      tag_10\n      jumpi\n      dup1\n      0xba33ed7d\n      eq\n      tag_11\n      jumpi\n      dup1\n      0xcd97d84e\n      eq\n      tag_12\n      jumpi\n      jump(tag_2)\n    tag_13:\n      dup1\n      0x312eef29\n      eq\n      tag_3\n      jumpi\n      dup1\n      0x3c8279d2\n      eq\n      tag_4\n      jumpi\n      dup1\n      0x4df7e3d0\n      eq\n      tag_5\n      jumpi\n      dup1\n      0x7272eea1\n      eq\n      tag_6\n      jumpi\n      dup1\n      0x8a054ac2\n      eq\n      tag_7\n      jumpi\n    tag_2:\n      0x00\n      dup1\n      revert\n        /* \"primerContrato/Smart_Contracts/2_variables_modificadores.sol\":479:510  bool public boolean_true = true */\n    tag_3:\n      tag_14\n      tag_15\n      jump\t// in\n    tag_14:\n      mload(0x40)\n      tag_16\n      swap2\n      swap1\n      tag_17\n      jump\t// in\n    tag_16:\n      mload(0x40)\n      dup1\n      swap2\n      sub\n      swap1\n      return\n        /* \"primerContrato/Smart_Contracts/2_variables_modificadores.sol\":825:893  address public addressa = 0x5B38Da6a701c568545dCfcB03FcB875f56beddC4 */\n    tag_4:\n      tag_18\n      tag_19\n      jump\t// in\n    tag_18:\n      mload(0x40)\n      tag_20\n      swap2\n      swap1\n      tag_21\n      jump\t// in\n    tag_20:\n      mload(0x40)\n      dup1\n      swap2\n      sub\n      swap1\n      return\n        /* \"primerContrato/Smart_Contracts/2_variables_modificadores.sol\":154:173  uint8 public  b = 3 */\n    tag_5:\n      tag_22\n      tag_23\n      jump\t// in\n    tag_22:\n      mload(0x40)\n      tag_24\n      swap2\n      swap1\n      tag_25\n      jump\t// in\n    tag_24:\n      mload(0x40)\n      dup1\n      swap2\n      sub\n      swap1\n      return\n        /* \"primerContrato/Smart_Contracts/2_variables_modificadores.sol\":1230:1316  function displayState() public view returns(options) {\r... */\n    tag_6:\n      tag_26\n      tag_27\n      jump\t// in\n    tag_26:\n      mload(0x40)\n      tag_28\n      swap2\n      swap1\n      tag_29\n      jump\t// in\n    tag_28:\n      mload(0x40)\n      dup1\n      swap2\n      sub\n      swap1\n      return\n        /* \"primerContrato/Smart_Contracts/2_variables_modificadores.sol\":234:254  int8 public  d = -32 */\n    tag_7:\n      tag_30\n      tag_31\n      jump\t// in\n    tag_30:\n      mload(0x40)\n      tag_32\n      swap2\n      swap1\n      tag_33\n      jump\t// in\n    tag_32:\n      mload(0x40)\n      dup1\n      swap2\n      sub\n      swap1\n      return\n        /* \"primerContrato/Smart_Contracts/2_variables_modificadores.sol\":901:937  address public address2 = msg.sender */\n    tag_8:\n      tag_34\n      tag_35\n      jump\t// in\n    tag_34:\n      mload(0x40)\n      tag_36\n      swap2\n      swap1\n      tag_21\n      jump\t// in\n    tag_36:\n      mload(0x40)\n      dup1\n      swap2\n      sub\n      swap1\n      return\n        /* \"primerContrato/Smart_Contracts/2_variables_modificadores.sol\":1154:1220  function turnOff() public {\r... */\n    tag_9:\n      tag_37\n      tag_38\n      jump\t// in\n    tag_37:\n      stop\n        /* \"primerContrato/Smart_Contracts/2_variables_modificadores.sol\":325:369  string public str_public = \"Esto es publico\" */\n    tag_10:\n      tag_39\n      tag_40\n      jump\t// in\n    tag_39:\n      mload(0x40)\n      tag_41\n      swap2\n      swap1\n      tag_42\n      jump\t// in\n    tag_41:\n      mload(0x40)\n      dup1\n      swap2\n      sub\n      swap1\n      return\n        /* \"primerContrato/Smart_Contracts/2_variables_modificadores.sol\":1081:1145  function turnOn() public {\r... */\n    tag_11:\n      tag_43\n      tag_44\n      jump\t// in\n    tag_43:\n      stop\n        /* \"primerContrato/Smart_Contracts/2_variables_modificadores.sol\":696:764  bytes32 public hashing = keccak256(abi.encodePacked(\"Hola pendejo\")) */\n    tag_12:\n      tag_45\n      tag_46\n      jump\t// in\n    tag_45:\n      mload(0x40)\n      tag_47\n      swap2\n      swap1\n      tag_48\n      jump\t// in\n    tag_47:\n      mload(0x40)\n      dup1\n      swap2\n      sub\n      swap1\n      return\n        /* \"primerContrato/Smart_Contracts/2_variables_modificadores.sol\":479:510  bool public boolean_true = true */\n    tag_15:\n      0x08\n      0x01\n      swap1\n      sload\n      swap1\n      0x0100\n      exp\n      swap1\n      div\n      0xff\n      and\n      dup2\n      jump\t// out\n        /* \"primerContrato/Smart_Contracts/2_variables_modificadores.sol\":825:893  address public addressa = 0x5B38Da6a701c568545dCfcB03FcB875f56beddC4 */\n    tag_19:\n      0x0d\n      0x00\n      swap1\n      sload\n      swap1\n      0x0100\n      exp\n      swap1\n      div\n      0xffffffffffffffffffffffffffffffffffffffff\n      and\n      dup2\n      jump\t// out\n        /* \"primerContrato/Smart_Contracts/2_variables_modificadores.sol\":154:173  uint8 public  b = 3 */\n    tag_23:\n      0x01\n      0x00\n      swap1\n      sload\n      swap1\n      0x0100\n      exp\n      swap1\n      div\n      0xff\n      and\n      dup2\n      jump\t// out\n        /* \"primerContrato/Smart_Contracts/2_variables_modificadores.sol\":1230:1316  function displayState() public view returns(options) {\r... */\n    tag_27:\n        /* \"primerContrato/Smart_Contracts/2_variables_modificadores.sol\":1274:1281  options */\n      0x00\n        /* \"primerContrato/Smart_Contracts/2_variables_modificadores.sol\":1302:1307  state */\n      0x0e\n      0x14\n      swap1\n      sload\n      swap1\n      0x0100\n      exp\n      swap1\n      div\n      0xff\n      and\n        /* \"primerContrato/Smart_Contracts/2_variables_modificadores.sol\":1295:1307  return state */\n      swap1\n      pop\n        /* \"primerContrato/Smart_Contracts/2_variables_modificadores.sol\":1230:1316  function displayState() public view returns(options) {\r... */\n      swap1\n      jump\t// out\n        /* \"primerContrato/Smart_Contracts/2_variables_modificadores.sol\":234:254  int8 public  d = -32 */\n    tag_31:\n      0x03\n      0x00\n      swap1\n      sload\n      swap1\n      0x0100\n      exp\n      swap1\n      div\n      0x00\n      signextend\n      dup2\n      jump\t// out\n        /* \"primerContrato/Smart_Contracts/2_variables_modificadores.sol\":901:937  address public address2 = msg.sender */\n    tag_35:\n      0x0e\n      0x00\n      swap1\n      sload\n      swap1\n      0x0100\n      exp\n      swap1\n      div\n      0xffffffffffffffffffffffffffffffffffffffff\n      and\n      dup2\n      jump\t// out\n        /* \"primerContrato/Smart_Contracts/2_variables_modificadores.sol\":1154:1220  function turnOff() public {\r... */\n    tag_38:\n        /* \"primerContrato/Smart_Contracts/2_variables_modificadores.sol\":1200:1211  options.OFF */\n      0x01\n        /* \"primerContrato/Smart_Contracts/2_variables_modificadores.sol\":1192:1197  state */\n      0x0e\n      0x14\n        /* \"primerContrato/Smart_Contracts/2_variables_modificadores.sol\":1192:1211  state = options.OFF */\n      0x0100\n      exp\n      dup2\n      sload\n      dup2\n      0xff\n      mul\n      not\n      and\n      swap1\n      dup4\n      0x01\n      dup2\n      gt\n      iszero\n      tag_51\n      jumpi\n      mstore(0x00, 0x4e487b7100000000000000000000000000000000000000000000000000000000)\n      mstore(0x04, 0x21)\n      revert(0x00, 0x24)\n    tag_51:\n      mul\n      or\n      swap1\n      sstore\n      pop\n        /* \"primerContrato/Smart_Contracts/2_variables_modificadores.sol\":1154:1220  function turnOff() public {\r... */\n      jump\t// out\n        /* \"primerContrato/Smart_Contracts/2_variables_modificadores.sol\":325:369  string public str_public = \"Esto es publico\" */\n    tag_40:\n      0x06\n      dup1\n      sload\n      tag_52\n      swap1\n      tag_53\n      jump\t// in\n    tag_52:\n      dup1\n      0x1f\n      add\n      0x20\n      dup1\n      swap2\n      div\n      mul\n      0x20\n      add\n      mload(0x40)\n      swap1\n      dup2\n      add\n      0x40\n      mstore\n      dup1\n      swap3\n      swap2\n      swap1\n      dup2\n      dup2\n      mstore\n      0x20\n      add\n      dup3\n      dup1\n      sload\n      tag_54\n      swap1\n      tag_53\n      jump\t// in\n    tag_54:\n      dup1\n      iszero\n      tag_55\n      jumpi\n      dup1\n      0x1f\n      lt\n      tag_56\n      jumpi\n      0x0100\n      dup1\n      dup4\n      sload\n      div\n      mul\n      dup4\n      mstore\n      swap2\n      0x20\n      add\n      swap2\n      jump(tag_55)\n    tag_56:\n      dup3\n      add\n      swap2\n      swap1\n      0x00\n      mstore\n      keccak256(0x00, 0x20)\n      swap1\n    tag_57:\n      dup2\n      sload\n      dup2\n      mstore\n      swap1\n      0x01\n      add\n      swap1\n      0x20\n      add\n      dup1\n      dup4\n      gt\n      tag_57\n      jumpi\n      dup3\n      swap1\n      sub\n      0x1f\n      and\n      dup3\n      add\n      swap2\n    tag_55:\n      pop\n      pop\n      pop\n      pop\n      pop\n      dup2\n      jump\t// out\n        /* \"primerContrato/Smart_Contracts/2_variables_modificadores.sol\":1081:1145  function turnOn() public {\r... */\n    tag_44:\n        /* \"primerContrato/Smart_Contracts/2_variables_modificadores.sol\":1126:1136  options.ON */\n      0x00\n        /* \"primerContrato/Smart_Contracts/2_variables_modificadores.sol\":1118:1123  state */\n      0x0e\n      0x14\n        /* \"primerContrato/Smart_Contracts/2_variables_modificadores.sol\":1118:1136  state = options.ON */\n      0x0100\n      exp\n      dup2\n      sload\n      dup2\n      0xff\n      mul\n      not\n      and\n      swap1\n      dup4\n      0x01\n      dup2\n      gt\n      iszero\n      tag_59\n      jumpi\n      mstore(0x00, 0x4e487b7100000000000000000000000000000000000000000000000000000000)\n      mstore(0x04, 0x21)\n      revert(0x00, 0x24)\n    tag_59:\n      mul\n      or\n      swap1\n      sstore\n      pop\n        /* \"primerContrato/Smart_Contracts/2_variables_modificadores.sol\":1081:1145  function turnOn() public {\r... */\n      jump\t// out\n        /* \"primerContrato/Smart_Contracts/2_variables_modificadores.sol\":696:764  bytes32 public hashing = keccak256(abi.encodePacked(\"Hola pendejo\")) */\n    tag_46:\n      sload(0x0b)\n      dup2\n      jump\t// out\n        /* \"#utility.yul\":7:125   */\n    tag_61:\n        /* \"#utility.yul\":94:118   */\n      tag_63\n        /* \"#utility.yul\":112:117   */\n      dup2\n        /* \"#utility.yul\":94:118   */\n      tag_64\n      jump\t// in\n    tag_63:\n        /* \"#utility.yul\":89:92   */\n      dup3\n        /* \"#utility.yul\":82:119   */\n      mstore\n        /* \"#utility.yul\":72:125   */\n      pop\n      pop\n      jump\t// out\n        /* \"#utility.yul\":131:240   */\n    tag_65:\n        /* \"#utility.yul\":212:233   */\n      tag_67\n        /* \"#utility.yul\":227:232   */\n      dup2\n        /* \"#utility.yul\":212:233   */\n      tag_68\n      jump\t// in\n    tag_67:\n        /* \"#utility.yul\":207:210   */\n      dup3\n        /* \"#utility.yul\":200:234   */\n      mstore\n        /* \"#utility.yul\":190:240   */\n      pop\n      pop\n      jump\t// out\n        /* \"#utility.yul\":246:364   */\n    tag_69:\n        /* \"#utility.yul\":333:357   */\n      tag_71\n        /* \"#utility.yul\":351:356   */\n      dup2\n        /* \"#utility.yul\":333:357   */\n      tag_72\n      jump\t// in\n    tag_71:\n        /* \"#utility.yul\":328:331   */\n      dup3\n        /* \"#utility.yul\":321:358   */\n      mstore\n        /* \"#utility.yul\":311:364   */\n      pop\n      pop\n      jump\t// out\n        /* \"#utility.yul\":370:517   */\n    tag_73:\n        /* \"#utility.yul\":465:510   */\n      tag_75\n        /* \"#utility.yul\":504:509   */\n      dup2\n        /* \"#utility.yul\":465:510   */\n      tag_76\n      jump\t// in\n    tag_75:\n        /* \"#utility.yul\":460:463   */\n      dup3\n        /* \"#utility.yul\":453:511   */\n      mstore\n        /* \"#utility.yul\":443:517   */\n      pop\n      pop\n      jump\t// out\n        /* \"#utility.yul\":523:632   */\n    tag_77:\n        /* \"#utility.yul\":604:625   */\n      tag_79\n        /* \"#utility.yul\":619:624   */\n      dup2\n        /* \"#utility.yul\":604:625   */\n      tag_80\n      jump\t// in\n    tag_79:\n        /* \"#utility.yul\":599:602   */\n      dup3\n        /* \"#utility.yul\":592:626   */\n      mstore\n        /* \"#utility.yul\":582:632   */\n      pop\n      pop\n      jump\t// out\n        /* \"#utility.yul\":638:1002   */\n    tag_81:\n        /* \"#utility.yul\":726:729   */\n      0x00\n        /* \"#utility.yul\":754:793   */\n      tag_83\n        /* \"#utility.yul\":787:792   */\n      dup3\n        /* \"#utility.yul\":754:793   */\n      tag_84\n      jump\t// in\n    tag_83:\n        /* \"#utility.yul\":809:880   */\n      tag_85\n        /* \"#utility.yul\":873:879   */\n      dup2\n        /* \"#utility.yul\":868:871   */\n      dup6\n        /* \"#utility.yul\":809:880   */\n      tag_86\n      jump\t// in\n    tag_85:\n        /* \"#utility.yul\":802:880   */\n      swap4\n      pop\n        /* \"#utility.yul\":889:941   */\n      tag_87\n        /* \"#utility.yul\":934:940   */\n      dup2\n        /* \"#utility.yul\":929:932   */\n      dup6\n        /* \"#utility.yul\":922:926   */\n      0x20\n        /* \"#utility.yul\":915:920   */\n      dup7\n        /* \"#utility.yul\":911:927   */\n      add\n        /* \"#utility.yul\":889:941   */\n      tag_88\n      jump\t// in\n    tag_87:\n        /* \"#utility.yul\":966:995   */\n      tag_89\n        /* \"#utility.yul\":988:994   */\n      dup2\n        /* \"#utility.yul\":966:995   */\n      tag_90\n      jump\t// in\n    tag_89:\n        /* \"#utility.yul\":961:964   */\n      dup5\n        /* \"#utility.yul\":957:996   */\n      add\n        /* \"#utility.yul\":950:996   */\n      swap2\n      pop\n        /* \"#utility.yul\":730:1002   */\n      pop\n      swap3\n      swap2\n      pop\n      pop\n      jump\t// out\n        /* \"#utility.yul\":1008:1120   */\n    tag_91:\n        /* \"#utility.yul\":1091:1113   */\n      tag_93\n        /* \"#utility.yul\":1107:1112   */\n      dup2\n        /* \"#utility.yul\":1091:1113   */\n      tag_94\n      jump\t// in\n    tag_93:\n        /* \"#utility.yul\":1086:1089   */\n      dup3\n        /* \"#utility.yul\":1079:1114   */\n      mstore\n        /* \"#utility.yul\":1069:1120   */\n      pop\n      pop\n      jump\t// out\n        /* \"#utility.yul\":1126:1348   */\n    tag_21:\n        /* \"#utility.yul\":1219:1223   */\n      0x00\n        /* \"#utility.yul\":1257:1259   */\n      0x20\n        /* \"#utility.yul\":1246:1255   */\n      dup3\n        /* \"#utility.yul\":1242:1260   */\n      add\n        /* \"#utility.yul\":1234:1260   */\n      swap1\n      pop\n        /* \"#utility.yul\":1270:1341   */\n      tag_96\n        /* \"#utility.yul\":1338:1339   */\n      0x00\n        /* \"#utility.yul\":1327:1336   */\n      dup4\n        /* \"#utility.yul\":1323:1340   */\n      add\n        /* \"#utility.yul\":1314:1320   */\n      dup5\n        /* \"#utility.yul\":1270:1341   */\n      tag_61\n      jump\t// in\n    tag_96:\n        /* \"#utility.yul\":1224:1348   */\n      swap3\n      swap2\n      pop\n      pop\n      jump\t// out\n        /* \"#utility.yul\":1354:1564   */\n    tag_17:\n        /* \"#utility.yul\":1441:1445   */\n      0x00\n        /* \"#utility.yul\":1479:1481   */\n      0x20\n        /* \"#utility.yul\":1468:1477   */\n      dup3\n        /* \"#utility.yul\":1464:1482   */\n      add\n        /* \"#utility.yul\":1456:1482   */\n      swap1\n      pop\n        /* \"#utility.yul\":1492:1557   */\n      tag_98\n        /* \"#utility.yul\":1554:1555   */\n      0x00\n        /* \"#utility.yul\":1543:1552   */\n      dup4\n        /* \"#utility.yul\":1539:1556   */\n      add\n        /* \"#utility.yul\":1530:1536   */\n      dup5\n        /* \"#utility.yul\":1492:1557   */\n      tag_65\n      jump\t// in\n    tag_98:\n        /* \"#utility.yul\":1446:1564   */\n      swap3\n      swap2\n      pop\n      pop\n      jump\t// out\n        /* \"#utility.yul\":1570:1792   */\n    tag_48:\n        /* \"#utility.yul\":1663:1667   */\n      0x00\n        /* \"#utility.yul\":1701:1703   */\n      0x20\n        /* \"#utility.yul\":1690:1699   */\n      dup3\n        /* \"#utility.yul\":1686:1704   */\n      add\n        /* \"#utility.yul\":1678:1704   */\n      swap1\n      pop\n        /* \"#utility.yul\":1714:1785   */\n      tag_100\n        /* \"#utility.yul\":1782:1783   */\n      0x00\n        /* \"#utility.yul\":1771:1780   */\n      dup4\n        /* \"#utility.yul\":1767:1784   */\n      add\n        /* \"#utility.yul\":1758:1764   */\n      dup5\n        /* \"#utility.yul\":1714:1785   */\n      tag_69\n      jump\t// in\n    tag_100:\n        /* \"#utility.yul\":1668:1792   */\n      swap3\n      swap2\n      pop\n      pop\n      jump\t// out\n        /* \"#utility.yul\":1798:2036   */\n    tag_29:\n        /* \"#utility.yul\":1899:1903   */\n      0x00\n        /* \"#utility.yul\":1937:1939   */\n      0x20\n        /* \"#utility.yul\":1926:1935   */\n      dup3\n        /* \"#utility.yul\":1922:1940   */\n      add\n        /* \"#utility.yul\":1914:1940   */\n      swap1\n      pop\n        /* \"#utility.yul\":1950:2029   */\n      tag_102\n        /* \"#utility.yul\":2026:2027   */\n      0x00\n        /* \"#utility.yul\":2015:2024   */\n      dup4\n        /* \"#utility.yul\":2011:2028   */\n      add\n        /* \"#utility.yul\":2002:2008   */\n      dup5\n        /* \"#utility.yul\":1950:2029   */\n      tag_73\n      jump\t// in\n    tag_102:\n        /* \"#utility.yul\":1904:2036   */\n      swap3\n      swap2\n      pop\n      pop\n      jump\t// out\n        /* \"#utility.yul\":2042:2252   */\n    tag_33:\n        /* \"#utility.yul\":2129:2133   */\n      0x00\n        /* \"#utility.yul\":2167:2169   */\n      0x20\n        /* \"#utility.yul\":2156:2165   */\n      dup3\n        /* \"#utility.yul\":2152:2170   */\n      add\n        /* \"#utility.yul\":2144:2170   */\n      swap1\n      pop\n        /* \"#utility.yul\":2180:2245   */\n      tag_104\n        /* \"#utility.yul\":2242:2243   */\n      0x00\n        /* \"#utility.yul\":2231:2240   */\n      dup4\n        /* \"#utility.yul\":2227:2244   */\n      add\n        /* \"#utility.yul\":2218:2224   */\n      dup5\n        /* \"#utility.yul\":2180:2245   */\n      tag_77\n      jump\t// in\n    tag_104:\n        /* \"#utility.yul\":2134:2252   */\n      swap3\n      swap2\n      pop\n      pop\n      jump\t// out\n        /* \"#utility.yul\":2258:2571   */\n    tag_42:\n        /* \"#utility.yul\":2371:2375   */\n      0x00\n        /* \"#utility.yul\":2409:2411   */\n      0x20\n        /* \"#utility.yul\":2398:2407   */\n      dup3\n        /* \"#utility.yul\":2394:2412   */\n      add\n        /* \"#utility.yul\":2386:2412   */\n      swap1\n      pop\n        /* \"#utility.yul\":2458:2467   */\n      dup2\n        /* \"#utility.yul\":2452:2456   */\n      dup2\n        /* \"#utility.yul\":2448:2468   */\n      sub\n        /* \"#utility.yul\":2444:2445   */\n      0x00\n        /* \"#utility.yul\":2433:2442   */\n      dup4\n        /* \"#utility.yul\":2429:2446   */\n      add\n        /* \"#utility.yul\":2422:2469   */\n      mstore\n        /* \"#utility.yul\":2486:2564   */\n      tag_106\n        /* \"#utility.yul\":2559:2563   */\n      dup2\n        /* \"#utility.yul\":2550:2556   */\n      dup5\n        /* \"#utility.yul\":2486:2564   */\n      tag_81\n      jump\t// in\n    tag_106:\n        /* \"#utility.yul\":2478:2564   */\n      swap1\n      pop\n        /* \"#utility.yul\":2376:2571   */\n      swap3\n      swap2\n      pop\n      pop\n      jump\t// out\n        /* \"#utility.yul\":2577:2791   */\n    tag_25:\n        /* \"#utility.yul\":2666:2670   */\n      0x00\n        /* \"#utility.yul\":2704:2706   */\n      0x20\n        /* \"#utility.yul\":2693:2702   */\n      dup3\n        /* \"#utility.yul\":2689:2707   */\n      add\n        /* \"#utility.yul\":2681:2707   */\n      swap1\n      pop\n        /* \"#utility.yul\":2717:2784   */\n      tag_108\n        /* \"#utility.yul\":2781:2782   */\n      0x00\n        /* \"#utility.yul\":2770:2779   */\n      dup4\n        /* \"#utility.yul\":2766:2783   */\n      add\n        /* \"#utility.yul\":2757:2763   */\n      dup5\n        /* \"#utility.yul\":2717:2784   */\n      tag_91\n      jump\t// in\n    tag_108:\n        /* \"#utility.yul\":2671:2791   */\n      swap3\n      swap2\n      pop\n      pop\n      jump\t// out\n        /* \"#utility.yul\":2797:2896   */\n    tag_84:\n        /* \"#utility.yul\":2849:2855   */\n      0x00\n        /* \"#utility.yul\":2883:2888   */\n      dup2\n        /* \"#utility.yul\":2877:2889   */\n      mload\n        /* \"#utility.yul\":2867:2889   */\n      swap1\n      pop\n        /* \"#utility.yul\":2856:2896   */\n      swap2\n      swap1\n      pop\n      jump\t// out\n        /* \"#utility.yul\":2902:3071   */\n    tag_86:\n        /* \"#utility.yul\":2986:2997   */\n      0x00\n        /* \"#utility.yul\":3020:3026   */\n      dup3\n        /* \"#utility.yul\":3015:3018   */\n      dup3\n        /* \"#utility.yul\":3008:3027   */\n      mstore\n        /* \"#utility.yul\":3060:3064   */\n      0x20\n        /* \"#utility.yul\":3055:3058   */\n      dup3\n        /* \"#utility.yul\":3051:3065   */\n      add\n        /* \"#utility.yul\":3036:3065   */\n      swap1\n      pop\n        /* \"#utility.yul\":2998:3071   */\n      swap3\n      swap2\n      pop\n      pop\n      jump\t// out\n        /* \"#utility.yul\":3077:3173   */\n    tag_64:\n        /* \"#utility.yul\":3114:3121   */\n      0x00\n        /* \"#utility.yul\":3143:3167   */\n      tag_112\n        /* \"#utility.yul\":3161:3166   */\n      dup3\n        /* \"#utility.yul\":3143:3167   */\n      tag_113\n      jump\t// in\n    tag_112:\n        /* \"#utility.yul\":3132:3167   */\n      swap1\n      pop\n        /* \"#utility.yul\":3122:3173   */\n      swap2\n      swap1\n      pop\n      jump\t// out\n        /* \"#utility.yul\":3179:3269   */\n    tag_68:\n        /* \"#utility.yul\":3213:3220   */\n      0x00\n        /* \"#utility.yul\":3256:3261   */\n      dup2\n        /* \"#utility.yul\":3249:3262   */\n      iszero\n        /* \"#utility.yul\":3242:3263   */\n      iszero\n        /* \"#utility.yul\":3231:3263   */\n      swap1\n      pop\n        /* \"#utility.yul\":3221:3269   */\n      swap2\n      swap1\n      pop\n      jump\t// out\n        /* \"#utility.yul\":3275:3352   */\n    tag_72:\n        /* \"#utility.yul\":3312:3319   */\n      0x00\n        /* \"#utility.yul\":3341:3346   */\n      dup2\n        /* \"#utility.yul\":3330:3346   */\n      swap1\n      pop\n        /* \"#utility.yul\":3320:3352   */\n      swap2\n      swap1\n      pop\n      jump\t// out\n        /* \"#utility.yul\":3358:3489   */\n    tag_116:\n        /* \"#utility.yul\":3405:3412   */\n      0x00\n        /* \"#utility.yul\":3434:3439   */\n      dup2\n        /* \"#utility.yul\":3423:3439   */\n      swap1\n      pop\n        /* \"#utility.yul\":3440:3483   */\n      tag_118\n        /* \"#utility.yul\":3477:3482   */\n      dup3\n        /* \"#utility.yul\":3440:3483   */\n      tag_119\n      jump\t// in\n    tag_118:\n        /* \"#utility.yul\":3413:3489   */\n      swap2\n      swap1\n      pop\n      jump\t// out\n        /* \"#utility.yul\":3495:3584   */\n    tag_80:\n        /* \"#utility.yul\":3529:3536   */\n      0x00\n        /* \"#utility.yul\":3572:3577   */\n      dup2\n        /* \"#utility.yul\":3569:3570   */\n      0x00\n        /* \"#utility.yul\":3558:3578   */\n      signextend\n        /* \"#utility.yul\":3547:3578   */\n      swap1\n      pop\n        /* \"#utility.yul\":3537:3584   */\n      swap2\n      swap1\n      pop\n      jump\t// out\n        /* \"#utility.yul\":3590:3716   */\n    tag_113:\n        /* \"#utility.yul\":3627:3634   */\n      0x00\n        /* \"#utility.yul\":3667:3709   */\n      0xffffffffffffffffffffffffffffffffffffffff\n        /* \"#utility.yul\":3660:3665   */\n      dup3\n        /* \"#utility.yul\":3656:3710   */\n      and\n        /* \"#utility.yul\":3645:3710   */\n      swap1\n      pop\n        /* \"#utility.yul\":3635:3716   */\n      swap2\n      swap1\n      pop\n      jump\t// out\n        /* \"#utility.yul\":3722:3808   */\n    tag_94:\n        /* \"#utility.yul\":3757:3764   */\n      0x00\n        /* \"#utility.yul\":3797:3801   */\n      0xff\n        /* \"#utility.yul\":3790:3795   */\n      dup3\n        /* \"#utility.yul\":3786:3802   */\n      and\n        /* \"#utility.yul\":3775:3802   */\n      swap1\n      pop\n        /* \"#utility.yul\":3765:3808   */\n      swap2\n      swap1\n      pop\n      jump\t// out\n        /* \"#utility.yul\":3814:3945   */\n    tag_76:\n        /* \"#utility.yul\":3872:3881   */\n      0x00\n        /* \"#utility.yul\":3905:3939   */\n      tag_124\n        /* \"#utility.yul\":3933:3938   */\n      dup3\n        /* \"#utility.yul\":3905:3939   */\n      tag_116\n      jump\t// in\n    tag_124:\n        /* \"#utility.yul\":3892:3939   */\n      swap1\n      pop\n        /* \"#utility.yul\":3882:3945   */\n      swap2\n      swap1\n      pop\n      jump\t// out\n        /* \"#utility.yul\":3951:4258   */\n    tag_88:\n        /* \"#utility.yul\":4019:4020   */\n      0x00\n        /* \"#utility.yul\":4029:4142   */\n    tag_126:\n        /* \"#utility.yul\":4043:4049   */\n      dup4\n        /* \"#utility.yul\":4040:4041   */\n      dup2\n        /* \"#utility.yul\":4037:4050   */\n      lt\n        /* \"#utility.yul\":4029:4142   */\n      iszero\n      tag_128\n      jumpi\n        /* \"#utility.yul\":4128:4129   */\n      dup1\n        /* \"#utility.yul\":4123:4126   */\n      dup3\n        /* \"#utility.yul\":4119:4130   */\n      add\n        /* \"#utility.yul\":4113:4131   */\n      mload\n        /* \"#utility.yul\":4109:4110   */\n      dup2\n        /* \"#utility.yul\":4104:4107   */\n      dup5\n        /* \"#utility.yul\":4100:4111   */\n      add\n        /* \"#utility.yul\":4093:4132   */\n      mstore\n        /* \"#utility.yul\":4065:4067   */\n      0x20\n        /* \"#utility.yul\":4062:4063   */\n      dup2\n        /* \"#utility.yul\":4058:4068   */\n      add\n        /* \"#utility.yul\":4053:4068   */\n      swap1\n      pop\n        /* \"#utility.yul\":4029:4142   */\n      jump(tag_126)\n    tag_128:\n        /* \"#utility.yul\":4160:4166   */\n      dup4\n        /* \"#utility.yul\":4157:4158   */\n      dup2\n        /* \"#utility.yul\":4154:4167   */\n      gt\n        /* \"#utility.yul\":4151:4153   */\n      iszero\n      tag_129\n      jumpi\n        /* \"#utility.yul\":4240:4241   */\n      0x00\n        /* \"#utility.yul\":4231:4237   */\n      dup5\n        /* \"#utility.yul\":4226:4229   */\n      dup5\n        /* \"#utility.yul\":4222:4238   */\n      add\n        /* \"#utility.yul\":4215:4242   */\n      mstore\n        /* \"#utility.yul\":4151:4153   */\n    tag_129:\n        /* \"#utility.yul\":4000:4258   */\n      pop\n      pop\n      pop\n      pop\n      jump\t// out\n        /* \"#utility.yul\":4264:4584   */\n    tag_53:\n        /* \"#utility.yul\":4308:4314   */\n      0x00\n        /* \"#utility.yul\":4345:4346   */\n      0x02\n        /* \"#utility.yul\":4339:4343   */\n      dup3\n        /* \"#utility.yul\":4335:4347   */\n      div\n        /* \"#utility.yul\":4325:4347   */\n      swap1\n      pop\n        /* \"#utility.yul\":4392:4393   */\n      0x01\n        /* \"#utility.yul\":4386:4390   */\n      dup3\n        /* \"#utility.yul\":4382:4394   */\n      and\n        /* \"#utility.yul\":4413:4431   */\n      dup1\n        /* \"#utility.yul\":4403:4405   */\n      tag_131\n      jumpi\n        /* \"#utility.yul\":4469:4473   */\n      0x7f\n        /* \"#utility.yul\":4461:4467   */\n      dup3\n        /* \"#utility.yul\":4457:4474   */\n      and\n        /* \"#utility.yul\":4447:4474   */\n      swap2\n      pop\n        /* \"#utility.yul\":4403:4405   */\n    tag_131:\n        /* \"#utility.yul\":4531:4533   */\n      0x20\n        /* \"#utility.yul\":4523:4529   */\n      dup3\n        /* \"#utility.yul\":4520:4534   */\n      lt\n        /* \"#utility.yul\":4500:4518   */\n      dup2\n        /* \"#utility.yul\":4497:4535   */\n      eq\n        /* \"#utility.yul\":4494:4496   */\n      iszero\n      tag_132\n      jumpi\n        /* \"#utility.yul\":4550:4568   */\n      tag_133\n      tag_134\n      jump\t// in\n    tag_133:\n        /* \"#utility.yul\":4494:4496   */\n    tag_132:\n        /* \"#utility.yul\":4315:4584   */\n      pop\n      swap2\n      swap1\n      pop\n      jump\t// out\n        /* \"#utility.yul\":4590:4770   */\n    tag_135:\n        /* \"#utility.yul\":4638:4715   */\n      0x4e487b7100000000000000000000000000000000000000000000000000000000\n        /* \"#utility.yul\":4635:4636   */\n      0x00\n        /* \"#utility.yul\":4628:4716   */\n      mstore\n        /* \"#utility.yul\":4735:4739   */\n      0x21\n        /* \"#utility.yul\":4732:4733   */\n      0x04\n        /* \"#utility.yul\":4725:4740   */\n      mstore\n        /* \"#utility.yul\":4759:4763   */\n      0x24\n        /* \"#utility.yul\":4756:4757   */\n      0x00\n        /* \"#utility.yul\":4749:4764   */\n      revert\n        /* \"#utility.yul\":4776:4956   */\n    tag_134:\n        /* \"#utility.yul\":4824:4901   */\n      0x4e487b7100000000000000000000000000000000000000000000000000000000\n        /* \"#utility.yul\":4821:4822   */\n      0x00\n        /* \"#utility.yul\":4814:4902   */\n      mstore\n        /* \"#utility.yul\":4921:4925   */\n      0x22\n        /* \"#utility.yul\":4918:4919   */\n      0x04\n        /* \"#utility.yul\":4911:4926   */\n      mstore\n        /* \"#utility.yul\":4945:4949   */\n      0x24\n        /* \"#utility.yul\":4942:4943   */\n      0x00\n        /* \"#utility.yul\":4935:4950   */\n      revert\n        /* \"#utility.yul\":4962:5064   */\n    tag_90:\n        /* \"#utility.yul\":5003:5009   */\n      0x00\n        /* \"#utility.yul\":5054:5056   */\n      0x1f\n        /* \"#utility.yul\":5050:5057   */\n      not\n        /* \"#utility.yul\":5045:5047   */\n      0x1f\n        /* \"#utility.yul\":5038:5043   */\n      dup4\n        /* \"#utility.yul\":5034:5048   */\n      add\n        /* \"#utility.yul\":5030:5058   */\n      and\n        /* \"#utility.yul\":5020:5058   */\n      swap1\n      pop\n        /* \"#utility.yul\":5010:5064   */\n      swap2\n      swap1\n      pop\n      jump\t// out\n        /* \"#utility.yul\":5070:5185   */\n    tag_119:\n        /* \"#utility.yul\":5153:5154   */\n      0x02\n        /* \"#utility.yul\":5146:5151   */\n      dup2\n        /* \"#utility.yul\":5143:5155   */\n      lt\n        /* \"#utility.yul\":5133:5135   */\n      tag_140\n      jumpi\n        /* \"#utility.yul\":5159:5177   */\n      tag_141\n      tag_135\n      jump\t// in\n    tag_141:\n        /* \"#utility.yul\":5133:5135   */\n    tag_140:\n        /* \"#utility.yul\":5123:5185   */\n      pop\n      jump\t// out\n\n    auxdata: 0xa2646970667358221220648718b8639408d5ee4f7e8e98616db5890a735925ea6d16061978e1eb33b72264736f6c63430008040033\n}\n",
				"bytecode": {
					"linkReferences": {},
					"object": "60806040526003600160006101000a81548160ff021916908360ff1602179055507fffffffffffffffffffffffffffffffffffffffffffffffffffffffffffffffe0600360006101000a81548160ff021916908360000b60ff16021790555060416004556040518060400160405280600f81526020017f4573746f206573207075626c69636f0000000000000000000000000000000000815250600690805190602001906100ae929190610201565b506040518060400160405280600f81526020017f4573746f20657320707269766164610000000000000000000000000000000000815250600790805190602001906100fa929190610201565b506001600860016101000a81548160ff0219169083151502179055506000600860026101000a81548160ff021916908315150217905550604051602001610140906102c7565b60405160208183030381529060405280519060200120600b55735b38da6a701c568545dcfcb03fcb875f56beddc4600d60006101000a81548173ffffffffffffffffffffffffffffffffffffffff021916908373ffffffffffffffffffffffffffffffffffffffff16021790555033600e60006101000a81548173ffffffffffffffffffffffffffffffffffffffff021916908373ffffffffffffffffffffffffffffffffffffffff1602179055503480156101fb57600080fd5b50610371565b82805461020d906102e7565b90600052602060002090601f01602090048101928261022f5760008555610276565b82601f1061024857805160ff1916838001178555610276565b82800160010185558215610276579182015b8281111561027557825182559160200191906001019061025a565b5b5090506102839190610287565b5090565b5b808211156102a0576000816000905550600101610288565b5090565b60006102b1600c836102dc565b91506102bc82610348565b600c82019050919050565b60006102d2826102a4565b9150819050919050565b600081905092915050565b600060028204905060018216806102ff57607f821691505b6020821081141561031357610312610319565b5b50919050565b7f4e487b7100000000000000000000000000000000000000000000000000000000600052602260045260246000fd5b7f486f6c612070656e64656a6f0000000000000000000000000000000000000000600082015250565b610695806103806000396000f3fe608060405234801561001057600080fd5b506004361061009e5760003560e01c80639eea4a3a116100665780639eea4a3a14610139578063af10c81014610157578063b83d07b714610161578063ba33ed7d1461017f578063cd97d84e146101895761009e565b8063312eef29146100a35780633c8279d2146100c15780634df7e3d0146100df5780637272eea1146100fd5780638a054ac21461011b575b600080fd5b6100ab6101a7565b6040516100b8919061042b565b60405180910390f35b6100c96101ba565b6040516100d69190610410565b60405180910390f35b6100e76101e0565b6040516100f491906104b9565b60405180910390f35b6101056101f3565b6040516101129190610461565b60405180910390f35b61012361020a565b604051610130919061047c565b60405180910390f35b61014161021d565b60405161014e9190610410565b60405180910390f35b61015f610243565b005b610169610296565b6040516101769190610497565b60405180910390f35b610187610324565b005b610191610377565b60405161019e9190610446565b60405180910390f35b600860019054906101000a900460ff1681565b600d60009054906101000a900473ffffffffffffffffffffffffffffffffffffffff1681565b600160009054906101000a900460ff1681565b6000600e60149054906101000a900460ff16905090565b600360009054906101000a900460000b81565b600e60009054906101000a900473ffffffffffffffffffffffffffffffffffffffff1681565b6001600e60146101000a81548160ff0219169083600181111561028f577f4e487b7100000000000000000000000000000000000000000000000000000000600052602160045260246000fd5b0217905550565b600680546102a3906105aa565b80601f01602080910402602001604051908101604052809291908181526020018280546102cf906105aa565b801561031c5780601f106102f15761010080835404028352916020019161031c565b820191906000526020600020905b8154815290600101906020018083116102ff57829003601f168201915b505050505081565b6000600e60146101000a81548160ff02191690836001811115610370577f4e487b7100000000000000000000000000000000000000000000000000000000600052602160045260246000fd5b0217905550565b600b5481565b610386816104f0565b82525050565b61039581610502565b82525050565b6103a48161050e565b82525050565b6103b381610565565b82525050565b6103c28161052b565b82525050565b60006103d3826104d4565b6103dd81856104df565b93506103ed818560208601610577565b6103f68161063a565b840191505092915050565b61040a81610558565b82525050565b6000602082019050610425600083018461037d565b92915050565b6000602082019050610440600083018461038c565b92915050565b600060208201905061045b600083018461039b565b92915050565b600060208201905061047660008301846103aa565b92915050565b600060208201905061049160008301846103b9565b92915050565b600060208201905081810360008301526104b181846103c8565b905092915050565b60006020820190506104ce6000830184610401565b92915050565b600081519050919050565b600082825260208201905092915050565b60006104fb82610538565b9050919050565b60008115159050919050565b6000819050919050565b60008190506105268261064b565b919050565b60008160000b9050919050565b600073ffffffffffffffffffffffffffffffffffffffff82169050919050565b600060ff82169050919050565b600061057082610518565b9050919050565b60005b8381101561059557808201518184015260208101905061057a565b838111156105a4576000848401525b50505050565b600060028204905060018216806105c257607f821691505b602082108114156105d6576105d561060b565b5b50919050565b7f4e487b7100000000000000000000000000000000000000000000000000000000600052602160045260246000fd5b7f4e487b7100000000000000000000000000000000000000000000000000000000600052602260045260246000fd5b6000601f19601f8301169050919050565b6002811061065c5761065b6105dc565b5b5056fea2646970667358221220648718b8639408d5ee4f7e8e98616db5890a735925ea6d16061978e1eb33b72264736f6c63430008040033",
					"opcodes": "PUSH1 0x80 PUSH1 0x40 MSTORE PUSH1 0x3 PUSH1 0x1 PUSH1 0x0 PUSH2 0x100 EXP DUP2 SLOAD DUP2 PUSH1 0xFF MUL NOT AND SWAP1 DUP4 PUSH1 0xFF AND MUL OR SWAP1 SSTORE POP PUSH32 0xFFFFFFFFFFFFFFFFFFFFFFFFFFFFFFFFFFFFFFFFFFFFFFFFFFFFFFFFFFFFFFE0 PUSH1 0x3 PUSH1 0x0 PUSH2 0x100 EXP DUP2 SLOAD DUP2 PUSH1 0xFF MUL NOT AND SWAP1 DUP4 PUSH1 0x0 SIGNEXTEND PUSH1 0xFF AND MUL OR SWAP1 SSTORE POP PUSH1 0x41 PUSH1 0x4 SSTORE PUSH1 0x40 MLOAD DUP1 PUSH1 0x40 ADD PUSH1 0x40 MSTORE DUP1 PUSH1 0xF DUP2 MSTORE PUSH1 0x20 ADD PUSH32 0x4573746F206573207075626C69636F0000000000000000000000000000000000 DUP2 MSTORE POP PUSH1 0x6 SWAP1 DUP1 MLOAD SWAP1 PUSH1 0x20 ADD SWAP1 PUSH2 0xAE SWAP3 SWAP2 SWAP1 PUSH2 0x201 JUMP JUMPDEST POP PUSH1 0x40 MLOAD DUP1 PUSH1 0x40 ADD PUSH1 0x40 MSTORE DUP1 PUSH1 0xF DUP2 MSTORE PUSH1 0x20 ADD PUSH32 0x4573746F20657320707269766164610000000000000000000000000000000000 DUP2 MSTORE POP PUSH1 0x7 SWAP1 DUP1 MLOAD SWAP1 PUSH1 0x20 ADD SWAP1 PUSH2 0xFA SWAP3 SWAP2 SWAP1 PUSH2 0x201 JUMP JUMPDEST POP PUSH1 0x1 PUSH1 0x8 PUSH1 0x1 PUSH2 0x100 EXP DUP2 SLOAD DUP2 PUSH1 0xFF MUL NOT AND SWAP1 DUP4 ISZERO ISZERO MUL OR SWAP1 SSTORE POP PUSH1 0x0 PUSH1 0x8 PUSH1 0x2 PUSH2 0x100 EXP DUP2 SLOAD DUP2 PUSH1 0xFF MUL NOT AND SWAP1 DUP4 ISZERO ISZERO MUL OR SWAP1 SSTORE POP PUSH1 0x40 MLOAD PUSH1 0x20 ADD PUSH2 0x140 SWAP1 PUSH2 0x2C7 JUMP JUMPDEST PUSH1 0x40 MLOAD PUSH1 0x20 DUP2 DUP4 SUB SUB DUP2 MSTORE SWAP1 PUSH1 0x40 MSTORE DUP1 MLOAD SWAP1 PUSH1 0x20 ADD KECCAK256 PUSH1 0xB SSTORE PUSH20 0x5B38DA6A701C568545DCFCB03FCB875F56BEDDC4 PUSH1 0xD PUSH1 0x0 PUSH2 0x100 EXP DUP2 SLOAD DUP2 PUSH20 0xFFFFFFFFFFFFFFFFFFFFFFFFFFFFFFFFFFFFFFFF MUL NOT AND SWAP1 DUP4 PUSH20 0xFFFFFFFFFFFFFFFFFFFFFFFFFFFFFFFFFFFFFFFF AND MUL OR SWAP1 SSTORE POP CALLER PUSH1 0xE PUSH1 0x0 PUSH2 0x100 EXP DUP2 SLOAD DUP2 PUSH20 0xFFFFFFFFFFFFFFFFFFFFFFFFFFFFFFFFFFFFFFFF MUL NOT AND SWAP1 DUP4 PUSH20 0xFFFFFFFFFFFFFFFFFFFFFFFFFFFFFFFFFFFFFFFF AND MUL OR SWAP1 SSTORE POP CALLVALUE DUP1 ISZERO PUSH2 0x1FB JUMPI PUSH1 0x0 DUP1 REVERT JUMPDEST POP PUSH2 0x371 JUMP JUMPDEST DUP3 DUP1 SLOAD PUSH2 0x20D SWAP1 PUSH2 0x2E7 JUMP JUMPDEST SWAP1 PUSH1 0x0 MSTORE PUSH1 0x20 PUSH1 0x0 KECCAK256 SWAP1 PUSH1 0x1F ADD PUSH1 0x20 SWAP1 DIV DUP2 ADD SWAP3 DUP3 PUSH2 0x22F JUMPI PUSH1 0x0 DUP6 SSTORE PUSH2 0x276 JUMP JUMPDEST DUP3 PUSH1 0x1F LT PUSH2 0x248 JUMPI DUP1 MLOAD PUSH1 0xFF NOT AND DUP4 DUP1 ADD OR DUP6 SSTORE PUSH2 0x276 JUMP JUMPDEST DUP3 DUP1 ADD PUSH1 0x1 ADD DUP6 SSTORE DUP3 ISZERO PUSH2 0x276 JUMPI SWAP2 DUP3 ADD JUMPDEST DUP3 DUP2 GT ISZERO PUSH2 0x275 JUMPI DUP3 MLOAD DUP3 SSTORE SWAP2 PUSH1 0x20 ADD SWAP2 SWAP1 PUSH1 0x1 ADD SWAP1 PUSH2 0x25A JUMP JUMPDEST JUMPDEST POP SWAP1 POP PUSH2 0x283 SWAP2 SWAP1 PUSH2 0x287 JUMP JUMPDEST POP SWAP1 JUMP JUMPDEST JUMPDEST DUP1 DUP3 GT ISZERO PUSH2 0x2A0 JUMPI PUSH1 0x0 DUP2 PUSH1 0x0 SWAP1 SSTORE POP PUSH1 0x1 ADD PUSH2 0x288 JUMP JUMPDEST POP SWAP1 JUMP JUMPDEST PUSH1 0x0 PUSH2 0x2B1 PUSH1 0xC DUP4 PUSH2 0x2DC JUMP JUMPDEST SWAP2 POP PUSH2 0x2BC DUP3 PUSH2 0x348 JUMP JUMPDEST PUSH1 0xC DUP3 ADD SWAP1 POP SWAP2 SWAP1 POP JUMP JUMPDEST PUSH1 0x0 PUSH2 0x2D2 DUP3 PUSH2 0x2A4 JUMP JUMPDEST SWAP2 POP DUP2 SWAP1 POP SWAP2 SWAP1 POP JUMP JUMPDEST PUSH1 0x0 DUP2 SWAP1 POP SWAP3 SWAP2 POP POP JUMP JUMPDEST PUSH1 0x0 PUSH1 0x2 DUP3 DIV SWAP1 POP PUSH1 0x1 DUP3 AND DUP1 PUSH2 0x2FF JUMPI PUSH1 0x7F DUP3 AND SWAP2 POP JUMPDEST PUSH1 0x20 DUP3 LT DUP2 EQ ISZERO PUSH2 0x313 JUMPI PUSH2 0x312 PUSH2 0x319 JUMP JUMPDEST JUMPDEST POP SWAP2 SWAP1 POP JUMP JUMPDEST PUSH32 0x4E487B7100000000000000000000000000000000000000000000000000000000 PUSH1 0x0 MSTORE PUSH1 0x22 PUSH1 0x4 MSTORE PUSH1 0x24 PUSH1 0x0 REVERT JUMPDEST PUSH32 0x486F6C612070656E64656A6F0000000000000000000000000000000000000000 PUSH1 0x0 DUP3 ADD MSTORE POP JUMP JUMPDEST PUSH2 0x695 DUP1 PUSH2 0x380 PUSH1 0x0 CODECOPY PUSH1 0x0 RETURN INVALID PUSH1 0x80 PUSH1 0x40 MSTORE CALLVALUE DUP1 ISZERO PUSH2 0x10 JUMPI PUSH1 0x0 DUP1 REVERT JUMPDEST POP PUSH1 0x4 CALLDATASIZE LT PUSH2 0x9E JUMPI PUSH1 0x0 CALLDATALOAD PUSH1 0xE0 SHR DUP1 PUSH4 0x9EEA4A3A GT PUSH2 0x66 JUMPI DUP1 PUSH4 0x9EEA4A3A EQ PUSH2 0x139 JUMPI DUP1 PUSH4 0xAF10C810 EQ PUSH2 0x157 JUMPI DUP1 PUSH4 0xB83D07B7 EQ PUSH2 0x161 JUMPI DUP1 PUSH4 0xBA33ED7D EQ PUSH2 0x17F JUMPI DUP1 PUSH4 0xCD97D84E EQ PUSH2 0x189 JUMPI PUSH2 0x9E JUMP JUMPDEST DUP1 PUSH4 0x312EEF29 EQ PUSH2 0xA3 JUMPI DUP1 PUSH4 0x3C8279D2 EQ PUSH2 0xC1 JUMPI DUP1 PUSH4 0x4DF7E3D0 EQ PUSH2 0xDF JUMPI DUP1 PUSH4 0x7272EEA1 EQ PUSH2 0xFD JUMPI DUP1 PUSH4 0x8A054AC2 EQ PUSH2 0x11B JUMPI JUMPDEST PUSH1 0x0 DUP1 REVERT JUMPDEST PUSH2 0xAB PUSH2 0x1A7 JUMP JUMPDEST PUSH1 0x40 MLOAD PUSH2 0xB8 SWAP2 SWAP1 PUSH2 0x42B JUMP JUMPDEST PUSH1 0x40 MLOAD DUP1 SWAP2 SUB SWAP1 RETURN JUMPDEST PUSH2 0xC9 PUSH2 0x1BA JUMP JUMPDEST PUSH1 0x40 MLOAD PUSH2 0xD6 SWAP2 SWAP1 PUSH2 0x410 JUMP JUMPDEST PUSH1 0x40 MLOAD DUP1 SWAP2 SUB SWAP1 RETURN JUMPDEST PUSH2 0xE7 PUSH2 0x1E0 JUMP JUMPDEST PUSH1 0x40 MLOAD PUSH2 0xF4 SWAP2 SWAP1 PUSH2 0x4B9 JUMP JUMPDEST PUSH1 0x40 MLOAD DUP1 SWAP2 SUB SWAP1 RETURN JUMPDEST PUSH2 0x105 PUSH2 0x1F3 JUMP JUMPDEST PUSH1 0x40 MLOAD PUSH2 0x112 SWAP2 SWAP1 PUSH2 0x461 JUMP JUMPDEST PUSH1 0x40 MLOAD DUP1 SWAP2 SUB SWAP1 RETURN JUMPDEST PUSH2 0x123 PUSH2 0x20A JUMP JUMPDEST PUSH1 0x40 MLOAD PUSH2 0x130 SWAP2 SWAP1 PUSH2 0x47C JUMP JUMPDEST PUSH1 0x40 MLOAD DUP1 SWAP2 SUB SWAP1 RETURN JUMPDEST PUSH2 0x141 PUSH2 0x21D JUMP JUMPDEST PUSH1 0x40 MLOAD PUSH2 0x14E SWAP2 SWAP1 PUSH2 0x410 JUMP JUMPDEST PUSH1 0x40 MLOAD DUP1 SWAP2 SUB SWAP1 RETURN JUMPDEST PUSH2 0x15F PUSH2 0x243 JUMP JUMPDEST STOP JUMPDEST PUSH2 0x169 PUSH2 0x296 JUMP JUMPDEST PUSH1 0x40 MLOAD PUSH2 0x176 SWAP2 SWAP1 PUSH2 0x497 JUMP JUMPDEST PUSH1 0x40 MLOAD DUP1 SWAP2 SUB SWAP1 RETURN JUMPDEST PUSH2 0x187 PUSH2 0x324 JUMP JUMPDEST STOP JUMPDEST PUSH2 0x191 PUSH2 0x377 JUMP JUMPDEST PUSH1 0x40 MLOAD PUSH2 0x19E SWAP2 SWAP1 PUSH2 0x446 JUMP JUMPDEST PUSH1 0x40 MLOAD DUP1 SWAP2 SUB SWAP1 RETURN JUMPDEST PUSH1 0x8 PUSH1 0x1 SWAP1 SLOAD SWAP1 PUSH2 0x100 EXP SWAP1 DIV PUSH1 0xFF AND DUP2 JUMP JUMPDEST PUSH1 0xD PUSH1 0x0 SWAP1 SLOAD SWAP1 PUSH2 0x100 EXP SWAP1 DIV PUSH20 0xFFFFFFFFFFFFFFFFFFFFFFFFFFFFFFFFFFFFFFFF AND DUP2 JUMP JUMPDEST PUSH1 0x1 PUSH1 0x0 SWAP1 SLOAD SWAP1 PUSH2 0x100 EXP SWAP1 DIV PUSH1 0xFF AND DUP2 JUMP JUMPDEST PUSH1 0x0 PUSH1 0xE PUSH1 0x14 SWAP1 SLOAD SWAP1 PUSH2 0x100 EXP SWAP1 DIV PUSH1 0xFF AND SWAP1 POP SWAP1 JUMP JUMPDEST PUSH1 0x3 PUSH1 0x0 SWAP1 SLOAD SWAP1 PUSH2 0x100 EXP SWAP1 DIV PUSH1 0x0 SIGNEXTEND DUP2 JUMP JUMPDEST PUSH1 0xE PUSH1 0x0 SWAP1 SLOAD SWAP1 PUSH2 0x100 EXP SWAP1 DIV PUSH20 0xFFFFFFFFFFFFFFFFFFFFFFFFFFFFFFFFFFFFFFFF AND DUP2 JUMP JUMPDEST PUSH1 0x1 PUSH1 0xE PUSH1 0x14 PUSH2 0x100 EXP DUP2 SLOAD DUP2 PUSH1 0xFF MUL NOT AND SWAP1 DUP4 PUSH1 0x1 DUP2 GT ISZERO PUSH2 0x28F JUMPI PUSH32 0x4E487B7100000000000000000000000000000000000000000000000000000000 PUSH1 0x0 MSTORE PUSH1 0x21 PUSH1 0x4 MSTORE PUSH1 0x24 PUSH1 0x0 REVERT JUMPDEST MUL OR SWAP1 SSTORE POP JUMP JUMPDEST PUSH1 0x6 DUP1 SLOAD PUSH2 0x2A3 SWAP1 PUSH2 0x5AA JUMP JUMPDEST DUP1 PUSH1 0x1F ADD PUSH1 0x20 DUP1 SWAP2 DIV MUL PUSH1 0x20 ADD PUSH1 0x40 MLOAD SWAP1 DUP2 ADD PUSH1 0x40 MSTORE DUP1 SWAP3 SWAP2 SWAP1 DUP2 DUP2 MSTORE PUSH1 0x20 ADD DUP3 DUP1 SLOAD PUSH2 0x2CF SWAP1 PUSH2 0x5AA JUMP JUMPDEST DUP1 ISZERO PUSH2 0x31C JUMPI DUP1 PUSH1 0x1F LT PUSH2 0x2F1 JUMPI PUSH2 0x100 DUP1 DUP4 SLOAD DIV MUL DUP4 MSTORE SWAP2 PUSH1 0x20 ADD SWAP2 PUSH2 0x31C JUMP JUMPDEST DUP3 ADD SWAP2 SWAP1 PUSH1 0x0 MSTORE PUSH1 0x20 PUSH1 0x0 KECCAK256 SWAP1 JUMPDEST DUP2 SLOAD DUP2 MSTORE SWAP1 PUSH1 0x1 ADD SWAP1 PUSH1 0x20 ADD DUP1 DUP4 GT PUSH2 0x2FF JUMPI DUP3 SWAP1 SUB PUSH1 0x1F AND DUP3 ADD SWAP2 JUMPDEST POP POP POP POP POP DUP2 JUMP JUMPDEST PUSH1 0x0 PUSH1 0xE PUSH1 0x14 PUSH2 0x100 EXP DUP2 SLOAD DUP2 PUSH1 0xFF MUL NOT AND SWAP1 DUP4 PUSH1 0x1 DUP2 GT ISZERO PUSH2 0x370 JUMPI PUSH32 0x4E487B7100000000000000000000000000000000000000000000000000000000 PUSH1 0x0 MSTORE PUSH1 0x21 PUSH1 0x4 MSTORE PUSH1 0x24 PUSH1 0x0 REVERT JUMPDEST MUL OR SWAP1 SSTORE POP JUMP JUMPDEST PUSH1 0xB SLOAD DUP2 JUMP JUMPDEST PUSH2 0x386 DUP2 PUSH2 0x4F0 JUMP JUMPDEST DUP3 MSTORE POP POP JUMP JUMPDEST PUSH2 0x395 DUP2 PUSH2 0x502 JUMP JUMPDEST DUP3 MSTORE POP POP JUMP JUMPDEST PUSH2 0x3A4 DUP2 PUSH2 0x50E JUMP JUMPDEST DUP3 MSTORE POP POP JUMP JUMPDEST PUSH2 0x3B3 DUP2 PUSH2 0x565 JUMP JUMPDEST DUP3 MSTORE POP POP JUMP JUMPDEST PUSH2 0x3C2 DUP2 PUSH2 0x52B JUMP JUMPDEST DUP3 MSTORE POP POP JUMP JUMPDEST PUSH1 0x0 PUSH2 0x3D3 DUP3 PUSH2 0x4D4 JUMP JUMPDEST PUSH2 0x3DD DUP2 DUP6 PUSH2 0x4DF JUMP JUMPDEST SWAP4 POP PUSH2 0x3ED DUP2 DUP6 PUSH1 0x20 DUP7 ADD PUSH2 0x577 JUMP JUMPDEST PUSH2 0x3F6 DUP2 PUSH2 0x63A JUMP JUMPDEST DUP5 ADD SWAP2 POP POP SWAP3 SWAP2 POP POP JUMP JUMPDEST PUSH2 0x40A DUP2 PUSH2 0x558 JUMP JUMPDEST DUP3 MSTORE POP POP JUMP JUMPDEST PUSH1 0x0 PUSH1 0x20 DUP3 ADD SWAP1 POP PUSH2 0x425 PUSH1 0x0 DUP4 ADD DUP5 PUSH2 0x37D JUMP JUMPDEST SWAP3 SWAP2 POP POP JUMP JUMPDEST PUSH1 0x0 PUSH1 0x20 DUP3 ADD SWAP1 POP PUSH2 0x440 PUSH1 0x0 DUP4 ADD DUP5 PUSH2 0x38C JUMP JUMPDEST SWAP3 SWAP2 POP POP JUMP JUMPDEST PUSH1 0x0 PUSH1 0x20 DUP3 ADD SWAP1 POP PUSH2 0x45B PUSH1 0x0 DUP4 ADD DUP5 PUSH2 0x39B JUMP JUMPDEST SWAP3 SWAP2 POP POP JUMP JUMPDEST PUSH1 0x0 PUSH1 0x20 DUP3 ADD SWAP1 POP PUSH2 0x476 PUSH1 0x0 DUP4 ADD DUP5 PUSH2 0x3AA JUMP JUMPDEST SWAP3 SWAP2 POP POP JUMP JUMPDEST PUSH1 0x0 PUSH1 0x20 DUP3 ADD SWAP1 POP PUSH2 0x491 PUSH1 0x0 DUP4 ADD DUP5 PUSH2 0x3B9 JUMP JUMPDEST SWAP3 SWAP2 POP POP JUMP JUMPDEST PUSH1 0x0 PUSH1 0x20 DUP3 ADD SWAP1 POP DUP2 DUP2 SUB PUSH1 0x0 DUP4 ADD MSTORE PUSH2 0x4B1 DUP2 DUP5 PUSH2 0x3C8 JUMP JUMPDEST SWAP1 POP SWAP3 SWAP2 POP POP JUMP JUMPDEST PUSH1 0x0 PUSH1 0x20 DUP3 ADD SWAP1 POP PUSH2 0x4CE PUSH1 0x0 DUP4 ADD DUP5 PUSH2 0x401 JUMP JUMPDEST SWAP3 SWAP2 POP POP JUMP JUMPDEST PUSH1 0x0 DUP2 MLOAD SWAP1 POP SWAP2 SWAP1 POP JUMP JUMPDEST PUSH1 0x0 DUP3 DUP3 MSTORE PUSH1 0x20 DUP3 ADD SWAP1 POP SWAP3 SWAP2 POP POP JUMP JUMPDEST PUSH1 0x0 PUSH2 0x4FB DUP3 PUSH2 0x538 JUMP JUMPDEST SWAP1 POP SWAP2 SWAP1 POP JUMP JUMPDEST PUSH1 0x0 DUP2 ISZERO ISZERO SWAP1 POP SWAP2 SWAP1 POP JUMP JUMPDEST PUSH1 0x0 DUP2 SWAP1 POP SWAP2 SWAP1 POP JUMP JUMPDEST PUSH1 0x0 DUP2 SWAP1 POP PUSH2 0x526 DUP3 PUSH2 0x64B JUMP JUMPDEST SWAP2 SWAP1 POP JUMP JUMPDEST PUSH1 0x0 DUP2 PUSH1 0x0 SIGNEXTEND SWAP1 POP SWAP2 SWAP1 POP JUMP JUMPDEST PUSH1 0x0 PUSH20 0xFFFFFFFFFFFFFFFFFFFFFFFFFFFFFFFFFFFFFFFF DUP3 AND SWAP1 POP SWAP2 SWAP1 POP JUMP JUMPDEST PUSH1 0x0 PUSH1 0xFF DUP3 AND SWAP1 POP SWAP2 SWAP1 POP JUMP JUMPDEST PUSH1 0x0 PUSH2 0x570 DUP3 PUSH2 0x518 JUMP JUMPDEST SWAP1 POP SWAP2 SWAP1 POP JUMP JUMPDEST PUSH1 0x0 JUMPDEST DUP4 DUP2 LT ISZERO PUSH2 0x595 JUMPI DUP1 DUP3 ADD MLOAD DUP2 DUP5 ADD MSTORE PUSH1 0x20 DUP2 ADD SWAP1 POP PUSH2 0x57A JUMP JUMPDEST DUP4 DUP2 GT ISZERO PUSH2 0x5A4 JUMPI PUSH1 0x0 DUP5 DUP5 ADD MSTORE JUMPDEST POP POP POP POP JUMP JUMPDEST PUSH1 0x0 PUSH1 0x2 DUP3 DIV SWAP1 POP PUSH1 0x1 DUP3 AND DUP1 PUSH2 0x5C2 JUMPI PUSH1 0x7F DUP3 AND SWAP2 POP JUMPDEST PUSH1 0x20 DUP3 LT DUP2 EQ ISZERO PUSH2 0x5D6 JUMPI PUSH2 0x5D5 PUSH2 0x60B JUMP JUMPDEST JUMPDEST POP SWAP2 SWAP1 POP JUMP JUMPDEST PUSH32 0x4E487B7100000000000000000000000000000000000000000000000000000000 PUSH1 0x0 MSTORE PUSH1 0x21 PUSH1 0x4 MSTORE PUSH1 0x24 PUSH1 0x0 REVERT JUMPDEST PUSH32 0x4E487B7100000000000000000000000000000000000000000000000000000000 PUSH1 0x0 MSTORE PUSH1 0x22 PUSH1 0x4 MSTORE PUSH1 0x24 PUSH1 0x0 REVERT JUMPDEST PUSH1 0x0 PUSH1 0x1F NOT PUSH1 0x1F DUP4 ADD AND SWAP1 POP SWAP2 SWAP1 POP JUMP JUMPDEST PUSH1 0x2 DUP2 LT PUSH2 0x65C JUMPI PUSH2 0x65B PUSH2 0x5DC JUMP JUMPDEST JUMPDEST POP JUMP INVALID LOG2 PUSH5 0x6970667358 0x22 SLT KECCAK256 PUSH5 0x8718B86394 ADDMOD 0xD5 0xEE 0x4F PUSH31 0x8E98616DB5890A735925EA6D16061978E1EB33B72264736F6C634300080400 CALLER "
				},
				"gasEstimates": {
					"creation": {
						"codeDepositCost": "337000",
						"executionCost": "infinite",
						"totalCost": "infinite"
					},
					"external": {
						"address2()": "1214",
						"addressa()": "1237",
						"b()": "1216",
						"boolean_true()": "1222",
						"d()": "1264",
						"displayState()": "1385",
						"hashing()": "1217",
						"str_public()": "infinite",
						"turnOff()": "21103",
						"turnOn()": "21147"
					}
				},
				"methodIdentifiers": {
					"address2()": "9eea4a3a",
					"addressa()": "3c8279d2",
					"b()": "4df7e3d0",
					"boolean_true()": "312eef29",
					"d()": "8a054ac2",
					"displayState()": "7272eea1",
					"hashing()": "cd97d84e",
					"str_public()": "b83d07b7",
					"turnOff()": "af10c810",
					"turnOn()": "ba33ed7d"
				}
			},
			"storageLayout": {
				"storage": [
					{
						"astId": 3,
						"contract": "primerContrato/Smart_Contracts/2_variables_modificadores.sol:variables_modicadores",
						"label": "a",
						"offset": 0,
						"slot": "0",
						"type": "t_uint256"
					},
					{
						"astId": 6,
						"contract": "primerContrato/Smart_Contracts/2_variables_modificadores.sol:variables_modicadores",
						"label": "b",
						"offset": 0,
						"slot": "1",
						"type": "t_uint8"
					},
					{
						"astId": 8,
						"contract": "primerContrato/Smart_Contracts/2_variables_modificadores.sol:variables_modicadores",
						"label": "c",
						"offset": 0,
						"slot": "2",
						"type": "t_int256"
					},
					{
						"astId": 12,
						"contract": "primerContrato/Smart_Contracts/2_variables_modificadores.sol:variables_modicadores",
						"label": "d",
						"offset": 0,
						"slot": "3",
						"type": "t_int8"
					},
					{
						"astId": 15,
						"contract": "primerContrato/Smart_Contracts/2_variables_modificadores.sol:variables_modicadores",
						"label": "e",
						"offset": 0,
						"slot": "4",
						"type": "t_int256"
					},
					{
						"astId": 17,
						"contract": "primerContrato/Smart_Contracts/2_variables_modificadores.sol:variables_modicadores",
						"label": "str",
						"offset": 0,
						"slot": "5",
						"type": "t_string_storage"
					},
					{
						"astId": 20,
						"contract": "primerContrato/Smart_Contracts/2_variables_modificadores.sol:variables_modicadores",
						"label": "str_public",
						"offset": 0,
						"slot": "6",
						"type": "t_string_storage"
					},
					{
						"astId": 23,
						"contract": "primerContrato/Smart_Contracts/2_variables_modificadores.sol:variables_modicadores",
						"label": "str_private",
						"offset": 0,
						"slot": "7",
						"type": "t_string_storage"
					},
					{
						"astId": 25,
						"contract": "primerContrato/Smart_Contracts/2_variables_modificadores.sol:variables_modicadores",
						"label": "boolean",
						"offset": 0,
						"slot": "8",
						"type": "t_bool"
					},
					{
						"astId": 28,
						"contract": "primerContrato/Smart_Contracts/2_variables_modificadores.sol:variables_modicadores",
						"label": "boolean_true",
						"offset": 1,
						"slot": "8",
						"type": "t_bool"
					},
					{
						"astId": 31,
						"contract": "primerContrato/Smart_Contracts/2_variables_modificadores.sol:variables_modicadores",
						"label": "boolean_false",
						"offset": 2,
						"slot": "8",
						"type": "t_bool"
					},
					{
						"astId": 33,
						"contract": "primerContrato/Smart_Contracts/2_variables_modificadores.sol:variables_modicadores",
						"label": "first_bytes",
						"offset": 0,
						"slot": "9",
						"type": "t_bytes32"
					},
					{
						"astId": 35,
						"contract": "primerContrato/Smart_Contracts/2_variables_modificadores.sol:variables_modicadores",
						"label": "second_bytes",
						"offset": 0,
						"slot": "10",
						"type": "t_bytes4"
					},
					{
						"astId": 37,
						"contract": "primerContrato/Smart_Contracts/2_variables_modificadores.sol:variables_modicadores",
						"label": "byte_3",
						"offset": 4,
						"slot": "10",
						"type": "t_bytes1"
					},
					{
						"astId": 45,
						"contract": "primerContrato/Smart_Contracts/2_variables_modificadores.sol:variables_modicadores",
						"label": "hashing",
						"offset": 0,
						"slot": "11",
						"type": "t_bytes32"
					},
					{
						"astId": 47,
						"contract": "primerContrato/Smart_Contracts/2_variables_modificadores.sol:variables_modicadores",
						"label": "my_address",
						"offset": 0,
						"slot": "12",
						"type": "t_address"
					},
					{
						"astId": 50,
						"contract": "primerContrato/Smart_Contracts/2_variables_modificadores.sol:variables_modicadores",
						"label": "addressa",
						"offset": 0,
						"slot": "13",
						"type": "t_address"
					},
					{
						"astId": 54,
						"contract": "primerContrato/Smart_Contracts/2_variables_modificadores.sol:variables_modicadores",
						"label": "address2",
						"offset": 0,
						"slot": "14",
						"type": "t_address"
					},
					{
						"astId": 60,
						"contract": "primerContrato/Smart_Contracts/2_variables_modificadores.sol:variables_modicadores",
						"label": "state",
						"offset": 20,
						"slot": "14",
						"type": "t_enum(options)57"
					}
				],
				"types": {
					"t_address": {
						"encoding": "inplace",
						"label": "address",
						"numberOfBytes": "20"
					},
					"t_bool": {
						"encoding": "inplace",
						"label": "bool",
						"numberOfBytes": "1"
					},
					"t_bytes1": {
						"encoding": "inplace",
						"label": "bytes1",
						"numberOfBytes": "1"
					},
					"t_bytes32": {
						"encoding": "inplace",
						"label": "bytes32",
						"numberOfBytes": "32"
					},
					"t_bytes4": {
						"encoding": "inplace",
						"label": "bytes4",
						"numberOfBytes": "4"
					},
					"t_enum(options)57": {
						"encoding": "inplace",
						"label": "enum variables_modicadores.options",
						"numberOfBytes": "1"
					},
					"t_int256": {
						"encoding": "inplace",
						"label": "int256",
						"numberOfBytes": "32"
					},
					"t_int8": {
						"encoding": "inplace",
						"label": "int8",
						"numberOfBytes": "1"
					},
					"t_string_storage": {
						"encoding": "bytes",
						"label": "string",
						"numberOfBytes": "32"
					},
					"t_uint256": {
						"encoding": "inplace",
						"label": "uint256",
						"numberOfBytes": "32"
					},
					"t_uint8": {
						"encoding": "inplace",
						"label": "uint8",
						"numberOfBytes": "1"
					}
				}
			},
			"userdoc": {
				"kind": "user",
				"methods": {},
				"version": 1
			}
		}
	}
}