{
	"primerContrato/Smart_Contracts/8_bucles_condicionales.sol": {
		"loops_conditionals": {
			"abi": [
				{
					"inputs": [],
					"name": "odd",
					"outputs": [
						{
							"internalType": "uint256",
							"name": "",
							"type": "uint256"
						}
					],
					"stateMutability": "pure",
					"type": "function"
				},
				{
					"inputs": [
						{
							"internalType": "uint256",
							"name": "_number",
							"type": "uint256"
						}
					],
					"name": "sum",
					"outputs": [
						{
							"internalType": "uint256",
							"name": "",
							"type": "uint256"
						}
					],
					"stateMutability": "pure",
					"type": "function"
				},
				{
					"inputs": [
						{
							"internalType": "string",
							"name": "operation",
							"type": "string"
						},
						{
							"internalType": "uint256",
							"name": "a",
							"type": "uint256"
						},
						{
							"internalType": "uint256",
							"name": "b",
							"type": "uint256"
						}
					],
					"name": "sum_rest",
					"outputs": [
						{
							"internalType": "uint256",
							"name": "",
							"type": "uint256"
						}
					],
					"stateMutability": "pure",
					"type": "function"
				}
			],
			"devdoc": {
				"kind": "dev",
				"methods": {},
				"version": 1
			},
			"evm": {
				"assembly": "    /* \"primerContrato/Smart_Contracts/8_bucles_condicionales.sol\":60:1603  contract loops_conditionals { ... */\n  mstore(0x40, 0x80)\n  callvalue\n  dup1\n  iszero\n  tag_1\n  jumpi\n  0x00\n  dup1\n  revert\ntag_1:\n  pop\n  dataSize(sub_0)\n  dup1\n  dataOffset(sub_0)\n  0x00\n  codecopy\n  0x00\n  return\nstop\n\nsub_0: assembly {\n        /* \"primerContrato/Smart_Contracts/8_bucles_condicionales.sol\":60:1603  contract loops_conditionals { ... */\n      mstore(0x40, 0x80)\n      callvalue\n      dup1\n      iszero\n      tag_1\n      jumpi\n      0x00\n      dup1\n      revert\n    tag_1:\n      pop\n      jumpi(tag_2, lt(calldatasize, 0x04))\n      shr(0xe0, calldataload(0x00))\n      dup1\n      0x188b85b4\n      eq\n      tag_3\n      jumpi\n      dup1\n      0xafee9911\n      eq\n      tag_4\n      jumpi\n      dup1\n      0xc12363a2\n      eq\n      tag_5\n      jumpi\n    tag_2:\n      0x00\n      dup1\n      revert\n        /* \"primerContrato/Smart_Contracts/8_bucles_condicionales.sol\":172:429  function sum(uint _number)public pure returns(uint) {... */\n    tag_3:\n      tag_6\n      0x04\n      dup1\n      calldatasize\n      sub\n      dup2\n      add\n      swap1\n      tag_7\n      swap2\n      swap1\n      tag_8\n      jump\t// in\n    tag_7:\n      tag_9\n      jump\t// in\n    tag_6:\n      mload(0x40)\n      tag_10\n      swap2\n      swap1\n      tag_11\n      jump\t// in\n    tag_10:\n      mload(0x40)\n      dup1\n      swap2\n      sub\n      swap1\n      return\n        /* \"primerContrato/Smart_Contracts/8_bucles_condicionales.sol\":916:1594  function sum_rest(string memory operation, uint a,uint b) public pure returns(uint) {... */\n    tag_4:\n      tag_12\n      0x04\n      dup1\n      calldatasize\n      sub\n      dup2\n      add\n      swap1\n      tag_13\n      swap2\n      swap1\n      tag_14\n      jump\t// in\n    tag_13:\n      tag_15\n      jump\t// in\n    tag_12:\n      mload(0x40)\n      tag_16\n      swap2\n      swap1\n      tag_11\n      jump\t// in\n    tag_16:\n      mload(0x40)\n      dup1\n      swap2\n      sub\n      swap1\n      return\n        /* \"primerContrato/Smart_Contracts/8_bucles_condicionales.sol\":487:907  function odd() public pure returns (uint) {... */\n    tag_5:\n      tag_17\n      tag_18\n      jump\t// in\n    tag_17:\n      mload(0x40)\n      tag_19\n      swap2\n      swap1\n      tag_11\n      jump\t// in\n    tag_19:\n      mload(0x40)\n      dup1\n      swap2\n      sub\n      swap1\n      return\n        /* \"primerContrato/Smart_Contracts/8_bucles_condicionales.sol\":172:429  function sum(uint _number)public pure returns(uint) {... */\n    tag_9:\n        /* \"primerContrato/Smart_Contracts/8_bucles_condicionales.sol\":218:222  uint */\n      0x00\n        /* \"primerContrato/Smart_Contracts/8_bucles_condicionales.sol\":267:279  uint aux_sum */\n      dup1\n        /* \"primerContrato/Smart_Contracts/8_bucles_condicionales.sol\":282:283  0 */\n      0x00\n        /* \"primerContrato/Smart_Contracts/8_bucles_condicionales.sol\":267:283  uint aux_sum = 0 */\n      swap1\n      pop\n        /* \"primerContrato/Smart_Contracts/8_bucles_condicionales.sol\":314:320  uint i */\n      0x00\n        /* \"primerContrato/Smart_Contracts/8_bucles_condicionales.sol\":323:330  _number */\n      dup4\n        /* \"primerContrato/Smart_Contracts/8_bucles_condicionales.sol\":314:330  uint i = _number */\n      swap1\n      pop\n        /* \"primerContrato/Smart_Contracts/8_bucles_condicionales.sol\":309:396  for (uint i = _number; i < (10 + _number); i++){... */\n    tag_21:\n        /* \"primerContrato/Smart_Contracts/8_bucles_condicionales.sol\":342:349  _number */\n      dup4\n        /* \"primerContrato/Smart_Contracts/8_bucles_condicionales.sol\":337:339  10 */\n      0x0a\n        /* \"primerContrato/Smart_Contracts/8_bucles_condicionales.sol\":337:349  10 + _number */\n      tag_24\n      swap2\n      swap1\n      tag_25\n      jump\t// in\n    tag_24:\n        /* \"primerContrato/Smart_Contracts/8_bucles_condicionales.sol\":332:333  i */\n      dup2\n        /* \"primerContrato/Smart_Contracts/8_bucles_condicionales.sol\":332:350  i < (10 + _number) */\n      lt\n        /* \"primerContrato/Smart_Contracts/8_bucles_condicionales.sol\":309:396  for (uint i = _number; i < (10 + _number); i++){... */\n      iszero\n      tag_22\n      jumpi\n        /* \"primerContrato/Smart_Contracts/8_bucles_condicionales.sol\":387:388  i */\n      dup1\n        /* \"primerContrato/Smart_Contracts/8_bucles_condicionales.sol\":377:384  aux_sum */\n      dup3\n        /* \"primerContrato/Smart_Contracts/8_bucles_condicionales.sol\":377:388  aux_sum + i */\n      tag_26\n      swap2\n      swap1\n      tag_25\n      jump\t// in\n    tag_26:\n        /* \"primerContrato/Smart_Contracts/8_bucles_condicionales.sol\":367:388  aux_sum = aux_sum + i */\n      swap2\n      pop\n        /* \"primerContrato/Smart_Contracts/8_bucles_condicionales.sol\":352:355  i++ */\n      dup1\n      dup1\n      tag_27\n      swap1\n      tag_28\n      jump\t// in\n    tag_27:\n      swap2\n      pop\n      pop\n        /* \"primerContrato/Smart_Contracts/8_bucles_condicionales.sol\":309:396  for (uint i = _number; i < (10 + _number); i++){... */\n      jump(tag_21)\n    tag_22:\n      pop\n        /* \"primerContrato/Smart_Contracts/8_bucles_condicionales.sol\":412:419  aux_sum */\n      dup1\n        /* \"primerContrato/Smart_Contracts/8_bucles_condicionales.sol\":405:419  return aux_sum */\n      swap2\n      pop\n      pop\n        /* \"primerContrato/Smart_Contracts/8_bucles_condicionales.sol\":172:429  function sum(uint _number)public pure returns(uint) {... */\n      swap2\n      swap1\n      pop\n      jump\t// out\n        /* \"primerContrato/Smart_Contracts/8_bucles_condicionales.sol\":916:1594  function sum_rest(string memory operation, uint a,uint b) public pure returns(uint) {... */\n    tag_15:\n        /* \"primerContrato/Smart_Contracts/8_bucles_condicionales.sol\":994:998  uint */\n      0x00\n        /* \"primerContrato/Smart_Contracts/8_bucles_condicionales.sol\":1021:1043  bytes32 hash_operation */\n      dup1\n        /* \"primerContrato/Smart_Contracts/8_bucles_condicionales.sol\":1073:1082  operation */\n      dup5\n        /* \"primerContrato/Smart_Contracts/8_bucles_condicionales.sol\":1056:1083  abi.encodePacked(operation) */\n      add(0x20, mload(0x40))\n      tag_30\n      swap2\n      swap1\n      tag_31\n      jump\t// in\n    tag_30:\n      mload(0x40)\n      0x20\n      dup2\n      dup4\n      sub\n      sub\n      dup2\n      mstore\n      swap1\n      0x40\n      mstore\n        /* \"primerContrato/Smart_Contracts/8_bucles_condicionales.sol\":1046:1084  keccak256(abi.encodePacked(operation)) */\n      dup1\n      mload\n      swap1\n      0x20\n      add\n      keccak256\n        /* \"primerContrato/Smart_Contracts/8_bucles_condicionales.sol\":1021:1084  bytes32 hash_operation = keccak256(abi.encodePacked(operation)) */\n      swap1\n      pop\n        /* \"primerContrato/Smart_Contracts/8_bucles_condicionales.sol\":1127:1151  abi.encodePacked(\"suma\") */\n      add(0x20, mload(0x40))\n      tag_32\n      swap1\n      tag_33\n      jump\t// in\n    tag_32:\n      mload(0x40)\n      0x20\n      dup2\n      dup4\n      sub\n      sub\n      dup2\n      mstore\n      swap1\n      0x40\n      mstore\n        /* \"primerContrato/Smart_Contracts/8_bucles_condicionales.sol\":1117:1152  keccak256(abi.encodePacked(\"suma\")) */\n      dup1\n      mload\n      swap1\n      0x20\n      add\n      keccak256\n        /* \"primerContrato/Smart_Contracts/8_bucles_condicionales.sol\":1099:1113  hash_operation */\n      dup2\n        /* \"primerContrato/Smart_Contracts/8_bucles_condicionales.sol\":1099:1152  hash_operation == keccak256(abi.encodePacked(\"suma\")) */\n      sub\n        /* \"primerContrato/Smart_Contracts/8_bucles_condicionales.sol\":1095:1587  if (hash_operation == keccak256(abi.encodePacked(\"suma\"))){... */\n      tag_34\n      jumpi\n        /* \"primerContrato/Smart_Contracts/8_bucles_condicionales.sol\":1177:1178  b */\n      dup3\n        /* \"primerContrato/Smart_Contracts/8_bucles_condicionales.sol\":1175:1176  a */\n      dup5\n        /* \"primerContrato/Smart_Contracts/8_bucles_condicionales.sol\":1175:1178  a+b */\n      tag_35\n      swap2\n      swap1\n      tag_25\n      jump\t// in\n    tag_35:\n        /* \"primerContrato/Smart_Contracts/8_bucles_condicionales.sol\":1168:1178  return a+b */\n      swap2\n      pop\n      pop\n      jump(tag_29)\n        /* \"primerContrato/Smart_Contracts/8_bucles_condicionales.sol\":1095:1587  if (hash_operation == keccak256(abi.encodePacked(\"suma\"))){... */\n    tag_34:\n        /* \"primerContrato/Smart_Contracts/8_bucles_condicionales.sol\":1237:1262  abi.encodePacked(\"resta\") */\n      add(0x20, mload(0x40))\n      tag_37\n      swap1\n      tag_38\n      jump\t// in\n    tag_37:\n      mload(0x40)\n      0x20\n      dup2\n      dup4\n      sub\n      sub\n      dup2\n      mstore\n      swap1\n      0x40\n      mstore\n        /* \"primerContrato/Smart_Contracts/8_bucles_condicionales.sol\":1227:1263  keccak256(abi.encodePacked(\"resta\")) */\n      dup1\n      mload\n      swap1\n      0x20\n      add\n      keccak256\n        /* \"primerContrato/Smart_Contracts/8_bucles_condicionales.sol\":1209:1223  hash_operation */\n      dup2\n        /* \"primerContrato/Smart_Contracts/8_bucles_condicionales.sol\":1209:1263  hash_operation == keccak256(abi.encodePacked(\"resta\")) */\n      sub\n        /* \"primerContrato/Smart_Contracts/8_bucles_condicionales.sol\":1206:1587  if(hash_operation == keccak256(abi.encodePacked(\"resta\"))){... */\n      tag_39\n      jumpi\n        /* \"primerContrato/Smart_Contracts/8_bucles_condicionales.sol\":1288:1289  b */\n      dup3\n        /* \"primerContrato/Smart_Contracts/8_bucles_condicionales.sol\":1286:1287  a */\n      dup5\n        /* \"primerContrato/Smart_Contracts/8_bucles_condicionales.sol\":1286:1289  a-b */\n      tag_40\n      swap2\n      swap1\n      tag_41\n      jump\t// in\n    tag_40:\n        /* \"primerContrato/Smart_Contracts/8_bucles_condicionales.sol\":1279:1289  return a-b */\n      swap2\n      pop\n      pop\n      jump(tag_29)\n        /* \"primerContrato/Smart_Contracts/8_bucles_condicionales.sol\":1206:1587  if(hash_operation == keccak256(abi.encodePacked(\"resta\"))){... */\n    tag_39:\n        /* \"primerContrato/Smart_Contracts/8_bucles_condicionales.sol\":1347:1375  abi.encodePacked(\"division\") */\n      add(0x20, mload(0x40))\n      tag_43\n      swap1\n      tag_44\n      jump\t// in\n    tag_43:\n      mload(0x40)\n      0x20\n      dup2\n      dup4\n      sub\n      sub\n      dup2\n      mstore\n      swap1\n      0x40\n      mstore\n        /* \"primerContrato/Smart_Contracts/8_bucles_condicionales.sol\":1337:1376  keccak256(abi.encodePacked(\"division\")) */\n      dup1\n      mload\n      swap1\n      0x20\n      add\n      keccak256\n        /* \"primerContrato/Smart_Contracts/8_bucles_condicionales.sol\":1319:1333  hash_operation */\n      dup2\n        /* \"primerContrato/Smart_Contracts/8_bucles_condicionales.sol\":1319:1376  hash_operation == keccak256(abi.encodePacked(\"division\")) */\n      sub\n        /* \"primerContrato/Smart_Contracts/8_bucles_condicionales.sol\":1316:1587  if(hash_operation == keccak256(abi.encodePacked(\"division\"))){... */\n      tag_45\n      jumpi\n        /* \"primerContrato/Smart_Contracts/8_bucles_condicionales.sol\":1401:1402  b */\n      dup3\n        /* \"primerContrato/Smart_Contracts/8_bucles_condicionales.sol\":1399:1400  a */\n      dup5\n        /* \"primerContrato/Smart_Contracts/8_bucles_condicionales.sol\":1399:1402  a/b */\n      tag_46\n      swap2\n      swap1\n      tag_47\n      jump\t// in\n    tag_46:\n        /* \"primerContrato/Smart_Contracts/8_bucles_condicionales.sol\":1392:1402  return a/b */\n      swap2\n      pop\n      pop\n      jump(tag_29)\n        /* \"primerContrato/Smart_Contracts/8_bucles_condicionales.sol\":1316:1587  if(hash_operation == keccak256(abi.encodePacked(\"division\"))){... */\n    tag_45:\n        /* \"primerContrato/Smart_Contracts/8_bucles_condicionales.sol\":1462:1496  abi.encodePacked(\"multiplicacion\") */\n      add(0x20, mload(0x40))\n      tag_49\n      swap1\n      tag_50\n      jump\t// in\n    tag_49:\n      mload(0x40)\n      0x20\n      dup2\n      dup4\n      sub\n      sub\n      dup2\n      mstore\n      swap1\n      0x40\n      mstore\n        /* \"primerContrato/Smart_Contracts/8_bucles_condicionales.sol\":1452:1497  keccak256(abi.encodePacked(\"multiplicacion\")) */\n      dup1\n      mload\n      swap1\n      0x20\n      add\n      keccak256\n        /* \"primerContrato/Smart_Contracts/8_bucles_condicionales.sol\":1434:1448  hash_operation */\n      dup2\n        /* \"primerContrato/Smart_Contracts/8_bucles_condicionales.sol\":1434:1497  hash_operation == keccak256(abi.encodePacked(\"multiplicacion\")) */\n      sub\n        /* \"primerContrato/Smart_Contracts/8_bucles_condicionales.sol\":1431:1587  if(hash_operation == keccak256(abi.encodePacked(\"multiplicacion\"))){... */\n      tag_51\n      jumpi\n        /* \"primerContrato/Smart_Contracts/8_bucles_condicionales.sol\":1522:1523  b */\n      dup3\n        /* \"primerContrato/Smart_Contracts/8_bucles_condicionales.sol\":1520:1521  a */\n      dup5\n        /* \"primerContrato/Smart_Contracts/8_bucles_condicionales.sol\":1520:1523  a*b */\n      tag_52\n      swap2\n      swap1\n      tag_53\n      jump\t// in\n    tag_52:\n        /* \"primerContrato/Smart_Contracts/8_bucles_condicionales.sol\":1513:1523  return a*b */\n      swap2\n      pop\n      pop\n      jump(tag_29)\n        /* \"primerContrato/Smart_Contracts/8_bucles_condicionales.sol\":1431:1587  if(hash_operation == keccak256(abi.encodePacked(\"multiplicacion\"))){... */\n    tag_51:\n        /* \"primerContrato/Smart_Contracts/8_bucles_condicionales.sol\":1574:1575  0 */\n      0x00\n        /* \"primerContrato/Smart_Contracts/8_bucles_condicionales.sol\":1567:1575  return 0 */\n      swap2\n      pop\n      pop\n        /* \"primerContrato/Smart_Contracts/8_bucles_condicionales.sol\":916:1594  function sum_rest(string memory operation, uint a,uint b) public pure returns(uint) {... */\n    tag_29:\n      swap4\n      swap3\n      pop\n      pop\n      pop\n      jump\t// out\n        /* \"primerContrato/Smart_Contracts/8_bucles_condicionales.sol\":487:907  function odd() public pure returns (uint) {... */\n    tag_18:\n        /* \"primerContrato/Smart_Contracts/8_bucles_condicionales.sol\":523:527  uint */\n      0x00\n        /* \"primerContrato/Smart_Contracts/8_bucles_condicionales.sol\":540:552  uint aux_sum */\n      dup1\n        /* \"primerContrato/Smart_Contracts/8_bucles_condicionales.sol\":555:556  0 */\n      0x00\n        /* \"primerContrato/Smart_Contracts/8_bucles_condicionales.sol\":540:556  uint aux_sum = 0 */\n      swap1\n      pop\n        /* \"primerContrato/Smart_Contracts/8_bucles_condicionales.sol\":567:579  uint counter */\n      0x00\n        /* \"primerContrato/Smart_Contracts/8_bucles_condicionales.sol\":594:610  uint counter_odd */\n      dup1\n        /* \"primerContrato/Smart_Contracts/8_bucles_condicionales.sol\":627:871  while (counter_odd < 10){... */\n    tag_56:\n        /* \"primerContrato/Smart_Contracts/8_bucles_condicionales.sol\":648:650  10 */\n      0x0a\n        /* \"primerContrato/Smart_Contracts/8_bucles_condicionales.sol\":634:645  counter_odd */\n      dup2\n        /* \"primerContrato/Smart_Contracts/8_bucles_condicionales.sol\":634:650  counter_odd < 10 */\n      lt\n        /* \"primerContrato/Smart_Contracts/8_bucles_condicionales.sol\":627:871  while (counter_odd < 10){... */\n      iszero\n      tag_57\n      jumpi\n        /* \"primerContrato/Smart_Contracts/8_bucles_condicionales.sol\":752:753  0 */\n      0x00\n        /* \"primerContrato/Smart_Contracts/8_bucles_condicionales.sol\":748:749  2 */\n      0x02\n        /* \"primerContrato/Smart_Contracts/8_bucles_condicionales.sol\":738:745  counter */\n      dup4\n        /* \"primerContrato/Smart_Contracts/8_bucles_condicionales.sol\":738:749  counter % 2 */\n      tag_58\n      swap2\n      swap1\n      tag_59\n      jump\t// in\n    tag_58:\n        /* \"primerContrato/Smart_Contracts/8_bucles_condicionales.sol\":738:753  counter % 2 !=0 */\n      eq\n        /* \"primerContrato/Smart_Contracts/8_bucles_condicionales.sol\":734:836  if (counter % 2 !=0){... */\n      tag_60\n      jumpi\n        /* \"primerContrato/Smart_Contracts/8_bucles_condicionales.sol\":789:796  counter */\n      dup2\n        /* \"primerContrato/Smart_Contracts/8_bucles_condicionales.sol\":779:786  aux_sum */\n      dup4\n        /* \"primerContrato/Smart_Contracts/8_bucles_condicionales.sol\":779:796  aux_sum + counter */\n      tag_61\n      swap2\n      swap1\n      tag_25\n      jump\t// in\n    tag_61:\n        /* \"primerContrato/Smart_Contracts/8_bucles_condicionales.sol\":769:796  aux_sum = aux_sum + counter */\n      swap3\n      pop\n        /* \"primerContrato/Smart_Contracts/8_bucles_condicionales.sol\":811:824  counter_odd++ */\n      dup1\n      dup1\n      tag_62\n      swap1\n      tag_28\n      jump\t// in\n    tag_62:\n      swap2\n      pop\n      pop\n        /* \"primerContrato/Smart_Contracts/8_bucles_condicionales.sol\":734:836  if (counter % 2 !=0){... */\n    tag_60:\n        /* \"primerContrato/Smart_Contracts/8_bucles_condicionales.sol\":850:859  counter++ */\n      dup2\n      dup1\n      tag_63\n      swap1\n      tag_28\n      jump\t// in\n    tag_63:\n      swap3\n      pop\n      pop\n        /* \"primerContrato/Smart_Contracts/8_bucles_condicionales.sol\":627:871  while (counter_odd < 10){... */\n      jump(tag_56)\n    tag_57:\n        /* \"primerContrato/Smart_Contracts/8_bucles_condicionales.sol\":892:899  aux_sum */\n      dup3\n        /* \"primerContrato/Smart_Contracts/8_bucles_condicionales.sol\":884:899  return  aux_sum */\n      swap4\n      pop\n      pop\n      pop\n      pop\n        /* \"primerContrato/Smart_Contracts/8_bucles_condicionales.sol\":487:907  function odd() public pure returns (uint) {... */\n      swap1\n      jump\t// out\n        /* \"#utility.yul\":7:82   */\n    tag_64:\n        /* \"#utility.yul\":40:46   */\n      0x00\n        /* \"#utility.yul\":73:75   */\n      0x40\n        /* \"#utility.yul\":67:76   */\n      mload\n        /* \"#utility.yul\":57:76   */\n      swap1\n      pop\n        /* \"#utility.yul\":7:82   */\n      swap1\n      jump\t// out\n        /* \"#utility.yul\":88:205   */\n    tag_65:\n        /* \"#utility.yul\":197:198   */\n      0x00\n        /* \"#utility.yul\":194:195   */\n      dup1\n        /* \"#utility.yul\":187:199   */\n      revert\n        /* \"#utility.yul\":211:328   */\n    tag_66:\n        /* \"#utility.yul\":320:321   */\n      0x00\n        /* \"#utility.yul\":317:318   */\n      dup1\n        /* \"#utility.yul\":310:322   */\n      revert\n        /* \"#utility.yul\":334:411   */\n    tag_67:\n        /* \"#utility.yul\":371:378   */\n      0x00\n        /* \"#utility.yul\":400:405   */\n      dup2\n        /* \"#utility.yul\":389:405   */\n      swap1\n      pop\n        /* \"#utility.yul\":334:411   */\n      swap2\n      swap1\n      pop\n      jump\t// out\n        /* \"#utility.yul\":417:539   */\n    tag_68:\n        /* \"#utility.yul\":490:514   */\n      tag_101\n        /* \"#utility.yul\":508:513   */\n      dup2\n        /* \"#utility.yul\":490:514   */\n      tag_67\n      jump\t// in\n    tag_101:\n        /* \"#utility.yul\":483:488   */\n      dup2\n        /* \"#utility.yul\":480:515   */\n      eq\n        /* \"#utility.yul\":470:533   */\n      tag_102\n      jumpi\n        /* \"#utility.yul\":529:530   */\n      0x00\n        /* \"#utility.yul\":526:527   */\n      dup1\n        /* \"#utility.yul\":519:531   */\n      revert\n        /* \"#utility.yul\":470:533   */\n    tag_102:\n        /* \"#utility.yul\":417:539   */\n      pop\n      jump\t// out\n        /* \"#utility.yul\":545:684   */\n    tag_69:\n        /* \"#utility.yul\":591:596   */\n      0x00\n        /* \"#utility.yul\":629:635   */\n      dup2\n        /* \"#utility.yul\":616:636   */\n      calldataload\n        /* \"#utility.yul\":607:636   */\n      swap1\n      pop\n        /* \"#utility.yul\":645:678   */\n      tag_104\n        /* \"#utility.yul\":672:677   */\n      dup2\n        /* \"#utility.yul\":645:678   */\n      tag_68\n      jump\t// in\n    tag_104:\n        /* \"#utility.yul\":545:684   */\n      swap3\n      swap2\n      pop\n      pop\n      jump\t// out\n        /* \"#utility.yul\":690:1019   */\n    tag_8:\n        /* \"#utility.yul\":749:755   */\n      0x00\n        /* \"#utility.yul\":798:800   */\n      0x20\n        /* \"#utility.yul\":786:795   */\n      dup3\n        /* \"#utility.yul\":777:784   */\n      dup5\n        /* \"#utility.yul\":773:796   */\n      sub\n        /* \"#utility.yul\":769:801   */\n      slt\n        /* \"#utility.yul\":766:885   */\n      iszero\n      tag_106\n      jumpi\n        /* \"#utility.yul\":804:883   */\n      tag_107\n      tag_65\n      jump\t// in\n    tag_107:\n        /* \"#utility.yul\":766:885   */\n    tag_106:\n        /* \"#utility.yul\":924:925   */\n      0x00\n        /* \"#utility.yul\":949:1002   */\n      tag_108\n        /* \"#utility.yul\":994:1001   */\n      dup5\n        /* \"#utility.yul\":985:991   */\n      dup3\n        /* \"#utility.yul\":974:983   */\n      dup6\n        /* \"#utility.yul\":970:992   */\n      add\n        /* \"#utility.yul\":949:1002   */\n      tag_69\n      jump\t// in\n    tag_108:\n        /* \"#utility.yul\":939:1002   */\n      swap2\n      pop\n        /* \"#utility.yul\":895:1012   */\n      pop\n        /* \"#utility.yul\":690:1019   */\n      swap3\n      swap2\n      pop\n      pop\n      jump\t// out\n        /* \"#utility.yul\":1025:1143   */\n    tag_70:\n        /* \"#utility.yul\":1112:1136   */\n      tag_110\n        /* \"#utility.yul\":1130:1135   */\n      dup2\n        /* \"#utility.yul\":1112:1136   */\n      tag_67\n      jump\t// in\n    tag_110:\n        /* \"#utility.yul\":1107:1110   */\n      dup3\n        /* \"#utility.yul\":1100:1137   */\n      mstore\n        /* \"#utility.yul\":1025:1143   */\n      pop\n      pop\n      jump\t// out\n        /* \"#utility.yul\":1149:1371   */\n    tag_11:\n        /* \"#utility.yul\":1242:1246   */\n      0x00\n        /* \"#utility.yul\":1280:1282   */\n      0x20\n        /* \"#utility.yul\":1269:1278   */\n      dup3\n        /* \"#utility.yul\":1265:1283   */\n      add\n        /* \"#utility.yul\":1257:1283   */\n      swap1\n      pop\n        /* \"#utility.yul\":1293:1364   */\n      tag_112\n        /* \"#utility.yul\":1361:1362   */\n      0x00\n        /* \"#utility.yul\":1350:1359   */\n      dup4\n        /* \"#utility.yul\":1346:1363   */\n      add\n        /* \"#utility.yul\":1337:1343   */\n      dup5\n        /* \"#utility.yul\":1293:1364   */\n      tag_70\n      jump\t// in\n    tag_112:\n        /* \"#utility.yul\":1149:1371   */\n      swap3\n      swap2\n      pop\n      pop\n      jump\t// out\n        /* \"#utility.yul\":1377:1494   */\n    tag_71:\n        /* \"#utility.yul\":1486:1487   */\n      0x00\n        /* \"#utility.yul\":1483:1484   */\n      dup1\n        /* \"#utility.yul\":1476:1488   */\n      revert\n        /* \"#utility.yul\":1500:1617   */\n    tag_72:\n        /* \"#utility.yul\":1609:1610   */\n      0x00\n        /* \"#utility.yul\":1606:1607   */\n      dup1\n        /* \"#utility.yul\":1599:1611   */\n      revert\n        /* \"#utility.yul\":1623:1725   */\n    tag_73:\n        /* \"#utility.yul\":1664:1670   */\n      0x00\n        /* \"#utility.yul\":1715:1717   */\n      0x1f\n        /* \"#utility.yul\":1711:1718   */\n      not\n        /* \"#utility.yul\":1706:1708   */\n      0x1f\n        /* \"#utility.yul\":1699:1704   */\n      dup4\n        /* \"#utility.yul\":1695:1709   */\n      add\n        /* \"#utility.yul\":1691:1719   */\n      and\n        /* \"#utility.yul\":1681:1719   */\n      swap1\n      pop\n        /* \"#utility.yul\":1623:1725   */\n      swap2\n      swap1\n      pop\n      jump\t// out\n        /* \"#utility.yul\":1731:1911   */\n    tag_74:\n        /* \"#utility.yul\":1779:1856   */\n      0x4e487b7100000000000000000000000000000000000000000000000000000000\n        /* \"#utility.yul\":1776:1777   */\n      0x00\n        /* \"#utility.yul\":1769:1857   */\n      mstore\n        /* \"#utility.yul\":1876:1880   */\n      0x41\n        /* \"#utility.yul\":1873:1874   */\n      0x04\n        /* \"#utility.yul\":1866:1881   */\n      mstore\n        /* \"#utility.yul\":1900:1904   */\n      0x24\n        /* \"#utility.yul\":1897:1898   */\n      0x00\n        /* \"#utility.yul\":1890:1905   */\n      revert\n        /* \"#utility.yul\":1917:2198   */\n    tag_75:\n        /* \"#utility.yul\":2000:2027   */\n      tag_118\n        /* \"#utility.yul\":2022:2026   */\n      dup3\n        /* \"#utility.yul\":2000:2027   */\n      tag_73\n      jump\t// in\n    tag_118:\n        /* \"#utility.yul\":1992:1998   */\n      dup2\n        /* \"#utility.yul\":1988:2028   */\n      add\n        /* \"#utility.yul\":2130:2136   */\n      dup2\n        /* \"#utility.yul\":2118:2128   */\n      dup2\n        /* \"#utility.yul\":2115:2137   */\n      lt\n        /* \"#utility.yul\":2094:2112   */\n      0xffffffffffffffff\n        /* \"#utility.yul\":2082:2092   */\n      dup3\n        /* \"#utility.yul\":2079:2113   */\n      gt\n        /* \"#utility.yul\":2076:2138   */\n      or\n        /* \"#utility.yul\":2073:2161   */\n      iszero\n      tag_119\n      jumpi\n        /* \"#utility.yul\":2141:2159   */\n      tag_120\n      tag_74\n      jump\t// in\n    tag_120:\n        /* \"#utility.yul\":2073:2161   */\n    tag_119:\n        /* \"#utility.yul\":2181:2191   */\n      dup1\n        /* \"#utility.yul\":2177:2179   */\n      0x40\n        /* \"#utility.yul\":2170:2192   */\n      mstore\n        /* \"#utility.yul\":1960:2198   */\n      pop\n        /* \"#utility.yul\":1917:2198   */\n      pop\n      pop\n      jump\t// out\n        /* \"#utility.yul\":2204:2333   */\n    tag_76:\n        /* \"#utility.yul\":2238:2244   */\n      0x00\n        /* \"#utility.yul\":2265:2285   */\n      tag_122\n      tag_64\n      jump\t// in\n    tag_122:\n        /* \"#utility.yul\":2255:2285   */\n      swap1\n      pop\n        /* \"#utility.yul\":2294:2327   */\n      tag_123\n        /* \"#utility.yul\":2322:2326   */\n      dup3\n        /* \"#utility.yul\":2314:2320   */\n      dup3\n        /* \"#utility.yul\":2294:2327   */\n      tag_75\n      jump\t// in\n    tag_123:\n        /* \"#utility.yul\":2204:2333   */\n      swap2\n      swap1\n      pop\n      jump\t// out\n        /* \"#utility.yul\":2339:2647   */\n    tag_77:\n        /* \"#utility.yul\":2401:2405   */\n      0x00\n        /* \"#utility.yul\":2491:2509   */\n      0xffffffffffffffff\n        /* \"#utility.yul\":2483:2489   */\n      dup3\n        /* \"#utility.yul\":2480:2510   */\n      gt\n        /* \"#utility.yul\":2477:2533   */\n      iszero\n      tag_125\n      jumpi\n        /* \"#utility.yul\":2513:2531   */\n      tag_126\n      tag_74\n      jump\t// in\n    tag_126:\n        /* \"#utility.yul\":2477:2533   */\n    tag_125:\n        /* \"#utility.yul\":2551:2580   */\n      tag_127\n        /* \"#utility.yul\":2573:2579   */\n      dup3\n        /* \"#utility.yul\":2551:2580   */\n      tag_73\n      jump\t// in\n    tag_127:\n        /* \"#utility.yul\":2543:2580   */\n      swap1\n      pop\n        /* \"#utility.yul\":2635:2639   */\n      0x20\n        /* \"#utility.yul\":2629:2633   */\n      dup2\n        /* \"#utility.yul\":2625:2640   */\n      add\n        /* \"#utility.yul\":2617:2640   */\n      swap1\n      pop\n        /* \"#utility.yul\":2339:2647   */\n      swap2\n      swap1\n      pop\n      jump\t// out\n        /* \"#utility.yul\":2653:2799   */\n    tag_78:\n        /* \"#utility.yul\":2750:2756   */\n      dup3\n        /* \"#utility.yul\":2745:2748   */\n      dup2\n        /* \"#utility.yul\":2740:2743   */\n      dup4\n        /* \"#utility.yul\":2727:2757   */\n      calldatacopy\n        /* \"#utility.yul\":2791:2792   */\n      0x00\n        /* \"#utility.yul\":2782:2788   */\n      dup4\n        /* \"#utility.yul\":2777:2780   */\n      dup4\n        /* \"#utility.yul\":2773:2789   */\n      add\n        /* \"#utility.yul\":2766:2793   */\n      mstore\n        /* \"#utility.yul\":2653:2799   */\n      pop\n      pop\n      pop\n      jump\t// out\n        /* \"#utility.yul\":2805:3230   */\n    tag_79:\n        /* \"#utility.yul\":2883:2888   */\n      0x00\n        /* \"#utility.yul\":2908:2974   */\n      tag_130\n        /* \"#utility.yul\":2924:2973   */\n      tag_131\n        /* \"#utility.yul\":2966:2972   */\n      dup5\n        /* \"#utility.yul\":2924:2973   */\n      tag_77\n      jump\t// in\n    tag_131:\n        /* \"#utility.yul\":2908:2974   */\n      tag_76\n      jump\t// in\n    tag_130:\n        /* \"#utility.yul\":2899:2974   */\n      swap1\n      pop\n        /* \"#utility.yul\":2997:3003   */\n      dup3\n        /* \"#utility.yul\":2990:2995   */\n      dup2\n        /* \"#utility.yul\":2983:3004   */\n      mstore\n        /* \"#utility.yul\":3035:3039   */\n      0x20\n        /* \"#utility.yul\":3028:3033   */\n      dup2\n        /* \"#utility.yul\":3024:3040   */\n      add\n        /* \"#utility.yul\":3073:3076   */\n      dup5\n        /* \"#utility.yul\":3064:3070   */\n      dup5\n        /* \"#utility.yul\":3059:3062   */\n      dup5\n        /* \"#utility.yul\":3055:3071   */\n      add\n        /* \"#utility.yul\":3052:3077   */\n      gt\n        /* \"#utility.yul\":3049:3161   */\n      iszero\n      tag_132\n      jumpi\n        /* \"#utility.yul\":3080:3159   */\n      tag_133\n      tag_72\n      jump\t// in\n    tag_133:\n        /* \"#utility.yul\":3049:3161   */\n    tag_132:\n        /* \"#utility.yul\":3170:3224   */\n      tag_134\n        /* \"#utility.yul\":3217:3223   */\n      dup5\n        /* \"#utility.yul\":3212:3215   */\n      dup3\n        /* \"#utility.yul\":3207:3210   */\n      dup6\n        /* \"#utility.yul\":3170:3224   */\n      tag_78\n      jump\t// in\n    tag_134:\n        /* \"#utility.yul\":2889:3230   */\n      pop\n        /* \"#utility.yul\":2805:3230   */\n      swap4\n      swap3\n      pop\n      pop\n      pop\n      jump\t// out\n        /* \"#utility.yul\":3250:3590   */\n    tag_80:\n        /* \"#utility.yul\":3306:3311   */\n      0x00\n        /* \"#utility.yul\":3355:3358   */\n      dup3\n        /* \"#utility.yul\":3348:3352   */\n      0x1f\n        /* \"#utility.yul\":3340:3346   */\n      dup4\n        /* \"#utility.yul\":3336:3353   */\n      add\n        /* \"#utility.yul\":3332:3359   */\n      slt\n        /* \"#utility.yul\":3322:3444   */\n      tag_136\n      jumpi\n        /* \"#utility.yul\":3363:3442   */\n      tag_137\n      tag_71\n      jump\t// in\n    tag_137:\n        /* \"#utility.yul\":3322:3444   */\n    tag_136:\n        /* \"#utility.yul\":3480:3486   */\n      dup2\n        /* \"#utility.yul\":3467:3487   */\n      calldataload\n        /* \"#utility.yul\":3505:3584   */\n      tag_138\n        /* \"#utility.yul\":3580:3583   */\n      dup5\n        /* \"#utility.yul\":3572:3578   */\n      dup3\n        /* \"#utility.yul\":3565:3569   */\n      0x20\n        /* \"#utility.yul\":3557:3563   */\n      dup7\n        /* \"#utility.yul\":3553:3570   */\n      add\n        /* \"#utility.yul\":3505:3584   */\n      tag_79\n      jump\t// in\n    tag_138:\n        /* \"#utility.yul\":3496:3584   */\n      swap2\n      pop\n        /* \"#utility.yul\":3312:3590   */\n      pop\n        /* \"#utility.yul\":3250:3590   */\n      swap3\n      swap2\n      pop\n      pop\n      jump\t// out\n        /* \"#utility.yul\":3596:4395   */\n    tag_14:\n        /* \"#utility.yul\":3683:3689   */\n      0x00\n        /* \"#utility.yul\":3691:3697   */\n      dup1\n        /* \"#utility.yul\":3699:3705   */\n      0x00\n        /* \"#utility.yul\":3748:3750   */\n      0x60\n        /* \"#utility.yul\":3736:3745   */\n      dup5\n        /* \"#utility.yul\":3727:3734   */\n      dup7\n        /* \"#utility.yul\":3723:3746   */\n      sub\n        /* \"#utility.yul\":3719:3751   */\n      slt\n        /* \"#utility.yul\":3716:3835   */\n      iszero\n      tag_140\n      jumpi\n        /* \"#utility.yul\":3754:3833   */\n      tag_141\n      tag_65\n      jump\t// in\n    tag_141:\n        /* \"#utility.yul\":3716:3835   */\n    tag_140:\n        /* \"#utility.yul\":3902:3903   */\n      0x00\n        /* \"#utility.yul\":3891:3900   */\n      dup5\n        /* \"#utility.yul\":3887:3904   */\n      add\n        /* \"#utility.yul\":3874:3905   */\n      calldataload\n        /* \"#utility.yul\":3932:3950   */\n      0xffffffffffffffff\n        /* \"#utility.yul\":3924:3930   */\n      dup2\n        /* \"#utility.yul\":3921:3951   */\n      gt\n        /* \"#utility.yul\":3918:4035   */\n      iszero\n      tag_142\n      jumpi\n        /* \"#utility.yul\":3954:4033   */\n      tag_143\n      tag_66\n      jump\t// in\n    tag_143:\n        /* \"#utility.yul\":3918:4035   */\n    tag_142:\n        /* \"#utility.yul\":4059:4122   */\n      tag_144\n        /* \"#utility.yul\":4114:4121   */\n      dup7\n        /* \"#utility.yul\":4105:4111   */\n      dup3\n        /* \"#utility.yul\":4094:4103   */\n      dup8\n        /* \"#utility.yul\":4090:4112   */\n      add\n        /* \"#utility.yul\":4059:4122   */\n      tag_80\n      jump\t// in\n    tag_144:\n        /* \"#utility.yul\":4049:4122   */\n      swap4\n      pop\n        /* \"#utility.yul\":3845:4132   */\n      pop\n        /* \"#utility.yul\":4171:4173   */\n      0x20\n        /* \"#utility.yul\":4197:4250   */\n      tag_145\n        /* \"#utility.yul\":4242:4249   */\n      dup7\n        /* \"#utility.yul\":4233:4239   */\n      dup3\n        /* \"#utility.yul\":4222:4231   */\n      dup8\n        /* \"#utility.yul\":4218:4240   */\n      add\n        /* \"#utility.yul\":4197:4250   */\n      tag_69\n      jump\t// in\n    tag_145:\n        /* \"#utility.yul\":4187:4250   */\n      swap3\n      pop\n        /* \"#utility.yul\":4142:4260   */\n      pop\n        /* \"#utility.yul\":4299:4301   */\n      0x40\n        /* \"#utility.yul\":4325:4378   */\n      tag_146\n        /* \"#utility.yul\":4370:4377   */\n      dup7\n        /* \"#utility.yul\":4361:4367   */\n      dup3\n        /* \"#utility.yul\":4350:4359   */\n      dup8\n        /* \"#utility.yul\":4346:4368   */\n      add\n        /* \"#utility.yul\":4325:4378   */\n      tag_69\n      jump\t// in\n    tag_146:\n        /* \"#utility.yul\":4315:4378   */\n      swap2\n      pop\n        /* \"#utility.yul\":4270:4388   */\n      pop\n        /* \"#utility.yul\":3596:4395   */\n      swap3\n      pop\n      swap3\n      pop\n      swap3\n      jump\t// out\n        /* \"#utility.yul\":4401:4581   */\n    tag_81:\n        /* \"#utility.yul\":4449:4526   */\n      0x4e487b7100000000000000000000000000000000000000000000000000000000\n        /* \"#utility.yul\":4446:4447   */\n      0x00\n        /* \"#utility.yul\":4439:4527   */\n      mstore\n        /* \"#utility.yul\":4546:4550   */\n      0x11\n        /* \"#utility.yul\":4543:4544   */\n      0x04\n        /* \"#utility.yul\":4536:4551   */\n      mstore\n        /* \"#utility.yul\":4570:4574   */\n      0x24\n        /* \"#utility.yul\":4567:4568   */\n      0x00\n        /* \"#utility.yul\":4560:4575   */\n      revert\n        /* \"#utility.yul\":4587:4778   */\n    tag_25:\n        /* \"#utility.yul\":4627:4630   */\n      0x00\n        /* \"#utility.yul\":4646:4666   */\n      tag_149\n        /* \"#utility.yul\":4664:4665   */\n      dup3\n        /* \"#utility.yul\":4646:4666   */\n      tag_67\n      jump\t// in\n    tag_149:\n        /* \"#utility.yul\":4641:4666   */\n      swap2\n      pop\n        /* \"#utility.yul\":4680:4700   */\n      tag_150\n        /* \"#utility.yul\":4698:4699   */\n      dup4\n        /* \"#utility.yul\":4680:4700   */\n      tag_67\n      jump\t// in\n    tag_150:\n        /* \"#utility.yul\":4675:4700   */\n      swap3\n      pop\n        /* \"#utility.yul\":4723:4724   */\n      dup3\n        /* \"#utility.yul\":4720:4721   */\n      dup3\n        /* \"#utility.yul\":4716:4725   */\n      add\n        /* \"#utility.yul\":4709:4725   */\n      swap1\n      pop\n        /* \"#utility.yul\":4744:4747   */\n      dup1\n        /* \"#utility.yul\":4741:4742   */\n      dup3\n        /* \"#utility.yul\":4738:4748   */\n      gt\n        /* \"#utility.yul\":4735:4771   */\n      iszero\n      tag_151\n      jumpi\n        /* \"#utility.yul\":4751:4769   */\n      tag_152\n      tag_81\n      jump\t// in\n    tag_152:\n        /* \"#utility.yul\":4735:4771   */\n    tag_151:\n        /* \"#utility.yul\":4587:4778   */\n      swap3\n      swap2\n      pop\n      pop\n      jump\t// out\n        /* \"#utility.yul\":4784:5017   */\n    tag_28:\n        /* \"#utility.yul\":4823:4826   */\n      0x00\n        /* \"#utility.yul\":4846:4870   */\n      tag_154\n        /* \"#utility.yul\":4864:4869   */\n      dup3\n        /* \"#utility.yul\":4846:4870   */\n      tag_67\n      jump\t// in\n    tag_154:\n        /* \"#utility.yul\":4837:4870   */\n      swap2\n      pop\n        /* \"#utility.yul\":4892:4958   */\n      0xffffffffffffffffffffffffffffffffffffffffffffffffffffffffffffffff\n        /* \"#utility.yul\":4885:4890   */\n      dup3\n        /* \"#utility.yul\":4882:4959   */\n      sub\n        /* \"#utility.yul\":4879:4982   */\n      tag_155\n      jumpi\n        /* \"#utility.yul\":4962:4980   */\n      tag_156\n      tag_81\n      jump\t// in\n    tag_156:\n        /* \"#utility.yul\":4879:4982   */\n    tag_155:\n        /* \"#utility.yul\":5009:5010   */\n      0x01\n        /* \"#utility.yul\":5002:5007   */\n      dup3\n        /* \"#utility.yul\":4998:5011   */\n      add\n        /* \"#utility.yul\":4991:5011   */\n      swap1\n      pop\n        /* \"#utility.yul\":4784:5017   */\n      swap2\n      swap1\n      pop\n      jump\t// out\n        /* \"#utility.yul\":5023:5122   */\n    tag_82:\n        /* \"#utility.yul\":5075:5081   */\n      0x00\n        /* \"#utility.yul\":5109:5114   */\n      dup2\n        /* \"#utility.yul\":5103:5115   */\n      mload\n        /* \"#utility.yul\":5093:5115   */\n      swap1\n      pop\n        /* \"#utility.yul\":5023:5122   */\n      swap2\n      swap1\n      pop\n      jump\t// out\n        /* \"#utility.yul\":5128:5276   */\n    tag_83:\n        /* \"#utility.yul\":5230:5241   */\n      0x00\n        /* \"#utility.yul\":5267:5270   */\n      dup2\n        /* \"#utility.yul\":5252:5270   */\n      swap1\n      pop\n        /* \"#utility.yul\":5128:5276   */\n      swap3\n      swap2\n      pop\n      pop\n      jump\t// out\n        /* \"#utility.yul\":5282:5528   */\n    tag_84:\n        /* \"#utility.yul\":5363:5364   */\n      0x00\n        /* \"#utility.yul\":5373:5486   */\n    tag_160:\n        /* \"#utility.yul\":5387:5393   */\n      dup4\n        /* \"#utility.yul\":5384:5385   */\n      dup2\n        /* \"#utility.yul\":5381:5394   */\n      lt\n        /* \"#utility.yul\":5373:5486   */\n      iszero\n      tag_162\n      jumpi\n        /* \"#utility.yul\":5472:5473   */\n      dup1\n        /* \"#utility.yul\":5467:5470   */\n      dup3\n        /* \"#utility.yul\":5463:5474   */\n      add\n        /* \"#utility.yul\":5457:5475   */\n      mload\n        /* \"#utility.yul\":5453:5454   */\n      dup2\n        /* \"#utility.yul\":5448:5451   */\n      dup5\n        /* \"#utility.yul\":5444:5455   */\n      add\n        /* \"#utility.yul\":5437:5476   */\n      mstore\n        /* \"#utility.yul\":5409:5411   */\n      0x20\n        /* \"#utility.yul\":5406:5407   */\n      dup2\n        /* \"#utility.yul\":5402:5412   */\n      add\n        /* \"#utility.yul\":5397:5412   */\n      swap1\n      pop\n        /* \"#utility.yul\":5373:5486   */\n      jump(tag_160)\n    tag_162:\n        /* \"#utility.yul\":5520:5521   */\n      0x00\n        /* \"#utility.yul\":5511:5517   */\n      dup5\n        /* \"#utility.yul\":5506:5509   */\n      dup5\n        /* \"#utility.yul\":5502:5518   */\n      add\n        /* \"#utility.yul\":5495:5522   */\n      mstore\n        /* \"#utility.yul\":5344:5528   */\n      pop\n        /* \"#utility.yul\":5282:5528   */\n      pop\n      pop\n      pop\n      jump\t// out\n        /* \"#utility.yul\":5534:5924   */\n    tag_85:\n        /* \"#utility.yul\":5640:5643   */\n      0x00\n        /* \"#utility.yul\":5668:5707   */\n      tag_164\n        /* \"#utility.yul\":5701:5706   */\n      dup3\n        /* \"#utility.yul\":5668:5707   */\n      tag_82\n      jump\t// in\n    tag_164:\n        /* \"#utility.yul\":5723:5812   */\n      tag_165\n        /* \"#utility.yul\":5805:5811   */\n      dup2\n        /* \"#utility.yul\":5800:5803   */\n      dup6\n        /* \"#utility.yul\":5723:5812   */\n      tag_83\n      jump\t// in\n    tag_165:\n        /* \"#utility.yul\":5716:5812   */\n      swap4\n      pop\n        /* \"#utility.yul\":5821:5886   */\n      tag_166\n        /* \"#utility.yul\":5879:5885   */\n      dup2\n        /* \"#utility.yul\":5874:5877   */\n      dup6\n        /* \"#utility.yul\":5867:5871   */\n      0x20\n        /* \"#utility.yul\":5860:5865   */\n      dup7\n        /* \"#utility.yul\":5856:5872   */\n      add\n        /* \"#utility.yul\":5821:5886   */\n      tag_84\n      jump\t// in\n    tag_166:\n        /* \"#utility.yul\":5911:5917   */\n      dup1\n        /* \"#utility.yul\":5906:5909   */\n      dup5\n        /* \"#utility.yul\":5902:5918   */\n      add\n        /* \"#utility.yul\":5895:5918   */\n      swap2\n      pop\n        /* \"#utility.yul\":5644:5924   */\n      pop\n        /* \"#utility.yul\":5534:5924   */\n      swap3\n      swap2\n      pop\n      pop\n      jump\t// out\n        /* \"#utility.yul\":5930:6205   */\n    tag_31:\n        /* \"#utility.yul\":6062:6065   */\n      0x00\n        /* \"#utility.yul\":6084:6179   */\n      tag_168\n        /* \"#utility.yul\":6175:6178   */\n      dup3\n        /* \"#utility.yul\":6166:6172   */\n      dup5\n        /* \"#utility.yul\":6084:6179   */\n      tag_85\n      jump\t// in\n    tag_168:\n        /* \"#utility.yul\":6077:6179   */\n      swap2\n      pop\n        /* \"#utility.yul\":6196:6199   */\n      dup2\n        /* \"#utility.yul\":6189:6199   */\n      swap1\n      pop\n        /* \"#utility.yul\":5930:6205   */\n      swap3\n      swap2\n      pop\n      pop\n      jump\t// out\n        /* \"#utility.yul\":6211:6365   */\n    tag_86:\n        /* \"#utility.yul\":6351:6357   */\n      0x73756d6100000000000000000000000000000000000000000000000000000000\n        /* \"#utility.yul\":6347:6348   */\n      0x00\n        /* \"#utility.yul\":6339:6345   */\n      dup3\n        /* \"#utility.yul\":6335:6349   */\n      add\n        /* \"#utility.yul\":6328:6358   */\n      mstore\n        /* \"#utility.yul\":6211:6365   */\n      pop\n      jump\t// out\n        /* \"#utility.yul\":6371:6771   */\n    tag_87:\n        /* \"#utility.yul\":6531:6534   */\n      0x00\n        /* \"#utility.yul\":6552:6636   */\n      tag_171\n        /* \"#utility.yul\":6634:6635   */\n      0x04\n        /* \"#utility.yul\":6629:6632   */\n      dup4\n        /* \"#utility.yul\":6552:6636   */\n      tag_83\n      jump\t// in\n    tag_171:\n        /* \"#utility.yul\":6545:6636   */\n      swap2\n      pop\n        /* \"#utility.yul\":6645:6738   */\n      tag_172\n        /* \"#utility.yul\":6734:6737   */\n      dup3\n        /* \"#utility.yul\":6645:6738   */\n      tag_86\n      jump\t// in\n    tag_172:\n        /* \"#utility.yul\":6763:6764   */\n      0x04\n        /* \"#utility.yul\":6758:6761   */\n      dup3\n        /* \"#utility.yul\":6754:6765   */\n      add\n        /* \"#utility.yul\":6747:6765   */\n      swap1\n      pop\n        /* \"#utility.yul\":6371:6771   */\n      swap2\n      swap1\n      pop\n      jump\t// out\n        /* \"#utility.yul\":6777:7158   */\n    tag_33:\n        /* \"#utility.yul\":6962:6965   */\n      0x00\n        /* \"#utility.yul\":6984:7132   */\n      tag_174\n        /* \"#utility.yul\":7128:7131   */\n      dup3\n        /* \"#utility.yul\":6984:7132   */\n      tag_87\n      jump\t// in\n    tag_174:\n        /* \"#utility.yul\":6977:7132   */\n      swap2\n      pop\n        /* \"#utility.yul\":7149:7152   */\n      dup2\n        /* \"#utility.yul\":7142:7152   */\n      swap1\n      pop\n        /* \"#utility.yul\":6777:7158   */\n      swap2\n      swap1\n      pop\n      jump\t// out\n        /* \"#utility.yul\":7164:7319   */\n    tag_88:\n        /* \"#utility.yul\":7304:7311   */\n      0x7265737461000000000000000000000000000000000000000000000000000000\n        /* \"#utility.yul\":7300:7301   */\n      0x00\n        /* \"#utility.yul\":7292:7298   */\n      dup3\n        /* \"#utility.yul\":7288:7302   */\n      add\n        /* \"#utility.yul\":7281:7312   */\n      mstore\n        /* \"#utility.yul\":7164:7319   */\n      pop\n      jump\t// out\n        /* \"#utility.yul\":7325:7725   */\n    tag_89:\n        /* \"#utility.yul\":7485:7488   */\n      0x00\n        /* \"#utility.yul\":7506:7590   */\n      tag_177\n        /* \"#utility.yul\":7588:7589   */\n      0x05\n        /* \"#utility.yul\":7583:7586   */\n      dup4\n        /* \"#utility.yul\":7506:7590   */\n      tag_83\n      jump\t// in\n    tag_177:\n        /* \"#utility.yul\":7499:7590   */\n      swap2\n      pop\n        /* \"#utility.yul\":7599:7692   */\n      tag_178\n        /* \"#utility.yul\":7688:7691   */\n      dup3\n        /* \"#utility.yul\":7599:7692   */\n      tag_88\n      jump\t// in\n    tag_178:\n        /* \"#utility.yul\":7717:7718   */\n      0x05\n        /* \"#utility.yul\":7712:7715   */\n      dup3\n        /* \"#utility.yul\":7708:7719   */\n      add\n        /* \"#utility.yul\":7701:7719   */\n      swap1\n      pop\n        /* \"#utility.yul\":7325:7725   */\n      swap2\n      swap1\n      pop\n      jump\t// out\n        /* \"#utility.yul\":7731:8112   */\n    tag_38:\n        /* \"#utility.yul\":7916:7919   */\n      0x00\n        /* \"#utility.yul\":7938:8086   */\n      tag_180\n        /* \"#utility.yul\":8082:8085   */\n      dup3\n        /* \"#utility.yul\":7938:8086   */\n      tag_89\n      jump\t// in\n    tag_180:\n        /* \"#utility.yul\":7931:8086   */\n      swap2\n      pop\n        /* \"#utility.yul\":8103:8106   */\n      dup2\n        /* \"#utility.yul\":8096:8106   */\n      swap1\n      pop\n        /* \"#utility.yul\":7731:8112   */\n      swap2\n      swap1\n      pop\n      jump\t// out\n        /* \"#utility.yul\":8118:8312   */\n    tag_41:\n        /* \"#utility.yul\":8158:8162   */\n      0x00\n        /* \"#utility.yul\":8178:8198   */\n      tag_182\n        /* \"#utility.yul\":8196:8197   */\n      dup3\n        /* \"#utility.yul\":8178:8198   */\n      tag_67\n      jump\t// in\n    tag_182:\n        /* \"#utility.yul\":8173:8198   */\n      swap2\n      pop\n        /* \"#utility.yul\":8212:8232   */\n      tag_183\n        /* \"#utility.yul\":8230:8231   */\n      dup4\n        /* \"#utility.yul\":8212:8232   */\n      tag_67\n      jump\t// in\n    tag_183:\n        /* \"#utility.yul\":8207:8232   */\n      swap3\n      pop\n        /* \"#utility.yul\":8256:8257   */\n      dup3\n        /* \"#utility.yul\":8253:8254   */\n      dup3\n        /* \"#utility.yul\":8249:8258   */\n      sub\n        /* \"#utility.yul\":8241:8258   */\n      swap1\n      pop\n        /* \"#utility.yul\":8280:8281   */\n      dup2\n        /* \"#utility.yul\":8274:8278   */\n      dup2\n        /* \"#utility.yul\":8271:8282   */\n      gt\n        /* \"#utility.yul\":8268:8305   */\n      iszero\n      tag_184\n      jumpi\n        /* \"#utility.yul\":8285:8303   */\n      tag_185\n      tag_81\n      jump\t// in\n    tag_185:\n        /* \"#utility.yul\":8268:8305   */\n    tag_184:\n        /* \"#utility.yul\":8118:8312   */\n      swap3\n      swap2\n      pop\n      pop\n      jump\t// out\n        /* \"#utility.yul\":8318:8476   */\n    tag_90:\n        /* \"#utility.yul\":8458:8468   */\n      0x6469766973696f6e000000000000000000000000000000000000000000000000\n        /* \"#utility.yul\":8454:8455   */\n      0x00\n        /* \"#utility.yul\":8446:8452   */\n      dup3\n        /* \"#utility.yul\":8442:8456   */\n      add\n        /* \"#utility.yul\":8435:8469   */\n      mstore\n        /* \"#utility.yul\":8318:8476   */\n      pop\n      jump\t// out\n        /* \"#utility.yul\":8482:8882   */\n    tag_91:\n        /* \"#utility.yul\":8642:8645   */\n      0x00\n        /* \"#utility.yul\":8663:8747   */\n      tag_188\n        /* \"#utility.yul\":8745:8746   */\n      0x08\n        /* \"#utility.yul\":8740:8743   */\n      dup4\n        /* \"#utility.yul\":8663:8747   */\n      tag_83\n      jump\t// in\n    tag_188:\n        /* \"#utility.yul\":8656:8747   */\n      swap2\n      pop\n        /* \"#utility.yul\":8756:8849   */\n      tag_189\n        /* \"#utility.yul\":8845:8848   */\n      dup3\n        /* \"#utility.yul\":8756:8849   */\n      tag_90\n      jump\t// in\n    tag_189:\n        /* \"#utility.yul\":8874:8875   */\n      0x08\n        /* \"#utility.yul\":8869:8872   */\n      dup3\n        /* \"#utility.yul\":8865:8876   */\n      add\n        /* \"#utility.yul\":8858:8876   */\n      swap1\n      pop\n        /* \"#utility.yul\":8482:8882   */\n      swap2\n      swap1\n      pop\n      jump\t// out\n        /* \"#utility.yul\":8888:9269   */\n    tag_44:\n        /* \"#utility.yul\":9073:9076   */\n      0x00\n        /* \"#utility.yul\":9095:9243   */\n      tag_191\n        /* \"#utility.yul\":9239:9242   */\n      dup3\n        /* \"#utility.yul\":9095:9243   */\n      tag_91\n      jump\t// in\n    tag_191:\n        /* \"#utility.yul\":9088:9243   */\n      swap2\n      pop\n        /* \"#utility.yul\":9260:9263   */\n      dup2\n        /* \"#utility.yul\":9253:9263   */\n      swap1\n      pop\n        /* \"#utility.yul\":8888:9269   */\n      swap2\n      swap1\n      pop\n      jump\t// out\n        /* \"#utility.yul\":9275:9455   */\n    tag_92:\n        /* \"#utility.yul\":9323:9400   */\n      0x4e487b7100000000000000000000000000000000000000000000000000000000\n        /* \"#utility.yul\":9320:9321   */\n      0x00\n        /* \"#utility.yul\":9313:9401   */\n      mstore\n        /* \"#utility.yul\":9420:9424   */\n      0x12\n        /* \"#utility.yul\":9417:9418   */\n      0x04\n        /* \"#utility.yul\":9410:9425   */\n      mstore\n        /* \"#utility.yul\":9444:9448   */\n      0x24\n        /* \"#utility.yul\":9441:9442   */\n      0x00\n        /* \"#utility.yul\":9434:9449   */\n      revert\n        /* \"#utility.yul\":9461:9646   */\n    tag_47:\n        /* \"#utility.yul\":9501:9502   */\n      0x00\n        /* \"#utility.yul\":9518:9538   */\n      tag_194\n        /* \"#utility.yul\":9536:9537   */\n      dup3\n        /* \"#utility.yul\":9518:9538   */\n      tag_67\n      jump\t// in\n    tag_194:\n        /* \"#utility.yul\":9513:9538   */\n      swap2\n      pop\n        /* \"#utility.yul\":9552:9572   */\n      tag_195\n        /* \"#utility.yul\":9570:9571   */\n      dup4\n        /* \"#utility.yul\":9552:9572   */\n      tag_67\n      jump\t// in\n    tag_195:\n        /* \"#utility.yul\":9547:9572   */\n      swap3\n      pop\n        /* \"#utility.yul\":9591:9592   */\n      dup3\n        /* \"#utility.yul\":9581:9616   */\n      tag_196\n      jumpi\n        /* \"#utility.yul\":9596:9614   */\n      tag_197\n      tag_92\n      jump\t// in\n    tag_197:\n        /* \"#utility.yul\":9581:9616   */\n    tag_196:\n        /* \"#utility.yul\":9638:9639   */\n      dup3\n        /* \"#utility.yul\":9635:9636   */\n      dup3\n        /* \"#utility.yul\":9631:9640   */\n      div\n        /* \"#utility.yul\":9626:9640   */\n      swap1\n      pop\n        /* \"#utility.yul\":9461:9646   */\n      swap3\n      swap2\n      pop\n      pop\n      jump\t// out\n        /* \"#utility.yul\":9652:9816   */\n    tag_93:\n        /* \"#utility.yul\":9792:9808   */\n      0x6d756c7469706c69636163696f6e000000000000000000000000000000000000\n        /* \"#utility.yul\":9788:9789   */\n      0x00\n        /* \"#utility.yul\":9780:9786   */\n      dup3\n        /* \"#utility.yul\":9776:9790   */\n      add\n        /* \"#utility.yul\":9769:9809   */\n      mstore\n        /* \"#utility.yul\":9652:9816   */\n      pop\n      jump\t// out\n        /* \"#utility.yul\":9822:10224   */\n    tag_94:\n        /* \"#utility.yul\":9982:9985   */\n      0x00\n        /* \"#utility.yul\":10003:10088   */\n      tag_200\n        /* \"#utility.yul\":10085:10087   */\n      0x0e\n        /* \"#utility.yul\":10080:10083   */\n      dup4\n        /* \"#utility.yul\":10003:10088   */\n      tag_83\n      jump\t// in\n    tag_200:\n        /* \"#utility.yul\":9996:10088   */\n      swap2\n      pop\n        /* \"#utility.yul\":10097:10190   */\n      tag_201\n        /* \"#utility.yul\":10186:10189   */\n      dup3\n        /* \"#utility.yul\":10097:10190   */\n      tag_93\n      jump\t// in\n    tag_201:\n        /* \"#utility.yul\":10215:10217   */\n      0x0e\n        /* \"#utility.yul\":10210:10213   */\n      dup3\n        /* \"#utility.yul\":10206:10218   */\n      add\n        /* \"#utility.yul\":10199:10218   */\n      swap1\n      pop\n        /* \"#utility.yul\":9822:10224   */\n      swap2\n      swap1\n      pop\n      jump\t// out\n        /* \"#utility.yul\":10230:10611   */\n    tag_50:\n        /* \"#utility.yul\":10415:10418   */\n      0x00\n        /* \"#utility.yul\":10437:10585   */\n      tag_203\n        /* \"#utility.yul\":10581:10584   */\n      dup3\n        /* \"#utility.yul\":10437:10585   */\n      tag_94\n      jump\t// in\n    tag_203:\n        /* \"#utility.yul\":10430:10585   */\n      swap2\n      pop\n        /* \"#utility.yul\":10602:10605   */\n      dup2\n        /* \"#utility.yul\":10595:10605   */\n      swap1\n      pop\n        /* \"#utility.yul\":10230:10611   */\n      swap2\n      swap1\n      pop\n      jump\t// out\n        /* \"#utility.yul\":10617:11027   */\n    tag_53:\n        /* \"#utility.yul\":10657:10664   */\n      0x00\n        /* \"#utility.yul\":10680:10700   */\n      tag_205\n        /* \"#utility.yul\":10698:10699   */\n      dup3\n        /* \"#utility.yul\":10680:10700   */\n      tag_67\n      jump\t// in\n    tag_205:\n        /* \"#utility.yul\":10675:10700   */\n      swap2\n      pop\n        /* \"#utility.yul\":10714:10734   */\n      tag_206\n        /* \"#utility.yul\":10732:10733   */\n      dup4\n        /* \"#utility.yul\":10714:10734   */\n      tag_67\n      jump\t// in\n    tag_206:\n        /* \"#utility.yul\":10709:10734   */\n      swap3\n      pop\n        /* \"#utility.yul\":10769:10770   */\n      dup3\n        /* \"#utility.yul\":10766:10767   */\n      dup3\n        /* \"#utility.yul\":10762:10771   */\n      mul\n        /* \"#utility.yul\":10791:10821   */\n      tag_207\n        /* \"#utility.yul\":10809:10820   */\n      dup2\n        /* \"#utility.yul\":10791:10821   */\n      tag_67\n      jump\t// in\n    tag_207:\n        /* \"#utility.yul\":10780:10821   */\n      swap2\n      pop\n        /* \"#utility.yul\":10970:10971   */\n      dup3\n        /* \"#utility.yul\":10961:10968   */\n      dup3\n        /* \"#utility.yul\":10957:10972   */\n      div\n        /* \"#utility.yul\":10954:10955   */\n      dup5\n        /* \"#utility.yul\":10951:10973   */\n      eq\n        /* \"#utility.yul\":10931:10932   */\n      dup4\n        /* \"#utility.yul\":10924:10933   */\n      iszero\n        /* \"#utility.yul\":10904:10987   */\n      or\n        /* \"#utility.yul\":10881:11020   */\n      tag_208\n      jumpi\n        /* \"#utility.yul\":11000:11018   */\n      tag_209\n      tag_81\n      jump\t// in\n    tag_209:\n        /* \"#utility.yul\":10881:11020   */\n    tag_208:\n        /* \"#utility.yul\":10665:11027   */\n      pop\n        /* \"#utility.yul\":10617:11027   */\n      swap3\n      swap2\n      pop\n      pop\n      jump\t// out\n        /* \"#utility.yul\":11033:11209   */\n    tag_59:\n        /* \"#utility.yul\":11065:11066   */\n      0x00\n        /* \"#utility.yul\":11082:11102   */\n      tag_211\n        /* \"#utility.yul\":11100:11101   */\n      dup3\n        /* \"#utility.yul\":11082:11102   */\n      tag_67\n      jump\t// in\n    tag_211:\n        /* \"#utility.yul\":11077:11102   */\n      swap2\n      pop\n        /* \"#utility.yul\":11116:11136   */\n      tag_212\n        /* \"#utility.yul\":11134:11135   */\n      dup4\n        /* \"#utility.yul\":11116:11136   */\n      tag_67\n      jump\t// in\n    tag_212:\n        /* \"#utility.yul\":11111:11136   */\n      swap3\n      pop\n        /* \"#utility.yul\":11155:11156   */\n      dup3\n        /* \"#utility.yul\":11145:11180   */\n      tag_213\n      jumpi\n        /* \"#utility.yul\":11160:11178   */\n      tag_214\n      tag_92\n      jump\t// in\n    tag_214:\n        /* \"#utility.yul\":11145:11180   */\n    tag_213:\n        /* \"#utility.yul\":11201:11202   */\n      dup3\n        /* \"#utility.yul\":11198:11199   */\n      dup3\n        /* \"#utility.yul\":11194:11203   */\n      mod\n        /* \"#utility.yul\":11189:11203   */\n      swap1\n      pop\n        /* \"#utility.yul\":11033:11209   */\n      swap3\n      swap2\n      pop\n      pop\n      jump\t// out\n\n    auxdata: 0xa264697066735822122050ac18a8f9ab28a58475e34bfefaeea49e01d0e00b4b46e8f9cd3d1df86a6f8d64736f6c63430008120033\n}\n",
				"bytecode": {
					"linkReferences": {},
					"object": "608060405234801561001057600080fd5b506108f0806100206000396000f3fe608060405234801561001057600080fd5b50600436106100415760003560e01c8063188b85b414610046578063afee991114610076578063c12363a2146100a6575b600080fd5b610060600480360381019061005b91906102f0565b6100c4565b60405161006d919061032c565b60405180910390f35b610090600480360381019061008b919061048d565b610110565b60405161009d919061032c565b60405180910390f35b6100ae610245565b6040516100bb919061032c565b60405180910390f35b6000806000905060008390505b83600a6100de919061052b565b8110156101065780826100f1919061052b565b915080806100fe9061055f565b9150506100d1565b5080915050919050565b600080846040516020016101249190610618565b60405160208183030381529060405280519060200120905060405160200161014b9061067b565b60405160208183030381529060405280519060200120810361017b578284610173919061052b565b91505061023e565b60405160200161018a906106dc565b6040516020818303038152906040528051906020012081036101ba5782846101b291906106f1565b91505061023e565b6040516020016101c990610771565b6040516020818303038152906040528051906020012081036101f95782846101f191906107b5565b91505061023e565b60405160200161020890610832565b6040516020818303038152906040528051906020012081036102385782846102309190610847565b91505061023e565b60009150505b9392505050565b600080600090506000805b600a81101561029d5760006002836102689190610889565b1461028a578183610279919061052b565b925080806102869061055f565b9150505b81806102959061055f565b925050610250565b82935050505090565b6000604051905090565b600080fd5b600080fd5b6000819050919050565b6102cd816102ba565b81146102d857600080fd5b50565b6000813590506102ea816102c4565b92915050565b600060208284031215610306576103056102b0565b5b6000610314848285016102db565b91505092915050565b610326816102ba565b82525050565b6000602082019050610341600083018461031d565b92915050565b600080fd5b600080fd5b6000601f19601f8301169050919050565b7f4e487b7100000000000000000000000000000000000000000000000000000000600052604160045260246000fd5b61039a82610351565b810181811067ffffffffffffffff821117156103b9576103b8610362565b5b80604052505050565b60006103cc6102a6565b90506103d88282610391565b919050565b600067ffffffffffffffff8211156103f8576103f7610362565b5b61040182610351565b9050602081019050919050565b82818337600083830152505050565b600061043061042b846103dd565b6103c2565b90508281526020810184848401111561044c5761044b61034c565b5b61045784828561040e565b509392505050565b600082601f83011261047457610473610347565b5b813561048484826020860161041d565b91505092915050565b6000806000606084860312156104a6576104a56102b0565b5b600084013567ffffffffffffffff8111156104c4576104c36102b5565b5b6104d08682870161045f565b93505060206104e1868287016102db565b92505060406104f2868287016102db565b9150509250925092565b7f4e487b7100000000000000000000000000000000000000000000000000000000600052601160045260246000fd5b6000610536826102ba565b9150610541836102ba565b9250828201905080821115610559576105586104fc565b5b92915050565b600061056a826102ba565b91507fffffffffffffffffffffffffffffffffffffffffffffffffffffffffffffffff820361059c5761059b6104fc565b5b600182019050919050565b600081519050919050565b600081905092915050565b60005b838110156105db5780820151818401526020810190506105c0565b60008484015250505050565b60006105f2826105a7565b6105fc81856105b2565b935061060c8185602086016105bd565b80840191505092915050565b600061062482846105e7565b915081905092915050565b7f73756d6100000000000000000000000000000000000000000000000000000000600082015250565b60006106656004836105b2565b91506106708261062f565b600482019050919050565b600061068682610658565b9150819050919050565b7f7265737461000000000000000000000000000000000000000000000000000000600082015250565b60006106c66005836105b2565b91506106d182610690565b600582019050919050565b60006106e7826106b9565b9150819050919050565b60006106fc826102ba565b9150610707836102ba565b925082820390508181111561071f5761071e6104fc565b5b92915050565b7f6469766973696f6e000000000000000000000000000000000000000000000000600082015250565b600061075b6008836105b2565b915061076682610725565b600882019050919050565b600061077c8261074e565b9150819050919050565b7f4e487b7100000000000000000000000000000000000000000000000000000000600052601260045260246000fd5b60006107c0826102ba565b91506107cb836102ba565b9250826107db576107da610786565b5b828204905092915050565b7f6d756c7469706c69636163696f6e000000000000000000000000000000000000600082015250565b600061081c600e836105b2565b9150610827826107e6565b600e82019050919050565b600061083d8261080f565b9150819050919050565b6000610852826102ba565b915061085d836102ba565b925082820261086b816102ba565b91508282048414831517610882576108816104fc565b5b5092915050565b6000610894826102ba565b915061089f836102ba565b9250826108af576108ae610786565b5b82820690509291505056fea264697066735822122050ac18a8f9ab28a58475e34bfefaeea49e01d0e00b4b46e8f9cd3d1df86a6f8d64736f6c63430008120033",
					"opcodes": "PUSH1 0x80 PUSH1 0x40 MSTORE CALLVALUE DUP1 ISZERO PUSH2 0x10 JUMPI PUSH1 0x0 DUP1 REVERT JUMPDEST POP PUSH2 0x8F0 DUP1 PUSH2 0x20 PUSH1 0x0 CODECOPY PUSH1 0x0 RETURN INVALID PUSH1 0x80 PUSH1 0x40 MSTORE CALLVALUE DUP1 ISZERO PUSH2 0x10 JUMPI PUSH1 0x0 DUP1 REVERT JUMPDEST POP PUSH1 0x4 CALLDATASIZE LT PUSH2 0x41 JUMPI PUSH1 0x0 CALLDATALOAD PUSH1 0xE0 SHR DUP1 PUSH4 0x188B85B4 EQ PUSH2 0x46 JUMPI DUP1 PUSH4 0xAFEE9911 EQ PUSH2 0x76 JUMPI DUP1 PUSH4 0xC12363A2 EQ PUSH2 0xA6 JUMPI JUMPDEST PUSH1 0x0 DUP1 REVERT JUMPDEST PUSH2 0x60 PUSH1 0x4 DUP1 CALLDATASIZE SUB DUP2 ADD SWAP1 PUSH2 0x5B SWAP2 SWAP1 PUSH2 0x2F0 JUMP JUMPDEST PUSH2 0xC4 JUMP JUMPDEST PUSH1 0x40 MLOAD PUSH2 0x6D SWAP2 SWAP1 PUSH2 0x32C JUMP JUMPDEST PUSH1 0x40 MLOAD DUP1 SWAP2 SUB SWAP1 RETURN JUMPDEST PUSH2 0x90 PUSH1 0x4 DUP1 CALLDATASIZE SUB DUP2 ADD SWAP1 PUSH2 0x8B SWAP2 SWAP1 PUSH2 0x48D JUMP JUMPDEST PUSH2 0x110 JUMP JUMPDEST PUSH1 0x40 MLOAD PUSH2 0x9D SWAP2 SWAP1 PUSH2 0x32C JUMP JUMPDEST PUSH1 0x40 MLOAD DUP1 SWAP2 SUB SWAP1 RETURN JUMPDEST PUSH2 0xAE PUSH2 0x245 JUMP JUMPDEST PUSH1 0x40 MLOAD PUSH2 0xBB SWAP2 SWAP1 PUSH2 0x32C JUMP JUMPDEST PUSH1 0x40 MLOAD DUP1 SWAP2 SUB SWAP1 RETURN JUMPDEST PUSH1 0x0 DUP1 PUSH1 0x0 SWAP1 POP PUSH1 0x0 DUP4 SWAP1 POP JUMPDEST DUP4 PUSH1 0xA PUSH2 0xDE SWAP2 SWAP1 PUSH2 0x52B JUMP JUMPDEST DUP2 LT ISZERO PUSH2 0x106 JUMPI DUP1 DUP3 PUSH2 0xF1 SWAP2 SWAP1 PUSH2 0x52B JUMP JUMPDEST SWAP2 POP DUP1 DUP1 PUSH2 0xFE SWAP1 PUSH2 0x55F JUMP JUMPDEST SWAP2 POP POP PUSH2 0xD1 JUMP JUMPDEST POP DUP1 SWAP2 POP POP SWAP2 SWAP1 POP JUMP JUMPDEST PUSH1 0x0 DUP1 DUP5 PUSH1 0x40 MLOAD PUSH1 0x20 ADD PUSH2 0x124 SWAP2 SWAP1 PUSH2 0x618 JUMP JUMPDEST PUSH1 0x40 MLOAD PUSH1 0x20 DUP2 DUP4 SUB SUB DUP2 MSTORE SWAP1 PUSH1 0x40 MSTORE DUP1 MLOAD SWAP1 PUSH1 0x20 ADD KECCAK256 SWAP1 POP PUSH1 0x40 MLOAD PUSH1 0x20 ADD PUSH2 0x14B SWAP1 PUSH2 0x67B JUMP JUMPDEST PUSH1 0x40 MLOAD PUSH1 0x20 DUP2 DUP4 SUB SUB DUP2 MSTORE SWAP1 PUSH1 0x40 MSTORE DUP1 MLOAD SWAP1 PUSH1 0x20 ADD KECCAK256 DUP2 SUB PUSH2 0x17B JUMPI DUP3 DUP5 PUSH2 0x173 SWAP2 SWAP1 PUSH2 0x52B JUMP JUMPDEST SWAP2 POP POP PUSH2 0x23E JUMP JUMPDEST PUSH1 0x40 MLOAD PUSH1 0x20 ADD PUSH2 0x18A SWAP1 PUSH2 0x6DC JUMP JUMPDEST PUSH1 0x40 MLOAD PUSH1 0x20 DUP2 DUP4 SUB SUB DUP2 MSTORE SWAP1 PUSH1 0x40 MSTORE DUP1 MLOAD SWAP1 PUSH1 0x20 ADD KECCAK256 DUP2 SUB PUSH2 0x1BA JUMPI DUP3 DUP5 PUSH2 0x1B2 SWAP2 SWAP1 PUSH2 0x6F1 JUMP JUMPDEST SWAP2 POP POP PUSH2 0x23E JUMP JUMPDEST PUSH1 0x40 MLOAD PUSH1 0x20 ADD PUSH2 0x1C9 SWAP1 PUSH2 0x771 JUMP JUMPDEST PUSH1 0x40 MLOAD PUSH1 0x20 DUP2 DUP4 SUB SUB DUP2 MSTORE SWAP1 PUSH1 0x40 MSTORE DUP1 MLOAD SWAP1 PUSH1 0x20 ADD KECCAK256 DUP2 SUB PUSH2 0x1F9 JUMPI DUP3 DUP5 PUSH2 0x1F1 SWAP2 SWAP1 PUSH2 0x7B5 JUMP JUMPDEST SWAP2 POP POP PUSH2 0x23E JUMP JUMPDEST PUSH1 0x40 MLOAD PUSH1 0x20 ADD PUSH2 0x208 SWAP1 PUSH2 0x832 JUMP JUMPDEST PUSH1 0x40 MLOAD PUSH1 0x20 DUP2 DUP4 SUB SUB DUP2 MSTORE SWAP1 PUSH1 0x40 MSTORE DUP1 MLOAD SWAP1 PUSH1 0x20 ADD KECCAK256 DUP2 SUB PUSH2 0x238 JUMPI DUP3 DUP5 PUSH2 0x230 SWAP2 SWAP1 PUSH2 0x847 JUMP JUMPDEST SWAP2 POP POP PUSH2 0x23E JUMP JUMPDEST PUSH1 0x0 SWAP2 POP POP JUMPDEST SWAP4 SWAP3 POP POP POP JUMP JUMPDEST PUSH1 0x0 DUP1 PUSH1 0x0 SWAP1 POP PUSH1 0x0 DUP1 JUMPDEST PUSH1 0xA DUP2 LT ISZERO PUSH2 0x29D JUMPI PUSH1 0x0 PUSH1 0x2 DUP4 PUSH2 0x268 SWAP2 SWAP1 PUSH2 0x889 JUMP JUMPDEST EQ PUSH2 0x28A JUMPI DUP2 DUP4 PUSH2 0x279 SWAP2 SWAP1 PUSH2 0x52B JUMP JUMPDEST SWAP3 POP DUP1 DUP1 PUSH2 0x286 SWAP1 PUSH2 0x55F JUMP JUMPDEST SWAP2 POP POP JUMPDEST DUP2 DUP1 PUSH2 0x295 SWAP1 PUSH2 0x55F JUMP JUMPDEST SWAP3 POP POP PUSH2 0x250 JUMP JUMPDEST DUP3 SWAP4 POP POP POP POP SWAP1 JUMP JUMPDEST PUSH1 0x0 PUSH1 0x40 MLOAD SWAP1 POP SWAP1 JUMP JUMPDEST PUSH1 0x0 DUP1 REVERT JUMPDEST PUSH1 0x0 DUP1 REVERT JUMPDEST PUSH1 0x0 DUP2 SWAP1 POP SWAP2 SWAP1 POP JUMP JUMPDEST PUSH2 0x2CD DUP2 PUSH2 0x2BA JUMP JUMPDEST DUP2 EQ PUSH2 0x2D8 JUMPI PUSH1 0x0 DUP1 REVERT JUMPDEST POP JUMP JUMPDEST PUSH1 0x0 DUP2 CALLDATALOAD SWAP1 POP PUSH2 0x2EA DUP2 PUSH2 0x2C4 JUMP JUMPDEST SWAP3 SWAP2 POP POP JUMP JUMPDEST PUSH1 0x0 PUSH1 0x20 DUP3 DUP5 SUB SLT ISZERO PUSH2 0x306 JUMPI PUSH2 0x305 PUSH2 0x2B0 JUMP JUMPDEST JUMPDEST PUSH1 0x0 PUSH2 0x314 DUP5 DUP3 DUP6 ADD PUSH2 0x2DB JUMP JUMPDEST SWAP2 POP POP SWAP3 SWAP2 POP POP JUMP JUMPDEST PUSH2 0x326 DUP2 PUSH2 0x2BA JUMP JUMPDEST DUP3 MSTORE POP POP JUMP JUMPDEST PUSH1 0x0 PUSH1 0x20 DUP3 ADD SWAP1 POP PUSH2 0x341 PUSH1 0x0 DUP4 ADD DUP5 PUSH2 0x31D JUMP JUMPDEST SWAP3 SWAP2 POP POP JUMP JUMPDEST PUSH1 0x0 DUP1 REVERT JUMPDEST PUSH1 0x0 DUP1 REVERT JUMPDEST PUSH1 0x0 PUSH1 0x1F NOT PUSH1 0x1F DUP4 ADD AND SWAP1 POP SWAP2 SWAP1 POP JUMP JUMPDEST PUSH32 0x4E487B7100000000000000000000000000000000000000000000000000000000 PUSH1 0x0 MSTORE PUSH1 0x41 PUSH1 0x4 MSTORE PUSH1 0x24 PUSH1 0x0 REVERT JUMPDEST PUSH2 0x39A DUP3 PUSH2 0x351 JUMP JUMPDEST DUP2 ADD DUP2 DUP2 LT PUSH8 0xFFFFFFFFFFFFFFFF DUP3 GT OR ISZERO PUSH2 0x3B9 JUMPI PUSH2 0x3B8 PUSH2 0x362 JUMP JUMPDEST JUMPDEST DUP1 PUSH1 0x40 MSTORE POP POP POP JUMP JUMPDEST PUSH1 0x0 PUSH2 0x3CC PUSH2 0x2A6 JUMP JUMPDEST SWAP1 POP PUSH2 0x3D8 DUP3 DUP3 PUSH2 0x391 JUMP JUMPDEST SWAP2 SWAP1 POP JUMP JUMPDEST PUSH1 0x0 PUSH8 0xFFFFFFFFFFFFFFFF DUP3 GT ISZERO PUSH2 0x3F8 JUMPI PUSH2 0x3F7 PUSH2 0x362 JUMP JUMPDEST JUMPDEST PUSH2 0x401 DUP3 PUSH2 0x351 JUMP JUMPDEST SWAP1 POP PUSH1 0x20 DUP2 ADD SWAP1 POP SWAP2 SWAP1 POP JUMP JUMPDEST DUP3 DUP2 DUP4 CALLDATACOPY PUSH1 0x0 DUP4 DUP4 ADD MSTORE POP POP POP JUMP JUMPDEST PUSH1 0x0 PUSH2 0x430 PUSH2 0x42B DUP5 PUSH2 0x3DD JUMP JUMPDEST PUSH2 0x3C2 JUMP JUMPDEST SWAP1 POP DUP3 DUP2 MSTORE PUSH1 0x20 DUP2 ADD DUP5 DUP5 DUP5 ADD GT ISZERO PUSH2 0x44C JUMPI PUSH2 0x44B PUSH2 0x34C JUMP JUMPDEST JUMPDEST PUSH2 0x457 DUP5 DUP3 DUP6 PUSH2 0x40E JUMP JUMPDEST POP SWAP4 SWAP3 POP POP POP JUMP JUMPDEST PUSH1 0x0 DUP3 PUSH1 0x1F DUP4 ADD SLT PUSH2 0x474 JUMPI PUSH2 0x473 PUSH2 0x347 JUMP JUMPDEST JUMPDEST DUP2 CALLDATALOAD PUSH2 0x484 DUP5 DUP3 PUSH1 0x20 DUP7 ADD PUSH2 0x41D JUMP JUMPDEST SWAP2 POP POP SWAP3 SWAP2 POP POP JUMP JUMPDEST PUSH1 0x0 DUP1 PUSH1 0x0 PUSH1 0x60 DUP5 DUP7 SUB SLT ISZERO PUSH2 0x4A6 JUMPI PUSH2 0x4A5 PUSH2 0x2B0 JUMP JUMPDEST JUMPDEST PUSH1 0x0 DUP5 ADD CALLDATALOAD PUSH8 0xFFFFFFFFFFFFFFFF DUP2 GT ISZERO PUSH2 0x4C4 JUMPI PUSH2 0x4C3 PUSH2 0x2B5 JUMP JUMPDEST JUMPDEST PUSH2 0x4D0 DUP7 DUP3 DUP8 ADD PUSH2 0x45F JUMP JUMPDEST SWAP4 POP POP PUSH1 0x20 PUSH2 0x4E1 DUP7 DUP3 DUP8 ADD PUSH2 0x2DB JUMP JUMPDEST SWAP3 POP POP PUSH1 0x40 PUSH2 0x4F2 DUP7 DUP3 DUP8 ADD PUSH2 0x2DB JUMP JUMPDEST SWAP2 POP POP SWAP3 POP SWAP3 POP SWAP3 JUMP JUMPDEST PUSH32 0x4E487B7100000000000000000000000000000000000000000000000000000000 PUSH1 0x0 MSTORE PUSH1 0x11 PUSH1 0x4 MSTORE PUSH1 0x24 PUSH1 0x0 REVERT JUMPDEST PUSH1 0x0 PUSH2 0x536 DUP3 PUSH2 0x2BA JUMP JUMPDEST SWAP2 POP PUSH2 0x541 DUP4 PUSH2 0x2BA JUMP JUMPDEST SWAP3 POP DUP3 DUP3 ADD SWAP1 POP DUP1 DUP3 GT ISZERO PUSH2 0x559 JUMPI PUSH2 0x558 PUSH2 0x4FC JUMP JUMPDEST JUMPDEST SWAP3 SWAP2 POP POP JUMP JUMPDEST PUSH1 0x0 PUSH2 0x56A DUP3 PUSH2 0x2BA JUMP JUMPDEST SWAP2 POP PUSH32 0xFFFFFFFFFFFFFFFFFFFFFFFFFFFFFFFFFFFFFFFFFFFFFFFFFFFFFFFFFFFFFFFF DUP3 SUB PUSH2 0x59C JUMPI PUSH2 0x59B PUSH2 0x4FC JUMP JUMPDEST JUMPDEST PUSH1 0x1 DUP3 ADD SWAP1 POP SWAP2 SWAP1 POP JUMP JUMPDEST PUSH1 0x0 DUP2 MLOAD SWAP1 POP SWAP2 SWAP1 POP JUMP JUMPDEST PUSH1 0x0 DUP2 SWAP1 POP SWAP3 SWAP2 POP POP JUMP JUMPDEST PUSH1 0x0 JUMPDEST DUP4 DUP2 LT ISZERO PUSH2 0x5DB JUMPI DUP1 DUP3 ADD MLOAD DUP2 DUP5 ADD MSTORE PUSH1 0x20 DUP2 ADD SWAP1 POP PUSH2 0x5C0 JUMP JUMPDEST PUSH1 0x0 DUP5 DUP5 ADD MSTORE POP POP POP POP JUMP JUMPDEST PUSH1 0x0 PUSH2 0x5F2 DUP3 PUSH2 0x5A7 JUMP JUMPDEST PUSH2 0x5FC DUP2 DUP6 PUSH2 0x5B2 JUMP JUMPDEST SWAP4 POP PUSH2 0x60C DUP2 DUP6 PUSH1 0x20 DUP7 ADD PUSH2 0x5BD JUMP JUMPDEST DUP1 DUP5 ADD SWAP2 POP POP SWAP3 SWAP2 POP POP JUMP JUMPDEST PUSH1 0x0 PUSH2 0x624 DUP3 DUP5 PUSH2 0x5E7 JUMP JUMPDEST SWAP2 POP DUP2 SWAP1 POP SWAP3 SWAP2 POP POP JUMP JUMPDEST PUSH32 0x73756D6100000000000000000000000000000000000000000000000000000000 PUSH1 0x0 DUP3 ADD MSTORE POP JUMP JUMPDEST PUSH1 0x0 PUSH2 0x665 PUSH1 0x4 DUP4 PUSH2 0x5B2 JUMP JUMPDEST SWAP2 POP PUSH2 0x670 DUP3 PUSH2 0x62F JUMP JUMPDEST PUSH1 0x4 DUP3 ADD SWAP1 POP SWAP2 SWAP1 POP JUMP JUMPDEST PUSH1 0x0 PUSH2 0x686 DUP3 PUSH2 0x658 JUMP JUMPDEST SWAP2 POP DUP2 SWAP1 POP SWAP2 SWAP1 POP JUMP JUMPDEST PUSH32 0x7265737461000000000000000000000000000000000000000000000000000000 PUSH1 0x0 DUP3 ADD MSTORE POP JUMP JUMPDEST PUSH1 0x0 PUSH2 0x6C6 PUSH1 0x5 DUP4 PUSH2 0x5B2 JUMP JUMPDEST SWAP2 POP PUSH2 0x6D1 DUP3 PUSH2 0x690 JUMP JUMPDEST PUSH1 0x5 DUP3 ADD SWAP1 POP SWAP2 SWAP1 POP JUMP JUMPDEST PUSH1 0x0 PUSH2 0x6E7 DUP3 PUSH2 0x6B9 JUMP JUMPDEST SWAP2 POP DUP2 SWAP1 POP SWAP2 SWAP1 POP JUMP JUMPDEST PUSH1 0x0 PUSH2 0x6FC DUP3 PUSH2 0x2BA JUMP JUMPDEST SWAP2 POP PUSH2 0x707 DUP4 PUSH2 0x2BA JUMP JUMPDEST SWAP3 POP DUP3 DUP3 SUB SWAP1 POP DUP2 DUP2 GT ISZERO PUSH2 0x71F JUMPI PUSH2 0x71E PUSH2 0x4FC JUMP JUMPDEST JUMPDEST SWAP3 SWAP2 POP POP JUMP JUMPDEST PUSH32 0x6469766973696F6E000000000000000000000000000000000000000000000000 PUSH1 0x0 DUP3 ADD MSTORE POP JUMP JUMPDEST PUSH1 0x0 PUSH2 0x75B PUSH1 0x8 DUP4 PUSH2 0x5B2 JUMP JUMPDEST SWAP2 POP PUSH2 0x766 DUP3 PUSH2 0x725 JUMP JUMPDEST PUSH1 0x8 DUP3 ADD SWAP1 POP SWAP2 SWAP1 POP JUMP JUMPDEST PUSH1 0x0 PUSH2 0x77C DUP3 PUSH2 0x74E JUMP JUMPDEST SWAP2 POP DUP2 SWAP1 POP SWAP2 SWAP1 POP JUMP JUMPDEST PUSH32 0x4E487B7100000000000000000000000000000000000000000000000000000000 PUSH1 0x0 MSTORE PUSH1 0x12 PUSH1 0x4 MSTORE PUSH1 0x24 PUSH1 0x0 REVERT JUMPDEST PUSH1 0x0 PUSH2 0x7C0 DUP3 PUSH2 0x2BA JUMP JUMPDEST SWAP2 POP PUSH2 0x7CB DUP4 PUSH2 0x2BA JUMP JUMPDEST SWAP3 POP DUP3 PUSH2 0x7DB JUMPI PUSH2 0x7DA PUSH2 0x786 JUMP JUMPDEST JUMPDEST DUP3 DUP3 DIV SWAP1 POP SWAP3 SWAP2 POP POP JUMP JUMPDEST PUSH32 0x6D756C7469706C69636163696F6E000000000000000000000000000000000000 PUSH1 0x0 DUP3 ADD MSTORE POP JUMP JUMPDEST PUSH1 0x0 PUSH2 0x81C PUSH1 0xE DUP4 PUSH2 0x5B2 JUMP JUMPDEST SWAP2 POP PUSH2 0x827 DUP3 PUSH2 0x7E6 JUMP JUMPDEST PUSH1 0xE DUP3 ADD SWAP1 POP SWAP2 SWAP1 POP JUMP JUMPDEST PUSH1 0x0 PUSH2 0x83D DUP3 PUSH2 0x80F JUMP JUMPDEST SWAP2 POP DUP2 SWAP1 POP SWAP2 SWAP1 POP JUMP JUMPDEST PUSH1 0x0 PUSH2 0x852 DUP3 PUSH2 0x2BA JUMP JUMPDEST SWAP2 POP PUSH2 0x85D DUP4 PUSH2 0x2BA JUMP JUMPDEST SWAP3 POP DUP3 DUP3 MUL PUSH2 0x86B DUP2 PUSH2 0x2BA JUMP JUMPDEST SWAP2 POP DUP3 DUP3 DIV DUP5 EQ DUP4 ISZERO OR PUSH2 0x882 JUMPI PUSH2 0x881 PUSH2 0x4FC JUMP JUMPDEST JUMPDEST POP SWAP3 SWAP2 POP POP JUMP JUMPDEST PUSH1 0x0 PUSH2 0x894 DUP3 PUSH2 0x2BA JUMP JUMPDEST SWAP2 POP PUSH2 0x89F DUP4 PUSH2 0x2BA JUMP JUMPDEST SWAP3 POP DUP3 PUSH2 0x8AF JUMPI PUSH2 0x8AE PUSH2 0x786 JUMP JUMPDEST JUMPDEST DUP3 DUP3 MOD SWAP1 POP SWAP3 SWAP2 POP POP JUMP INVALID LOG2 PUSH5 0x6970667358 0x22 SLT KECCAK256 POP 0xAC XOR 0xA8 0xF9 0xAB 0x28 0xA5 DUP5 PUSH22 0xE34BFEFAEEA49E01D0E00B4B46E8F9CD3D1DF86A6F8D PUSH5 0x736F6C6343 STOP ADDMOD SLT STOP CALLER "
				},
				"gasEstimates": {
					"creation": {
						"codeDepositCost": "457600",
						"executionCost": "493",
						"totalCost": "458093"
					},
					"external": {
						"odd()": "infinite",
						"sum(uint256)": "infinite",
						"sum_rest(string,uint256,uint256)": "infinite"
					}
				},
				"methodIdentifiers": {
					"odd()": "c12363a2",
					"sum(uint256)": "188b85b4",
					"sum_rest(string,uint256,uint256)": "afee9911"
				}
			},
			"storageLayout": {
				"storage": [],
				"types": null
			},
			"userdoc": {
				"kind": "user",
				"methods": {},
				"version": 1
			}
		}
	}
}