{
	"primerContrato/Smart_Contracts/3_estructuras_datos.sol": {
		"data_structures": {
			"abi": [
				{
					"inputs": [
						{
							"internalType": "address",
							"name": "",
							"type": "address"
						}
					],
					"name": "address_dataStructure",
					"outputs": [
						{
							"internalType": "uint256",
							"name": "id",
							"type": "uint256"
						},
						{
							"internalType": "string",
							"name": "name",
							"type": "string"
						},
						{
							"internalType": "string",
							"name": "email",
							"type": "string"
						}
					],
					"stateMutability": "view",
					"type": "function"
				},
				{
					"inputs": [
						{
							"internalType": "address",
							"name": "",
							"type": "address"
						}
					],
					"name": "address_uint",
					"outputs": [
						{
							"internalType": "uint256",
							"name": "",
							"type": "uint256"
						}
					],
					"stateMutability": "view",
					"type": "function"
				},
				{
					"inputs": [
						{
							"internalType": "uint256",
							"name": "_id",
							"type": "uint256"
						},
						{
							"internalType": "string",
							"name": "_name",
							"type": "string"
						},
						{
							"internalType": "string",
							"name": "_email",
							"type": "string"
						}
					],
					"name": "array_modification",
					"outputs": [],
					"stateMutability": "nonpayable",
					"type": "function"
				},
				{
					"inputs": [
						{
							"internalType": "uint256",
							"name": "_number",
							"type": "uint256"
						}
					],
					"name": "assigNumber",
					"outputs": [],
					"stateMutability": "nonpayable",
					"type": "function"
				},
				{
					"inputs": [
						{
							"internalType": "uint256",
							"name": "_id",
							"type": "uint256"
						},
						{
							"internalType": "string",
							"name": "_name",
							"type": "string"
						},
						{
							"internalType": "string",
							"name": "_email",
							"type": "string"
						}
					],
					"name": "assignDataStructure",
					"outputs": [],
					"stateMutability": "nonpayable",
					"type": "function"
				},
				{
					"inputs": [
						{
							"internalType": "uint256",
							"name": "",
							"type": "uint256"
						}
					],
					"name": "dynamic_list_customer",
					"outputs": [
						{
							"internalType": "uint256",
							"name": "id",
							"type": "uint256"
						},
						{
							"internalType": "string",
							"name": "name",
							"type": "string"
						},
						{
							"internalType": "string",
							"name": "email",
							"type": "string"
						}
					],
					"stateMutability": "view",
					"type": "function"
				},
				{
					"inputs": [
						{
							"internalType": "uint256",
							"name": "",
							"type": "uint256"
						}
					],
					"name": "fixed_list_units",
					"outputs": [
						{
							"internalType": "uint256",
							"name": "",
							"type": "uint256"
						}
					],
					"stateMutability": "view",
					"type": "function"
				},
				{
					"inputs": [
						{
							"internalType": "string",
							"name": "",
							"type": "string"
						},
						{
							"internalType": "uint256",
							"name": "",
							"type": "uint256"
						}
					],
					"name": "string_listUnits",
					"outputs": [
						{
							"internalType": "uint256",
							"name": "",
							"type": "uint256"
						}
					],
					"stateMutability": "view",
					"type": "function"
				}
			],
			"devdoc": {
				"kind": "dev",
				"methods": {},
				"version": 1
			},
			"evm": {
				"assembly": "    /* \"primerContrato/Smart_Contracts/3_estructuras_datos.sol\":60:1474  contract data_structures { ... */\n  mstore(0x40, 0x80)\n    /* \"primerContrato/Smart_Contracts/3_estructuras_datos.sol\":331:366  Customer(1,\"Joan\",\"joan@gmail.com\") */\n  mload(0x40)\n  dup1\n  0x60\n  add\n  0x40\n  mstore\n  dup1\n    /* \"primerContrato/Smart_Contracts/3_estructuras_datos.sol\":340:341  1 */\n  0x01\n    /* \"primerContrato/Smart_Contracts/3_estructuras_datos.sol\":331:366  Customer(1,\"Joan\",\"joan@gmail.com\") */\n  dup2\n  mstore\n  0x20\n  add\n  mload(0x40)\n  dup1\n  0x40\n  add\n  0x40\n  mstore\n  dup1\n  0x04\n  dup2\n  mstore\n  0x20\n  add\n  0x4a6f616e00000000000000000000000000000000000000000000000000000000\n  dup2\n  mstore\n  pop\n  dup2\n  mstore\n  0x20\n  add\n  mload(0x40)\n  dup1\n  0x40\n  add\n  0x40\n  mstore\n  dup1\n  0x0e\n  dup2\n  mstore\n  0x20\n  add\n  0x6a6f616e40676d61696c2e636f6d000000000000000000000000000000000000\n  dup2\n  mstore\n  pop\n  dup2\n  mstore\n  pop\n    /* \"primerContrato/Smart_Contracts/3_estructuras_datos.sol\":309:366  Customer customer_1 = Customer(1,\"Joan\",\"joan@gmail.com\") */\n  0x00\n  dup1\n  dup3\n  add\n  mload\n  dup2\n  0x00\n  add\n  sstore\n  0x20\n  dup3\n  add\n  mload\n  dup2\n  0x01\n  add\n  swap1\n  dup2\n  tag_1\n  swap2\n  swap1\n  tag_2\n  jump\t// in\ntag_1:\n  pop\n  0x40\n  dup3\n  add\n  mload\n  dup2\n  0x02\n  add\n  swap1\n  dup2\n  tag_3\n  swap2\n  swap1\n  tag_2\n  jump\t// in\ntag_3:\n  pop\n  pop\n  pop\n    /* \"primerContrato/Smart_Contracts/3_estructuras_datos.sol\":418:466  uint256[5] public fixed_list_units = [1,2,3,4,5] */\n  mload(0x40)\n  dup1\n  0xa0\n  add\n  0x40\n  mstore\n  dup1\n    /* \"primerContrato/Smart_Contracts/3_estructuras_datos.sol\":456:457  1 */\n  0x01\n    /* \"primerContrato/Smart_Contracts/3_estructuras_datos.sol\":418:466  uint256[5] public fixed_list_units = [1,2,3,4,5] */\n  0xff\n  and\n  dup2\n  mstore\n  0x20\n  add\n    /* \"primerContrato/Smart_Contracts/3_estructuras_datos.sol\":458:459  2 */\n  0x02\n    /* \"primerContrato/Smart_Contracts/3_estructuras_datos.sol\":418:466  uint256[5] public fixed_list_units = [1,2,3,4,5] */\n  0xff\n  and\n  dup2\n  mstore\n  0x20\n  add\n    /* \"primerContrato/Smart_Contracts/3_estructuras_datos.sol\":460:461  3 */\n  0x03\n    /* \"primerContrato/Smart_Contracts/3_estructuras_datos.sol\":418:466  uint256[5] public fixed_list_units = [1,2,3,4,5] */\n  0xff\n  and\n  dup2\n  mstore\n  0x20\n  add\n    /* \"primerContrato/Smart_Contracts/3_estructuras_datos.sol\":462:463  4 */\n  0x04\n    /* \"primerContrato/Smart_Contracts/3_estructuras_datos.sol\":418:466  uint256[5] public fixed_list_units = [1,2,3,4,5] */\n  0xff\n  and\n  dup2\n  mstore\n  0x20\n  add\n    /* \"primerContrato/Smart_Contracts/3_estructuras_datos.sol\":464:465  5 */\n  0x05\n    /* \"primerContrato/Smart_Contracts/3_estructuras_datos.sol\":418:466  uint256[5] public fixed_list_units = [1,2,3,4,5] */\n  0xff\n  and\n  dup2\n  mstore\n  pop\n  0x03\n  swap1\n  0x05\n  tag_4\n  swap3\n  swap2\n  swap1\n  tag_5\n  jump\t// in\ntag_4:\n  pop\n    /* \"primerContrato/Smart_Contracts/3_estructuras_datos.sol\":60:1474  contract data_structures { ... */\n  callvalue\n  dup1\n  iszero\n  tag_6\n  jumpi\n  0x00\n  dup1\n  revert\ntag_6:\n  pop\n  jump(tag_7)\ntag_5:\n  dup3\n  0x05\n  dup2\n  add\n  swap3\n  dup3\n  iszero\n  tag_8\n  jumpi\n  swap2\n  0x20\n  mul\n  dup3\n  add\ntag_9:\n  dup3\n  dup2\n  gt\n  iszero\n  tag_10\n  jumpi\n  dup3\n  mload\n  dup3\n  swap1\n  0xff\n  and\n  swap1\n  sstore\n  swap2\n  0x20\n  add\n  swap2\n  swap1\n  0x01\n  add\n  swap1\n  jump(tag_9)\ntag_10:\ntag_8:\n  pop\n  swap1\n  pop\n  tag_11\n  swap2\n  swap1\n  tag_12\n  jump\t// in\ntag_11:\n  pop\n  swap1\n  jump\t// out\ntag_12:\ntag_13:\n  dup1\n  dup3\n  gt\n  iszero\n  tag_14\n  jumpi\n  0x00\n  dup2\n  0x00\n  swap1\n  sstore\n  pop\n  0x01\n  add\n  jump(tag_13)\ntag_14:\n  pop\n  swap1\n  jump\t// out\n    /* \"#utility.yul\":7:106   */\ntag_15:\n    /* \"#utility.yul\":59:65   */\n  0x00\n    /* \"#utility.yul\":93:98   */\n  dup2\n    /* \"#utility.yul\":87:99   */\n  mload\n    /* \"#utility.yul\":77:99   */\n  swap1\n  pop\n    /* \"#utility.yul\":7:106   */\n  swap2\n  swap1\n  pop\n  jump\t// out\n    /* \"#utility.yul\":112:292   */\ntag_16:\n    /* \"#utility.yul\":160:237   */\n  0x4e487b7100000000000000000000000000000000000000000000000000000000\n    /* \"#utility.yul\":157:158   */\n  0x00\n    /* \"#utility.yul\":150:238   */\n  mstore\n    /* \"#utility.yul\":257:261   */\n  0x41\n    /* \"#utility.yul\":254:255   */\n  0x04\n    /* \"#utility.yul\":247:262   */\n  mstore\n    /* \"#utility.yul\":281:285   */\n  0x24\n    /* \"#utility.yul\":278:279   */\n  0x00\n    /* \"#utility.yul\":271:286   */\n  revert\n    /* \"#utility.yul\":298:478   */\ntag_17:\n    /* \"#utility.yul\":346:423   */\n  0x4e487b7100000000000000000000000000000000000000000000000000000000\n    /* \"#utility.yul\":343:344   */\n  0x00\n    /* \"#utility.yul\":336:424   */\n  mstore\n    /* \"#utility.yul\":443:447   */\n  0x22\n    /* \"#utility.yul\":440:441   */\n  0x04\n    /* \"#utility.yul\":433:448   */\n  mstore\n    /* \"#utility.yul\":467:471   */\n  0x24\n    /* \"#utility.yul\":464:465   */\n  0x00\n    /* \"#utility.yul\":457:472   */\n  revert\n    /* \"#utility.yul\":484:804   */\ntag_18:\n    /* \"#utility.yul\":528:534   */\n  0x00\n    /* \"#utility.yul\":565:566   */\n  0x02\n    /* \"#utility.yul\":559:563   */\n  dup3\n    /* \"#utility.yul\":555:567   */\n  div\n    /* \"#utility.yul\":545:567   */\n  swap1\n  pop\n    /* \"#utility.yul\":612:613   */\n  0x01\n    /* \"#utility.yul\":606:610   */\n  dup3\n    /* \"#utility.yul\":602:614   */\n  and\n    /* \"#utility.yul\":633:651   */\n  dup1\n    /* \"#utility.yul\":623:704   */\n  tag_40\n  jumpi\n    /* \"#utility.yul\":689:693   */\n  0x7f\n    /* \"#utility.yul\":681:687   */\n  dup3\n    /* \"#utility.yul\":677:694   */\n  and\n    /* \"#utility.yul\":667:694   */\n  swap2\n  pop\n    /* \"#utility.yul\":623:704   */\ntag_40:\n    /* \"#utility.yul\":751:753   */\n  0x20\n    /* \"#utility.yul\":743:749   */\n  dup3\n    /* \"#utility.yul\":740:754   */\n  lt\n    /* \"#utility.yul\":720:738   */\n  dup2\n    /* \"#utility.yul\":717:755   */\n  sub\n    /* \"#utility.yul\":714:798   */\n  tag_41\n  jumpi\n    /* \"#utility.yul\":770:788   */\n  tag_42\n  tag_17\n  jump\t// in\ntag_42:\n    /* \"#utility.yul\":714:798   */\ntag_41:\n    /* \"#utility.yul\":535:804   */\n  pop\n    /* \"#utility.yul\":484:804   */\n  swap2\n  swap1\n  pop\n  jump\t// out\n    /* \"#utility.yul\":810:951   */\ntag_19:\n    /* \"#utility.yul\":859:863   */\n  0x00\n    /* \"#utility.yul\":882:885   */\n  dup2\n    /* \"#utility.yul\":874:885   */\n  swap1\n  pop\n    /* \"#utility.yul\":905:908   */\n  dup2\n    /* \"#utility.yul\":902:903   */\n  0x00\n    /* \"#utility.yul\":895:909   */\n  mstore\n    /* \"#utility.yul\":939:943   */\n  0x20\n    /* \"#utility.yul\":936:937   */\n  0x00\n    /* \"#utility.yul\":926:944   */\n  keccak256\n    /* \"#utility.yul\":918:944   */\n  swap1\n  pop\n    /* \"#utility.yul\":810:951   */\n  swap2\n  swap1\n  pop\n  jump\t// out\n    /* \"#utility.yul\":957:1050   */\ntag_20:\n    /* \"#utility.yul\":994:1000   */\n  0x00\n    /* \"#utility.yul\":1041:1043   */\n  0x20\n    /* \"#utility.yul\":1036:1038   */\n  0x1f\n    /* \"#utility.yul\":1029:1034   */\n  dup4\n    /* \"#utility.yul\":1025:1039   */\n  add\n    /* \"#utility.yul\":1021:1044   */\n  div\n    /* \"#utility.yul\":1011:1044   */\n  swap1\n  pop\n    /* \"#utility.yul\":957:1050   */\n  swap2\n  swap1\n  pop\n  jump\t// out\n    /* \"#utility.yul\":1056:1163   */\ntag_21:\n    /* \"#utility.yul\":1100:1108   */\n  0x00\n    /* \"#utility.yul\":1150:1155   */\n  dup3\n    /* \"#utility.yul\":1144:1148   */\n  dup3\n    /* \"#utility.yul\":1140:1156   */\n  shl\n    /* \"#utility.yul\":1119:1156   */\n  swap1\n  pop\n    /* \"#utility.yul\":1056:1163   */\n  swap3\n  swap2\n  pop\n  pop\n  jump\t// out\n    /* \"#utility.yul\":1169:1562   */\ntag_22:\n    /* \"#utility.yul\":1238:1244   */\n  0x00\n    /* \"#utility.yul\":1288:1289   */\n  0x08\n    /* \"#utility.yul\":1276:1286   */\n  dup4\n    /* \"#utility.yul\":1272:1290   */\n  mul\n    /* \"#utility.yul\":1311:1408   */\n  tag_47\n    /* \"#utility.yul\":1341:1407   */\n  0xffffffffffffffffffffffffffffffffffffffffffffffffffffffffffffffff\n    /* \"#utility.yul\":1330:1339   */\n  dup3\n    /* \"#utility.yul\":1311:1408   */\n  tag_21\n  jump\t// in\ntag_47:\n    /* \"#utility.yul\":1429:1468   */\n  tag_48\n    /* \"#utility.yul\":1459:1467   */\n  dup7\n    /* \"#utility.yul\":1448:1457   */\n  dup4\n    /* \"#utility.yul\":1429:1468   */\n  tag_21\n  jump\t// in\ntag_48:\n    /* \"#utility.yul\":1417:1468   */\n  swap6\n  pop\n    /* \"#utility.yul\":1501:1505   */\n  dup1\n    /* \"#utility.yul\":1497:1506   */\n  not\n    /* \"#utility.yul\":1490:1495   */\n  dup5\n    /* \"#utility.yul\":1486:1507   */\n  and\n    /* \"#utility.yul\":1477:1507   */\n  swap4\n  pop\n    /* \"#utility.yul\":1550:1554   */\n  dup1\n    /* \"#utility.yul\":1540:1548   */\n  dup7\n    /* \"#utility.yul\":1536:1555   */\n  and\n    /* \"#utility.yul\":1529:1534   */\n  dup5\n    /* \"#utility.yul\":1526:1556   */\n  or\n    /* \"#utility.yul\":1516:1556   */\n  swap3\n  pop\n    /* \"#utility.yul\":1245:1562   */\n  pop\n  pop\n    /* \"#utility.yul\":1169:1562   */\n  swap4\n  swap3\n  pop\n  pop\n  pop\n  jump\t// out\n    /* \"#utility.yul\":1568:1645   */\ntag_23:\n    /* \"#utility.yul\":1605:1612   */\n  0x00\n    /* \"#utility.yul\":1634:1639   */\n  dup2\n    /* \"#utility.yul\":1623:1639   */\n  swap1\n  pop\n    /* \"#utility.yul\":1568:1645   */\n  swap2\n  swap1\n  pop\n  jump\t// out\n    /* \"#utility.yul\":1651:1711   */\ntag_24:\n    /* \"#utility.yul\":1679:1682   */\n  0x00\n    /* \"#utility.yul\":1700:1705   */\n  dup2\n    /* \"#utility.yul\":1693:1705   */\n  swap1\n  pop\n    /* \"#utility.yul\":1651:1711   */\n  swap2\n  swap1\n  pop\n  jump\t// out\n    /* \"#utility.yul\":1717:1859   */\ntag_25:\n    /* \"#utility.yul\":1767:1776   */\n  0x00\n    /* \"#utility.yul\":1800:1853   */\n  tag_52\n    /* \"#utility.yul\":1818:1852   */\n  tag_53\n    /* \"#utility.yul\":1827:1851   */\n  tag_54\n    /* \"#utility.yul\":1845:1850   */\n  dup5\n    /* \"#utility.yul\":1827:1851   */\n  tag_23\n  jump\t// in\ntag_54:\n    /* \"#utility.yul\":1818:1852   */\n  tag_24\n  jump\t// in\ntag_53:\n    /* \"#utility.yul\":1800:1853   */\n  tag_23\n  jump\t// in\ntag_52:\n    /* \"#utility.yul\":1787:1853   */\n  swap1\n  pop\n    /* \"#utility.yul\":1717:1859   */\n  swap2\n  swap1\n  pop\n  jump\t// out\n    /* \"#utility.yul\":1865:1940   */\ntag_26:\n    /* \"#utility.yul\":1908:1911   */\n  0x00\n    /* \"#utility.yul\":1929:1934   */\n  dup2\n    /* \"#utility.yul\":1922:1934   */\n  swap1\n  pop\n    /* \"#utility.yul\":1865:1940   */\n  swap2\n  swap1\n  pop\n  jump\t// out\n    /* \"#utility.yul\":1946:2215   */\ntag_27:\n    /* \"#utility.yul\":2056:2095   */\n  tag_57\n    /* \"#utility.yul\":2087:2094   */\n  dup4\n    /* \"#utility.yul\":2056:2095   */\n  tag_25\n  jump\t// in\ntag_57:\n    /* \"#utility.yul\":2117:2208   */\n  tag_58\n    /* \"#utility.yul\":2166:2207   */\n  tag_59\n    /* \"#utility.yul\":2190:2206   */\n  dup3\n    /* \"#utility.yul\":2166:2207   */\n  tag_26\n  jump\t// in\ntag_59:\n    /* \"#utility.yul\":2158:2164   */\n  dup5\n    /* \"#utility.yul\":2151:2155   */\n  dup5\n    /* \"#utility.yul\":2145:2156   */\n  sload\n    /* \"#utility.yul\":2117:2208   */\n  tag_22\n  jump\t// in\ntag_58:\n    /* \"#utility.yul\":2111:2115   */\n  dup3\n    /* \"#utility.yul\":2104:2209   */\n  sstore\n    /* \"#utility.yul\":2022:2215   */\n  pop\n    /* \"#utility.yul\":1946:2215   */\n  pop\n  pop\n  pop\n  jump\t// out\n    /* \"#utility.yul\":2221:2294   */\ntag_28:\n    /* \"#utility.yul\":2266:2269   */\n  0x00\n    /* \"#utility.yul\":2221:2294   */\n  swap1\n  jump\t// out\n    /* \"#utility.yul\":2300:2489   */\ntag_29:\n    /* \"#utility.yul\":2377:2409   */\n  tag_62\n  tag_28\n  jump\t// in\ntag_62:\n    /* \"#utility.yul\":2418:2483   */\n  tag_63\n    /* \"#utility.yul\":2476:2482   */\n  dup2\n    /* \"#utility.yul\":2468:2474   */\n  dup5\n    /* \"#utility.yul\":2462:2466   */\n  dup5\n    /* \"#utility.yul\":2418:2483   */\n  tag_27\n  jump\t// in\ntag_63:\n    /* \"#utility.yul\":2353:2489   */\n  pop\n    /* \"#utility.yul\":2300:2489   */\n  pop\n  pop\n  jump\t// out\n    /* \"#utility.yul\":2495:2681   */\ntag_30:\n    /* \"#utility.yul\":2555:2675   */\ntag_65:\n    /* \"#utility.yul\":2572:2575   */\n  dup2\n    /* \"#utility.yul\":2565:2570   */\n  dup2\n    /* \"#utility.yul\":2562:2576   */\n  lt\n    /* \"#utility.yul\":2555:2675   */\n  iszero\n  tag_67\n  jumpi\n    /* \"#utility.yul\":2626:2665   */\n  tag_68\n    /* \"#utility.yul\":2663:2664   */\n  0x00\n    /* \"#utility.yul\":2656:2661   */\n  dup3\n    /* \"#utility.yul\":2626:2665   */\n  tag_29\n  jump\t// in\ntag_68:\n    /* \"#utility.yul\":2599:2600   */\n  0x01\n    /* \"#utility.yul\":2592:2597   */\n  dup2\n    /* \"#utility.yul\":2588:2601   */\n  add\n    /* \"#utility.yul\":2579:2601   */\n  swap1\n  pop\n    /* \"#utility.yul\":2555:2675   */\n  jump(tag_65)\ntag_67:\n    /* \"#utility.yul\":2495:2681   */\n  pop\n  pop\n  jump\t// out\n    /* \"#utility.yul\":2687:3230   */\ntag_31:\n    /* \"#utility.yul\":2788:2790   */\n  0x1f\n    /* \"#utility.yul\":2783:2786   */\n  dup3\n    /* \"#utility.yul\":2780:2791   */\n  gt\n    /* \"#utility.yul\":2777:3223   */\n  iszero\n  tag_70\n  jumpi\n    /* \"#utility.yul\":2822:2860   */\n  tag_71\n    /* \"#utility.yul\":2854:2859   */\n  dup2\n    /* \"#utility.yul\":2822:2860   */\n  tag_19\n  jump\t// in\ntag_71:\n    /* \"#utility.yul\":2906:2935   */\n  tag_72\n    /* \"#utility.yul\":2924:2934   */\n  dup5\n    /* \"#utility.yul\":2906:2935   */\n  tag_20\n  jump\t// in\ntag_72:\n    /* \"#utility.yul\":2896:2904   */\n  dup2\n    /* \"#utility.yul\":2892:2936   */\n  add\n    /* \"#utility.yul\":3089:3091   */\n  0x20\n    /* \"#utility.yul\":3077:3087   */\n  dup6\n    /* \"#utility.yul\":3074:3092   */\n  lt\n    /* \"#utility.yul\":3071:3120   */\n  iszero\n  tag_73\n  jumpi\n    /* \"#utility.yul\":3110:3118   */\n  dup2\n    /* \"#utility.yul\":3095:3118   */\n  swap1\n  pop\n    /* \"#utility.yul\":3071:3120   */\ntag_73:\n    /* \"#utility.yul\":3133:3213   */\n  tag_74\n    /* \"#utility.yul\":3189:3211   */\n  tag_75\n    /* \"#utility.yul\":3207:3210   */\n  dup6\n    /* \"#utility.yul\":3189:3211   */\n  tag_20\n  jump\t// in\ntag_75:\n    /* \"#utility.yul\":3179:3187   */\n  dup4\n    /* \"#utility.yul\":3175:3212   */\n  add\n    /* \"#utility.yul\":3162:3173   */\n  dup3\n    /* \"#utility.yul\":3133:3213   */\n  tag_30\n  jump\t// in\ntag_74:\n    /* \"#utility.yul\":2792:3223   */\n  pop\n  pop\n    /* \"#utility.yul\":2777:3223   */\ntag_70:\n    /* \"#utility.yul\":2687:3230   */\n  pop\n  pop\n  pop\n  jump\t// out\n    /* \"#utility.yul\":3236:3353   */\ntag_32:\n    /* \"#utility.yul\":3290:3298   */\n  0x00\n    /* \"#utility.yul\":3340:3345   */\n  dup3\n    /* \"#utility.yul\":3334:3338   */\n  dup3\n    /* \"#utility.yul\":3330:3346   */\n  shr\n    /* \"#utility.yul\":3309:3346   */\n  swap1\n  pop\n    /* \"#utility.yul\":3236:3353   */\n  swap3\n  swap2\n  pop\n  pop\n  jump\t// out\n    /* \"#utility.yul\":3359:3528   */\ntag_33:\n    /* \"#utility.yul\":3403:3409   */\n  0x00\n    /* \"#utility.yul\":3436:3487   */\n  tag_78\n    /* \"#utility.yul\":3484:3485   */\n  0x00\n    /* \"#utility.yul\":3480:3486   */\n  not\n    /* \"#utility.yul\":3472:3477   */\n  dup5\n    /* \"#utility.yul\":3469:3470   */\n  0x08\n    /* \"#utility.yul\":3465:3478   */\n  mul\n    /* \"#utility.yul\":3436:3487   */\n  tag_32\n  jump\t// in\ntag_78:\n    /* \"#utility.yul\":3432:3488   */\n  not\n    /* \"#utility.yul\":3517:3521   */\n  dup1\n    /* \"#utility.yul\":3511:3515   */\n  dup4\n    /* \"#utility.yul\":3507:3522   */\n  and\n    /* \"#utility.yul\":3497:3522   */\n  swap2\n  pop\n    /* \"#utility.yul\":3410:3528   */\n  pop\n    /* \"#utility.yul\":3359:3528   */\n  swap3\n  swap2\n  pop\n  pop\n  jump\t// out\n    /* \"#utility.yul\":3533:3828   */\ntag_34:\n    /* \"#utility.yul\":3609:3613   */\n  0x00\n    /* \"#utility.yul\":3755:3784   */\n  tag_80\n    /* \"#utility.yul\":3780:3783   */\n  dup4\n    /* \"#utility.yul\":3774:3778   */\n  dup4\n    /* \"#utility.yul\":3755:3784   */\n  tag_33\n  jump\t// in\ntag_80:\n    /* \"#utility.yul\":3747:3784   */\n  swap2\n  pop\n    /* \"#utility.yul\":3817:3820   */\n  dup3\n    /* \"#utility.yul\":3814:3815   */\n  0x02\n    /* \"#utility.yul\":3810:3821   */\n  mul\n    /* \"#utility.yul\":3804:3808   */\n  dup3\n    /* \"#utility.yul\":3801:3822   */\n  or\n    /* \"#utility.yul\":3793:3822   */\n  swap1\n  pop\n    /* \"#utility.yul\":3533:3828   */\n  swap3\n  swap2\n  pop\n  pop\n  jump\t// out\n    /* \"#utility.yul\":3833:5228   */\ntag_2:\n    /* \"#utility.yul\":3950:3987   */\n  tag_82\n    /* \"#utility.yul\":3983:3986   */\n  dup3\n    /* \"#utility.yul\":3950:3987   */\n  tag_15\n  jump\t// in\ntag_82:\n    /* \"#utility.yul\":4052:4070   */\n  0xffffffffffffffff\n    /* \"#utility.yul\":4044:4050   */\n  dup2\n    /* \"#utility.yul\":4041:4071   */\n  gt\n    /* \"#utility.yul\":4038:4094   */\n  iszero\n  tag_83\n  jumpi\n    /* \"#utility.yul\":4074:4092   */\n  tag_84\n  tag_16\n  jump\t// in\ntag_84:\n    /* \"#utility.yul\":4038:4094   */\ntag_83:\n    /* \"#utility.yul\":4118:4156   */\n  tag_85\n    /* \"#utility.yul\":4150:4154   */\n  dup3\n    /* \"#utility.yul\":4144:4155   */\n  sload\n    /* \"#utility.yul\":4118:4156   */\n  tag_18\n  jump\t// in\ntag_85:\n    /* \"#utility.yul\":4203:4270   */\n  tag_86\n    /* \"#utility.yul\":4263:4269   */\n  dup3\n    /* \"#utility.yul\":4255:4261   */\n  dup3\n    /* \"#utility.yul\":4249:4253   */\n  dup6\n    /* \"#utility.yul\":4203:4270   */\n  tag_31\n  jump\t// in\ntag_86:\n    /* \"#utility.yul\":4297:4298   */\n  0x00\n    /* \"#utility.yul\":4321:4325   */\n  0x20\n    /* \"#utility.yul\":4308:4325   */\n  swap1\n  pop\n    /* \"#utility.yul\":4353:4355   */\n  0x1f\n    /* \"#utility.yul\":4345:4351   */\n  dup4\n    /* \"#utility.yul\":4342:4356   */\n  gt\n    /* \"#utility.yul\":4370:4371   */\n  0x01\n    /* \"#utility.yul\":4365:4983   */\n  dup2\n  eq\n  tag_88\n  jumpi\n    /* \"#utility.yul\":5027:5028   */\n  0x00\n    /* \"#utility.yul\":5044:5050   */\n  dup5\n    /* \"#utility.yul\":5041:5118   */\n  iszero\n  tag_89\n  jumpi\n    /* \"#utility.yul\":5093:5102   */\n  dup3\n    /* \"#utility.yul\":5088:5091   */\n  dup8\n    /* \"#utility.yul\":5084:5103   */\n  add\n    /* \"#utility.yul\":5078:5104   */\n  mload\n    /* \"#utility.yul\":5069:5104   */\n  swap1\n  pop\n    /* \"#utility.yul\":5041:5118   */\ntag_89:\n    /* \"#utility.yul\":5144:5211   */\n  tag_90\n    /* \"#utility.yul\":5204:5210   */\n  dup6\n    /* \"#utility.yul\":5197:5202   */\n  dup3\n    /* \"#utility.yul\":5144:5211   */\n  tag_34\n  jump\t// in\ntag_90:\n    /* \"#utility.yul\":5138:5142   */\n  dup7\n    /* \"#utility.yul\":5131:5212   */\n  sstore\n    /* \"#utility.yul\":5000:5222   */\n  pop\n    /* \"#utility.yul\":4335:5222   */\n  jump(tag_87)\n    /* \"#utility.yul\":4365:4983   */\ntag_88:\n    /* \"#utility.yul\":4417:4421   */\n  0x1f\n    /* \"#utility.yul\":4413:4422   */\n  not\n    /* \"#utility.yul\":4405:4411   */\n  dup5\n    /* \"#utility.yul\":4401:4423   */\n  and\n    /* \"#utility.yul\":4451:4488   */\n  tag_91\n    /* \"#utility.yul\":4483:4487   */\n  dup7\n    /* \"#utility.yul\":4451:4488   */\n  tag_19\n  jump\t// in\ntag_91:\n    /* \"#utility.yul\":4510:4511   */\n  0x00\n    /* \"#utility.yul\":4524:4732   */\ntag_92:\n    /* \"#utility.yul\":4538:4545   */\n  dup3\n    /* \"#utility.yul\":4535:4536   */\n  dup2\n    /* \"#utility.yul\":4532:4546   */\n  lt\n    /* \"#utility.yul\":4524:4732   */\n  iszero\n  tag_94\n  jumpi\n    /* \"#utility.yul\":4617:4626   */\n  dup5\n    /* \"#utility.yul\":4612:4615   */\n  dup10\n    /* \"#utility.yul\":4608:4627   */\n  add\n    /* \"#utility.yul\":4602:4628   */\n  mload\n    /* \"#utility.yul\":4594:4600   */\n  dup3\n    /* \"#utility.yul\":4587:4629   */\n  sstore\n    /* \"#utility.yul\":4668:4669   */\n  0x01\n    /* \"#utility.yul\":4660:4666   */\n  dup3\n    /* \"#utility.yul\":4656:4670   */\n  add\n    /* \"#utility.yul\":4646:4670   */\n  swap2\n  pop\n    /* \"#utility.yul\":4715:4717   */\n  0x20\n    /* \"#utility.yul\":4704:4713   */\n  dup6\n    /* \"#utility.yul\":4700:4718   */\n  add\n    /* \"#utility.yul\":4687:4718   */\n  swap5\n  pop\n    /* \"#utility.yul\":4561:4565   */\n  0x20\n    /* \"#utility.yul\":4558:4559   */\n  dup2\n    /* \"#utility.yul\":4554:4566   */\n  add\n    /* \"#utility.yul\":4549:4566   */\n  swap1\n  pop\n    /* \"#utility.yul\":4524:4732   */\n  jump(tag_92)\ntag_94:\n    /* \"#utility.yul\":4760:4766   */\n  dup7\n    /* \"#utility.yul\":4751:4758   */\n  dup4\n    /* \"#utility.yul\":4748:4767   */\n  lt\n    /* \"#utility.yul\":4745:4924   */\n  iszero\n  tag_95\n  jumpi\n    /* \"#utility.yul\":4818:4827   */\n  dup5\n    /* \"#utility.yul\":4813:4816   */\n  dup10\n    /* \"#utility.yul\":4809:4828   */\n  add\n    /* \"#utility.yul\":4803:4829   */\n  mload\n    /* \"#utility.yul\":4861:4909   */\n  tag_96\n    /* \"#utility.yul\":4903:4907   */\n  0x1f\n    /* \"#utility.yul\":4895:4901   */\n  dup10\n    /* \"#utility.yul\":4891:4908   */\n  and\n    /* \"#utility.yul\":4880:4889   */\n  dup3\n    /* \"#utility.yul\":4861:4909   */\n  tag_33\n  jump\t// in\ntag_96:\n    /* \"#utility.yul\":4853:4859   */\n  dup4\n    /* \"#utility.yul\":4846:4910   */\n  sstore\n    /* \"#utility.yul\":4768:4924   */\n  pop\n    /* \"#utility.yul\":4745:4924   */\ntag_95:\n    /* \"#utility.yul\":4970:4971   */\n  0x01\n    /* \"#utility.yul\":4966:4967   */\n  0x02\n    /* \"#utility.yul\":4958:4964   */\n  dup9\n    /* \"#utility.yul\":4954:4968   */\n  mul\n    /* \"#utility.yul\":4950:4972   */\n  add\n    /* \"#utility.yul\":4944:4948   */\n  dup9\n    /* \"#utility.yul\":4937:4973   */\n  sstore\n    /* \"#utility.yul\":4372:4983   */\n  pop\n  pop\n  pop\n    /* \"#utility.yul\":4335:5222   */\ntag_87:\n  pop\n    /* \"#utility.yul\":3925:5228   */\n  pop\n  pop\n  pop\n    /* \"#utility.yul\":3833:5228   */\n  pop\n  pop\n  jump\t// out\n    /* \"primerContrato/Smart_Contracts/3_estructuras_datos.sol\":60:1474  contract data_structures { ... */\ntag_7:\n  dataSize(sub_0)\n  dup1\n  dataOffset(sub_0)\n  0x00\n  codecopy\n  0x00\n  return\nstop\n\nsub_0: assembly {\n        /* \"primerContrato/Smart_Contracts/3_estructuras_datos.sol\":60:1474  contract data_structures { ... */\n      mstore(0x40, 0x80)\n      callvalue\n      dup1\n      iszero\n      tag_1\n      jumpi\n      0x00\n      dup1\n      revert\n    tag_1:\n      pop\n      jumpi(tag_2, lt(calldatasize, 0x04))\n      shr(0xe0, calldataload(0x00))\n      dup1\n      0xa57c5f1b\n      gt\n      tag_11\n      jumpi\n      dup1\n      0xa57c5f1b\n      eq\n      tag_7\n      jumpi\n      dup1\n      0xe990585e\n      eq\n      tag_8\n      jumpi\n      dup1\n      0xeaaefa96\n      eq\n      tag_9\n      jumpi\n      dup1\n      0xf096fa63\n      eq\n      tag_10\n      jumpi\n      jump(tag_2)\n    tag_11:\n      dup1\n      0x20716f88\n      eq\n      tag_3\n      jumpi\n      dup1\n      0x78a819f4\n      eq\n      tag_4\n      jumpi\n      dup1\n      0x7a088a2e\n      eq\n      tag_5\n      jumpi\n      dup1\n      0x9a83e3ec\n      eq\n      tag_6\n      jumpi\n    tag_2:\n      0x00\n      dup1\n      revert\n        /* \"primerContrato/Smart_Contracts/3_estructuras_datos.sol\":977:1029  mapping(string => uint256[]) public string_listUnits */\n    tag_3:\n      tag_12\n      0x04\n      dup1\n      calldatasize\n      sub\n      dup2\n      add\n      swap1\n      tag_13\n      swap2\n      swap1\n      tag_14\n      jump\t// in\n    tag_13:\n      tag_15\n      jump\t// in\n    tag_12:\n      mload(0x40)\n      tag_16\n      swap2\n      swap1\n      tag_17\n      jump\t// in\n    tag_16:\n      mload(0x40)\n      dup1\n      swap2\n      sub\n      swap1\n      return\n        /* \"primerContrato/Smart_Contracts/3_estructuras_datos.sol\":418:466  uint256[5] public fixed_list_units = [1,2,3,4,5] */\n    tag_4:\n      tag_18\n      0x04\n      dup1\n      calldatasize\n      sub\n      dup2\n      add\n      swap1\n      tag_19\n      swap2\n      swap1\n      tag_20\n      jump\t// in\n    tag_19:\n      tag_21\n      jump\t// in\n    tag_18:\n      mload(0x40)\n      tag_22\n      swap2\n      swap1\n      tag_17\n      jump\t// in\n    tag_22:\n      mload(0x40)\n      dup1\n      swap2\n      sub\n      swap1\n      return\n        /* \"primerContrato/Smart_Contracts/3_estructuras_datos.sol\":921:970  mapping (address => uint256) public  address_uint */\n    tag_5:\n      tag_23\n      0x04\n      dup1\n      calldatasize\n      sub\n      dup2\n      add\n      swap1\n      tag_24\n      swap2\n      swap1\n      tag_25\n      jump\t// in\n    tag_24:\n      tag_26\n      jump\t// in\n    tag_23:\n      mload(0x40)\n      tag_27\n      swap2\n      swap1\n      tag_17\n      jump\t// in\n    tag_27:\n      mload(0x40)\n      dup1\n      swap2\n      sub\n      swap1\n      return\n        /* \"primerContrato/Smart_Contracts/3_estructuras_datos.sol\":662:889  function array_modification(uint256 _id,string memory _name, string memory _email) public { ... */\n    tag_6:\n      tag_28\n      0x04\n      dup1\n      calldatasize\n      sub\n      dup2\n      add\n      swap1\n      tag_29\n      swap2\n      swap1\n      tag_30\n      jump\t// in\n    tag_29:\n      tag_31\n      jump\t// in\n    tag_28:\n      stop\n        /* \"primerContrato/Smart_Contracts/3_estructuras_datos.sol\":1146:1246  function assigNumber(uint256 _number) public  {... */\n    tag_7:\n      tag_32\n      0x04\n      dup1\n      calldatasize\n      sub\n      dup2\n      add\n      swap1\n      tag_33\n      swap2\n      swap1\n      tag_20\n      jump\t// in\n    tag_33:\n      tag_34\n      jump\t// in\n    tag_32:\n      stop\n        /* \"primerContrato/Smart_Contracts/3_estructuras_datos.sol\":1302:1469  function assignDataStructure(uint _id,string memory _name,string memory _email) public{... */\n    tag_8:\n      tag_35\n      0x04\n      dup1\n      calldatasize\n      sub\n      dup2\n      add\n      swap1\n      tag_36\n      swap2\n      swap1\n      tag_30\n      jump\t// in\n    tag_36:\n      tag_37\n      jump\t// in\n    tag_35:\n      stop\n        /* \"primerContrato/Smart_Contracts/3_estructuras_datos.sol\":1036:1094  mapping (address => Customer) public address_dataStructure */\n    tag_9:\n      tag_38\n      0x04\n      dup1\n      calldatasize\n      sub\n      dup2\n      add\n      swap1\n      tag_39\n      swap2\n      swap1\n      tag_25\n      jump\t// in\n    tag_39:\n      tag_40\n      jump\t// in\n    tag_38:\n      mload(0x40)\n      tag_41\n      swap4\n      swap3\n      swap2\n      swap1\n      tag_42\n      jump\t// in\n    tag_41:\n      mload(0x40)\n      dup1\n      swap2\n      sub\n      swap1\n      return\n        /* \"primerContrato/Smart_Contracts/3_estructuras_datos.sol\":580:620  Customer [] public dynamic_list_customer */\n    tag_10:\n      tag_43\n      0x04\n      dup1\n      calldatasize\n      sub\n      dup2\n      add\n      swap1\n      tag_44\n      swap2\n      swap1\n      tag_20\n      jump\t// in\n    tag_44:\n      tag_45\n      jump\t// in\n    tag_43:\n      mload(0x40)\n      tag_46\n      swap4\n      swap3\n      swap2\n      swap1\n      tag_42\n      jump\t// in\n    tag_46:\n      mload(0x40)\n      dup1\n      swap2\n      sub\n      swap1\n      return\n        /* \"primerContrato/Smart_Contracts/3_estructuras_datos.sol\":977:1029  mapping(string => uint256[]) public string_listUnits */\n    tag_15:\n      0x0b\n      dup3\n      dup1\n      mload\n      0x20\n      dup2\n      add\n      dup3\n      add\n      dup1\n      mload\n      dup5\n      dup3\n      mstore\n      0x20\n      dup4\n      add\n      0x20\n      dup6\n      add\n      keccak256\n      dup2\n      dup4\n      mstore\n      dup1\n      swap6\n      pop\n      pop\n      pop\n      pop\n      pop\n      pop\n      dup2\n      dup2\n      sload\n      dup2\n      lt\n      tag_47\n      jumpi\n      0x00\n      dup1\n      revert\n    tag_47:\n      swap1\n      0x00\n      mstore\n      keccak256(0x00, 0x20)\n      add\n      0x00\n      swap2\n      pop\n      swap2\n      pop\n      pop\n      sload\n      dup2\n      jump\t// out\n        /* \"primerContrato/Smart_Contracts/3_estructuras_datos.sol\":418:466  uint256[5] public fixed_list_units = [1,2,3,4,5] */\n    tag_21:\n      0x03\n      dup2\n      0x05\n      dup2\n      lt\n      tag_49\n      jumpi\n      0x00\n      dup1\n      revert\n    tag_49:\n      add\n      0x00\n      swap2\n      pop\n      swap1\n      pop\n      sload\n      dup2\n      jump\t// out\n        /* \"primerContrato/Smart_Contracts/3_estructuras_datos.sol\":921:970  mapping (address => uint256) public  address_uint */\n    tag_26:\n      mstore(0x20, 0x0a)\n      dup1\n      0x00\n      mstore\n      keccak256(0x00, 0x40)\n      0x00\n      swap2\n      pop\n      swap1\n      pop\n      sload\n      dup2\n      jump\t// out\n        /* \"primerContrato/Smart_Contracts/3_estructuras_datos.sol\":662:889  function array_modification(uint256 _id,string memory _name, string memory _email) public { ... */\n    tag_31:\n        /* \"primerContrato/Smart_Contracts/3_estructuras_datos.sol\":766:797  Customer memory random_customer */\n      0x00\n        /* \"primerContrato/Smart_Contracts/3_estructuras_datos.sol\":800:827  Customer(_id, _name,_email) */\n      mload(0x40)\n      dup1\n      0x60\n      add\n      0x40\n      mstore\n      dup1\n        /* \"primerContrato/Smart_Contracts/3_estructuras_datos.sol\":809:812  _id */\n      dup6\n        /* \"primerContrato/Smart_Contracts/3_estructuras_datos.sol\":800:827  Customer(_id, _name,_email) */\n      dup2\n      mstore\n      0x20\n      add\n        /* \"primerContrato/Smart_Contracts/3_estructuras_datos.sol\":814:819  _name */\n      dup5\n        /* \"primerContrato/Smart_Contracts/3_estructuras_datos.sol\":800:827  Customer(_id, _name,_email) */\n      dup2\n      mstore\n      0x20\n      add\n        /* \"primerContrato/Smart_Contracts/3_estructuras_datos.sol\":820:826  _email */\n      dup4\n        /* \"primerContrato/Smart_Contracts/3_estructuras_datos.sol\":800:827  Customer(_id, _name,_email) */\n      dup2\n      mstore\n      pop\n        /* \"primerContrato/Smart_Contracts/3_estructuras_datos.sol\":766:827  Customer memory random_customer = Customer(_id, _name,_email) */\n      swap1\n      pop\n        /* \"primerContrato/Smart_Contracts/3_estructuras_datos.sol\":838:859  dynamic_list_customer */\n      0x09\n        /* \"primerContrato/Smart_Contracts/3_estructuras_datos.sol\":865:880  random_customer */\n      dup2\n        /* \"primerContrato/Smart_Contracts/3_estructuras_datos.sol\":838:881  dynamic_list_customer.push(random_customer) */\n      swap1\n      dup1\n      0x01\n      dup2\n      sload\n      add\n      dup1\n      dup3\n      sstore\n      dup1\n      swap2\n      pop\n      pop\n      0x01\n      swap1\n      sub\n      swap1\n      0x00\n      mstore\n      keccak256(0x00, 0x20)\n      swap1\n      0x03\n      mul\n      add\n      0x00\n      swap1\n      swap2\n      swap1\n      swap2\n      swap1\n      swap2\n      pop\n      0x00\n      dup3\n      add\n      mload\n      dup2\n      0x00\n      add\n      sstore\n      0x20\n      dup3\n      add\n      mload\n      dup2\n      0x01\n      add\n      swap1\n      dup2\n      tag_53\n      swap2\n      swap1\n      tag_54\n      jump\t// in\n    tag_53:\n      pop\n      0x40\n      dup3\n      add\n      mload\n      dup2\n      0x02\n      add\n      swap1\n      dup2\n      tag_55\n      swap2\n      swap1\n      tag_54\n      jump\t// in\n    tag_55:\n      pop\n      pop\n      pop\n        /* \"primerContrato/Smart_Contracts/3_estructuras_datos.sol\":752:889  { ... */\n      pop\n        /* \"primerContrato/Smart_Contracts/3_estructuras_datos.sol\":662:889  function array_modification(uint256 _id,string memory _name, string memory _email) public { ... */\n      pop\n      pop\n      pop\n      jump\t// out\n        /* \"primerContrato/Smart_Contracts/3_estructuras_datos.sol\":1146:1246  function assigNumber(uint256 _number) public  {... */\n    tag_34:\n        /* \"primerContrato/Smart_Contracts/3_estructuras_datos.sol\":1230:1237  _number */\n      dup1\n        /* \"primerContrato/Smart_Contracts/3_estructuras_datos.sol\":1203:1215  address_uint */\n      0x0a\n        /* \"primerContrato/Smart_Contracts/3_estructuras_datos.sol\":1203:1227  address_uint[msg.sender] */\n      0x00\n        /* \"primerContrato/Smart_Contracts/3_estructuras_datos.sol\":1216:1226  msg.sender */\n      caller\n        /* \"primerContrato/Smart_Contracts/3_estructuras_datos.sol\":1203:1227  address_uint[msg.sender] */\n      0xffffffffffffffffffffffffffffffffffffffff\n      and\n      0xffffffffffffffffffffffffffffffffffffffff\n      and\n      dup2\n      mstore\n      0x20\n      add\n      swap1\n      dup2\n      mstore\n      0x20\n      add\n      0x00\n      keccak256\n        /* \"primerContrato/Smart_Contracts/3_estructuras_datos.sol\":1203:1237  address_uint[msg.sender] = _number */\n      dup2\n      swap1\n      sstore\n      pop\n        /* \"primerContrato/Smart_Contracts/3_estructuras_datos.sol\":1146:1246  function assigNumber(uint256 _number) public  {... */\n      pop\n      jump\t// out\n        /* \"primerContrato/Smart_Contracts/3_estructuras_datos.sol\":1302:1469  function assignDataStructure(uint _id,string memory _name,string memory _email) public{... */\n    tag_37:\n        /* \"primerContrato/Smart_Contracts/3_estructuras_datos.sol\":1435:1461  Customer(_id,_name,_email) */\n      mload(0x40)\n      dup1\n      0x60\n      add\n      0x40\n      mstore\n      dup1\n        /* \"primerContrato/Smart_Contracts/3_estructuras_datos.sol\":1444:1447  _id */\n      dup5\n        /* \"primerContrato/Smart_Contracts/3_estructuras_datos.sol\":1435:1461  Customer(_id,_name,_email) */\n      dup2\n      mstore\n      0x20\n      add\n        /* \"primerContrato/Smart_Contracts/3_estructuras_datos.sol\":1448:1453  _name */\n      dup4\n        /* \"primerContrato/Smart_Contracts/3_estructuras_datos.sol\":1435:1461  Customer(_id,_name,_email) */\n      dup2\n      mstore\n      0x20\n      add\n        /* \"primerContrato/Smart_Contracts/3_estructuras_datos.sol\":1454:1460  _email */\n      dup3\n        /* \"primerContrato/Smart_Contracts/3_estructuras_datos.sol\":1435:1461  Customer(_id,_name,_email) */\n      dup2\n      mstore\n      pop\n        /* \"primerContrato/Smart_Contracts/3_estructuras_datos.sol\":1399:1420  address_dataStructure */\n      0x0c\n        /* \"primerContrato/Smart_Contracts/3_estructuras_datos.sol\":1399:1432  address_dataStructure[msg.sender] */\n      0x00\n        /* \"primerContrato/Smart_Contracts/3_estructuras_datos.sol\":1421:1431  msg.sender */\n      caller\n        /* \"primerContrato/Smart_Contracts/3_estructuras_datos.sol\":1399:1432  address_dataStructure[msg.sender] */\n      0xffffffffffffffffffffffffffffffffffffffff\n      and\n      0xffffffffffffffffffffffffffffffffffffffff\n      and\n      dup2\n      mstore\n      0x20\n      add\n      swap1\n      dup2\n      mstore\n      0x20\n      add\n      0x00\n      keccak256\n        /* \"primerContrato/Smart_Contracts/3_estructuras_datos.sol\":1399:1461  address_dataStructure[msg.sender] = Customer(_id,_name,_email) */\n      0x00\n      dup3\n      add\n      mload\n      dup2\n      0x00\n      add\n      sstore\n      0x20\n      dup3\n      add\n      mload\n      dup2\n      0x01\n      add\n      swap1\n      dup2\n      tag_58\n      swap2\n      swap1\n      tag_54\n      jump\t// in\n    tag_58:\n      pop\n      0x40\n      dup3\n      add\n      mload\n      dup2\n      0x02\n      add\n      swap1\n      dup2\n      tag_59\n      swap2\n      swap1\n      tag_54\n      jump\t// in\n    tag_59:\n      pop\n      swap1\n      pop\n      pop\n        /* \"primerContrato/Smart_Contracts/3_estructuras_datos.sol\":1302:1469  function assignDataStructure(uint _id,string memory _name,string memory _email) public{... */\n      pop\n      pop\n      pop\n      jump\t// out\n        /* \"primerContrato/Smart_Contracts/3_estructuras_datos.sol\":1036:1094  mapping (address => Customer) public address_dataStructure */\n    tag_40:\n      mstore(0x20, 0x0c)\n      dup1\n      0x00\n      mstore\n      keccak256(0x00, 0x40)\n      0x00\n      swap2\n      pop\n      swap1\n      pop\n      dup1\n      0x00\n      add\n      sload\n      swap1\n      dup1\n      0x01\n      add\n      dup1\n      sload\n      tag_60\n      swap1\n      tag_61\n      jump\t// in\n    tag_60:\n      dup1\n      0x1f\n      add\n      0x20\n      dup1\n      swap2\n      div\n      mul\n      0x20\n      add\n      mload(0x40)\n      swap1\n      dup2\n      add\n      0x40\n      mstore\n      dup1\n      swap3\n      swap2\n      swap1\n      dup2\n      dup2\n      mstore\n      0x20\n      add\n      dup3\n      dup1\n      sload\n      tag_62\n      swap1\n      tag_61\n      jump\t// in\n    tag_62:\n      dup1\n      iszero\n      tag_63\n      jumpi\n      dup1\n      0x1f\n      lt\n      tag_64\n      jumpi\n      0x0100\n      dup1\n      dup4\n      sload\n      div\n      mul\n      dup4\n      mstore\n      swap2\n      0x20\n      add\n      swap2\n      jump(tag_63)\n    tag_64:\n      dup3\n      add\n      swap2\n      swap1\n      0x00\n      mstore\n      keccak256(0x00, 0x20)\n      swap1\n    tag_65:\n      dup2\n      sload\n      dup2\n      mstore\n      swap1\n      0x01\n      add\n      swap1\n      0x20\n      add\n      dup1\n      dup4\n      gt\n      tag_65\n      jumpi\n      dup3\n      swap1\n      sub\n      0x1f\n      and\n      dup3\n      add\n      swap2\n    tag_63:\n      pop\n      pop\n      pop\n      pop\n      pop\n      swap1\n      dup1\n      0x02\n      add\n      dup1\n      sload\n      tag_66\n      swap1\n      tag_61\n      jump\t// in\n    tag_66:\n      dup1\n      0x1f\n      add\n      0x20\n      dup1\n      swap2\n      div\n      mul\n      0x20\n      add\n      mload(0x40)\n      swap1\n      dup2\n      add\n      0x40\n      mstore\n      dup1\n      swap3\n      swap2\n      swap1\n      dup2\n      dup2\n      mstore\n      0x20\n      add\n      dup3\n      dup1\n      sload\n      tag_67\n      swap1\n      tag_61\n      jump\t// in\n    tag_67:\n      dup1\n      iszero\n      tag_68\n      jumpi\n      dup1\n      0x1f\n      lt\n      tag_69\n      jumpi\n      0x0100\n      dup1\n      dup4\n      sload\n      div\n      mul\n      dup4\n      mstore\n      swap2\n      0x20\n      add\n      swap2\n      jump(tag_68)\n    tag_69:\n      dup3\n      add\n      swap2\n      swap1\n      0x00\n      mstore\n      keccak256(0x00, 0x20)\n      swap1\n    tag_70:\n      dup2\n      sload\n      dup2\n      mstore\n      swap1\n      0x01\n      add\n      swap1\n      0x20\n      add\n      dup1\n      dup4\n      gt\n      tag_70\n      jumpi\n      dup3\n      swap1\n      sub\n      0x1f\n      and\n      dup3\n      add\n      swap2\n    tag_68:\n      pop\n      pop\n      pop\n      pop\n      pop\n      swap1\n      pop\n      dup4\n      jump\t// out\n        /* \"primerContrato/Smart_Contracts/3_estructuras_datos.sol\":580:620  Customer [] public dynamic_list_customer */\n    tag_45:\n      0x09\n      dup2\n      dup2\n      sload\n      dup2\n      lt\n      tag_71\n      jumpi\n      0x00\n      dup1\n      revert\n    tag_71:\n      swap1\n      0x00\n      mstore\n      keccak256(0x00, 0x20)\n      swap1\n      0x03\n      mul\n      add\n      0x00\n      swap2\n      pop\n      swap1\n      pop\n      dup1\n      0x00\n      add\n      sload\n      swap1\n      dup1\n      0x01\n      add\n      dup1\n      sload\n      tag_73\n      swap1\n      tag_61\n      jump\t// in\n    tag_73:\n      dup1\n      0x1f\n      add\n      0x20\n      dup1\n      swap2\n      div\n      mul\n      0x20\n      add\n      mload(0x40)\n      swap1\n      dup2\n      add\n      0x40\n      mstore\n      dup1\n      swap3\n      swap2\n      swap1\n      dup2\n      dup2\n      mstore\n      0x20\n      add\n      dup3\n      dup1\n      sload\n      tag_74\n      swap1\n      tag_61\n      jump\t// in\n    tag_74:\n      dup1\n      iszero\n      tag_75\n      jumpi\n      dup1\n      0x1f\n      lt\n      tag_76\n      jumpi\n      0x0100\n      dup1\n      dup4\n      sload\n      div\n      mul\n      dup4\n      mstore\n      swap2\n      0x20\n      add\n      swap2\n      jump(tag_75)\n    tag_76:\n      dup3\n      add\n      swap2\n      swap1\n      0x00\n      mstore\n      keccak256(0x00, 0x20)\n      swap1\n    tag_77:\n      dup2\n      sload\n      dup2\n      mstore\n      swap1\n      0x01\n      add\n      swap1\n      0x20\n      add\n      dup1\n      dup4\n      gt\n      tag_77\n      jumpi\n      dup3\n      swap1\n      sub\n      0x1f\n      and\n      dup3\n      add\n      swap2\n    tag_75:\n      pop\n      pop\n      pop\n      pop\n      pop\n      swap1\n      dup1\n      0x02\n      add\n      dup1\n      sload\n      tag_78\n      swap1\n      tag_61\n      jump\t// in\n    tag_78:\n      dup1\n      0x1f\n      add\n      0x20\n      dup1\n      swap2\n      div\n      mul\n      0x20\n      add\n      mload(0x40)\n      swap1\n      dup2\n      add\n      0x40\n      mstore\n      dup1\n      swap3\n      swap2\n      swap1\n      dup2\n      dup2\n      mstore\n      0x20\n      add\n      dup3\n      dup1\n      sload\n      tag_79\n      swap1\n      tag_61\n      jump\t// in\n    tag_79:\n      dup1\n      iszero\n      tag_80\n      jumpi\n      dup1\n      0x1f\n      lt\n      tag_81\n      jumpi\n      0x0100\n      dup1\n      dup4\n      sload\n      div\n      mul\n      dup4\n      mstore\n      swap2\n      0x20\n      add\n      swap2\n      jump(tag_80)\n    tag_81:\n      dup3\n      add\n      swap2\n      swap1\n      0x00\n      mstore\n      keccak256(0x00, 0x20)\n      swap1\n    tag_82:\n      dup2\n      sload\n      dup2\n      mstore\n      swap1\n      0x01\n      add\n      swap1\n      0x20\n      add\n      dup1\n      dup4\n      gt\n      tag_82\n      jumpi\n      dup3\n      swap1\n      sub\n      0x1f\n      and\n      dup3\n      add\n      swap2\n    tag_80:\n      pop\n      pop\n      pop\n      pop\n      pop\n      swap1\n      pop\n      dup4\n      jump\t// out\n        /* \"#utility.yul\":7:82   */\n    tag_83:\n        /* \"#utility.yul\":40:46   */\n      0x00\n        /* \"#utility.yul\":73:75   */\n      0x40\n        /* \"#utility.yul\":67:76   */\n      mload\n        /* \"#utility.yul\":57:76   */\n      swap1\n      pop\n        /* \"#utility.yul\":7:82   */\n      swap1\n      jump\t// out\n        /* \"#utility.yul\":88:205   */\n    tag_84:\n        /* \"#utility.yul\":197:198   */\n      0x00\n        /* \"#utility.yul\":194:195   */\n      dup1\n        /* \"#utility.yul\":187:199   */\n      revert\n        /* \"#utility.yul\":211:328   */\n    tag_85:\n        /* \"#utility.yul\":320:321   */\n      0x00\n        /* \"#utility.yul\":317:318   */\n      dup1\n        /* \"#utility.yul\":310:322   */\n      revert\n        /* \"#utility.yul\":334:451   */\n    tag_86:\n        /* \"#utility.yul\":443:444   */\n      0x00\n        /* \"#utility.yul\":440:441   */\n      dup1\n        /* \"#utility.yul\":433:445   */\n      revert\n        /* \"#utility.yul\":457:574   */\n    tag_87:\n        /* \"#utility.yul\":566:567   */\n      0x00\n        /* \"#utility.yul\":563:564   */\n      dup1\n        /* \"#utility.yul\":556:568   */\n      revert\n        /* \"#utility.yul\":580:682   */\n    tag_88:\n        /* \"#utility.yul\":621:627   */\n      0x00\n        /* \"#utility.yul\":672:674   */\n      0x1f\n        /* \"#utility.yul\":668:675   */\n      not\n        /* \"#utility.yul\":663:665   */\n      0x1f\n        /* \"#utility.yul\":656:661   */\n      dup4\n        /* \"#utility.yul\":652:666   */\n      add\n        /* \"#utility.yul\":648:676   */\n      and\n        /* \"#utility.yul\":638:676   */\n      swap1\n      pop\n        /* \"#utility.yul\":580:682   */\n      swap2\n      swap1\n      pop\n      jump\t// out\n        /* \"#utility.yul\":688:868   */\n    tag_89:\n        /* \"#utility.yul\":736:813   */\n      0x4e487b7100000000000000000000000000000000000000000000000000000000\n        /* \"#utility.yul\":733:734   */\n      0x00\n        /* \"#utility.yul\":726:814   */\n      mstore\n        /* \"#utility.yul\":833:837   */\n      0x41\n        /* \"#utility.yul\":830:831   */\n      0x04\n        /* \"#utility.yul\":823:838   */\n      mstore\n        /* \"#utility.yul\":857:861   */\n      0x24\n        /* \"#utility.yul\":854:855   */\n      0x00\n        /* \"#utility.yul\":847:862   */\n      revert\n        /* \"#utility.yul\":874:1155   */\n    tag_90:\n        /* \"#utility.yul\":957:984   */\n      tag_133\n        /* \"#utility.yul\":979:983   */\n      dup3\n        /* \"#utility.yul\":957:984   */\n      tag_88\n      jump\t// in\n    tag_133:\n        /* \"#utility.yul\":949:955   */\n      dup2\n        /* \"#utility.yul\":945:985   */\n      add\n        /* \"#utility.yul\":1087:1093   */\n      dup2\n        /* \"#utility.yul\":1075:1085   */\n      dup2\n        /* \"#utility.yul\":1072:1094   */\n      lt\n        /* \"#utility.yul\":1051:1069   */\n      0xffffffffffffffff\n        /* \"#utility.yul\":1039:1049   */\n      dup3\n        /* \"#utility.yul\":1036:1070   */\n      gt\n        /* \"#utility.yul\":1033:1095   */\n      or\n        /* \"#utility.yul\":1030:1118   */\n      iszero\n      tag_134\n      jumpi\n        /* \"#utility.yul\":1098:1116   */\n      tag_135\n      tag_89\n      jump\t// in\n    tag_135:\n        /* \"#utility.yul\":1030:1118   */\n    tag_134:\n        /* \"#utility.yul\":1138:1148   */\n      dup1\n        /* \"#utility.yul\":1134:1136   */\n      0x40\n        /* \"#utility.yul\":1127:1149   */\n      mstore\n        /* \"#utility.yul\":917:1155   */\n      pop\n        /* \"#utility.yul\":874:1155   */\n      pop\n      pop\n      jump\t// out\n        /* \"#utility.yul\":1161:1290   */\n    tag_91:\n        /* \"#utility.yul\":1195:1201   */\n      0x00\n        /* \"#utility.yul\":1222:1242   */\n      tag_137\n      tag_83\n      jump\t// in\n    tag_137:\n        /* \"#utility.yul\":1212:1242   */\n      swap1\n      pop\n        /* \"#utility.yul\":1251:1284   */\n      tag_138\n        /* \"#utility.yul\":1279:1283   */\n      dup3\n        /* \"#utility.yul\":1271:1277   */\n      dup3\n        /* \"#utility.yul\":1251:1284   */\n      tag_90\n      jump\t// in\n    tag_138:\n        /* \"#utility.yul\":1161:1290   */\n      swap2\n      swap1\n      pop\n      jump\t// out\n        /* \"#utility.yul\":1296:1604   */\n    tag_92:\n        /* \"#utility.yul\":1358:1362   */\n      0x00\n        /* \"#utility.yul\":1448:1466   */\n      0xffffffffffffffff\n        /* \"#utility.yul\":1440:1446   */\n      dup3\n        /* \"#utility.yul\":1437:1467   */\n      gt\n        /* \"#utility.yul\":1434:1490   */\n      iszero\n      tag_140\n      jumpi\n        /* \"#utility.yul\":1470:1488   */\n      tag_141\n      tag_89\n      jump\t// in\n    tag_141:\n        /* \"#utility.yul\":1434:1490   */\n    tag_140:\n        /* \"#utility.yul\":1508:1537   */\n      tag_142\n        /* \"#utility.yul\":1530:1536   */\n      dup3\n        /* \"#utility.yul\":1508:1537   */\n      tag_88\n      jump\t// in\n    tag_142:\n        /* \"#utility.yul\":1500:1537   */\n      swap1\n      pop\n        /* \"#utility.yul\":1592:1596   */\n      0x20\n        /* \"#utility.yul\":1586:1590   */\n      dup2\n        /* \"#utility.yul\":1582:1597   */\n      add\n        /* \"#utility.yul\":1574:1597   */\n      swap1\n      pop\n        /* \"#utility.yul\":1296:1604   */\n      swap2\n      swap1\n      pop\n      jump\t// out\n        /* \"#utility.yul\":1610:1756   */\n    tag_93:\n        /* \"#utility.yul\":1707:1713   */\n      dup3\n        /* \"#utility.yul\":1702:1705   */\n      dup2\n        /* \"#utility.yul\":1697:1700   */\n      dup4\n        /* \"#utility.yul\":1684:1714   */\n      calldatacopy\n        /* \"#utility.yul\":1748:1749   */\n      0x00\n        /* \"#utility.yul\":1739:1745   */\n      dup4\n        /* \"#utility.yul\":1734:1737   */\n      dup4\n        /* \"#utility.yul\":1730:1746   */\n      add\n        /* \"#utility.yul\":1723:1750   */\n      mstore\n        /* \"#utility.yul\":1610:1756   */\n      pop\n      pop\n      pop\n      jump\t// out\n        /* \"#utility.yul\":1762:2187   */\n    tag_94:\n        /* \"#utility.yul\":1840:1845   */\n      0x00\n        /* \"#utility.yul\":1865:1931   */\n      tag_145\n        /* \"#utility.yul\":1881:1930   */\n      tag_146\n        /* \"#utility.yul\":1923:1929   */\n      dup5\n        /* \"#utility.yul\":1881:1930   */\n      tag_92\n      jump\t// in\n    tag_146:\n        /* \"#utility.yul\":1865:1931   */\n      tag_91\n      jump\t// in\n    tag_145:\n        /* \"#utility.yul\":1856:1931   */\n      swap1\n      pop\n        /* \"#utility.yul\":1954:1960   */\n      dup3\n        /* \"#utility.yul\":1947:1952   */\n      dup2\n        /* \"#utility.yul\":1940:1961   */\n      mstore\n        /* \"#utility.yul\":1992:1996   */\n      0x20\n        /* \"#utility.yul\":1985:1990   */\n      dup2\n        /* \"#utility.yul\":1981:1997   */\n      add\n        /* \"#utility.yul\":2030:2033   */\n      dup5\n        /* \"#utility.yul\":2021:2027   */\n      dup5\n        /* \"#utility.yul\":2016:2019   */\n      dup5\n        /* \"#utility.yul\":2012:2028   */\n      add\n        /* \"#utility.yul\":2009:2034   */\n      gt\n        /* \"#utility.yul\":2006:2118   */\n      iszero\n      tag_147\n      jumpi\n        /* \"#utility.yul\":2037:2116   */\n      tag_148\n      tag_87\n      jump\t// in\n    tag_148:\n        /* \"#utility.yul\":2006:2118   */\n    tag_147:\n        /* \"#utility.yul\":2127:2181   */\n      tag_149\n        /* \"#utility.yul\":2174:2180   */\n      dup5\n        /* \"#utility.yul\":2169:2172   */\n      dup3\n        /* \"#utility.yul\":2164:2167   */\n      dup6\n        /* \"#utility.yul\":2127:2181   */\n      tag_93\n      jump\t// in\n    tag_149:\n        /* \"#utility.yul\":1846:2187   */\n      pop\n        /* \"#utility.yul\":1762:2187   */\n      swap4\n      swap3\n      pop\n      pop\n      pop\n      jump\t// out\n        /* \"#utility.yul\":2207:2547   */\n    tag_95:\n        /* \"#utility.yul\":2263:2268   */\n      0x00\n        /* \"#utility.yul\":2312:2315   */\n      dup3\n        /* \"#utility.yul\":2305:2309   */\n      0x1f\n        /* \"#utility.yul\":2297:2303   */\n      dup4\n        /* \"#utility.yul\":2293:2310   */\n      add\n        /* \"#utility.yul\":2289:2316   */\n      slt\n        /* \"#utility.yul\":2279:2401   */\n      tag_151\n      jumpi\n        /* \"#utility.yul\":2320:2399   */\n      tag_152\n      tag_86\n      jump\t// in\n    tag_152:\n        /* \"#utility.yul\":2279:2401   */\n    tag_151:\n        /* \"#utility.yul\":2437:2443   */\n      dup2\n        /* \"#utility.yul\":2424:2444   */\n      calldataload\n        /* \"#utility.yul\":2462:2541   */\n      tag_153\n        /* \"#utility.yul\":2537:2540   */\n      dup5\n        /* \"#utility.yul\":2529:2535   */\n      dup3\n        /* \"#utility.yul\":2522:2526   */\n      0x20\n        /* \"#utility.yul\":2514:2520   */\n      dup7\n        /* \"#utility.yul\":2510:2527   */\n      add\n        /* \"#utility.yul\":2462:2541   */\n      tag_94\n      jump\t// in\n    tag_153:\n        /* \"#utility.yul\":2453:2541   */\n      swap2\n      pop\n        /* \"#utility.yul\":2269:2547   */\n      pop\n        /* \"#utility.yul\":2207:2547   */\n      swap3\n      swap2\n      pop\n      pop\n      jump\t// out\n        /* \"#utility.yul\":2553:2630   */\n    tag_96:\n        /* \"#utility.yul\":2590:2597   */\n      0x00\n        /* \"#utility.yul\":2619:2624   */\n      dup2\n        /* \"#utility.yul\":2608:2624   */\n      swap1\n      pop\n        /* \"#utility.yul\":2553:2630   */\n      swap2\n      swap1\n      pop\n      jump\t// out\n        /* \"#utility.yul\":2636:2758   */\n    tag_97:\n        /* \"#utility.yul\":2709:2733   */\n      tag_156\n        /* \"#utility.yul\":2727:2732   */\n      dup2\n        /* \"#utility.yul\":2709:2733   */\n      tag_96\n      jump\t// in\n    tag_156:\n        /* \"#utility.yul\":2702:2707   */\n      dup2\n        /* \"#utility.yul\":2699:2734   */\n      eq\n        /* \"#utility.yul\":2689:2752   */\n      tag_157\n      jumpi\n        /* \"#utility.yul\":2748:2749   */\n      0x00\n        /* \"#utility.yul\":2745:2746   */\n      dup1\n        /* \"#utility.yul\":2738:2750   */\n      revert\n        /* \"#utility.yul\":2689:2752   */\n    tag_157:\n        /* \"#utility.yul\":2636:2758   */\n      pop\n      jump\t// out\n        /* \"#utility.yul\":2764:2903   */\n    tag_98:\n        /* \"#utility.yul\":2810:2815   */\n      0x00\n        /* \"#utility.yul\":2848:2854   */\n      dup2\n        /* \"#utility.yul\":2835:2855   */\n      calldataload\n        /* \"#utility.yul\":2826:2855   */\n      swap1\n      pop\n        /* \"#utility.yul\":2864:2897   */\n      tag_159\n        /* \"#utility.yul\":2891:2896   */\n      dup2\n        /* \"#utility.yul\":2864:2897   */\n      tag_97\n      jump\t// in\n    tag_159:\n        /* \"#utility.yul\":2764:2903   */\n      swap3\n      swap2\n      pop\n      pop\n      jump\t// out\n        /* \"#utility.yul\":2909:3563   */\n    tag_14:\n        /* \"#utility.yul\":2987:2993   */\n      0x00\n        /* \"#utility.yul\":2995:3001   */\n      dup1\n        /* \"#utility.yul\":3044:3046   */\n      0x40\n        /* \"#utility.yul\":3032:3041   */\n      dup4\n        /* \"#utility.yul\":3023:3030   */\n      dup6\n        /* \"#utility.yul\":3019:3042   */\n      sub\n        /* \"#utility.yul\":3015:3047   */\n      slt\n        /* \"#utility.yul\":3012:3131   */\n      iszero\n      tag_161\n      jumpi\n        /* \"#utility.yul\":3050:3129   */\n      tag_162\n      tag_84\n      jump\t// in\n    tag_162:\n        /* \"#utility.yul\":3012:3131   */\n    tag_161:\n        /* \"#utility.yul\":3198:3199   */\n      0x00\n        /* \"#utility.yul\":3187:3196   */\n      dup4\n        /* \"#utility.yul\":3183:3200   */\n      add\n        /* \"#utility.yul\":3170:3201   */\n      calldataload\n        /* \"#utility.yul\":3228:3246   */\n      0xffffffffffffffff\n        /* \"#utility.yul\":3220:3226   */\n      dup2\n        /* \"#utility.yul\":3217:3247   */\n      gt\n        /* \"#utility.yul\":3214:3331   */\n      iszero\n      tag_163\n      jumpi\n        /* \"#utility.yul\":3250:3329   */\n      tag_164\n      tag_85\n      jump\t// in\n    tag_164:\n        /* \"#utility.yul\":3214:3331   */\n    tag_163:\n        /* \"#utility.yul\":3355:3418   */\n      tag_165\n        /* \"#utility.yul\":3410:3417   */\n      dup6\n        /* \"#utility.yul\":3401:3407   */\n      dup3\n        /* \"#utility.yul\":3390:3399   */\n      dup7\n        /* \"#utility.yul\":3386:3408   */\n      add\n        /* \"#utility.yul\":3355:3418   */\n      tag_95\n      jump\t// in\n    tag_165:\n        /* \"#utility.yul\":3345:3418   */\n      swap3\n      pop\n        /* \"#utility.yul\":3141:3428   */\n      pop\n        /* \"#utility.yul\":3467:3469   */\n      0x20\n        /* \"#utility.yul\":3493:3546   */\n      tag_166\n        /* \"#utility.yul\":3538:3545   */\n      dup6\n        /* \"#utility.yul\":3529:3535   */\n      dup3\n        /* \"#utility.yul\":3518:3527   */\n      dup7\n        /* \"#utility.yul\":3514:3536   */\n      add\n        /* \"#utility.yul\":3493:3546   */\n      tag_98\n      jump\t// in\n    tag_166:\n        /* \"#utility.yul\":3483:3546   */\n      swap2\n      pop\n        /* \"#utility.yul\":3438:3556   */\n      pop\n        /* \"#utility.yul\":2909:3563   */\n      swap3\n      pop\n      swap3\n      swap1\n      pop\n      jump\t// out\n        /* \"#utility.yul\":3569:3687   */\n    tag_99:\n        /* \"#utility.yul\":3656:3680   */\n      tag_168\n        /* \"#utility.yul\":3674:3679   */\n      dup2\n        /* \"#utility.yul\":3656:3680   */\n      tag_96\n      jump\t// in\n    tag_168:\n        /* \"#utility.yul\":3651:3654   */\n      dup3\n        /* \"#utility.yul\":3644:3681   */\n      mstore\n        /* \"#utility.yul\":3569:3687   */\n      pop\n      pop\n      jump\t// out\n        /* \"#utility.yul\":3693:3915   */\n    tag_17:\n        /* \"#utility.yul\":3786:3790   */\n      0x00\n        /* \"#utility.yul\":3824:3826   */\n      0x20\n        /* \"#utility.yul\":3813:3822   */\n      dup3\n        /* \"#utility.yul\":3809:3827   */\n      add\n        /* \"#utility.yul\":3801:3827   */\n      swap1\n      pop\n        /* \"#utility.yul\":3837:3908   */\n      tag_170\n        /* \"#utility.yul\":3905:3906   */\n      0x00\n        /* \"#utility.yul\":3894:3903   */\n      dup4\n        /* \"#utility.yul\":3890:3907   */\n      add\n        /* \"#utility.yul\":3881:3887   */\n      dup5\n        /* \"#utility.yul\":3837:3908   */\n      tag_99\n      jump\t// in\n    tag_170:\n        /* \"#utility.yul\":3693:3915   */\n      swap3\n      swap2\n      pop\n      pop\n      jump\t// out\n        /* \"#utility.yul\":3921:4250   */\n    tag_20:\n        /* \"#utility.yul\":3980:3986   */\n      0x00\n        /* \"#utility.yul\":4029:4031   */\n      0x20\n        /* \"#utility.yul\":4017:4026   */\n      dup3\n        /* \"#utility.yul\":4008:4015   */\n      dup5\n        /* \"#utility.yul\":4004:4027   */\n      sub\n        /* \"#utility.yul\":4000:4032   */\n      slt\n        /* \"#utility.yul\":3997:4116   */\n      iszero\n      tag_172\n      jumpi\n        /* \"#utility.yul\":4035:4114   */\n      tag_173\n      tag_84\n      jump\t// in\n    tag_173:\n        /* \"#utility.yul\":3997:4116   */\n    tag_172:\n        /* \"#utility.yul\":4155:4156   */\n      0x00\n        /* \"#utility.yul\":4180:4233   */\n      tag_174\n        /* \"#utility.yul\":4225:4232   */\n      dup5\n        /* \"#utility.yul\":4216:4222   */\n      dup3\n        /* \"#utility.yul\":4205:4214   */\n      dup6\n        /* \"#utility.yul\":4201:4223   */\n      add\n        /* \"#utility.yul\":4180:4233   */\n      tag_98\n      jump\t// in\n    tag_174:\n        /* \"#utility.yul\":4170:4233   */\n      swap2\n      pop\n        /* \"#utility.yul\":4126:4243   */\n      pop\n        /* \"#utility.yul\":3921:4250   */\n      swap3\n      swap2\n      pop\n      pop\n      jump\t// out\n        /* \"#utility.yul\":4256:4382   */\n    tag_100:\n        /* \"#utility.yul\":4293:4300   */\n      0x00\n        /* \"#utility.yul\":4333:4375   */\n      0xffffffffffffffffffffffffffffffffffffffff\n        /* \"#utility.yul\":4326:4331   */\n      dup3\n        /* \"#utility.yul\":4322:4376   */\n      and\n        /* \"#utility.yul\":4311:4376   */\n      swap1\n      pop\n        /* \"#utility.yul\":4256:4382   */\n      swap2\n      swap1\n      pop\n      jump\t// out\n        /* \"#utility.yul\":4388:4484   */\n    tag_101:\n        /* \"#utility.yul\":4425:4432   */\n      0x00\n        /* \"#utility.yul\":4454:4478   */\n      tag_177\n        /* \"#utility.yul\":4472:4477   */\n      dup3\n        /* \"#utility.yul\":4454:4478   */\n      tag_100\n      jump\t// in\n    tag_177:\n        /* \"#utility.yul\":4443:4478   */\n      swap1\n      pop\n        /* \"#utility.yul\":4388:4484   */\n      swap2\n      swap1\n      pop\n      jump\t// out\n        /* \"#utility.yul\":4490:4612   */\n    tag_102:\n        /* \"#utility.yul\":4563:4587   */\n      tag_179\n        /* \"#utility.yul\":4581:4586   */\n      dup2\n        /* \"#utility.yul\":4563:4587   */\n      tag_101\n      jump\t// in\n    tag_179:\n        /* \"#utility.yul\":4556:4561   */\n      dup2\n        /* \"#utility.yul\":4553:4588   */\n      eq\n        /* \"#utility.yul\":4543:4606   */\n      tag_180\n      jumpi\n        /* \"#utility.yul\":4602:4603   */\n      0x00\n        /* \"#utility.yul\":4599:4600   */\n      dup1\n        /* \"#utility.yul\":4592:4604   */\n      revert\n        /* \"#utility.yul\":4543:4606   */\n    tag_180:\n        /* \"#utility.yul\":4490:4612   */\n      pop\n      jump\t// out\n        /* \"#utility.yul\":4618:4757   */\n    tag_103:\n        /* \"#utility.yul\":4664:4669   */\n      0x00\n        /* \"#utility.yul\":4702:4708   */\n      dup2\n        /* \"#utility.yul\":4689:4709   */\n      calldataload\n        /* \"#utility.yul\":4680:4709   */\n      swap1\n      pop\n        /* \"#utility.yul\":4718:4751   */\n      tag_182\n        /* \"#utility.yul\":4745:4750   */\n      dup2\n        /* \"#utility.yul\":4718:4751   */\n      tag_102\n      jump\t// in\n    tag_182:\n        /* \"#utility.yul\":4618:4757   */\n      swap3\n      swap2\n      pop\n      pop\n      jump\t// out\n        /* \"#utility.yul\":4763:5092   */\n    tag_25:\n        /* \"#utility.yul\":4822:4828   */\n      0x00\n        /* \"#utility.yul\":4871:4873   */\n      0x20\n        /* \"#utility.yul\":4859:4868   */\n      dup3\n        /* \"#utility.yul\":4850:4857   */\n      dup5\n        /* \"#utility.yul\":4846:4869   */\n      sub\n        /* \"#utility.yul\":4842:4874   */\n      slt\n        /* \"#utility.yul\":4839:4958   */\n      iszero\n      tag_184\n      jumpi\n        /* \"#utility.yul\":4877:4956   */\n      tag_185\n      tag_84\n      jump\t// in\n    tag_185:\n        /* \"#utility.yul\":4839:4958   */\n    tag_184:\n        /* \"#utility.yul\":4997:4998   */\n      0x00\n        /* \"#utility.yul\":5022:5075   */\n      tag_186\n        /* \"#utility.yul\":5067:5074   */\n      dup5\n        /* \"#utility.yul\":5058:5064   */\n      dup3\n        /* \"#utility.yul\":5047:5056   */\n      dup6\n        /* \"#utility.yul\":5043:5065   */\n      add\n        /* \"#utility.yul\":5022:5075   */\n      tag_103\n      jump\t// in\n    tag_186:\n        /* \"#utility.yul\":5012:5075   */\n      swap2\n      pop\n        /* \"#utility.yul\":4968:5085   */\n      pop\n        /* \"#utility.yul\":4763:5092   */\n      swap3\n      swap2\n      pop\n      pop\n      jump\t// out\n        /* \"#utility.yul\":5098:6077   */\n    tag_30:\n        /* \"#utility.yul\":5195:5201   */\n      0x00\n        /* \"#utility.yul\":5203:5209   */\n      dup1\n        /* \"#utility.yul\":5211:5217   */\n      0x00\n        /* \"#utility.yul\":5260:5262   */\n      0x60\n        /* \"#utility.yul\":5248:5257   */\n      dup5\n        /* \"#utility.yul\":5239:5246   */\n      dup7\n        /* \"#utility.yul\":5235:5258   */\n      sub\n        /* \"#utility.yul\":5231:5263   */\n      slt\n        /* \"#utility.yul\":5228:5347   */\n      iszero\n      tag_188\n      jumpi\n        /* \"#utility.yul\":5266:5345   */\n      tag_189\n      tag_84\n      jump\t// in\n    tag_189:\n        /* \"#utility.yul\":5228:5347   */\n    tag_188:\n        /* \"#utility.yul\":5386:5387   */\n      0x00\n        /* \"#utility.yul\":5411:5464   */\n      tag_190\n        /* \"#utility.yul\":5456:5463   */\n      dup7\n        /* \"#utility.yul\":5447:5453   */\n      dup3\n        /* \"#utility.yul\":5436:5445   */\n      dup8\n        /* \"#utility.yul\":5432:5454   */\n      add\n        /* \"#utility.yul\":5411:5464   */\n      tag_98\n      jump\t// in\n    tag_190:\n        /* \"#utility.yul\":5401:5464   */\n      swap4\n      pop\n        /* \"#utility.yul\":5357:5474   */\n      pop\n        /* \"#utility.yul\":5541:5543   */\n      0x20\n        /* \"#utility.yul\":5530:5539   */\n      dup5\n        /* \"#utility.yul\":5526:5544   */\n      add\n        /* \"#utility.yul\":5513:5545   */\n      calldataload\n        /* \"#utility.yul\":5572:5590   */\n      0xffffffffffffffff\n        /* \"#utility.yul\":5564:5570   */\n      dup2\n        /* \"#utility.yul\":5561:5591   */\n      gt\n        /* \"#utility.yul\":5558:5675   */\n      iszero\n      tag_191\n      jumpi\n        /* \"#utility.yul\":5594:5673   */\n      tag_192\n      tag_85\n      jump\t// in\n    tag_192:\n        /* \"#utility.yul\":5558:5675   */\n    tag_191:\n        /* \"#utility.yul\":5699:5762   */\n      tag_193\n        /* \"#utility.yul\":5754:5761   */\n      dup7\n        /* \"#utility.yul\":5745:5751   */\n      dup3\n        /* \"#utility.yul\":5734:5743   */\n      dup8\n        /* \"#utility.yul\":5730:5752   */\n      add\n        /* \"#utility.yul\":5699:5762   */\n      tag_95\n      jump\t// in\n    tag_193:\n        /* \"#utility.yul\":5689:5762   */\n      swap3\n      pop\n        /* \"#utility.yul\":5484:5772   */\n      pop\n        /* \"#utility.yul\":5839:5841   */\n      0x40\n        /* \"#utility.yul\":5828:5837   */\n      dup5\n        /* \"#utility.yul\":5824:5842   */\n      add\n        /* \"#utility.yul\":5811:5843   */\n      calldataload\n        /* \"#utility.yul\":5870:5888   */\n      0xffffffffffffffff\n        /* \"#utility.yul\":5862:5868   */\n      dup2\n        /* \"#utility.yul\":5859:5889   */\n      gt\n        /* \"#utility.yul\":5856:5973   */\n      iszero\n      tag_194\n      jumpi\n        /* \"#utility.yul\":5892:5971   */\n      tag_195\n      tag_85\n      jump\t// in\n    tag_195:\n        /* \"#utility.yul\":5856:5973   */\n    tag_194:\n        /* \"#utility.yul\":5997:6060   */\n      tag_196\n        /* \"#utility.yul\":6052:6059   */\n      dup7\n        /* \"#utility.yul\":6043:6049   */\n      dup3\n        /* \"#utility.yul\":6032:6041   */\n      dup8\n        /* \"#utility.yul\":6028:6050   */\n      add\n        /* \"#utility.yul\":5997:6060   */\n      tag_95\n      jump\t// in\n    tag_196:\n        /* \"#utility.yul\":5987:6060   */\n      swap2\n      pop\n        /* \"#utility.yul\":5782:6070   */\n      pop\n        /* \"#utility.yul\":5098:6077   */\n      swap3\n      pop\n      swap3\n      pop\n      swap3\n      jump\t// out\n        /* \"#utility.yul\":6083:6182   */\n    tag_104:\n        /* \"#utility.yul\":6135:6141   */\n      0x00\n        /* \"#utility.yul\":6169:6174   */\n      dup2\n        /* \"#utility.yul\":6163:6175   */\n      mload\n        /* \"#utility.yul\":6153:6175   */\n      swap1\n      pop\n        /* \"#utility.yul\":6083:6182   */\n      swap2\n      swap1\n      pop\n      jump\t// out\n        /* \"#utility.yul\":6188:6357   */\n    tag_105:\n        /* \"#utility.yul\":6272:6283   */\n      0x00\n        /* \"#utility.yul\":6306:6312   */\n      dup3\n        /* \"#utility.yul\":6301:6304   */\n      dup3\n        /* \"#utility.yul\":6294:6313   */\n      mstore\n        /* \"#utility.yul\":6346:6350   */\n      0x20\n        /* \"#utility.yul\":6341:6344   */\n      dup3\n        /* \"#utility.yul\":6337:6351   */\n      add\n        /* \"#utility.yul\":6322:6351   */\n      swap1\n      pop\n        /* \"#utility.yul\":6188:6357   */\n      swap3\n      swap2\n      pop\n      pop\n      jump\t// out\n        /* \"#utility.yul\":6363:6609   */\n    tag_106:\n        /* \"#utility.yul\":6444:6445   */\n      0x00\n        /* \"#utility.yul\":6454:6567   */\n    tag_200:\n        /* \"#utility.yul\":6468:6474   */\n      dup4\n        /* \"#utility.yul\":6465:6466   */\n      dup2\n        /* \"#utility.yul\":6462:6475   */\n      lt\n        /* \"#utility.yul\":6454:6567   */\n      iszero\n      tag_202\n      jumpi\n        /* \"#utility.yul\":6553:6554   */\n      dup1\n        /* \"#utility.yul\":6548:6551   */\n      dup3\n        /* \"#utility.yul\":6544:6555   */\n      add\n        /* \"#utility.yul\":6538:6556   */\n      mload\n        /* \"#utility.yul\":6534:6535   */\n      dup2\n        /* \"#utility.yul\":6529:6532   */\n      dup5\n        /* \"#utility.yul\":6525:6536   */\n      add\n        /* \"#utility.yul\":6518:6557   */\n      mstore\n        /* \"#utility.yul\":6490:6492   */\n      0x20\n        /* \"#utility.yul\":6487:6488   */\n      dup2\n        /* \"#utility.yul\":6483:6493   */\n      add\n        /* \"#utility.yul\":6478:6493   */\n      swap1\n      pop\n        /* \"#utility.yul\":6454:6567   */\n      jump(tag_200)\n    tag_202:\n        /* \"#utility.yul\":6601:6602   */\n      0x00\n        /* \"#utility.yul\":6592:6598   */\n      dup5\n        /* \"#utility.yul\":6587:6590   */\n      dup5\n        /* \"#utility.yul\":6583:6599   */\n      add\n        /* \"#utility.yul\":6576:6603   */\n      mstore\n        /* \"#utility.yul\":6425:6609   */\n      pop\n        /* \"#utility.yul\":6363:6609   */\n      pop\n      pop\n      pop\n      jump\t// out\n        /* \"#utility.yul\":6615:6992   */\n    tag_107:\n        /* \"#utility.yul\":6703:6706   */\n      0x00\n        /* \"#utility.yul\":6731:6770   */\n      tag_204\n        /* \"#utility.yul\":6764:6769   */\n      dup3\n        /* \"#utility.yul\":6731:6770   */\n      tag_104\n      jump\t// in\n    tag_204:\n        /* \"#utility.yul\":6786:6857   */\n      tag_205\n        /* \"#utility.yul\":6850:6856   */\n      dup2\n        /* \"#utility.yul\":6845:6848   */\n      dup6\n        /* \"#utility.yul\":6786:6857   */\n      tag_105\n      jump\t// in\n    tag_205:\n        /* \"#utility.yul\":6779:6857   */\n      swap4\n      pop\n        /* \"#utility.yul\":6866:6931   */\n      tag_206\n        /* \"#utility.yul\":6924:6930   */\n      dup2\n        /* \"#utility.yul\":6919:6922   */\n      dup6\n        /* \"#utility.yul\":6912:6916   */\n      0x20\n        /* \"#utility.yul\":6905:6910   */\n      dup7\n        /* \"#utility.yul\":6901:6917   */\n      add\n        /* \"#utility.yul\":6866:6931   */\n      tag_106\n      jump\t// in\n    tag_206:\n        /* \"#utility.yul\":6956:6985   */\n      tag_207\n        /* \"#utility.yul\":6978:6984   */\n      dup2\n        /* \"#utility.yul\":6956:6985   */\n      tag_88\n      jump\t// in\n    tag_207:\n        /* \"#utility.yul\":6951:6954   */\n      dup5\n        /* \"#utility.yul\":6947:6986   */\n      add\n        /* \"#utility.yul\":6940:6986   */\n      swap2\n      pop\n        /* \"#utility.yul\":6707:6992   */\n      pop\n        /* \"#utility.yul\":6615:6992   */\n      swap3\n      swap2\n      pop\n      pop\n      jump\t// out\n        /* \"#utility.yul\":6998:7622   */\n    tag_42:\n        /* \"#utility.yul\":7187:7191   */\n      0x00\n        /* \"#utility.yul\":7225:7227   */\n      0x60\n        /* \"#utility.yul\":7214:7223   */\n      dup3\n        /* \"#utility.yul\":7210:7228   */\n      add\n        /* \"#utility.yul\":7202:7228   */\n      swap1\n      pop\n        /* \"#utility.yul\":7238:7309   */\n      tag_209\n        /* \"#utility.yul\":7306:7307   */\n      0x00\n        /* \"#utility.yul\":7295:7304   */\n      dup4\n        /* \"#utility.yul\":7291:7308   */\n      add\n        /* \"#utility.yul\":7282:7288   */\n      dup7\n        /* \"#utility.yul\":7238:7309   */\n      tag_99\n      jump\t// in\n    tag_209:\n        /* \"#utility.yul\":7356:7365   */\n      dup2\n        /* \"#utility.yul\":7350:7354   */\n      dup2\n        /* \"#utility.yul\":7346:7366   */\n      sub\n        /* \"#utility.yul\":7341:7343   */\n      0x20\n        /* \"#utility.yul\":7330:7339   */\n      dup4\n        /* \"#utility.yul\":7326:7344   */\n      add\n        /* \"#utility.yul\":7319:7367   */\n      mstore\n        /* \"#utility.yul\":7384:7462   */\n      tag_210\n        /* \"#utility.yul\":7457:7461   */\n      dup2\n        /* \"#utility.yul\":7448:7454   */\n      dup6\n        /* \"#utility.yul\":7384:7462   */\n      tag_107\n      jump\t// in\n    tag_210:\n        /* \"#utility.yul\":7376:7462   */\n      swap1\n      pop\n        /* \"#utility.yul\":7509:7518   */\n      dup2\n        /* \"#utility.yul\":7503:7507   */\n      dup2\n        /* \"#utility.yul\":7499:7519   */\n      sub\n        /* \"#utility.yul\":7494:7496   */\n      0x40\n        /* \"#utility.yul\":7483:7492   */\n      dup4\n        /* \"#utility.yul\":7479:7497   */\n      add\n        /* \"#utility.yul\":7472:7520   */\n      mstore\n        /* \"#utility.yul\":7537:7615   */\n      tag_211\n        /* \"#utility.yul\":7610:7614   */\n      dup2\n        /* \"#utility.yul\":7601:7607   */\n      dup5\n        /* \"#utility.yul\":7537:7615   */\n      tag_107\n      jump\t// in\n    tag_211:\n        /* \"#utility.yul\":7529:7615   */\n      swap1\n      pop\n        /* \"#utility.yul\":6998:7622   */\n      swap5\n      swap4\n      pop\n      pop\n      pop\n      pop\n      jump\t// out\n        /* \"#utility.yul\":7628:7808   */\n    tag_108:\n        /* \"#utility.yul\":7676:7753   */\n      0x4e487b7100000000000000000000000000000000000000000000000000000000\n        /* \"#utility.yul\":7673:7674   */\n      0x00\n        /* \"#utility.yul\":7666:7754   */\n      mstore\n        /* \"#utility.yul\":7773:7777   */\n      0x22\n        /* \"#utility.yul\":7770:7771   */\n      0x04\n        /* \"#utility.yul\":7763:7778   */\n      mstore\n        /* \"#utility.yul\":7797:7801   */\n      0x24\n        /* \"#utility.yul\":7794:7795   */\n      0x00\n        /* \"#utility.yul\":7787:7802   */\n      revert\n        /* \"#utility.yul\":7814:8134   */\n    tag_61:\n        /* \"#utility.yul\":7858:7864   */\n      0x00\n        /* \"#utility.yul\":7895:7896   */\n      0x02\n        /* \"#utility.yul\":7889:7893   */\n      dup3\n        /* \"#utility.yul\":7885:7897   */\n      div\n        /* \"#utility.yul\":7875:7897   */\n      swap1\n      pop\n        /* \"#utility.yul\":7942:7943   */\n      0x01\n        /* \"#utility.yul\":7936:7940   */\n      dup3\n        /* \"#utility.yul\":7932:7944   */\n      and\n        /* \"#utility.yul\":7963:7981   */\n      dup1\n        /* \"#utility.yul\":7953:8034   */\n      tag_214\n      jumpi\n        /* \"#utility.yul\":8019:8023   */\n      0x7f\n        /* \"#utility.yul\":8011:8017   */\n      dup3\n        /* \"#utility.yul\":8007:8024   */\n      and\n        /* \"#utility.yul\":7997:8024   */\n      swap2\n      pop\n        /* \"#utility.yul\":7953:8034   */\n    tag_214:\n        /* \"#utility.yul\":8081:8083   */\n      0x20\n        /* \"#utility.yul\":8073:8079   */\n      dup3\n        /* \"#utility.yul\":8070:8084   */\n      lt\n        /* \"#utility.yul\":8050:8068   */\n      dup2\n        /* \"#utility.yul\":8047:8085   */\n      sub\n        /* \"#utility.yul\":8044:8128   */\n      tag_215\n      jumpi\n        /* \"#utility.yul\":8100:8118   */\n      tag_216\n      tag_108\n      jump\t// in\n    tag_216:\n        /* \"#utility.yul\":8044:8128   */\n    tag_215:\n        /* \"#utility.yul\":7865:8134   */\n      pop\n        /* \"#utility.yul\":7814:8134   */\n      swap2\n      swap1\n      pop\n      jump\t// out\n        /* \"#utility.yul\":8140:8281   */\n    tag_109:\n        /* \"#utility.yul\":8189:8193   */\n      0x00\n        /* \"#utility.yul\":8212:8215   */\n      dup2\n        /* \"#utility.yul\":8204:8215   */\n      swap1\n      pop\n        /* \"#utility.yul\":8235:8238   */\n      dup2\n        /* \"#utility.yul\":8232:8233   */\n      0x00\n        /* \"#utility.yul\":8225:8239   */\n      mstore\n        /* \"#utility.yul\":8269:8273   */\n      0x20\n        /* \"#utility.yul\":8266:8267   */\n      0x00\n        /* \"#utility.yul\":8256:8274   */\n      keccak256\n        /* \"#utility.yul\":8248:8274   */\n      swap1\n      pop\n        /* \"#utility.yul\":8140:8281   */\n      swap2\n      swap1\n      pop\n      jump\t// out\n        /* \"#utility.yul\":8287:8380   */\n    tag_110:\n        /* \"#utility.yul\":8324:8330   */\n      0x00\n        /* \"#utility.yul\":8371:8373   */\n      0x20\n        /* \"#utility.yul\":8366:8368   */\n      0x1f\n        /* \"#utility.yul\":8359:8364   */\n      dup4\n        /* \"#utility.yul\":8355:8369   */\n      add\n        /* \"#utility.yul\":8351:8374   */\n      div\n        /* \"#utility.yul\":8341:8374   */\n      swap1\n      pop\n        /* \"#utility.yul\":8287:8380   */\n      swap2\n      swap1\n      pop\n      jump\t// out\n        /* \"#utility.yul\":8386:8493   */\n    tag_111:\n        /* \"#utility.yul\":8430:8438   */\n      0x00\n        /* \"#utility.yul\":8480:8485   */\n      dup3\n        /* \"#utility.yul\":8474:8478   */\n      dup3\n        /* \"#utility.yul\":8470:8486   */\n      shl\n        /* \"#utility.yul\":8449:8486   */\n      swap1\n      pop\n        /* \"#utility.yul\":8386:8493   */\n      swap3\n      swap2\n      pop\n      pop\n      jump\t// out\n        /* \"#utility.yul\":8499:8892   */\n    tag_112:\n        /* \"#utility.yul\":8568:8574   */\n      0x00\n        /* \"#utility.yul\":8618:8619   */\n      0x08\n        /* \"#utility.yul\":8606:8616   */\n      dup4\n        /* \"#utility.yul\":8602:8620   */\n      mul\n        /* \"#utility.yul\":8641:8738   */\n      tag_221\n        /* \"#utility.yul\":8671:8737   */\n      0xffffffffffffffffffffffffffffffffffffffffffffffffffffffffffffffff\n        /* \"#utility.yul\":8660:8669   */\n      dup3\n        /* \"#utility.yul\":8641:8738   */\n      tag_111\n      jump\t// in\n    tag_221:\n        /* \"#utility.yul\":8759:8798   */\n      tag_222\n        /* \"#utility.yul\":8789:8797   */\n      dup7\n        /* \"#utility.yul\":8778:8787   */\n      dup4\n        /* \"#utility.yul\":8759:8798   */\n      tag_111\n      jump\t// in\n    tag_222:\n        /* \"#utility.yul\":8747:8798   */\n      swap6\n      pop\n        /* \"#utility.yul\":8831:8835   */\n      dup1\n        /* \"#utility.yul\":8827:8836   */\n      not\n        /* \"#utility.yul\":8820:8825   */\n      dup5\n        /* \"#utility.yul\":8816:8837   */\n      and\n        /* \"#utility.yul\":8807:8837   */\n      swap4\n      pop\n        /* \"#utility.yul\":8880:8884   */\n      dup1\n        /* \"#utility.yul\":8870:8878   */\n      dup7\n        /* \"#utility.yul\":8866:8885   */\n      and\n        /* \"#utility.yul\":8859:8864   */\n      dup5\n        /* \"#utility.yul\":8856:8886   */\n      or\n        /* \"#utility.yul\":8846:8886   */\n      swap3\n      pop\n        /* \"#utility.yul\":8575:8892   */\n      pop\n      pop\n        /* \"#utility.yul\":8499:8892   */\n      swap4\n      swap3\n      pop\n      pop\n      pop\n      jump\t// out\n        /* \"#utility.yul\":8898:8958   */\n    tag_113:\n        /* \"#utility.yul\":8926:8929   */\n      0x00\n        /* \"#utility.yul\":8947:8952   */\n      dup2\n        /* \"#utility.yul\":8940:8952   */\n      swap1\n      pop\n        /* \"#utility.yul\":8898:8958   */\n      swap2\n      swap1\n      pop\n      jump\t// out\n        /* \"#utility.yul\":8964:9106   */\n    tag_114:\n        /* \"#utility.yul\":9014:9023   */\n      0x00\n        /* \"#utility.yul\":9047:9100   */\n      tag_225\n        /* \"#utility.yul\":9065:9099   */\n      tag_226\n        /* \"#utility.yul\":9074:9098   */\n      tag_227\n        /* \"#utility.yul\":9092:9097   */\n      dup5\n        /* \"#utility.yul\":9074:9098   */\n      tag_96\n      jump\t// in\n    tag_227:\n        /* \"#utility.yul\":9065:9099   */\n      tag_113\n      jump\t// in\n    tag_226:\n        /* \"#utility.yul\":9047:9100   */\n      tag_96\n      jump\t// in\n    tag_225:\n        /* \"#utility.yul\":9034:9100   */\n      swap1\n      pop\n        /* \"#utility.yul\":8964:9106   */\n      swap2\n      swap1\n      pop\n      jump\t// out\n        /* \"#utility.yul\":9112:9187   */\n    tag_115:\n        /* \"#utility.yul\":9155:9158   */\n      0x00\n        /* \"#utility.yul\":9176:9181   */\n      dup2\n        /* \"#utility.yul\":9169:9181   */\n      swap1\n      pop\n        /* \"#utility.yul\":9112:9187   */\n      swap2\n      swap1\n      pop\n      jump\t// out\n        /* \"#utility.yul\":9193:9462   */\n    tag_116:\n        /* \"#utility.yul\":9303:9342   */\n      tag_230\n        /* \"#utility.yul\":9334:9341   */\n      dup4\n        /* \"#utility.yul\":9303:9342   */\n      tag_114\n      jump\t// in\n    tag_230:\n        /* \"#utility.yul\":9364:9455   */\n      tag_231\n        /* \"#utility.yul\":9413:9454   */\n      tag_232\n        /* \"#utility.yul\":9437:9453   */\n      dup3\n        /* \"#utility.yul\":9413:9454   */\n      tag_115\n      jump\t// in\n    tag_232:\n        /* \"#utility.yul\":9405:9411   */\n      dup5\n        /* \"#utility.yul\":9398:9402   */\n      dup5\n        /* \"#utility.yul\":9392:9403   */\n      sload\n        /* \"#utility.yul\":9364:9455   */\n      tag_112\n      jump\t// in\n    tag_231:\n        /* \"#utility.yul\":9358:9362   */\n      dup3\n        /* \"#utility.yul\":9351:9456   */\n      sstore\n        /* \"#utility.yul\":9269:9462   */\n      pop\n        /* \"#utility.yul\":9193:9462   */\n      pop\n      pop\n      pop\n      jump\t// out\n        /* \"#utility.yul\":9468:9541   */\n    tag_117:\n        /* \"#utility.yul\":9513:9516   */\n      0x00\n        /* \"#utility.yul\":9468:9541   */\n      swap1\n      jump\t// out\n        /* \"#utility.yul\":9547:9736   */\n    tag_118:\n        /* \"#utility.yul\":9624:9656   */\n      tag_235\n      tag_117\n      jump\t// in\n    tag_235:\n        /* \"#utility.yul\":9665:9730   */\n      tag_236\n        /* \"#utility.yul\":9723:9729   */\n      dup2\n        /* \"#utility.yul\":9715:9721   */\n      dup5\n        /* \"#utility.yul\":9709:9713   */\n      dup5\n        /* \"#utility.yul\":9665:9730   */\n      tag_116\n      jump\t// in\n    tag_236:\n        /* \"#utility.yul\":9600:9736   */\n      pop\n        /* \"#utility.yul\":9547:9736   */\n      pop\n      pop\n      jump\t// out\n        /* \"#utility.yul\":9742:9928   */\n    tag_119:\n        /* \"#utility.yul\":9802:9922   */\n    tag_238:\n        /* \"#utility.yul\":9819:9822   */\n      dup2\n        /* \"#utility.yul\":9812:9817   */\n      dup2\n        /* \"#utility.yul\":9809:9823   */\n      lt\n        /* \"#utility.yul\":9802:9922   */\n      iszero\n      tag_240\n      jumpi\n        /* \"#utility.yul\":9873:9912   */\n      tag_241\n        /* \"#utility.yul\":9910:9911   */\n      0x00\n        /* \"#utility.yul\":9903:9908   */\n      dup3\n        /* \"#utility.yul\":9873:9912   */\n      tag_118\n      jump\t// in\n    tag_241:\n        /* \"#utility.yul\":9846:9847   */\n      0x01\n        /* \"#utility.yul\":9839:9844   */\n      dup2\n        /* \"#utility.yul\":9835:9848   */\n      add\n        /* \"#utility.yul\":9826:9848   */\n      swap1\n      pop\n        /* \"#utility.yul\":9802:9922   */\n      jump(tag_238)\n    tag_240:\n        /* \"#utility.yul\":9742:9928   */\n      pop\n      pop\n      jump\t// out\n        /* \"#utility.yul\":9934:10477   */\n    tag_120:\n        /* \"#utility.yul\":10035:10037   */\n      0x1f\n        /* \"#utility.yul\":10030:10033   */\n      dup3\n        /* \"#utility.yul\":10027:10038   */\n      gt\n        /* \"#utility.yul\":10024:10470   */\n      iszero\n      tag_243\n      jumpi\n        /* \"#utility.yul\":10069:10107   */\n      tag_244\n        /* \"#utility.yul\":10101:10106   */\n      dup2\n        /* \"#utility.yul\":10069:10107   */\n      tag_109\n      jump\t// in\n    tag_244:\n        /* \"#utility.yul\":10153:10182   */\n      tag_245\n        /* \"#utility.yul\":10171:10181   */\n      dup5\n        /* \"#utility.yul\":10153:10182   */\n      tag_110\n      jump\t// in\n    tag_245:\n        /* \"#utility.yul\":10143:10151   */\n      dup2\n        /* \"#utility.yul\":10139:10183   */\n      add\n        /* \"#utility.yul\":10336:10338   */\n      0x20\n        /* \"#utility.yul\":10324:10334   */\n      dup6\n        /* \"#utility.yul\":10321:10339   */\n      lt\n        /* \"#utility.yul\":10318:10367   */\n      iszero\n      tag_246\n      jumpi\n        /* \"#utility.yul\":10357:10365   */\n      dup2\n        /* \"#utility.yul\":10342:10365   */\n      swap1\n      pop\n        /* \"#utility.yul\":10318:10367   */\n    tag_246:\n        /* \"#utility.yul\":10380:10460   */\n      tag_247\n        /* \"#utility.yul\":10436:10458   */\n      tag_248\n        /* \"#utility.yul\":10454:10457   */\n      dup6\n        /* \"#utility.yul\":10436:10458   */\n      tag_110\n      jump\t// in\n    tag_248:\n        /* \"#utility.yul\":10426:10434   */\n      dup4\n        /* \"#utility.yul\":10422:10459   */\n      add\n        /* \"#utility.yul\":10409:10420   */\n      dup3\n        /* \"#utility.yul\":10380:10460   */\n      tag_119\n      jump\t// in\n    tag_247:\n        /* \"#utility.yul\":10039:10470   */\n      pop\n      pop\n        /* \"#utility.yul\":10024:10470   */\n    tag_243:\n        /* \"#utility.yul\":9934:10477   */\n      pop\n      pop\n      pop\n      jump\t// out\n        /* \"#utility.yul\":10483:10600   */\n    tag_121:\n        /* \"#utility.yul\":10537:10545   */\n      0x00\n        /* \"#utility.yul\":10587:10592   */\n      dup3\n        /* \"#utility.yul\":10581:10585   */\n      dup3\n        /* \"#utility.yul\":10577:10593   */\n      shr\n        /* \"#utility.yul\":10556:10593   */\n      swap1\n      pop\n        /* \"#utility.yul\":10483:10600   */\n      swap3\n      swap2\n      pop\n      pop\n      jump\t// out\n        /* \"#utility.yul\":10606:10775   */\n    tag_122:\n        /* \"#utility.yul\":10650:10656   */\n      0x00\n        /* \"#utility.yul\":10683:10734   */\n      tag_251\n        /* \"#utility.yul\":10731:10732   */\n      0x00\n        /* \"#utility.yul\":10727:10733   */\n      not\n        /* \"#utility.yul\":10719:10724   */\n      dup5\n        /* \"#utility.yul\":10716:10717   */\n      0x08\n        /* \"#utility.yul\":10712:10725   */\n      mul\n        /* \"#utility.yul\":10683:10734   */\n      tag_121\n      jump\t// in\n    tag_251:\n        /* \"#utility.yul\":10679:10735   */\n      not\n        /* \"#utility.yul\":10764:10768   */\n      dup1\n        /* \"#utility.yul\":10758:10762   */\n      dup4\n        /* \"#utility.yul\":10754:10769   */\n      and\n        /* \"#utility.yul\":10744:10769   */\n      swap2\n      pop\n        /* \"#utility.yul\":10657:10775   */\n      pop\n        /* \"#utility.yul\":10606:10775   */\n      swap3\n      swap2\n      pop\n      pop\n      jump\t// out\n        /* \"#utility.yul\":10780:11075   */\n    tag_123:\n        /* \"#utility.yul\":10856:10860   */\n      0x00\n        /* \"#utility.yul\":11002:11031   */\n      tag_253\n        /* \"#utility.yul\":11027:11030   */\n      dup4\n        /* \"#utility.yul\":11021:11025   */\n      dup4\n        /* \"#utility.yul\":11002:11031   */\n      tag_122\n      jump\t// in\n    tag_253:\n        /* \"#utility.yul\":10994:11031   */\n      swap2\n      pop\n        /* \"#utility.yul\":11064:11067   */\n      dup3\n        /* \"#utility.yul\":11061:11062   */\n      0x02\n        /* \"#utility.yul\":11057:11068   */\n      mul\n        /* \"#utility.yul\":11051:11055   */\n      dup3\n        /* \"#utility.yul\":11048:11069   */\n      or\n        /* \"#utility.yul\":11040:11069   */\n      swap1\n      pop\n        /* \"#utility.yul\":10780:11075   */\n      swap3\n      swap2\n      pop\n      pop\n      jump\t// out\n        /* \"#utility.yul\":11080:12475   */\n    tag_54:\n        /* \"#utility.yul\":11197:11234   */\n      tag_255\n        /* \"#utility.yul\":11230:11233   */\n      dup3\n        /* \"#utility.yul\":11197:11234   */\n      tag_104\n      jump\t// in\n    tag_255:\n        /* \"#utility.yul\":11299:11317   */\n      0xffffffffffffffff\n        /* \"#utility.yul\":11291:11297   */\n      dup2\n        /* \"#utility.yul\":11288:11318   */\n      gt\n        /* \"#utility.yul\":11285:11341   */\n      iszero\n      tag_256\n      jumpi\n        /* \"#utility.yul\":11321:11339   */\n      tag_257\n      tag_89\n      jump\t// in\n    tag_257:\n        /* \"#utility.yul\":11285:11341   */\n    tag_256:\n        /* \"#utility.yul\":11365:11403   */\n      tag_258\n        /* \"#utility.yul\":11397:11401   */\n      dup3\n        /* \"#utility.yul\":11391:11402   */\n      sload\n        /* \"#utility.yul\":11365:11403   */\n      tag_61\n      jump\t// in\n    tag_258:\n        /* \"#utility.yul\":11450:11517   */\n      tag_259\n        /* \"#utility.yul\":11510:11516   */\n      dup3\n        /* \"#utility.yul\":11502:11508   */\n      dup3\n        /* \"#utility.yul\":11496:11500   */\n      dup6\n        /* \"#utility.yul\":11450:11517   */\n      tag_120\n      jump\t// in\n    tag_259:\n        /* \"#utility.yul\":11544:11545   */\n      0x00\n        /* \"#utility.yul\":11568:11572   */\n      0x20\n        /* \"#utility.yul\":11555:11572   */\n      swap1\n      pop\n        /* \"#utility.yul\":11600:11602   */\n      0x1f\n        /* \"#utility.yul\":11592:11598   */\n      dup4\n        /* \"#utility.yul\":11589:11603   */\n      gt\n        /* \"#utility.yul\":11617:11618   */\n      0x01\n        /* \"#utility.yul\":11612:12230   */\n      dup2\n      eq\n      tag_261\n      jumpi\n        /* \"#utility.yul\":12274:12275   */\n      0x00\n        /* \"#utility.yul\":12291:12297   */\n      dup5\n        /* \"#utility.yul\":12288:12365   */\n      iszero\n      tag_262\n      jumpi\n        /* \"#utility.yul\":12340:12349   */\n      dup3\n        /* \"#utility.yul\":12335:12338   */\n      dup8\n        /* \"#utility.yul\":12331:12350   */\n      add\n        /* \"#utility.yul\":12325:12351   */\n      mload\n        /* \"#utility.yul\":12316:12351   */\n      swap1\n      pop\n        /* \"#utility.yul\":12288:12365   */\n    tag_262:\n        /* \"#utility.yul\":12391:12458   */\n      tag_263\n        /* \"#utility.yul\":12451:12457   */\n      dup6\n        /* \"#utility.yul\":12444:12449   */\n      dup3\n        /* \"#utility.yul\":12391:12458   */\n      tag_123\n      jump\t// in\n    tag_263:\n        /* \"#utility.yul\":12385:12389   */\n      dup7\n        /* \"#utility.yul\":12378:12459   */\n      sstore\n        /* \"#utility.yul\":12247:12469   */\n      pop\n        /* \"#utility.yul\":11582:12469   */\n      jump(tag_260)\n        /* \"#utility.yul\":11612:12230   */\n    tag_261:\n        /* \"#utility.yul\":11664:11668   */\n      0x1f\n        /* \"#utility.yul\":11660:11669   */\n      not\n        /* \"#utility.yul\":11652:11658   */\n      dup5\n        /* \"#utility.yul\":11648:11670   */\n      and\n        /* \"#utility.yul\":11698:11735   */\n      tag_264\n        /* \"#utility.yul\":11730:11734   */\n      dup7\n        /* \"#utility.yul\":11698:11735   */\n      tag_109\n      jump\t// in\n    tag_264:\n        /* \"#utility.yul\":11757:11758   */\n      0x00\n        /* \"#utility.yul\":11771:11979   */\n    tag_265:\n        /* \"#utility.yul\":11785:11792   */\n      dup3\n        /* \"#utility.yul\":11782:11783   */\n      dup2\n        /* \"#utility.yul\":11779:11793   */\n      lt\n        /* \"#utility.yul\":11771:11979   */\n      iszero\n      tag_267\n      jumpi\n        /* \"#utility.yul\":11864:11873   */\n      dup5\n        /* \"#utility.yul\":11859:11862   */\n      dup10\n        /* \"#utility.yul\":11855:11874   */\n      add\n        /* \"#utility.yul\":11849:11875   */\n      mload\n        /* \"#utility.yul\":11841:11847   */\n      dup3\n        /* \"#utility.yul\":11834:11876   */\n      sstore\n        /* \"#utility.yul\":11915:11916   */\n      0x01\n        /* \"#utility.yul\":11907:11913   */\n      dup3\n        /* \"#utility.yul\":11903:11917   */\n      add\n        /* \"#utility.yul\":11893:11917   */\n      swap2\n      pop\n        /* \"#utility.yul\":11962:11964   */\n      0x20\n        /* \"#utility.yul\":11951:11960   */\n      dup6\n        /* \"#utility.yul\":11947:11965   */\n      add\n        /* \"#utility.yul\":11934:11965   */\n      swap5\n      pop\n        /* \"#utility.yul\":11808:11812   */\n      0x20\n        /* \"#utility.yul\":11805:11806   */\n      dup2\n        /* \"#utility.yul\":11801:11813   */\n      add\n        /* \"#utility.yul\":11796:11813   */\n      swap1\n      pop\n        /* \"#utility.yul\":11771:11979   */\n      jump(tag_265)\n    tag_267:\n        /* \"#utility.yul\":12007:12013   */\n      dup7\n        /* \"#utility.yul\":11998:12005   */\n      dup4\n        /* \"#utility.yul\":11995:12014   */\n      lt\n        /* \"#utility.yul\":11992:12171   */\n      iszero\n      tag_268\n      jumpi\n        /* \"#utility.yul\":12065:12074   */\n      dup5\n        /* \"#utility.yul\":12060:12063   */\n      dup10\n        /* \"#utility.yul\":12056:12075   */\n      add\n        /* \"#utility.yul\":12050:12076   */\n      mload\n        /* \"#utility.yul\":12108:12156   */\n      tag_269\n        /* \"#utility.yul\":12150:12154   */\n      0x1f\n        /* \"#utility.yul\":12142:12148   */\n      dup10\n        /* \"#utility.yul\":12138:12155   */\n      and\n        /* \"#utility.yul\":12127:12136   */\n      dup3\n        /* \"#utility.yul\":12108:12156   */\n      tag_122\n      jump\t// in\n    tag_269:\n        /* \"#utility.yul\":12100:12106   */\n      dup4\n        /* \"#utility.yul\":12093:12157   */\n      sstore\n        /* \"#utility.yul\":12015:12171   */\n      pop\n        /* \"#utility.yul\":11992:12171   */\n    tag_268:\n        /* \"#utility.yul\":12217:12218   */\n      0x01\n        /* \"#utility.yul\":12213:12214   */\n      0x02\n        /* \"#utility.yul\":12205:12211   */\n      dup9\n        /* \"#utility.yul\":12201:12215   */\n      mul\n        /* \"#utility.yul\":12197:12219   */\n      add\n        /* \"#utility.yul\":12191:12195   */\n      dup9\n        /* \"#utility.yul\":12184:12220   */\n      sstore\n        /* \"#utility.yul\":11619:12230   */\n      pop\n      pop\n      pop\n        /* \"#utility.yul\":11582:12469   */\n    tag_260:\n      pop\n        /* \"#utility.yul\":11172:12475   */\n      pop\n      pop\n      pop\n        /* \"#utility.yul\":11080:12475   */\n      pop\n      pop\n      jump\t// out\n\n    auxdata: 0xa264697066735822122027e42d39fea00c736c1dcb9bf673c62aed8bc05a389ddfb257ce39eaf2fe226964736f6c63430008120033\n}\n",
				"bytecode": {
					"linkReferences": {},
					"object": "60806040526040518060600160405280600181526020016040518060400160405280600481526020017f4a6f616e0000000000000000000000000000000000000000000000000000000081525081526020016040518060400160405280600e81526020017f6a6f616e40676d61696c2e636f6d00000000000000000000000000000000000081525081525060008082015181600001556020820151816001019081620000ac91906200040c565b506040820151816002019081620000c491906200040c565b5050506040518060a00160405280600160ff168152602001600260ff168152602001600360ff168152602001600460ff168152602001600560ff1681525060039060056200011492919062000129565b503480156200012257600080fd5b50620004f3565b826005810192821562000160579160200282015b828111156200015f578251829060ff169055916020019190600101906200013d565b5b5090506200016f919062000173565b5090565b5b808211156200018e57600081600090555060010162000174565b5090565b600081519050919050565b7f4e487b7100000000000000000000000000000000000000000000000000000000600052604160045260246000fd5b7f4e487b7100000000000000000000000000000000000000000000000000000000600052602260045260246000fd5b600060028204905060018216806200021457607f821691505b6020821081036200022a5762000229620001cc565b5b50919050565b60008190508160005260206000209050919050565b60006020601f8301049050919050565b600082821b905092915050565b600060088302620002947fffffffffffffffffffffffffffffffffffffffffffffffffffffffffffffffff8262000255565b620002a0868362000255565b95508019841693508086168417925050509392505050565b6000819050919050565b6000819050919050565b6000620002ed620002e7620002e184620002b8565b620002c2565b620002b8565b9050919050565b6000819050919050565b6200030983620002cc565b620003216200031882620002f4565b84845462000262565b825550505050565b600090565b6200033862000329565b62000345818484620002fe565b505050565b5b818110156200036d57620003616000826200032e565b6001810190506200034b565b5050565b601f821115620003bc57620003868162000230565b620003918462000245565b81016020851015620003a1578190505b620003b9620003b08562000245565b8301826200034a565b50505b505050565b600082821c905092915050565b6000620003e160001984600802620003c1565b1980831691505092915050565b6000620003fc8383620003ce565b9150826002028217905092915050565b620004178262000192565b67ffffffffffffffff8111156200043357620004326200019d565b5b6200043f8254620001fb565b6200044c82828562000371565b600060209050601f8311600181146200048457600084156200046f578287015190505b6200047b8582620003ee565b865550620004eb565b601f198416620004948662000230565b60005b82811015620004be5784890151825560018201915060208501945060208101905062000497565b86831015620004de5784890151620004da601f891682620003ce565b8355505b6001600288020188555050505b505050505050565b610d6c80620005036000396000f3fe608060405234801561001057600080fd5b50600436106100885760003560e01c8063a57c5f1b1161005b578063a57c5f1b14610139578063e990585e14610155578063eaaefa9614610171578063f096fa63146101a357610088565b806320716f881461008d57806378a819f4146100bd5780637a088a2e146100ed5780639a83e3ec1461011d575b600080fd5b6100a760048036038101906100a291906107cb565b6101d5565b6040516100b49190610836565b60405180910390f35b6100d760048036038101906100d29190610851565b61021c565b6040516100e49190610836565b60405180910390f35b610107600480360381019061010291906108dc565b610237565b6040516101149190610836565b60405180910390f35b61013760048036038101906101329190610909565b61024f565b005b610153600480360381019061014e9190610851565b6102d8565b005b61016f600480360381019061016a9190610909565b61031f565b005b61018b600480360381019061018691906108dc565b6103b7565b60405161019a93929190610a13565b60405180910390f35b6101bd60048036038101906101b89190610851565b6104f1565b6040516101cc93929190610a13565b60405180910390f35b600b82805160208101820180518482526020830160208501208183528095505050505050818154811061020757600080fd5b90600052602060002001600091509150505481565b6003816005811061022c57600080fd5b016000915090505481565b600a6020528060005260406000206000915090505481565b6000604051806060016040528085815260200184815260200183815250905060098190806001815401808255809150506001900390600052602060002090600302016000909190919091506000820151816000015560208201518160010190816102b99190610c64565b5060408201518160020190816102cf9190610c64565b50505050505050565b80600a60003373ffffffffffffffffffffffffffffffffffffffff1673ffffffffffffffffffffffffffffffffffffffff1681526020019081526020016000208190555050565b604051806060016040528084815260200183815260200182815250600c60003373ffffffffffffffffffffffffffffffffffffffff1673ffffffffffffffffffffffffffffffffffffffff1681526020019081526020016000206000820151816000015560208201518160010190816103989190610c64565b5060408201518160020190816103ae9190610c64565b50905050505050565b600c6020528060005260406000206000915090508060000154908060010180546103e090610a87565b80601f016020809104026020016040519081016040528092919081815260200182805461040c90610a87565b80156104595780601f1061042e57610100808354040283529160200191610459565b820191906000526020600020905b81548152906001019060200180831161043c57829003601f168201915b50505050509080600201805461046e90610a87565b80601f016020809104026020016040519081016040528092919081815260200182805461049a90610a87565b80156104e75780601f106104bc576101008083540402835291602001916104e7565b820191906000526020600020905b8154815290600101906020018083116104ca57829003601f168201915b5050505050905083565b6009818154811061050157600080fd5b906000526020600020906003020160009150905080600001549080600101805461052a90610a87565b80601f016020809104026020016040519081016040528092919081815260200182805461055690610a87565b80156105a35780601f10610578576101008083540402835291602001916105a3565b820191906000526020600020905b81548152906001019060200180831161058657829003601f168201915b5050505050908060020180546105b890610a87565b80601f01602080910402602001604051908101604052809291908181526020018280546105e490610a87565b80156106315780601f1061060657610100808354040283529160200191610631565b820191906000526020600020905b81548152906001019060200180831161061457829003601f168201915b5050505050905083565b6000604051905090565b600080fd5b600080fd5b600080fd5b600080fd5b6000601f19601f8301169050919050565b7f4e487b7100000000000000000000000000000000000000000000000000000000600052604160045260246000fd5b6106a282610659565b810181811067ffffffffffffffff821117156106c1576106c061066a565b5b80604052505050565b60006106d461063b565b90506106e08282610699565b919050565b600067ffffffffffffffff821115610700576106ff61066a565b5b61070982610659565b9050602081019050919050565b82818337600083830152505050565b6000610738610733846106e5565b6106ca565b90508281526020810184848401111561075457610753610654565b5b61075f848285610716565b509392505050565b600082601f83011261077c5761077b61064f565b5b813561078c848260208601610725565b91505092915050565b6000819050919050565b6107a881610795565b81146107b357600080fd5b50565b6000813590506107c58161079f565b92915050565b600080604083850312156107e2576107e1610645565b5b600083013567ffffffffffffffff811115610800576107ff61064a565b5b61080c85828601610767565b925050602061081d858286016107b6565b9150509250929050565b61083081610795565b82525050565b600060208201905061084b6000830184610827565b92915050565b60006020828403121561086757610866610645565b5b6000610875848285016107b6565b91505092915050565b600073ffffffffffffffffffffffffffffffffffffffff82169050919050565b60006108a98261087e565b9050919050565b6108b98161089e565b81146108c457600080fd5b50565b6000813590506108d6816108b0565b92915050565b6000602082840312156108f2576108f1610645565b5b6000610900848285016108c7565b91505092915050565b60008060006060848603121561092257610921610645565b5b6000610930868287016107b6565b935050602084013567ffffffffffffffff8111156109515761095061064a565b5b61095d86828701610767565b925050604084013567ffffffffffffffff81111561097e5761097d61064a565b5b61098a86828701610767565b9150509250925092565b600081519050919050565b600082825260208201905092915050565b60005b838110156109ce5780820151818401526020810190506109b3565b60008484015250505050565b60006109e582610994565b6109ef818561099f565b93506109ff8185602086016109b0565b610a0881610659565b840191505092915050565b6000606082019050610a286000830186610827565b8181036020830152610a3a81856109da565b90508181036040830152610a4e81846109da565b9050949350505050565b7f4e487b7100000000000000000000000000000000000000000000000000000000600052602260045260246000fd5b60006002820490506001821680610a9f57607f821691505b602082108103610ab257610ab1610a58565b5b50919050565b60008190508160005260206000209050919050565b60006020601f8301049050919050565b600082821b905092915050565b600060088302610b1a7fffffffffffffffffffffffffffffffffffffffffffffffffffffffffffffffff82610add565b610b248683610add565b95508019841693508086168417925050509392505050565b6000819050919050565b6000610b61610b5c610b5784610795565b610b3c565b610795565b9050919050565b6000819050919050565b610b7b83610b46565b610b8f610b8782610b68565b848454610aea565b825550505050565b600090565b610ba4610b97565b610baf818484610b72565b505050565b5b81811015610bd357610bc8600082610b9c565b600181019050610bb5565b5050565b601f821115610c1857610be981610ab8565b610bf284610acd565b81016020851015610c01578190505b610c15610c0d85610acd565b830182610bb4565b50505b505050565b600082821c905092915050565b6000610c3b60001984600802610c1d565b1980831691505092915050565b6000610c548383610c2a565b9150826002028217905092915050565b610c6d82610994565b67ffffffffffffffff811115610c8657610c8561066a565b5b610c908254610a87565b610c9b828285610bd7565b600060209050601f831160018114610cce5760008415610cbc578287015190505b610cc68582610c48565b865550610d2e565b601f198416610cdc86610ab8565b60005b82811015610d0457848901518255600182019150602085019450602081019050610cdf565b86831015610d215784890151610d1d601f891682610c2a565b8355505b6001600288020188555050505b50505050505056fea264697066735822122027e42d39fea00c736c1dcb9bf673c62aed8bc05a389ddfb257ce39eaf2fe226964736f6c63430008120033",
					"opcodes": "PUSH1 0x80 PUSH1 0x40 MSTORE PUSH1 0x40 MLOAD DUP1 PUSH1 0x60 ADD PUSH1 0x40 MSTORE DUP1 PUSH1 0x1 DUP2 MSTORE PUSH1 0x20 ADD PUSH1 0x40 MLOAD DUP1 PUSH1 0x40 ADD PUSH1 0x40 MSTORE DUP1 PUSH1 0x4 DUP2 MSTORE PUSH1 0x20 ADD PUSH32 0x4A6F616E00000000000000000000000000000000000000000000000000000000 DUP2 MSTORE POP DUP2 MSTORE PUSH1 0x20 ADD PUSH1 0x40 MLOAD DUP1 PUSH1 0x40 ADD PUSH1 0x40 MSTORE DUP1 PUSH1 0xE DUP2 MSTORE PUSH1 0x20 ADD PUSH32 0x6A6F616E40676D61696C2E636F6D000000000000000000000000000000000000 DUP2 MSTORE POP DUP2 MSTORE POP PUSH1 0x0 DUP1 DUP3 ADD MLOAD DUP2 PUSH1 0x0 ADD SSTORE PUSH1 0x20 DUP3 ADD MLOAD DUP2 PUSH1 0x1 ADD SWAP1 DUP2 PUSH3 0xAC SWAP2 SWAP1 PUSH3 0x40C JUMP JUMPDEST POP PUSH1 0x40 DUP3 ADD MLOAD DUP2 PUSH1 0x2 ADD SWAP1 DUP2 PUSH3 0xC4 SWAP2 SWAP1 PUSH3 0x40C JUMP JUMPDEST POP POP POP PUSH1 0x40 MLOAD DUP1 PUSH1 0xA0 ADD PUSH1 0x40 MSTORE DUP1 PUSH1 0x1 PUSH1 0xFF AND DUP2 MSTORE PUSH1 0x20 ADD PUSH1 0x2 PUSH1 0xFF AND DUP2 MSTORE PUSH1 0x20 ADD PUSH1 0x3 PUSH1 0xFF AND DUP2 MSTORE PUSH1 0x20 ADD PUSH1 0x4 PUSH1 0xFF AND DUP2 MSTORE PUSH1 0x20 ADD PUSH1 0x5 PUSH1 0xFF AND DUP2 MSTORE POP PUSH1 0x3 SWAP1 PUSH1 0x5 PUSH3 0x114 SWAP3 SWAP2 SWAP1 PUSH3 0x129 JUMP JUMPDEST POP CALLVALUE DUP1 ISZERO PUSH3 0x122 JUMPI PUSH1 0x0 DUP1 REVERT JUMPDEST POP PUSH3 0x4F3 JUMP JUMPDEST DUP3 PUSH1 0x5 DUP2 ADD SWAP3 DUP3 ISZERO PUSH3 0x160 JUMPI SWAP2 PUSH1 0x20 MUL DUP3 ADD JUMPDEST DUP3 DUP2 GT ISZERO PUSH3 0x15F JUMPI DUP3 MLOAD DUP3 SWAP1 PUSH1 0xFF AND SWAP1 SSTORE SWAP2 PUSH1 0x20 ADD SWAP2 SWAP1 PUSH1 0x1 ADD SWAP1 PUSH3 0x13D JUMP JUMPDEST JUMPDEST POP SWAP1 POP PUSH3 0x16F SWAP2 SWAP1 PUSH3 0x173 JUMP JUMPDEST POP SWAP1 JUMP JUMPDEST JUMPDEST DUP1 DUP3 GT ISZERO PUSH3 0x18E JUMPI PUSH1 0x0 DUP2 PUSH1 0x0 SWAP1 SSTORE POP PUSH1 0x1 ADD PUSH3 0x174 JUMP JUMPDEST POP SWAP1 JUMP JUMPDEST PUSH1 0x0 DUP2 MLOAD SWAP1 POP SWAP2 SWAP1 POP JUMP JUMPDEST PUSH32 0x4E487B7100000000000000000000000000000000000000000000000000000000 PUSH1 0x0 MSTORE PUSH1 0x41 PUSH1 0x4 MSTORE PUSH1 0x24 PUSH1 0x0 REVERT JUMPDEST PUSH32 0x4E487B7100000000000000000000000000000000000000000000000000000000 PUSH1 0x0 MSTORE PUSH1 0x22 PUSH1 0x4 MSTORE PUSH1 0x24 PUSH1 0x0 REVERT JUMPDEST PUSH1 0x0 PUSH1 0x2 DUP3 DIV SWAP1 POP PUSH1 0x1 DUP3 AND DUP1 PUSH3 0x214 JUMPI PUSH1 0x7F DUP3 AND SWAP2 POP JUMPDEST PUSH1 0x20 DUP3 LT DUP2 SUB PUSH3 0x22A JUMPI PUSH3 0x229 PUSH3 0x1CC JUMP JUMPDEST JUMPDEST POP SWAP2 SWAP1 POP JUMP JUMPDEST PUSH1 0x0 DUP2 SWAP1 POP DUP2 PUSH1 0x0 MSTORE PUSH1 0x20 PUSH1 0x0 KECCAK256 SWAP1 POP SWAP2 SWAP1 POP JUMP JUMPDEST PUSH1 0x0 PUSH1 0x20 PUSH1 0x1F DUP4 ADD DIV SWAP1 POP SWAP2 SWAP1 POP JUMP JUMPDEST PUSH1 0x0 DUP3 DUP3 SHL SWAP1 POP SWAP3 SWAP2 POP POP JUMP JUMPDEST PUSH1 0x0 PUSH1 0x8 DUP4 MUL PUSH3 0x294 PUSH32 0xFFFFFFFFFFFFFFFFFFFFFFFFFFFFFFFFFFFFFFFFFFFFFFFFFFFFFFFFFFFFFFFF DUP3 PUSH3 0x255 JUMP JUMPDEST PUSH3 0x2A0 DUP7 DUP4 PUSH3 0x255 JUMP JUMPDEST SWAP6 POP DUP1 NOT DUP5 AND SWAP4 POP DUP1 DUP7 AND DUP5 OR SWAP3 POP POP POP SWAP4 SWAP3 POP POP POP JUMP JUMPDEST PUSH1 0x0 DUP2 SWAP1 POP SWAP2 SWAP1 POP JUMP JUMPDEST PUSH1 0x0 DUP2 SWAP1 POP SWAP2 SWAP1 POP JUMP JUMPDEST PUSH1 0x0 PUSH3 0x2ED PUSH3 0x2E7 PUSH3 0x2E1 DUP5 PUSH3 0x2B8 JUMP JUMPDEST PUSH3 0x2C2 JUMP JUMPDEST PUSH3 0x2B8 JUMP JUMPDEST SWAP1 POP SWAP2 SWAP1 POP JUMP JUMPDEST PUSH1 0x0 DUP2 SWAP1 POP SWAP2 SWAP1 POP JUMP JUMPDEST PUSH3 0x309 DUP4 PUSH3 0x2CC JUMP JUMPDEST PUSH3 0x321 PUSH3 0x318 DUP3 PUSH3 0x2F4 JUMP JUMPDEST DUP5 DUP5 SLOAD PUSH3 0x262 JUMP JUMPDEST DUP3 SSTORE POP POP POP POP JUMP JUMPDEST PUSH1 0x0 SWAP1 JUMP JUMPDEST PUSH3 0x338 PUSH3 0x329 JUMP JUMPDEST PUSH3 0x345 DUP2 DUP5 DUP5 PUSH3 0x2FE JUMP JUMPDEST POP POP POP JUMP JUMPDEST JUMPDEST DUP2 DUP2 LT ISZERO PUSH3 0x36D JUMPI PUSH3 0x361 PUSH1 0x0 DUP3 PUSH3 0x32E JUMP JUMPDEST PUSH1 0x1 DUP2 ADD SWAP1 POP PUSH3 0x34B JUMP JUMPDEST POP POP JUMP JUMPDEST PUSH1 0x1F DUP3 GT ISZERO PUSH3 0x3BC JUMPI PUSH3 0x386 DUP2 PUSH3 0x230 JUMP JUMPDEST PUSH3 0x391 DUP5 PUSH3 0x245 JUMP JUMPDEST DUP2 ADD PUSH1 0x20 DUP6 LT ISZERO PUSH3 0x3A1 JUMPI DUP2 SWAP1 POP JUMPDEST PUSH3 0x3B9 PUSH3 0x3B0 DUP6 PUSH3 0x245 JUMP JUMPDEST DUP4 ADD DUP3 PUSH3 0x34A JUMP JUMPDEST POP POP JUMPDEST POP POP POP JUMP JUMPDEST PUSH1 0x0 DUP3 DUP3 SHR SWAP1 POP SWAP3 SWAP2 POP POP JUMP JUMPDEST PUSH1 0x0 PUSH3 0x3E1 PUSH1 0x0 NOT DUP5 PUSH1 0x8 MUL PUSH3 0x3C1 JUMP JUMPDEST NOT DUP1 DUP4 AND SWAP2 POP POP SWAP3 SWAP2 POP POP JUMP JUMPDEST PUSH1 0x0 PUSH3 0x3FC DUP4 DUP4 PUSH3 0x3CE JUMP JUMPDEST SWAP2 POP DUP3 PUSH1 0x2 MUL DUP3 OR SWAP1 POP SWAP3 SWAP2 POP POP JUMP JUMPDEST PUSH3 0x417 DUP3 PUSH3 0x192 JUMP JUMPDEST PUSH8 0xFFFFFFFFFFFFFFFF DUP2 GT ISZERO PUSH3 0x433 JUMPI PUSH3 0x432 PUSH3 0x19D JUMP JUMPDEST JUMPDEST PUSH3 0x43F DUP3 SLOAD PUSH3 0x1FB JUMP JUMPDEST PUSH3 0x44C DUP3 DUP3 DUP6 PUSH3 0x371 JUMP JUMPDEST PUSH1 0x0 PUSH1 0x20 SWAP1 POP PUSH1 0x1F DUP4 GT PUSH1 0x1 DUP2 EQ PUSH3 0x484 JUMPI PUSH1 0x0 DUP5 ISZERO PUSH3 0x46F JUMPI DUP3 DUP8 ADD MLOAD SWAP1 POP JUMPDEST PUSH3 0x47B DUP6 DUP3 PUSH3 0x3EE JUMP JUMPDEST DUP7 SSTORE POP PUSH3 0x4EB JUMP JUMPDEST PUSH1 0x1F NOT DUP5 AND PUSH3 0x494 DUP7 PUSH3 0x230 JUMP JUMPDEST PUSH1 0x0 JUMPDEST DUP3 DUP2 LT ISZERO PUSH3 0x4BE JUMPI DUP5 DUP10 ADD MLOAD DUP3 SSTORE PUSH1 0x1 DUP3 ADD SWAP2 POP PUSH1 0x20 DUP6 ADD SWAP5 POP PUSH1 0x20 DUP2 ADD SWAP1 POP PUSH3 0x497 JUMP JUMPDEST DUP7 DUP4 LT ISZERO PUSH3 0x4DE JUMPI DUP5 DUP10 ADD MLOAD PUSH3 0x4DA PUSH1 0x1F DUP10 AND DUP3 PUSH3 0x3CE JUMP JUMPDEST DUP4 SSTORE POP JUMPDEST PUSH1 0x1 PUSH1 0x2 DUP9 MUL ADD DUP9 SSTORE POP POP POP JUMPDEST POP POP POP POP POP POP JUMP JUMPDEST PUSH2 0xD6C DUP1 PUSH3 0x503 PUSH1 0x0 CODECOPY PUSH1 0x0 RETURN INVALID PUSH1 0x80 PUSH1 0x40 MSTORE CALLVALUE DUP1 ISZERO PUSH2 0x10 JUMPI PUSH1 0x0 DUP1 REVERT JUMPDEST POP PUSH1 0x4 CALLDATASIZE LT PUSH2 0x88 JUMPI PUSH1 0x0 CALLDATALOAD PUSH1 0xE0 SHR DUP1 PUSH4 0xA57C5F1B GT PUSH2 0x5B JUMPI DUP1 PUSH4 0xA57C5F1B EQ PUSH2 0x139 JUMPI DUP1 PUSH4 0xE990585E EQ PUSH2 0x155 JUMPI DUP1 PUSH4 0xEAAEFA96 EQ PUSH2 0x171 JUMPI DUP1 PUSH4 0xF096FA63 EQ PUSH2 0x1A3 JUMPI PUSH2 0x88 JUMP JUMPDEST DUP1 PUSH4 0x20716F88 EQ PUSH2 0x8D JUMPI DUP1 PUSH4 0x78A819F4 EQ PUSH2 0xBD JUMPI DUP1 PUSH4 0x7A088A2E EQ PUSH2 0xED JUMPI DUP1 PUSH4 0x9A83E3EC EQ PUSH2 0x11D JUMPI JUMPDEST PUSH1 0x0 DUP1 REVERT JUMPDEST PUSH2 0xA7 PUSH1 0x4 DUP1 CALLDATASIZE SUB DUP2 ADD SWAP1 PUSH2 0xA2 SWAP2 SWAP1 PUSH2 0x7CB JUMP JUMPDEST PUSH2 0x1D5 JUMP JUMPDEST PUSH1 0x40 MLOAD PUSH2 0xB4 SWAP2 SWAP1 PUSH2 0x836 JUMP JUMPDEST PUSH1 0x40 MLOAD DUP1 SWAP2 SUB SWAP1 RETURN JUMPDEST PUSH2 0xD7 PUSH1 0x4 DUP1 CALLDATASIZE SUB DUP2 ADD SWAP1 PUSH2 0xD2 SWAP2 SWAP1 PUSH2 0x851 JUMP JUMPDEST PUSH2 0x21C JUMP JUMPDEST PUSH1 0x40 MLOAD PUSH2 0xE4 SWAP2 SWAP1 PUSH2 0x836 JUMP JUMPDEST PUSH1 0x40 MLOAD DUP1 SWAP2 SUB SWAP1 RETURN JUMPDEST PUSH2 0x107 PUSH1 0x4 DUP1 CALLDATASIZE SUB DUP2 ADD SWAP1 PUSH2 0x102 SWAP2 SWAP1 PUSH2 0x8DC JUMP JUMPDEST PUSH2 0x237 JUMP JUMPDEST PUSH1 0x40 MLOAD PUSH2 0x114 SWAP2 SWAP1 PUSH2 0x836 JUMP JUMPDEST PUSH1 0x40 MLOAD DUP1 SWAP2 SUB SWAP1 RETURN JUMPDEST PUSH2 0x137 PUSH1 0x4 DUP1 CALLDATASIZE SUB DUP2 ADD SWAP1 PUSH2 0x132 SWAP2 SWAP1 PUSH2 0x909 JUMP JUMPDEST PUSH2 0x24F JUMP JUMPDEST STOP JUMPDEST PUSH2 0x153 PUSH1 0x4 DUP1 CALLDATASIZE SUB DUP2 ADD SWAP1 PUSH2 0x14E SWAP2 SWAP1 PUSH2 0x851 JUMP JUMPDEST PUSH2 0x2D8 JUMP JUMPDEST STOP JUMPDEST PUSH2 0x16F PUSH1 0x4 DUP1 CALLDATASIZE SUB DUP2 ADD SWAP1 PUSH2 0x16A SWAP2 SWAP1 PUSH2 0x909 JUMP JUMPDEST PUSH2 0x31F JUMP JUMPDEST STOP JUMPDEST PUSH2 0x18B PUSH1 0x4 DUP1 CALLDATASIZE SUB DUP2 ADD SWAP1 PUSH2 0x186 SWAP2 SWAP1 PUSH2 0x8DC JUMP JUMPDEST PUSH2 0x3B7 JUMP JUMPDEST PUSH1 0x40 MLOAD PUSH2 0x19A SWAP4 SWAP3 SWAP2 SWAP1 PUSH2 0xA13 JUMP JUMPDEST PUSH1 0x40 MLOAD DUP1 SWAP2 SUB SWAP1 RETURN JUMPDEST PUSH2 0x1BD PUSH1 0x4 DUP1 CALLDATASIZE SUB DUP2 ADD SWAP1 PUSH2 0x1B8 SWAP2 SWAP1 PUSH2 0x851 JUMP JUMPDEST PUSH2 0x4F1 JUMP JUMPDEST PUSH1 0x40 MLOAD PUSH2 0x1CC SWAP4 SWAP3 SWAP2 SWAP1 PUSH2 0xA13 JUMP JUMPDEST PUSH1 0x40 MLOAD DUP1 SWAP2 SUB SWAP1 RETURN JUMPDEST PUSH1 0xB DUP3 DUP1 MLOAD PUSH1 0x20 DUP2 ADD DUP3 ADD DUP1 MLOAD DUP5 DUP3 MSTORE PUSH1 0x20 DUP4 ADD PUSH1 0x20 DUP6 ADD KECCAK256 DUP2 DUP4 MSTORE DUP1 SWAP6 POP POP POP POP POP POP DUP2 DUP2 SLOAD DUP2 LT PUSH2 0x207 JUMPI PUSH1 0x0 DUP1 REVERT JUMPDEST SWAP1 PUSH1 0x0 MSTORE PUSH1 0x20 PUSH1 0x0 KECCAK256 ADD PUSH1 0x0 SWAP2 POP SWAP2 POP POP SLOAD DUP2 JUMP JUMPDEST PUSH1 0x3 DUP2 PUSH1 0x5 DUP2 LT PUSH2 0x22C JUMPI PUSH1 0x0 DUP1 REVERT JUMPDEST ADD PUSH1 0x0 SWAP2 POP SWAP1 POP SLOAD DUP2 JUMP JUMPDEST PUSH1 0xA PUSH1 0x20 MSTORE DUP1 PUSH1 0x0 MSTORE PUSH1 0x40 PUSH1 0x0 KECCAK256 PUSH1 0x0 SWAP2 POP SWAP1 POP SLOAD DUP2 JUMP JUMPDEST PUSH1 0x0 PUSH1 0x40 MLOAD DUP1 PUSH1 0x60 ADD PUSH1 0x40 MSTORE DUP1 DUP6 DUP2 MSTORE PUSH1 0x20 ADD DUP5 DUP2 MSTORE PUSH1 0x20 ADD DUP4 DUP2 MSTORE POP SWAP1 POP PUSH1 0x9 DUP2 SWAP1 DUP1 PUSH1 0x1 DUP2 SLOAD ADD DUP1 DUP3 SSTORE DUP1 SWAP2 POP POP PUSH1 0x1 SWAP1 SUB SWAP1 PUSH1 0x0 MSTORE PUSH1 0x20 PUSH1 0x0 KECCAK256 SWAP1 PUSH1 0x3 MUL ADD PUSH1 0x0 SWAP1 SWAP2 SWAP1 SWAP2 SWAP1 SWAP2 POP PUSH1 0x0 DUP3 ADD MLOAD DUP2 PUSH1 0x0 ADD SSTORE PUSH1 0x20 DUP3 ADD MLOAD DUP2 PUSH1 0x1 ADD SWAP1 DUP2 PUSH2 0x2B9 SWAP2 SWAP1 PUSH2 0xC64 JUMP JUMPDEST POP PUSH1 0x40 DUP3 ADD MLOAD DUP2 PUSH1 0x2 ADD SWAP1 DUP2 PUSH2 0x2CF SWAP2 SWAP1 PUSH2 0xC64 JUMP JUMPDEST POP POP POP POP POP POP POP JUMP JUMPDEST DUP1 PUSH1 0xA PUSH1 0x0 CALLER PUSH20 0xFFFFFFFFFFFFFFFFFFFFFFFFFFFFFFFFFFFFFFFF AND PUSH20 0xFFFFFFFFFFFFFFFFFFFFFFFFFFFFFFFFFFFFFFFF AND DUP2 MSTORE PUSH1 0x20 ADD SWAP1 DUP2 MSTORE PUSH1 0x20 ADD PUSH1 0x0 KECCAK256 DUP2 SWAP1 SSTORE POP POP JUMP JUMPDEST PUSH1 0x40 MLOAD DUP1 PUSH1 0x60 ADD PUSH1 0x40 MSTORE DUP1 DUP5 DUP2 MSTORE PUSH1 0x20 ADD DUP4 DUP2 MSTORE PUSH1 0x20 ADD DUP3 DUP2 MSTORE POP PUSH1 0xC PUSH1 0x0 CALLER PUSH20 0xFFFFFFFFFFFFFFFFFFFFFFFFFFFFFFFFFFFFFFFF AND PUSH20 0xFFFFFFFFFFFFFFFFFFFFFFFFFFFFFFFFFFFFFFFF AND DUP2 MSTORE PUSH1 0x20 ADD SWAP1 DUP2 MSTORE PUSH1 0x20 ADD PUSH1 0x0 KECCAK256 PUSH1 0x0 DUP3 ADD MLOAD DUP2 PUSH1 0x0 ADD SSTORE PUSH1 0x20 DUP3 ADD MLOAD DUP2 PUSH1 0x1 ADD SWAP1 DUP2 PUSH2 0x398 SWAP2 SWAP1 PUSH2 0xC64 JUMP JUMPDEST POP PUSH1 0x40 DUP3 ADD MLOAD DUP2 PUSH1 0x2 ADD SWAP1 DUP2 PUSH2 0x3AE SWAP2 SWAP1 PUSH2 0xC64 JUMP JUMPDEST POP SWAP1 POP POP POP POP POP JUMP JUMPDEST PUSH1 0xC PUSH1 0x20 MSTORE DUP1 PUSH1 0x0 MSTORE PUSH1 0x40 PUSH1 0x0 KECCAK256 PUSH1 0x0 SWAP2 POP SWAP1 POP DUP1 PUSH1 0x0 ADD SLOAD SWAP1 DUP1 PUSH1 0x1 ADD DUP1 SLOAD PUSH2 0x3E0 SWAP1 PUSH2 0xA87 JUMP JUMPDEST DUP1 PUSH1 0x1F ADD PUSH1 0x20 DUP1 SWAP2 DIV MUL PUSH1 0x20 ADD PUSH1 0x40 MLOAD SWAP1 DUP2 ADD PUSH1 0x40 MSTORE DUP1 SWAP3 SWAP2 SWAP1 DUP2 DUP2 MSTORE PUSH1 0x20 ADD DUP3 DUP1 SLOAD PUSH2 0x40C SWAP1 PUSH2 0xA87 JUMP JUMPDEST DUP1 ISZERO PUSH2 0x459 JUMPI DUP1 PUSH1 0x1F LT PUSH2 0x42E JUMPI PUSH2 0x100 DUP1 DUP4 SLOAD DIV MUL DUP4 MSTORE SWAP2 PUSH1 0x20 ADD SWAP2 PUSH2 0x459 JUMP JUMPDEST DUP3 ADD SWAP2 SWAP1 PUSH1 0x0 MSTORE PUSH1 0x20 PUSH1 0x0 KECCAK256 SWAP1 JUMPDEST DUP2 SLOAD DUP2 MSTORE SWAP1 PUSH1 0x1 ADD SWAP1 PUSH1 0x20 ADD DUP1 DUP4 GT PUSH2 0x43C JUMPI DUP3 SWAP1 SUB PUSH1 0x1F AND DUP3 ADD SWAP2 JUMPDEST POP POP POP POP POP SWAP1 DUP1 PUSH1 0x2 ADD DUP1 SLOAD PUSH2 0x46E SWAP1 PUSH2 0xA87 JUMP JUMPDEST DUP1 PUSH1 0x1F ADD PUSH1 0x20 DUP1 SWAP2 DIV MUL PUSH1 0x20 ADD PUSH1 0x40 MLOAD SWAP1 DUP2 ADD PUSH1 0x40 MSTORE DUP1 SWAP3 SWAP2 SWAP1 DUP2 DUP2 MSTORE PUSH1 0x20 ADD DUP3 DUP1 SLOAD PUSH2 0x49A SWAP1 PUSH2 0xA87 JUMP JUMPDEST DUP1 ISZERO PUSH2 0x4E7 JUMPI DUP1 PUSH1 0x1F LT PUSH2 0x4BC JUMPI PUSH2 0x100 DUP1 DUP4 SLOAD DIV MUL DUP4 MSTORE SWAP2 PUSH1 0x20 ADD SWAP2 PUSH2 0x4E7 JUMP JUMPDEST DUP3 ADD SWAP2 SWAP1 PUSH1 0x0 MSTORE PUSH1 0x20 PUSH1 0x0 KECCAK256 SWAP1 JUMPDEST DUP2 SLOAD DUP2 MSTORE SWAP1 PUSH1 0x1 ADD SWAP1 PUSH1 0x20 ADD DUP1 DUP4 GT PUSH2 0x4CA JUMPI DUP3 SWAP1 SUB PUSH1 0x1F AND DUP3 ADD SWAP2 JUMPDEST POP POP POP POP POP SWAP1 POP DUP4 JUMP JUMPDEST PUSH1 0x9 DUP2 DUP2 SLOAD DUP2 LT PUSH2 0x501 JUMPI PUSH1 0x0 DUP1 REVERT JUMPDEST SWAP1 PUSH1 0x0 MSTORE PUSH1 0x20 PUSH1 0x0 KECCAK256 SWAP1 PUSH1 0x3 MUL ADD PUSH1 0x0 SWAP2 POP SWAP1 POP DUP1 PUSH1 0x0 ADD SLOAD SWAP1 DUP1 PUSH1 0x1 ADD DUP1 SLOAD PUSH2 0x52A SWAP1 PUSH2 0xA87 JUMP JUMPDEST DUP1 PUSH1 0x1F ADD PUSH1 0x20 DUP1 SWAP2 DIV MUL PUSH1 0x20 ADD PUSH1 0x40 MLOAD SWAP1 DUP2 ADD PUSH1 0x40 MSTORE DUP1 SWAP3 SWAP2 SWAP1 DUP2 DUP2 MSTORE PUSH1 0x20 ADD DUP3 DUP1 SLOAD PUSH2 0x556 SWAP1 PUSH2 0xA87 JUMP JUMPDEST DUP1 ISZERO PUSH2 0x5A3 JUMPI DUP1 PUSH1 0x1F LT PUSH2 0x578 JUMPI PUSH2 0x100 DUP1 DUP4 SLOAD DIV MUL DUP4 MSTORE SWAP2 PUSH1 0x20 ADD SWAP2 PUSH2 0x5A3 JUMP JUMPDEST DUP3 ADD SWAP2 SWAP1 PUSH1 0x0 MSTORE PUSH1 0x20 PUSH1 0x0 KECCAK256 SWAP1 JUMPDEST DUP2 SLOAD DUP2 MSTORE SWAP1 PUSH1 0x1 ADD SWAP1 PUSH1 0x20 ADD DUP1 DUP4 GT PUSH2 0x586 JUMPI DUP3 SWAP1 SUB PUSH1 0x1F AND DUP3 ADD SWAP2 JUMPDEST POP POP POP POP POP SWAP1 DUP1 PUSH1 0x2 ADD DUP1 SLOAD PUSH2 0x5B8 SWAP1 PUSH2 0xA87 JUMP JUMPDEST DUP1 PUSH1 0x1F ADD PUSH1 0x20 DUP1 SWAP2 DIV MUL PUSH1 0x20 ADD PUSH1 0x40 MLOAD SWAP1 DUP2 ADD PUSH1 0x40 MSTORE DUP1 SWAP3 SWAP2 SWAP1 DUP2 DUP2 MSTORE PUSH1 0x20 ADD DUP3 DUP1 SLOAD PUSH2 0x5E4 SWAP1 PUSH2 0xA87 JUMP JUMPDEST DUP1 ISZERO PUSH2 0x631 JUMPI DUP1 PUSH1 0x1F LT PUSH2 0x606 JUMPI PUSH2 0x100 DUP1 DUP4 SLOAD DIV MUL DUP4 MSTORE SWAP2 PUSH1 0x20 ADD SWAP2 PUSH2 0x631 JUMP JUMPDEST DUP3 ADD SWAP2 SWAP1 PUSH1 0x0 MSTORE PUSH1 0x20 PUSH1 0x0 KECCAK256 SWAP1 JUMPDEST DUP2 SLOAD DUP2 MSTORE SWAP1 PUSH1 0x1 ADD SWAP1 PUSH1 0x20 ADD DUP1 DUP4 GT PUSH2 0x614 JUMPI DUP3 SWAP1 SUB PUSH1 0x1F AND DUP3 ADD SWAP2 JUMPDEST POP POP POP POP POP SWAP1 POP DUP4 JUMP JUMPDEST PUSH1 0x0 PUSH1 0x40 MLOAD SWAP1 POP SWAP1 JUMP JUMPDEST PUSH1 0x0 DUP1 REVERT JUMPDEST PUSH1 0x0 DUP1 REVERT JUMPDEST PUSH1 0x0 DUP1 REVERT JUMPDEST PUSH1 0x0 DUP1 REVERT JUMPDEST PUSH1 0x0 PUSH1 0x1F NOT PUSH1 0x1F DUP4 ADD AND SWAP1 POP SWAP2 SWAP1 POP JUMP JUMPDEST PUSH32 0x4E487B7100000000000000000000000000000000000000000000000000000000 PUSH1 0x0 MSTORE PUSH1 0x41 PUSH1 0x4 MSTORE PUSH1 0x24 PUSH1 0x0 REVERT JUMPDEST PUSH2 0x6A2 DUP3 PUSH2 0x659 JUMP JUMPDEST DUP2 ADD DUP2 DUP2 LT PUSH8 0xFFFFFFFFFFFFFFFF DUP3 GT OR ISZERO PUSH2 0x6C1 JUMPI PUSH2 0x6C0 PUSH2 0x66A JUMP JUMPDEST JUMPDEST DUP1 PUSH1 0x40 MSTORE POP POP POP JUMP JUMPDEST PUSH1 0x0 PUSH2 0x6D4 PUSH2 0x63B JUMP JUMPDEST SWAP1 POP PUSH2 0x6E0 DUP3 DUP3 PUSH2 0x699 JUMP JUMPDEST SWAP2 SWAP1 POP JUMP JUMPDEST PUSH1 0x0 PUSH8 0xFFFFFFFFFFFFFFFF DUP3 GT ISZERO PUSH2 0x700 JUMPI PUSH2 0x6FF PUSH2 0x66A JUMP JUMPDEST JUMPDEST PUSH2 0x709 DUP3 PUSH2 0x659 JUMP JUMPDEST SWAP1 POP PUSH1 0x20 DUP2 ADD SWAP1 POP SWAP2 SWAP1 POP JUMP JUMPDEST DUP3 DUP2 DUP4 CALLDATACOPY PUSH1 0x0 DUP4 DUP4 ADD MSTORE POP POP POP JUMP JUMPDEST PUSH1 0x0 PUSH2 0x738 PUSH2 0x733 DUP5 PUSH2 0x6E5 JUMP JUMPDEST PUSH2 0x6CA JUMP JUMPDEST SWAP1 POP DUP3 DUP2 MSTORE PUSH1 0x20 DUP2 ADD DUP5 DUP5 DUP5 ADD GT ISZERO PUSH2 0x754 JUMPI PUSH2 0x753 PUSH2 0x654 JUMP JUMPDEST JUMPDEST PUSH2 0x75F DUP5 DUP3 DUP6 PUSH2 0x716 JUMP JUMPDEST POP SWAP4 SWAP3 POP POP POP JUMP JUMPDEST PUSH1 0x0 DUP3 PUSH1 0x1F DUP4 ADD SLT PUSH2 0x77C JUMPI PUSH2 0x77B PUSH2 0x64F JUMP JUMPDEST JUMPDEST DUP2 CALLDATALOAD PUSH2 0x78C DUP5 DUP3 PUSH1 0x20 DUP7 ADD PUSH2 0x725 JUMP JUMPDEST SWAP2 POP POP SWAP3 SWAP2 POP POP JUMP JUMPDEST PUSH1 0x0 DUP2 SWAP1 POP SWAP2 SWAP1 POP JUMP JUMPDEST PUSH2 0x7A8 DUP2 PUSH2 0x795 JUMP JUMPDEST DUP2 EQ PUSH2 0x7B3 JUMPI PUSH1 0x0 DUP1 REVERT JUMPDEST POP JUMP JUMPDEST PUSH1 0x0 DUP2 CALLDATALOAD SWAP1 POP PUSH2 0x7C5 DUP2 PUSH2 0x79F JUMP JUMPDEST SWAP3 SWAP2 POP POP JUMP JUMPDEST PUSH1 0x0 DUP1 PUSH1 0x40 DUP4 DUP6 SUB SLT ISZERO PUSH2 0x7E2 JUMPI PUSH2 0x7E1 PUSH2 0x645 JUMP JUMPDEST JUMPDEST PUSH1 0x0 DUP4 ADD CALLDATALOAD PUSH8 0xFFFFFFFFFFFFFFFF DUP2 GT ISZERO PUSH2 0x800 JUMPI PUSH2 0x7FF PUSH2 0x64A JUMP JUMPDEST JUMPDEST PUSH2 0x80C DUP6 DUP3 DUP7 ADD PUSH2 0x767 JUMP JUMPDEST SWAP3 POP POP PUSH1 0x20 PUSH2 0x81D DUP6 DUP3 DUP7 ADD PUSH2 0x7B6 JUMP JUMPDEST SWAP2 POP POP SWAP3 POP SWAP3 SWAP1 POP JUMP JUMPDEST PUSH2 0x830 DUP2 PUSH2 0x795 JUMP JUMPDEST DUP3 MSTORE POP POP JUMP JUMPDEST PUSH1 0x0 PUSH1 0x20 DUP3 ADD SWAP1 POP PUSH2 0x84B PUSH1 0x0 DUP4 ADD DUP5 PUSH2 0x827 JUMP JUMPDEST SWAP3 SWAP2 POP POP JUMP JUMPDEST PUSH1 0x0 PUSH1 0x20 DUP3 DUP5 SUB SLT ISZERO PUSH2 0x867 JUMPI PUSH2 0x866 PUSH2 0x645 JUMP JUMPDEST JUMPDEST PUSH1 0x0 PUSH2 0x875 DUP5 DUP3 DUP6 ADD PUSH2 0x7B6 JUMP JUMPDEST SWAP2 POP POP SWAP3 SWAP2 POP POP JUMP JUMPDEST PUSH1 0x0 PUSH20 0xFFFFFFFFFFFFFFFFFFFFFFFFFFFFFFFFFFFFFFFF DUP3 AND SWAP1 POP SWAP2 SWAP1 POP JUMP JUMPDEST PUSH1 0x0 PUSH2 0x8A9 DUP3 PUSH2 0x87E JUMP JUMPDEST SWAP1 POP SWAP2 SWAP1 POP JUMP JUMPDEST PUSH2 0x8B9 DUP2 PUSH2 0x89E JUMP JUMPDEST DUP2 EQ PUSH2 0x8C4 JUMPI PUSH1 0x0 DUP1 REVERT JUMPDEST POP JUMP JUMPDEST PUSH1 0x0 DUP2 CALLDATALOAD SWAP1 POP PUSH2 0x8D6 DUP2 PUSH2 0x8B0 JUMP JUMPDEST SWAP3 SWAP2 POP POP JUMP JUMPDEST PUSH1 0x0 PUSH1 0x20 DUP3 DUP5 SUB SLT ISZERO PUSH2 0x8F2 JUMPI PUSH2 0x8F1 PUSH2 0x645 JUMP JUMPDEST JUMPDEST PUSH1 0x0 PUSH2 0x900 DUP5 DUP3 DUP6 ADD PUSH2 0x8C7 JUMP JUMPDEST SWAP2 POP POP SWAP3 SWAP2 POP POP JUMP JUMPDEST PUSH1 0x0 DUP1 PUSH1 0x0 PUSH1 0x60 DUP5 DUP7 SUB SLT ISZERO PUSH2 0x922 JUMPI PUSH2 0x921 PUSH2 0x645 JUMP JUMPDEST JUMPDEST PUSH1 0x0 PUSH2 0x930 DUP7 DUP3 DUP8 ADD PUSH2 0x7B6 JUMP JUMPDEST SWAP4 POP POP PUSH1 0x20 DUP5 ADD CALLDATALOAD PUSH8 0xFFFFFFFFFFFFFFFF DUP2 GT ISZERO PUSH2 0x951 JUMPI PUSH2 0x950 PUSH2 0x64A JUMP JUMPDEST JUMPDEST PUSH2 0x95D DUP7 DUP3 DUP8 ADD PUSH2 0x767 JUMP JUMPDEST SWAP3 POP POP PUSH1 0x40 DUP5 ADD CALLDATALOAD PUSH8 0xFFFFFFFFFFFFFFFF DUP2 GT ISZERO PUSH2 0x97E JUMPI PUSH2 0x97D PUSH2 0x64A JUMP JUMPDEST JUMPDEST PUSH2 0x98A DUP7 DUP3 DUP8 ADD PUSH2 0x767 JUMP JUMPDEST SWAP2 POP POP SWAP3 POP SWAP3 POP SWAP3 JUMP JUMPDEST PUSH1 0x0 DUP2 MLOAD SWAP1 POP SWAP2 SWAP1 POP JUMP JUMPDEST PUSH1 0x0 DUP3 DUP3 MSTORE PUSH1 0x20 DUP3 ADD SWAP1 POP SWAP3 SWAP2 POP POP JUMP JUMPDEST PUSH1 0x0 JUMPDEST DUP4 DUP2 LT ISZERO PUSH2 0x9CE JUMPI DUP1 DUP3 ADD MLOAD DUP2 DUP5 ADD MSTORE PUSH1 0x20 DUP2 ADD SWAP1 POP PUSH2 0x9B3 JUMP JUMPDEST PUSH1 0x0 DUP5 DUP5 ADD MSTORE POP POP POP POP JUMP JUMPDEST PUSH1 0x0 PUSH2 0x9E5 DUP3 PUSH2 0x994 JUMP JUMPDEST PUSH2 0x9EF DUP2 DUP6 PUSH2 0x99F JUMP JUMPDEST SWAP4 POP PUSH2 0x9FF DUP2 DUP6 PUSH1 0x20 DUP7 ADD PUSH2 0x9B0 JUMP JUMPDEST PUSH2 0xA08 DUP2 PUSH2 0x659 JUMP JUMPDEST DUP5 ADD SWAP2 POP POP SWAP3 SWAP2 POP POP JUMP JUMPDEST PUSH1 0x0 PUSH1 0x60 DUP3 ADD SWAP1 POP PUSH2 0xA28 PUSH1 0x0 DUP4 ADD DUP7 PUSH2 0x827 JUMP JUMPDEST DUP2 DUP2 SUB PUSH1 0x20 DUP4 ADD MSTORE PUSH2 0xA3A DUP2 DUP6 PUSH2 0x9DA JUMP JUMPDEST SWAP1 POP DUP2 DUP2 SUB PUSH1 0x40 DUP4 ADD MSTORE PUSH2 0xA4E DUP2 DUP5 PUSH2 0x9DA JUMP JUMPDEST SWAP1 POP SWAP5 SWAP4 POP POP POP POP JUMP JUMPDEST PUSH32 0x4E487B7100000000000000000000000000000000000000000000000000000000 PUSH1 0x0 MSTORE PUSH1 0x22 PUSH1 0x4 MSTORE PUSH1 0x24 PUSH1 0x0 REVERT JUMPDEST PUSH1 0x0 PUSH1 0x2 DUP3 DIV SWAP1 POP PUSH1 0x1 DUP3 AND DUP1 PUSH2 0xA9F JUMPI PUSH1 0x7F DUP3 AND SWAP2 POP JUMPDEST PUSH1 0x20 DUP3 LT DUP2 SUB PUSH2 0xAB2 JUMPI PUSH2 0xAB1 PUSH2 0xA58 JUMP JUMPDEST JUMPDEST POP SWAP2 SWAP1 POP JUMP JUMPDEST PUSH1 0x0 DUP2 SWAP1 POP DUP2 PUSH1 0x0 MSTORE PUSH1 0x20 PUSH1 0x0 KECCAK256 SWAP1 POP SWAP2 SWAP1 POP JUMP JUMPDEST PUSH1 0x0 PUSH1 0x20 PUSH1 0x1F DUP4 ADD DIV SWAP1 POP SWAP2 SWAP1 POP JUMP JUMPDEST PUSH1 0x0 DUP3 DUP3 SHL SWAP1 POP SWAP3 SWAP2 POP POP JUMP JUMPDEST PUSH1 0x0 PUSH1 0x8 DUP4 MUL PUSH2 0xB1A PUSH32 0xFFFFFFFFFFFFFFFFFFFFFFFFFFFFFFFFFFFFFFFFFFFFFFFFFFFFFFFFFFFFFFFF DUP3 PUSH2 0xADD JUMP JUMPDEST PUSH2 0xB24 DUP7 DUP4 PUSH2 0xADD JUMP JUMPDEST SWAP6 POP DUP1 NOT DUP5 AND SWAP4 POP DUP1 DUP7 AND DUP5 OR SWAP3 POP POP POP SWAP4 SWAP3 POP POP POP JUMP JUMPDEST PUSH1 0x0 DUP2 SWAP1 POP SWAP2 SWAP1 POP JUMP JUMPDEST PUSH1 0x0 PUSH2 0xB61 PUSH2 0xB5C PUSH2 0xB57 DUP5 PUSH2 0x795 JUMP JUMPDEST PUSH2 0xB3C JUMP JUMPDEST PUSH2 0x795 JUMP JUMPDEST SWAP1 POP SWAP2 SWAP1 POP JUMP JUMPDEST PUSH1 0x0 DUP2 SWAP1 POP SWAP2 SWAP1 POP JUMP JUMPDEST PUSH2 0xB7B DUP4 PUSH2 0xB46 JUMP JUMPDEST PUSH2 0xB8F PUSH2 0xB87 DUP3 PUSH2 0xB68 JUMP JUMPDEST DUP5 DUP5 SLOAD PUSH2 0xAEA JUMP JUMPDEST DUP3 SSTORE POP POP POP POP JUMP JUMPDEST PUSH1 0x0 SWAP1 JUMP JUMPDEST PUSH2 0xBA4 PUSH2 0xB97 JUMP JUMPDEST PUSH2 0xBAF DUP2 DUP5 DUP5 PUSH2 0xB72 JUMP JUMPDEST POP POP POP JUMP JUMPDEST JUMPDEST DUP2 DUP2 LT ISZERO PUSH2 0xBD3 JUMPI PUSH2 0xBC8 PUSH1 0x0 DUP3 PUSH2 0xB9C JUMP JUMPDEST PUSH1 0x1 DUP2 ADD SWAP1 POP PUSH2 0xBB5 JUMP JUMPDEST POP POP JUMP JUMPDEST PUSH1 0x1F DUP3 GT ISZERO PUSH2 0xC18 JUMPI PUSH2 0xBE9 DUP2 PUSH2 0xAB8 JUMP JUMPDEST PUSH2 0xBF2 DUP5 PUSH2 0xACD JUMP JUMPDEST DUP2 ADD PUSH1 0x20 DUP6 LT ISZERO PUSH2 0xC01 JUMPI DUP2 SWAP1 POP JUMPDEST PUSH2 0xC15 PUSH2 0xC0D DUP6 PUSH2 0xACD JUMP JUMPDEST DUP4 ADD DUP3 PUSH2 0xBB4 JUMP JUMPDEST POP POP JUMPDEST POP POP POP JUMP JUMPDEST PUSH1 0x0 DUP3 DUP3 SHR SWAP1 POP SWAP3 SWAP2 POP POP JUMP JUMPDEST PUSH1 0x0 PUSH2 0xC3B PUSH1 0x0 NOT DUP5 PUSH1 0x8 MUL PUSH2 0xC1D JUMP JUMPDEST NOT DUP1 DUP4 AND SWAP2 POP POP SWAP3 SWAP2 POP POP JUMP JUMPDEST PUSH1 0x0 PUSH2 0xC54 DUP4 DUP4 PUSH2 0xC2A JUMP JUMPDEST SWAP2 POP DUP3 PUSH1 0x2 MUL DUP3 OR SWAP1 POP SWAP3 SWAP2 POP POP JUMP JUMPDEST PUSH2 0xC6D DUP3 PUSH2 0x994 JUMP JUMPDEST PUSH8 0xFFFFFFFFFFFFFFFF DUP2 GT ISZERO PUSH2 0xC86 JUMPI PUSH2 0xC85 PUSH2 0x66A JUMP JUMPDEST JUMPDEST PUSH2 0xC90 DUP3 SLOAD PUSH2 0xA87 JUMP JUMPDEST PUSH2 0xC9B DUP3 DUP3 DUP6 PUSH2 0xBD7 JUMP JUMPDEST PUSH1 0x0 PUSH1 0x20 SWAP1 POP PUSH1 0x1F DUP4 GT PUSH1 0x1 DUP2 EQ PUSH2 0xCCE JUMPI PUSH1 0x0 DUP5 ISZERO PUSH2 0xCBC JUMPI DUP3 DUP8 ADD MLOAD SWAP1 POP JUMPDEST PUSH2 0xCC6 DUP6 DUP3 PUSH2 0xC48 JUMP JUMPDEST DUP7 SSTORE POP PUSH2 0xD2E JUMP JUMPDEST PUSH1 0x1F NOT DUP5 AND PUSH2 0xCDC DUP7 PUSH2 0xAB8 JUMP JUMPDEST PUSH1 0x0 JUMPDEST DUP3 DUP2 LT ISZERO PUSH2 0xD04 JUMPI DUP5 DUP10 ADD MLOAD DUP3 SSTORE PUSH1 0x1 DUP3 ADD SWAP2 POP PUSH1 0x20 DUP6 ADD SWAP5 POP PUSH1 0x20 DUP2 ADD SWAP1 POP PUSH2 0xCDF JUMP JUMPDEST DUP7 DUP4 LT ISZERO PUSH2 0xD21 JUMPI DUP5 DUP10 ADD MLOAD PUSH2 0xD1D PUSH1 0x1F DUP10 AND DUP3 PUSH2 0xC2A JUMP JUMPDEST DUP4 SSTORE POP JUMPDEST PUSH1 0x1 PUSH1 0x2 DUP9 MUL ADD DUP9 SSTORE POP POP POP JUMPDEST POP POP POP POP POP POP JUMP INVALID LOG2 PUSH5 0x6970667358 0x22 SLT KECCAK256 0x27 0xE4 0x2D CODECOPY INVALID LOG0 0xC PUSH20 0x6C1DCB9BF673C62AED8BC05A389DDFB257CE39EA CALLCODE INVALID 0x22 PUSH10 0x64736F6C634300081200 CALLER "
				},
				"gasEstimates": {
					"creation": {
						"codeDepositCost": "687200",
						"executionCost": "infinite",
						"totalCost": "infinite"
					},
					"external": {
						"address_dataStructure(address)": "infinite",
						"address_uint(address)": "2859",
						"array_modification(uint256,string,string)": "infinite",
						"assigNumber(uint256)": "22609",
						"assignDataStructure(uint256,string,string)": "infinite",
						"dynamic_list_customer(uint256)": "infinite",
						"fixed_list_units(uint256)": "infinite",
						"string_listUnits(string,uint256)": "infinite"
					}
				},
				"methodIdentifiers": {
					"address_dataStructure(address)": "eaaefa96",
					"address_uint(address)": "7a088a2e",
					"array_modification(uint256,string,string)": "9a83e3ec",
					"assigNumber(uint256)": "a57c5f1b",
					"assignDataStructure(uint256,string,string)": "e990585e",
					"dynamic_list_customer(uint256)": "f096fa63",
					"fixed_list_units(uint256)": "78a819f4",
					"string_listUnits(string,uint256)": "20716f88"
				}
			},
			"storageLayout": {
				"storage": [
					{
						"astId": 16,
						"contract": "primerContrato/Smart_Contracts/3_estructuras_datos.sol:data_structures",
						"label": "customer_1",
						"offset": 0,
						"slot": "0",
						"type": "t_struct(Customer)8_storage"
					},
					{
						"astId": 26,
						"contract": "primerContrato/Smart_Contracts/3_estructuras_datos.sol:data_structures",
						"label": "fixed_list_units",
						"offset": 0,
						"slot": "3",
						"type": "t_array(t_uint256)5_storage"
					},
					{
						"astId": 29,
						"contract": "primerContrato/Smart_Contracts/3_estructuras_datos.sol:data_structures",
						"label": "dynamic_list_uinst",
						"offset": 0,
						"slot": "8",
						"type": "t_array(t_uint256)dyn_storage"
					},
					{
						"astId": 33,
						"contract": "primerContrato/Smart_Contracts/3_estructuras_datos.sol:data_structures",
						"label": "dynamic_list_customer",
						"offset": 0,
						"slot": "9",
						"type": "t_array(t_struct(Customer)8_storage)dyn_storage"
					},
					{
						"astId": 62,
						"contract": "primerContrato/Smart_Contracts/3_estructuras_datos.sol:data_structures",
						"label": "address_uint",
						"offset": 0,
						"slot": "10",
						"type": "t_mapping(t_address,t_uint256)"
					},
					{
						"astId": 67,
						"contract": "primerContrato/Smart_Contracts/3_estructuras_datos.sol:data_structures",
						"label": "string_listUnits",
						"offset": 0,
						"slot": "11",
						"type": "t_mapping(t_string_memory_ptr,t_array(t_uint256)dyn_storage)"
					},
					{
						"astId": 72,
						"contract": "primerContrato/Smart_Contracts/3_estructuras_datos.sol:data_structures",
						"label": "address_dataStructure",
						"offset": 0,
						"slot": "12",
						"type": "t_mapping(t_address,t_struct(Customer)8_storage)"
					}
				],
				"types": {
					"t_address": {
						"encoding": "inplace",
						"label": "address",
						"numberOfBytes": "20"
					},
					"t_array(t_struct(Customer)8_storage)dyn_storage": {
						"base": "t_struct(Customer)8_storage",
						"encoding": "dynamic_array",
						"label": "struct data_structures.Customer[]",
						"numberOfBytes": "32"
					},
					"t_array(t_uint256)5_storage": {
						"base": "t_uint256",
						"encoding": "inplace",
						"label": "uint256[5]",
						"numberOfBytes": "160"
					},
					"t_array(t_uint256)dyn_storage": {
						"base": "t_uint256",
						"encoding": "dynamic_array",
						"label": "uint256[]",
						"numberOfBytes": "32"
					},
					"t_mapping(t_address,t_struct(Customer)8_storage)": {
						"encoding": "mapping",
						"key": "t_address",
						"label": "mapping(address => struct data_structures.Customer)",
						"numberOfBytes": "32",
						"value": "t_struct(Customer)8_storage"
					},
					"t_mapping(t_address,t_uint256)": {
						"encoding": "mapping",
						"key": "t_address",
						"label": "mapping(address => uint256)",
						"numberOfBytes": "32",
						"value": "t_uint256"
					},
					"t_mapping(t_string_memory_ptr,t_array(t_uint256)dyn_storage)": {
						"encoding": "mapping",
						"key": "t_string_memory_ptr",
						"label": "mapping(string => uint256[])",
						"numberOfBytes": "32",
						"value": "t_array(t_uint256)dyn_storage"
					},
					"t_string_memory_ptr": {
						"encoding": "bytes",
						"label": "string",
						"numberOfBytes": "32"
					},
					"t_string_storage": {
						"encoding": "bytes",
						"label": "string",
						"numberOfBytes": "32"
					},
					"t_struct(Customer)8_storage": {
						"encoding": "inplace",
						"label": "struct data_structures.Customer",
						"members": [
							{
								"astId": 3,
								"contract": "primerContrato/Smart_Contracts/3_estructuras_datos.sol:data_structures",
								"label": "id",
								"offset": 0,
								"slot": "0",
								"type": "t_uint256"
							},
							{
								"astId": 5,
								"contract": "primerContrato/Smart_Contracts/3_estructuras_datos.sol:data_structures",
								"label": "name",
								"offset": 0,
								"slot": "1",
								"type": "t_string_storage"
							},
							{
								"astId": 7,
								"contract": "primerContrato/Smart_Contracts/3_estructuras_datos.sol:data_structures",
								"label": "email",
								"offset": 0,
								"slot": "2",
								"type": "t_string_storage"
							}
						],
						"numberOfBytes": "96"
					},
					"t_uint256": {
						"encoding": "inplace",
						"label": "uint256",
						"numberOfBytes": "32"
					}
				}
			},
			"userdoc": {
				"kind": "user",
				"methods": {},
				"version": 1
			}
		}
	}
}